{
	"contracts/Governance.sol": {
		"Governance": {
			"abi": [
				{
					"inputs": [
						{
							"internalType": "contract IERC20",
							"name": "_token",
							"type": "address"
						}
					],
					"stateMutability": "nonpayable",
					"type": "constructor"
				},
				{
					"inputs": [],
					"name": "VOTING_DURATION",
					"outputs": [
						{
							"internalType": "uint256",
							"name": "",
							"type": "uint256"
						}
					],
					"stateMutability": "view",
					"type": "function"
				},
				{
					"inputs": [
						{
							"internalType": "address",
							"name": "_to",
							"type": "address"
						},
						{
							"internalType": "uint256",
							"name": "_value",
							"type": "uint256"
						},
						{
							"internalType": "string",
							"name": "_func",
							"type": "string"
						},
						{
							"internalType": "bytes",
							"name": "_data",
							"type": "bytes"
						},
						{
							"internalType": "bytes32",
							"name": "_descriptionHash",
							"type": "bytes32"
						}
					],
					"name": "execute",
					"outputs": [
						{
							"internalType": "bytes",
							"name": "",
							"type": "bytes"
						}
					],
					"stateMutability": "nonpayable",
					"type": "function"
				},
				{
					"inputs": [
						{
							"internalType": "bytes32",
							"name": "",
							"type": "bytes32"
						}
					],
					"name": "proposalVotes",
					"outputs": [
						{
							"internalType": "uint256",
							"name": "againstVotes",
							"type": "uint256"
						},
						{
							"internalType": "uint256",
							"name": "forVotes",
							"type": "uint256"
						},
						{
							"internalType": "uint256",
							"name": "abstainVotes",
							"type": "uint256"
						}
					],
					"stateMutability": "view",
					"type": "function"
				},
				{
					"inputs": [
						{
							"internalType": "bytes32",
							"name": "",
							"type": "bytes32"
						}
					],
					"name": "proposals",
					"outputs": [
						{
							"internalType": "uint256",
							"name": "votingStarts",
							"type": "uint256"
						},
						{
							"internalType": "uint256",
							"name": "votingEnds",
							"type": "uint256"
						},
						{
							"internalType": "bool",
							"name": "executed",
							"type": "bool"
						}
					],
					"stateMutability": "view",
					"type": "function"
				},
				{
					"inputs": [
						{
							"internalType": "address",
							"name": "_to",
							"type": "address"
						},
						{
							"internalType": "uint256",
							"name": "_value",
							"type": "uint256"
						},
						{
							"internalType": "string",
							"name": "_func",
							"type": "string"
						},
						{
							"internalType": "bytes",
							"name": "_data",
							"type": "bytes"
						},
						{
							"internalType": "string",
							"name": "_description",
							"type": "string"
						}
					],
					"name": "propose",
					"outputs": [
						{
							"internalType": "bytes32",
							"name": "",
							"type": "bytes32"
						}
					],
					"stateMutability": "nonpayable",
					"type": "function"
				},
				{
					"inputs": [
						{
							"internalType": "bytes32",
							"name": "proposalId",
							"type": "bytes32"
						}
					],
					"name": "state",
					"outputs": [
						{
							"internalType": "enum Governance.ProposalState",
							"name": "",
							"type": "uint8"
						}
					],
					"stateMutability": "view",
					"type": "function"
				},
				{
					"inputs": [],
					"name": "token",
					"outputs": [
						{
							"internalType": "contract IERC20",
							"name": "",
							"type": "address"
						}
					],
					"stateMutability": "view",
					"type": "function"
				},
				{
					"inputs": [
						{
							"internalType": "bytes32",
							"name": "proposalId",
							"type": "bytes32"
						},
						{
							"internalType": "uint8",
							"name": "voteType",
							"type": "uint8"
						}
					],
					"name": "vote",
					"outputs": [],
					"stateMutability": "nonpayable",
					"type": "function"
				}
			],
			"devdoc": {
				"kind": "dev",
				"methods": {},
				"version": 1
			},
			"evm": {
				"assembly": "    /* \"contracts/Governance.sol\":88:4283  contract Governance {\r... */\n  mstore(0x40, 0x80)\n    /* \"contracts/Governance.sol\":643:703  constructor(IERC20 _token) {\r... */\n  callvalue\n  dup1\n  iszero\n  tag_1\n  jumpi\n  0x00\n  dup1\n  revert\ntag_1:\n  pop\n  mload(0x40)\n  sub(codesize, bytecodeSize)\n  dup1\n  bytecodeSize\n  dup4\n  codecopy\n  dup2\n  dup2\n  add\n  0x40\n  mstore\n  dup2\n  add\n  swap1\n  tag_2\n  swap2\n  swap1\n  tag_3\n  jump\t// in\ntag_2:\n    /* \"contracts/Governance.sol\":689:695  _token */\n  dup1\n    /* \"contracts/Governance.sol\":681:686  token */\n  0x02\n  0x00\n    /* \"contracts/Governance.sol\":681:695  token = _token */\n  0x0100\n  exp\n  dup2\n  sload\n  dup2\n  0xffffffffffffffffffffffffffffffffffffffff\n  mul\n  not\n  and\n  swap1\n  dup4\n  0xffffffffffffffffffffffffffffffffffffffff\n  and\n  mul\n  or\n  swap1\n  sstore\n  pop\n    /* \"contracts/Governance.sol\":643:703  constructor(IERC20 _token) {\r... */\n  pop\n    /* \"contracts/Governance.sol\":88:4283  contract Governance {\r... */\n  jump(tag_6)\n    /* \"#utility.yul\":7:178   */\ntag_8:\n    /* \"#utility.yul\":78:83   */\n  0x00\n    /* \"#utility.yul\":109:115   */\n  dup2\n    /* \"#utility.yul\":103:116   */\n  mload\n    /* \"#utility.yul\":94:116   */\n  swap1\n  pop\n    /* \"#utility.yul\":125:172   */\n  tag_10\n    /* \"#utility.yul\":166:171   */\n  dup2\n    /* \"#utility.yul\":125:172   */\n  tag_11\n  jump\t// in\ntag_10:\n    /* \"#utility.yul\":7:178   */\n  swap3\n  swap2\n  pop\n  pop\n  jump\t// out\n    /* \"#utility.yul\":184:563   */\ntag_3:\n    /* \"#utility.yul\":268:274   */\n  0x00\n    /* \"#utility.yul\":317:319   */\n  0x20\n    /* \"#utility.yul\":305:314   */\n  dup3\n    /* \"#utility.yul\":296:303   */\n  dup5\n    /* \"#utility.yul\":292:315   */\n  sub\n    /* \"#utility.yul\":288:320   */\n  slt\n    /* \"#utility.yul\":285:404   */\n  iszero\n  tag_13\n  jumpi\n    /* \"#utility.yul\":323:402   */\n  tag_14\n  tag_15\n  jump\t// in\ntag_14:\n    /* \"#utility.yul\":285:404   */\ntag_13:\n    /* \"#utility.yul\":443:444   */\n  0x00\n    /* \"#utility.yul\":468:546   */\n  tag_16\n    /* \"#utility.yul\":538:545   */\n  dup5\n    /* \"#utility.yul\":529:535   */\n  dup3\n    /* \"#utility.yul\":518:527   */\n  dup6\n    /* \"#utility.yul\":514:536   */\n  add\n    /* \"#utility.yul\":468:546   */\n  tag_8\n  jump\t// in\ntag_16:\n    /* \"#utility.yul\":458:546   */\n  swap2\n  pop\n    /* \"#utility.yul\":414:556   */\n  pop\n    /* \"#utility.yul\":184:563   */\n  swap3\n  swap2\n  pop\n  pop\n  jump\t// out\n    /* \"#utility.yul\":650:746   */\ntag_19:\n    /* \"#utility.yul\":687:694   */\n  0x00\n    /* \"#utility.yul\":716:740   */\n  tag_21\n    /* \"#utility.yul\":734:739   */\n  dup3\n    /* \"#utility.yul\":716:740   */\n  tag_22\n  jump\t// in\ntag_21:\n    /* \"#utility.yul\":705:740   */\n  swap1\n  pop\n    /* \"#utility.yul\":650:746   */\n  swap2\n  swap1\n  pop\n  jump\t// out\n    /* \"#utility.yul\":752:862   */\ntag_23:\n    /* \"#utility.yul\":803:810   */\n  0x00\n    /* \"#utility.yul\":832:856   */\n  tag_25\n    /* \"#utility.yul\":850:855   */\n  dup3\n    /* \"#utility.yul\":832:856   */\n  tag_19\n  jump\t// in\ntag_25:\n    /* \"#utility.yul\":821:856   */\n  swap1\n  pop\n    /* \"#utility.yul\":752:862   */\n  swap2\n  swap1\n  pop\n  jump\t// out\n    /* \"#utility.yul\":868:994   */\ntag_22:\n    /* \"#utility.yul\":905:912   */\n  0x00\n    /* \"#utility.yul\":945:987   */\n  0xffffffffffffffffffffffffffffffffffffffff\n    /* \"#utility.yul\":938:943   */\n  dup3\n    /* \"#utility.yul\":934:988   */\n  and\n    /* \"#utility.yul\":923:988   */\n  swap1\n  pop\n    /* \"#utility.yul\":868:994   */\n  swap2\n  swap1\n  pop\n  jump\t// out\n    /* \"#utility.yul\":1123:1240   */\ntag_15:\n    /* \"#utility.yul\":1232:1233   */\n  0x00\n    /* \"#utility.yul\":1229:1230   */\n  dup1\n    /* \"#utility.yul\":1222:1234   */\n  revert\n    /* \"#utility.yul\":1246:1396   */\ntag_11:\n    /* \"#utility.yul\":1333:1371   */\n  tag_31\n    /* \"#utility.yul\":1365:1370   */\n  dup2\n    /* \"#utility.yul\":1333:1371   */\n  tag_23\n  jump\t// in\ntag_31:\n    /* \"#utility.yul\":1326:1331   */\n  dup2\n    /* \"#utility.yul\":1323:1372   */\n  eq\n    /* \"#utility.yul\":1313:1390   */\n  tag_32\n  jumpi\n    /* \"#utility.yul\":1386:1387   */\n  0x00\n    /* \"#utility.yul\":1383:1384   */\n  dup1\n    /* \"#utility.yul\":1376:1388   */\n  revert\n    /* \"#utility.yul\":1313:1390   */\ntag_32:\n    /* \"#utility.yul\":1246:1396   */\n  pop\n  jump\t// out\n    /* \"contracts/Governance.sol\":88:4283  contract Governance {\r... */\ntag_6:\n  dataSize(sub_0)\n  dup1\n  dataOffset(sub_0)\n  0x00\n  codecopy\n  0x00\n  return\nstop\n\nsub_0: assembly {\n        /* \"contracts/Governance.sol\":88:4283  contract Governance {\r... */\n      mstore(0x40, 0x80)\n      callvalue\n      dup1\n      iszero\n      tag_1\n      jumpi\n      0x00\n      dup1\n      revert\n    tag_1:\n      pop\n      jumpi(tag_2, lt(calldatasize, 0x04))\n      shr(0xe0, calldataload(0x00))\n      dup1\n      0xbb0f4b15\n      gt\n      tag_11\n      jumpi\n      dup1\n      0xbb0f4b15\n      eq\n      tag_7\n      jumpi\n      dup1\n      0xc9a28cb9\n      eq\n      tag_8\n      jumpi\n      dup1\n      0xd14b85b9\n      eq\n      tag_9\n      jumpi\n      dup1\n      0xfc0c546a\n      eq\n      tag_10\n      jumpi\n      jump(tag_2)\n    tag_11:\n      dup1\n      0x32ed5b12\n      eq\n      tag_3\n      jumpi\n      dup1\n      0x61d585da\n      eq\n      tag_4\n      jumpi\n      dup1\n      0x8524c65d\n      eq\n      tag_5\n      jumpi\n      dup1\n      0xa438d208\n      eq\n      tag_6\n      jumpi\n    tag_2:\n      0x00\n      dup1\n      revert\n        /* \"contracts/Governance.sol\":453:498  mapping(bytes32 => Proposal) public proposals */\n    tag_3:\n      tag_12\n      0x04\n      dup1\n      calldatasize\n      sub\n      dup2\n      add\n      swap1\n      tag_13\n      swap2\n      swap1\n      tag_14\n      jump\t// in\n    tag_13:\n      tag_15\n      jump\t// in\n    tag_12:\n      mload(0x40)\n      tag_16\n      swap4\n      swap3\n      swap2\n      swap1\n      tag_17\n      jump\t// in\n    tag_16:\n      mload(0x40)\n      dup1\n      swap2\n      sub\n      swap1\n      return\n        /* \"contracts/Governance.sol\":3300:3948  function state(bytes32 proposalId) public view returns (ProposalState) {\r... */\n    tag_4:\n      tag_18\n      0x04\n      dup1\n      calldatasize\n      sub\n      dup2\n      add\n      swap1\n      tag_19\n      swap2\n      swap1\n      tag_14\n      jump\t// in\n    tag_19:\n      tag_20\n      jump\t// in\n    tag_18:\n      mload(0x40)\n      tag_21\n      swap2\n      swap1\n      tag_22\n      jump\t// in\n    tag_21:\n      mload(0x40)\n      dup1\n      swap2\n      sub\n      swap1\n      return\n        /* \"contracts/Governance.sol\":1032:1708  function propose(\r... */\n    tag_5:\n      tag_23\n      0x04\n      dup1\n      calldatasize\n      sub\n      dup2\n      add\n      swap1\n      tag_24\n      swap2\n      swap1\n      tag_25\n      jump\t// in\n    tag_24:\n      tag_26\n      jump\t// in\n    tag_23:\n      mload(0x40)\n      tag_27\n      swap2\n      swap1\n      tag_28\n      jump\t// in\n    tag_27:\n      mload(0x40)\n      dup1\n      swap2\n      sub\n      swap1\n      return\n        /* \"contracts/Governance.sol\":593:634  uint public constant VOTING_DURATION = 90 */\n    tag_6:\n      tag_29\n      tag_30\n      jump\t// in\n    tag_29:\n      mload(0x40)\n      tag_31\n      swap2\n      swap1\n      tag_32\n      jump\t// in\n    tag_31:\n      mload(0x40)\n      dup1\n      swap2\n      sub\n      swap1\n      return\n        /* \"contracts/Governance.sol\":1716:2628  function execute(\r... */\n    tag_7:\n      tag_33\n      0x04\n      dup1\n      calldatasize\n      sub\n      dup2\n      add\n      swap1\n      tag_34\n      swap2\n      swap1\n      tag_35\n      jump\t// in\n    tag_34:\n      tag_36\n      jump\t// in\n    tag_33:\n      mload(0x40)\n      tag_37\n      swap2\n      swap1\n      tag_38\n      jump\t// in\n    tag_37:\n      mload(0x40)\n      dup1\n      swap2\n      sub\n      swap1\n      return\n        /* \"contracts/Governance.sol\":2636:3292  function vote(bytes32 proposalId, uint8 voteType) external enoughTokens(msg.sender, 0) hasNotVoted(msg.sender, proposalId) {\r... */\n    tag_8:\n      tag_39\n      0x04\n      dup1\n      calldatasize\n      sub\n      dup2\n      add\n      swap1\n      tag_40\n      swap2\n      swap1\n      tag_41\n      jump\t// in\n    tag_40:\n      tag_42\n      jump\t// in\n    tag_39:\n      stop\n        /* \"contracts/Governance.sol\":505:558  mapping(bytes32 => ProposalVote) public proposalVotes */\n    tag_9:\n      tag_43\n      0x04\n      dup1\n      calldatasize\n      sub\n      dup2\n      add\n      swap1\n      tag_44\n      swap2\n      swap1\n      tag_14\n      jump\t// in\n    tag_44:\n      tag_45\n      jump\t// in\n    tag_43:\n      mload(0x40)\n      tag_46\n      swap4\n      swap3\n      swap2\n      swap1\n      tag_47\n      jump\t// in\n    tag_46:\n      mload(0x40)\n      dup1\n      swap2\n      sub\n      swap1\n      return\n        /* \"contracts/Governance.sol\":567:586  IERC20 public token */\n    tag_10:\n      tag_48\n      tag_49\n      jump\t// in\n    tag_48:\n      mload(0x40)\n      tag_50\n      swap2\n      swap1\n      tag_51\n      jump\t// in\n    tag_50:\n      mload(0x40)\n      dup1\n      swap2\n      sub\n      swap1\n      return\n        /* \"contracts/Governance.sol\":453:498  mapping(bytes32 => Proposal) public proposals */\n    tag_15:\n      mstore(0x20, 0x00)\n      dup1\n      0x00\n      mstore\n      keccak256(0x00, 0x40)\n      0x00\n      swap2\n      pop\n      swap1\n      pop\n      dup1\n      0x00\n      add\n      sload\n      swap1\n      dup1\n      0x01\n      add\n      sload\n      swap1\n      dup1\n      0x02\n      add\n      0x00\n      swap1\n      sload\n      swap1\n      0x0100\n      exp\n      swap1\n      div\n      0xff\n      and\n      swap1\n      pop\n      dup4\n      jump\t// out\n        /* \"contracts/Governance.sol\":3300:3948  function state(bytes32 proposalId) public view returns (ProposalState) {\r... */\n    tag_20:\n        /* \"contracts/Governance.sol\":3356:3369  ProposalState */\n      0x00\n        /* \"contracts/Governance.sol\":3382:3407  Proposal storage proposal */\n      dup1\n        /* \"contracts/Governance.sol\":3410:3419  proposals */\n      0x00\n        /* \"contracts/Governance.sol\":3410:3431  proposals[proposalId] */\n      dup1\n        /* \"contracts/Governance.sol\":3420:3430  proposalId */\n      dup5\n        /* \"contracts/Governance.sol\":3410:3431  proposals[proposalId] */\n      dup2\n      mstore\n      0x20\n      add\n      swap1\n      dup2\n      mstore\n      0x20\n      add\n      0x00\n      keccak256\n        /* \"contracts/Governance.sol\":3382:3431  Proposal storage proposal = proposals[proposalId] */\n      swap1\n      pop\n        /* \"contracts/Governance.sol\":3442:3475  ProposalVote storage proposalVote */\n      0x00\n        /* \"contracts/Governance.sol\":3478:3491  proposalVotes */\n      0x01\n        /* \"contracts/Governance.sol\":3478:3503  proposalVotes[proposalId] */\n      0x00\n        /* \"contracts/Governance.sol\":3492:3502  proposalId */\n      dup6\n        /* \"contracts/Governance.sol\":3478:3503  proposalVotes[proposalId] */\n      dup2\n      mstore\n      0x20\n      add\n      swap1\n      dup2\n      mstore\n      0x20\n      add\n      0x00\n      keccak256\n        /* \"contracts/Governance.sol\":3442:3503  ProposalVote storage proposalVote = proposalVotes[proposalId] */\n      swap1\n      pop\n        /* \"contracts/Governance.sol\":3548:3549  0 */\n      0x00\n        /* \"contracts/Governance.sol\":3524:3532  proposal */\n      dup3\n        /* \"contracts/Governance.sol\":3524:3545  proposal.votingStarts */\n      0x00\n      add\n      sload\n        /* \"contracts/Governance.sol\":3524:3549  proposal.votingStarts > 0 */\n      gt\n        /* \"contracts/Governance.sol\":3516:3576  require(proposal.votingStarts > 0, \"Proposal doesnt exist!\") */\n      tag_53\n      jumpi\n      mload(0x40)\n      0x08c379a000000000000000000000000000000000000000000000000000000000\n      dup2\n      mstore\n      0x04\n      add\n      tag_54\n      swap1\n      tag_55\n      jump\t// in\n    tag_54:\n      mload(0x40)\n      dup1\n      swap2\n      sub\n      swap1\n      revert\n    tag_53:\n        /* \"contracts/Governance.sol\":3593:3601  proposal */\n      dup2\n        /* \"contracts/Governance.sol\":3593:3610  proposal.executed */\n      0x02\n      add\n      0x00\n      swap1\n      sload\n      swap1\n      0x0100\n      exp\n      swap1\n      div\n      0xff\n      and\n        /* \"contracts/Governance.sol\":3589:3668  if (proposal.executed) {\r... */\n      iszero\n      tag_56\n      jumpi\n        /* \"contracts/Governance.sol\":3634:3656  ProposalState.Executed */\n      0x03\n        /* \"contracts/Governance.sol\":3627:3656  return ProposalState.Executed */\n      swap3\n      pop\n      pop\n      pop\n      jump(tag_52)\n        /* \"contracts/Governance.sol\":3589:3668  if (proposal.executed) {\r... */\n    tag_56:\n        /* \"contracts/Governance.sol\":3701:3709  proposal */\n      dup2\n        /* \"contracts/Governance.sol\":3701:3720  proposal.votingEnds */\n      0x01\n      add\n      sload\n        /* \"contracts/Governance.sol\":3683:3698  block.timestamp */\n      timestamp\n        /* \"contracts/Governance.sol\":3683:3720  block.timestamp < proposal.votingEnds */\n      lt\n        /* \"contracts/Governance.sol\":3680:3776  if(block.timestamp < proposal.votingEnds) {\r... */\n      iszero\n      tag_57\n      jumpi\n        /* \"contracts/Governance.sol\":3744:3764  ProposalState.Active */\n      0x00\n        /* \"contracts/Governance.sol\":3737:3764  return ProposalState.Active */\n      swap3\n      pop\n      pop\n      pop\n      jump(tag_52)\n        /* \"contracts/Governance.sol\":3680:3776  if(block.timestamp < proposal.votingEnds) {\r... */\n    tag_57:\n        /* \"contracts/Governance.sol\":3815:3827  proposalVote */\n      dup1\n        /* \"contracts/Governance.sol\":3815:3840  proposalVote.againstVotes */\n      0x00\n      add\n      sload\n        /* \"contracts/Governance.sol\":3791:3803  proposalVote */\n      dup2\n        /* \"contracts/Governance.sol\":3791:3812  proposalVote.forVotes */\n      0x01\n      add\n      sload\n        /* \"contracts/Governance.sol\":3791:3840  proposalVote.forVotes > proposalVote.againstVotes */\n      gt\n        /* \"contracts/Governance.sol\":3788:3899  if(proposalVote.forVotes > proposalVote.againstVotes) {\r... */\n      iszero\n      tag_58\n      jumpi\n        /* \"contracts/Governance.sol\":3864:3887  ProposalState.Succeeded */\n      0x01\n        /* \"contracts/Governance.sol\":3857:3887  return ProposalState.Succeeded */\n      swap3\n      pop\n      pop\n      pop\n      jump(tag_52)\n        /* \"contracts/Governance.sol\":3788:3899  if(proposalVote.forVotes > proposalVote.againstVotes) {\r... */\n    tag_58:\n        /* \"contracts/Governance.sol\":3918:3940  ProposalState.Defeated */\n      0x02\n        /* \"contracts/Governance.sol\":3911:3940  return ProposalState.Defeated */\n      swap3\n      pop\n      pop\n      pop\n        /* \"contracts/Governance.sol\":3300:3948  function state(bytes32 proposalId) public view returns (ProposalState) {\r... */\n    tag_52:\n      swap2\n      swap1\n      pop\n      jump\t// out\n        /* \"contracts/Governance.sol\":1032:1708  function propose(\r... */\n    tag_26:\n        /* \"contracts/Governance.sol\":1247:1254  bytes32 */\n      0x00\n        /* \"contracts/Governance.sol\":1224:1234  msg.sender */\n      caller\n        /* \"contracts/Governance.sol\":1236:1237  0 */\n      0x00\n        /* \"contracts/Governance.sol\":806:813  _amount */\n      dup1\n        /* \"contracts/Governance.sol\":781:786  token */\n      0x02\n      0x00\n      swap1\n      sload\n      swap1\n      0x0100\n      exp\n      swap1\n      div\n      0xffffffffffffffffffffffffffffffffffffffff\n      and\n        /* \"contracts/Governance.sol\":781:796  token.balanceOf */\n      0xffffffffffffffffffffffffffffffffffffffff\n      and\n      0x70a08231\n        /* \"contracts/Governance.sol\":797:802  _from */\n      dup5\n        /* \"contracts/Governance.sol\":781:803  token.balanceOf(_from) */\n      mload(0x40)\n      dup3\n      0xffffffff\n      and\n      0xe0\n      shl\n      dup2\n      mstore\n      0x04\n      add\n      tag_60\n      swap2\n      swap1\n      tag_61\n      jump\t// in\n    tag_60:\n      0x20\n      mload(0x40)\n      dup1\n      dup4\n      sub\n      dup2\n      dup7\n      dup1\n      extcodesize\n      iszero\n      dup1\n      iszero\n      tag_62\n      jumpi\n      0x00\n      dup1\n      revert\n    tag_62:\n      pop\n      gas\n      staticcall\n      iszero\n      dup1\n      iszero\n      tag_64\n      jumpi\n      returndatasize\n      0x00\n      dup1\n      returndatacopy\n      revert(0x00, returndatasize)\n    tag_64:\n      pop\n      pop\n      pop\n      pop\n      mload(0x40)\n      returndatasize\n      not(0x1f)\n      0x1f\n      dup3\n      add\n      and\n      dup3\n      add\n      dup1\n      0x40\n      mstore\n      pop\n      dup2\n      add\n      swap1\n      tag_65\n      swap2\n      swap1\n      tag_66\n      jump\t// in\n    tag_65:\n        /* \"contracts/Governance.sol\":781:813  token.balanceOf(_from) < _amount */\n      lt\n        /* \"contracts/Governance.sol\":773:836  require(token.balanceOf(_from) < _amount, \"Not enough tokens!\") */\n      tag_67\n      jumpi\n      mload(0x40)\n      0x08c379a000000000000000000000000000000000000000000000000000000000\n      dup2\n      mstore\n      0x04\n      add\n      tag_68\n      swap1\n      tag_69\n      jump\t// in\n    tag_68:\n      mload(0x40)\n      dup1\n      swap2\n      sub\n      swap1\n      revert\n    tag_67:\n        /* \"contracts/Governance.sol\":1267:1285  bytes32 proposalId */\n      0x00\n        /* \"contracts/Governance.sol\":1288:1389  generateProposalId(\r... */\n      tag_71\n        /* \"contracts/Governance.sol\":1321:1324  _to */\n      dup13\n        /* \"contracts/Governance.sol\":1326:1332  _value */\n      dup13\n        /* \"contracts/Governance.sol\":1334:1339  _func */\n      dup13\n      dup13\n        /* \"contracts/Governance.sol\":1341:1346  _data */\n      dup13\n      dup13\n        /* \"contracts/Governance.sol\":1364:1376  _description */\n      dup13\n      dup13\n        /* \"contracts/Governance.sol\":1348:1378  keccak256(bytes(_description)) */\n      mload(0x40)\n      tag_72\n      swap3\n      swap2\n      swap1\n      tag_73\n      jump\t// in\n    tag_72:\n      mload(0x40)\n      dup1\n      swap2\n      sub\n      swap1\n      keccak256\n        /* \"contracts/Governance.sol\":1288:1306  generateProposalId */\n      tag_74\n        /* \"contracts/Governance.sol\":1288:1389  generateProposalId(\r... */\n      jump\t// in\n    tag_71:\n        /* \"contracts/Governance.sol\":1267:1389  bytes32 proposalId = generateProposalId(\r... */\n      swap1\n      pop\n        /* \"contracts/Governance.sol\":1448:1449  0 */\n      0x00\n        /* \"contracts/Governance.sol\":1410:1419  proposals */\n      dup1\n        /* \"contracts/Governance.sol\":1410:1431  proposals[proposalId] */\n      0x00\n        /* \"contracts/Governance.sol\":1420:1430  proposalId */\n      dup4\n        /* \"contracts/Governance.sol\":1410:1431  proposals[proposalId] */\n      dup2\n      mstore\n      0x20\n      add\n      swap1\n      dup2\n      mstore\n      0x20\n      add\n      0x00\n      keccak256\n        /* \"contracts/Governance.sol\":1410:1444  proposals[proposalId].votingStarts */\n      0x00\n      add\n      sload\n        /* \"contracts/Governance.sol\":1410:1449  proposals[proposalId].votingStarts == 0 */\n      eq\n        /* \"contracts/Governance.sol\":1402:1478  require(proposals[proposalId].votingStarts == 0, \"Proposal already exists.\") */\n      tag_75\n      jumpi\n      mload(0x40)\n      0x08c379a000000000000000000000000000000000000000000000000000000000\n      dup2\n      mstore\n      0x04\n      add\n      tag_76\n      swap1\n      tag_77\n      jump\t// in\n    tag_76:\n      mload(0x40)\n      dup1\n      swap2\n      sub\n      swap1\n      revert\n    tag_75:\n        /* \"contracts/Governance.sol\":1515:1670  Proposal({\r... */\n      mload(0x40)\n      dup1\n      0x60\n      add\n      0x40\n      mstore\n      dup1\n        /* \"contracts/Governance.sol\":1553:1568  block.timestamp */\n      timestamp\n        /* \"contracts/Governance.sol\":1515:1670  Proposal({\r... */\n      dup2\n      mstore\n      0x20\n      add\n        /* \"contracts/Governance.sol\":632:634  90 */\n      0x5a\n        /* \"contracts/Governance.sol\":1595:1610  block.timestamp */\n      timestamp\n        /* \"contracts/Governance.sol\":1595:1628  block.timestamp + VOTING_DURATION */\n      tag_78\n      swap2\n      swap1\n      tag_79\n      jump\t// in\n    tag_78:\n        /* \"contracts/Governance.sol\":1515:1670  Proposal({\r... */\n      dup2\n      mstore\n      0x20\n      add\n        /* \"contracts/Governance.sol\":1653:1658  false */\n      0x00\n        /* \"contracts/Governance.sol\":1515:1670  Proposal({\r... */\n      iszero\n      iszero\n      dup2\n      mstore\n      pop\n        /* \"contracts/Governance.sol\":1491:1500  proposals */\n      0x00\n        /* \"contracts/Governance.sol\":1491:1512  proposals[proposalId] */\n      dup1\n        /* \"contracts/Governance.sol\":1501:1511  proposalId */\n      dup4\n        /* \"contracts/Governance.sol\":1491:1512  proposals[proposalId] */\n      dup2\n      mstore\n      0x20\n      add\n      swap1\n      dup2\n      mstore\n      0x20\n      add\n      0x00\n      keccak256\n        /* \"contracts/Governance.sol\":1491:1670  proposals[proposalId] = Proposal({\r... */\n      0x00\n      dup3\n      add\n      mload\n      dup2\n      0x00\n      add\n      sstore\n      0x20\n      dup3\n      add\n      mload\n      dup2\n      0x01\n      add\n      sstore\n      0x40\n      dup3\n      add\n      mload\n      dup2\n      0x02\n      add\n      exp(0x0100, 0x00)\n      dup2\n      sload\n      dup2\n      0xff\n      mul\n      not\n      and\n      swap1\n      dup4\n      iszero\n      iszero\n      mul\n      or\n      swap1\n      sstore\n      pop\n      swap1\n      pop\n      pop\n        /* \"contracts/Governance.sol\":1690:1700  proposalId */\n      dup1\n        /* \"contracts/Governance.sol\":1683:1700  return proposalId */\n      swap4\n      pop\n      pop\n        /* \"contracts/Governance.sol\":1032:1708  function propose(\r... */\n      pop\n      pop\n      swap9\n      swap8\n      pop\n      pop\n      pop\n      pop\n      pop\n      pop\n      pop\n      pop\n      jump\t// out\n        /* \"contracts/Governance.sol\":593:634  uint public constant VOTING_DURATION = 90 */\n    tag_30:\n        /* \"contracts/Governance.sol\":632:634  90 */\n      0x5a\n        /* \"contracts/Governance.sol\":593:634  uint public constant VOTING_DURATION = 90 */\n      dup2\n      jump\t// out\n        /* \"contracts/Governance.sol\":1716:2628  function execute(\r... */\n    tag_36:\n        /* \"contracts/Governance.sol\":1899:1911  bytes memory */\n      0x60\n        /* \"contracts/Governance.sol\":1924:1942  bytes32 proposalId */\n      0x00\n        /* \"contracts/Governance.sol\":1945:2032  generateProposalId(\r... */\n      tag_81\n        /* \"contracts/Governance.sol\":1978:1981  _to */\n      dup10\n        /* \"contracts/Governance.sol\":1983:1989  _value */\n      dup10\n        /* \"contracts/Governance.sol\":1991:1996  _func */\n      dup10\n      dup10\n        /* \"contracts/Governance.sol\":1998:2003  _data */\n      dup10\n      dup10\n        /* \"contracts/Governance.sol\":2005:2021  _descriptionHash */\n      dup10\n        /* \"contracts/Governance.sol\":1945:1963  generateProposalId */\n      tag_74\n        /* \"contracts/Governance.sol\":1945:2032  generateProposalId(\r... */\n      jump\t// in\n    tag_81:\n        /* \"contracts/Governance.sol\":1924:2032  bytes32 proposalId = generateProposalId(\r... */\n      swap1\n      pop\n        /* \"contracts/Governance.sol\":2074:2097  ProposalState.Succeeded */\n      0x01\n        /* \"contracts/Governance.sol\":2053:2097  state(proposalId) == ProposalState.Succeeded */\n      0x03\n      dup2\n      gt\n      iszero\n      tag_82\n      jumpi\n      tag_83\n      tag_84\n      jump\t// in\n    tag_83:\n    tag_82:\n        /* \"contracts/Governance.sol\":2053:2070  state(proposalId) */\n      tag_85\n        /* \"contracts/Governance.sol\":2059:2069  proposalId */\n      dup3\n        /* \"contracts/Governance.sol\":2053:2058  state */\n      tag_20\n        /* \"contracts/Governance.sol\":2053:2070  state(proposalId) */\n      jump\t// in\n    tag_85:\n        /* \"contracts/Governance.sol\":2053:2097  state(proposalId) == ProposalState.Succeeded */\n      0x03\n      dup2\n      gt\n      iszero\n      tag_86\n      jumpi\n      tag_87\n      tag_84\n      jump\t// in\n    tag_87:\n    tag_86:\n      eq\n        /* \"contracts/Governance.sol\":2045:2123  require(state(proposalId) == ProposalState.Succeeded, \"Invalid voting state.\") */\n      tag_88\n      jumpi\n      mload(0x40)\n      0x08c379a000000000000000000000000000000000000000000000000000000000\n      dup2\n      mstore\n      0x04\n      add\n      tag_89\n      swap1\n      tag_90\n      jump\t// in\n    tag_89:\n      mload(0x40)\n      dup1\n      swap2\n      sub\n      swap1\n      revert\n    tag_88:\n        /* \"contracts/Governance.sol\":2136:2161  Proposal storage proposal */\n      0x00\n        /* \"contracts/Governance.sol\":2164:2173  proposals */\n      dup1\n        /* \"contracts/Governance.sol\":2164:2185  proposals[proposalId] */\n      0x00\n        /* \"contracts/Governance.sol\":2174:2184  proposalId */\n      dup4\n        /* \"contracts/Governance.sol\":2164:2185  proposals[proposalId] */\n      dup2\n      mstore\n      0x20\n      add\n      swap1\n      dup2\n      mstore\n      0x20\n      add\n      0x00\n      keccak256\n        /* \"contracts/Governance.sol\":2136:2185  Proposal storage proposal = proposals[proposalId] */\n      swap1\n      pop\n        /* \"contracts/Governance.sol\":2218:2222  true */\n      0x01\n        /* \"contracts/Governance.sol\":2198:2206  proposal */\n      dup2\n        /* \"contracts/Governance.sol\":2198:2215  proposal.executed */\n      0x02\n      add\n      0x00\n        /* \"contracts/Governance.sol\":2198:2222  proposal.executed = true */\n      0x0100\n      exp\n      dup2\n      sload\n      dup2\n      0xff\n      mul\n      not\n      and\n      swap1\n      dup4\n      iszero\n      iszero\n      mul\n      or\n      swap1\n      sstore\n      pop\n        /* \"contracts/Governance.sol\":2245:2262  bytes memory data */\n      0x60\n        /* \"contracts/Governance.sol\":2299:2300  0 */\n      0x00\n        /* \"contracts/Governance.sol\":2283:2288  _func */\n      dup10\n      dup10\n        /* \"contracts/Governance.sol\":2277:2296  bytes(_func).length */\n      swap1\n      pop\n        /* \"contracts/Governance.sol\":2277:2300  bytes(_func).length > 0 */\n      gt\n        /* \"contracts/Governance.sol\":2273:2469  if (bytes(_func).length > 0) {\r... */\n      iszero\n      tag_91\n      jumpi\n        /* \"contracts/Governance.sol\":2382:2387  _func */\n      dup9\n      dup9\n        /* \"contracts/Governance.sol\":2366:2389  keccak256(bytes(_func)) */\n      mload(0x40)\n      tag_92\n      swap3\n      swap2\n      swap1\n      tag_73\n      jump\t// in\n    tag_92:\n      mload(0x40)\n      dup1\n      swap2\n      sub\n      swap1\n      keccak256\n        /* \"contracts/Governance.sol\":2392:2397  _data */\n      dup8\n      dup8\n        /* \"contracts/Governance.sol\":2324:2412  abi.encodePacked(\r... */\n      add(0x20, mload(0x40))\n      tag_93\n      swap4\n      swap3\n      swap2\n      swap1\n      tag_94\n      jump\t// in\n    tag_93:\n      mload(0x40)\n      0x20\n      dup2\n      dup4\n      sub\n      sub\n      dup2\n      mstore\n      swap1\n      0x40\n      mstore\n        /* \"contracts/Governance.sol\":2317:2412  data = abi.encodePacked(\r... */\n      swap1\n      pop\n        /* \"contracts/Governance.sol\":2273:2469  if (bytes(_func).length > 0) {\r... */\n      jump(tag_95)\n    tag_91:\n        /* \"contracts/Governance.sol\":2452:2457  _data */\n      dup7\n      dup7\n        /* \"contracts/Governance.sol\":2445:2457  data = _data */\n      dup1\n      dup1\n      0x1f\n      add\n      0x20\n      dup1\n      swap2\n      div\n      mul\n      0x20\n      add\n      mload(0x40)\n      swap1\n      dup2\n      add\n      0x40\n      mstore\n      dup1\n      swap4\n      swap3\n      swap2\n      swap1\n      dup2\n      dup2\n      mstore\n      0x20\n      add\n      dup4\n      dup4\n      dup1\n      dup3\n      dup5\n      calldatacopy\n      0x00\n      dup2\n      dup5\n      add\n      mstore\n      not(0x1f)\n      0x1f\n      dup3\n      add\n      and\n      swap1\n      pop\n      dup1\n      dup4\n      add\n      swap3\n      pop\n      pop\n      pop\n      pop\n      pop\n      pop\n      pop\n      swap1\n      pop\n        /* \"contracts/Governance.sol\":2273:2469  if (bytes(_func).length > 0) {\r... */\n    tag_95:\n        /* \"contracts/Governance.sol\":2482:2494  bool success */\n      0x00\n        /* \"contracts/Governance.sol\":2496:2513  bytes memory resp */\n      dup1\n        /* \"contracts/Governance.sol\":2517:2520  _to */\n      dup13\n        /* \"contracts/Governance.sol\":2517:2525  _to.call */\n      0xffffffffffffffffffffffffffffffffffffffff\n      and\n        /* \"contracts/Governance.sol\":2533:2539  _value */\n      dup13\n        /* \"contracts/Governance.sol\":2541:2545  data */\n      dup5\n        /* \"contracts/Governance.sol\":2517:2546  _to.call{value: _value}(data) */\n      mload(0x40)\n      tag_96\n      swap2\n      swap1\n      tag_97\n      jump\t// in\n    tag_96:\n      0x00\n      mload(0x40)\n      dup1\n      dup4\n      sub\n      dup2\n      dup6\n      dup8\n      gas\n      call\n      swap3\n      pop\n      pop\n      pop\n      returndatasize\n      dup1\n      0x00\n      dup2\n      eq\n      tag_100\n      jumpi\n      mload(0x40)\n      swap2\n      pop\n      and(add(returndatasize, 0x3f), not(0x1f))\n      dup3\n      add\n      0x40\n      mstore\n      returndatasize\n      dup3\n      mstore\n      returndatasize\n      0x00\n      0x20\n      dup5\n      add\n      returndatacopy\n      jump(tag_99)\n    tag_100:\n      0x60\n      swap2\n      pop\n    tag_99:\n      pop\n        /* \"contracts/Governance.sol\":2481:2546  (bool success, bytes memory resp) = _to.call{value: _value}(data) */\n      swap2\n      pop\n      swap2\n      pop\n        /* \"contracts/Governance.sol\":2565:2572  success */\n      dup2\n        /* \"contracts/Governance.sol\":2557:2596  require(success, \"Transaction failed.\") */\n      tag_101\n      jumpi\n      mload(0x40)\n      0x08c379a000000000000000000000000000000000000000000000000000000000\n      dup2\n      mstore\n      0x04\n      add\n      tag_102\n      swap1\n      tag_103\n      jump\t// in\n    tag_102:\n      mload(0x40)\n      dup1\n      swap2\n      sub\n      swap1\n      revert\n    tag_101:\n        /* \"contracts/Governance.sol\":2616:2620  resp */\n      dup1\n        /* \"contracts/Governance.sol\":2609:2620  return resp */\n      swap6\n      pop\n      pop\n      pop\n      pop\n      pop\n      pop\n        /* \"contracts/Governance.sol\":1716:2628  function execute(\r... */\n      swap8\n      swap7\n      pop\n      pop\n      pop\n      pop\n      pop\n      pop\n      pop\n      jump\t// out\n        /* \"contracts/Governance.sol\":2636:3292  function vote(bytes32 proposalId, uint8 voteType) external enoughTokens(msg.sender, 0) hasNotVoted(msg.sender, proposalId) {\r... */\n    tag_42:\n        /* \"contracts/Governance.sol\":2708:2718  msg.sender */\n      caller\n        /* \"contracts/Governance.sol\":2720:2721  0 */\n      0x00\n        /* \"contracts/Governance.sol\":806:813  _amount */\n      dup1\n        /* \"contracts/Governance.sol\":781:786  token */\n      0x02\n      0x00\n      swap1\n      sload\n      swap1\n      0x0100\n      exp\n      swap1\n      div\n      0xffffffffffffffffffffffffffffffffffffffff\n      and\n        /* \"contracts/Governance.sol\":781:796  token.balanceOf */\n      0xffffffffffffffffffffffffffffffffffffffff\n      and\n      0x70a08231\n        /* \"contracts/Governance.sol\":797:802  _from */\n      dup5\n        /* \"contracts/Governance.sol\":781:803  token.balanceOf(_from) */\n      mload(0x40)\n      dup3\n      0xffffffff\n      and\n      0xe0\n      shl\n      dup2\n      mstore\n      0x04\n      add\n      tag_105\n      swap2\n      swap1\n      tag_61\n      jump\t// in\n    tag_105:\n      0x20\n      mload(0x40)\n      dup1\n      dup4\n      sub\n      dup2\n      dup7\n      dup1\n      extcodesize\n      iszero\n      dup1\n      iszero\n      tag_106\n      jumpi\n      0x00\n      dup1\n      revert\n    tag_106:\n      pop\n      gas\n      staticcall\n      iszero\n      dup1\n      iszero\n      tag_108\n      jumpi\n      returndatasize\n      0x00\n      dup1\n      returndatacopy\n      revert(0x00, returndatasize)\n    tag_108:\n      pop\n      pop\n      pop\n      pop\n      mload(0x40)\n      returndatasize\n      not(0x1f)\n      0x1f\n      dup3\n      add\n      and\n      dup3\n      add\n      dup1\n      0x40\n      mstore\n      pop\n      dup2\n      add\n      swap1\n      tag_109\n      swap2\n      swap1\n      tag_66\n      jump\t// in\n    tag_109:\n        /* \"contracts/Governance.sol\":781:813  token.balanceOf(_from) < _amount */\n      lt\n        /* \"contracts/Governance.sol\":773:836  require(token.balanceOf(_from) < _amount, \"Not enough tokens!\") */\n      tag_110\n      jumpi\n      mload(0x40)\n      0x08c379a000000000000000000000000000000000000000000000000000000000\n      dup2\n      mstore\n      0x04\n      add\n      tag_111\n      swap1\n      tag_69\n      jump\t// in\n    tag_111:\n      mload(0x40)\n      dup1\n      swap2\n      sub\n      swap1\n      revert\n    tag_110:\n        /* \"contracts/Governance.sol\":2735:2745  msg.sender */\n      caller\n        /* \"contracts/Governance.sol\":2747:2757  proposalId */\n      dup5\n        /* \"contracts/Governance.sol\":940:953  proposalVotes */\n      0x01\n        /* \"contracts/Governance.sol\":940:965  proposalVotes[proposalId] */\n      0x00\n        /* \"contracts/Governance.sol\":954:964  proposalId */\n      dup3\n        /* \"contracts/Governance.sol\":940:965  proposalVotes[proposalId] */\n      dup2\n      mstore\n      0x20\n      add\n      swap1\n      dup2\n      mstore\n      0x20\n      add\n      0x00\n      keccak256\n        /* \"contracts/Governance.sol\":940:974  proposalVotes[proposalId].hasVoted */\n      0x03\n      add\n        /* \"contracts/Governance.sol\":940:981  proposalVotes[proposalId].hasVoted[_from] */\n      0x00\n        /* \"contracts/Governance.sol\":975:980  _from */\n      dup4\n        /* \"contracts/Governance.sol\":940:981  proposalVotes[proposalId].hasVoted[_from] */\n      0xffffffffffffffffffffffffffffffffffffffff\n      and\n      0xffffffffffffffffffffffffffffffffffffffff\n      and\n      dup2\n      mstore\n      0x20\n      add\n      swap1\n      dup2\n      mstore\n      0x20\n      add\n      0x00\n      keccak256\n      0x00\n      swap1\n      sload\n      swap1\n      0x0100\n      exp\n      swap1\n      div\n      0xff\n      and\n        /* \"contracts/Governance.sol\":939:981  !proposalVotes[proposalId].hasVoted[_from] */\n      iszero\n        /* \"contracts/Governance.sol\":931:1004  require(!proposalVotes[proposalId].hasVoted[_from], \"You already voted!\") */\n      tag_113\n      jumpi\n      mload(0x40)\n      0x08c379a000000000000000000000000000000000000000000000000000000000\n      dup2\n      mstore\n      0x04\n      add\n      tag_114\n      swap1\n      tag_115\n      jump\t// in\n    tag_114:\n      mload(0x40)\n      dup1\n      swap2\n      sub\n      swap1\n      revert\n    tag_113:\n        /* \"contracts/Governance.sol\":2799:2819  ProposalState.Active */\n      0x00\n        /* \"contracts/Governance.sol\":2778:2819  state(proposalId) == ProposalState.Active */\n      0x03\n      dup2\n      gt\n      iszero\n      tag_117\n      jumpi\n      tag_118\n      tag_84\n      jump\t// in\n    tag_118:\n    tag_117:\n        /* \"contracts/Governance.sol\":2778:2795  state(proposalId) */\n      tag_119\n        /* \"contracts/Governance.sol\":2784:2794  proposalId */\n      dup8\n        /* \"contracts/Governance.sol\":2778:2783  state */\n      tag_20\n        /* \"contracts/Governance.sol\":2778:2795  state(proposalId) */\n      jump\t// in\n    tag_119:\n        /* \"contracts/Governance.sol\":2778:2819  state(proposalId) == ProposalState.Active */\n      0x03\n      dup2\n      gt\n      iszero\n      tag_120\n      jumpi\n      tag_121\n      tag_84\n      jump\t// in\n    tag_121:\n    tag_120:\n      eq\n        /* \"contracts/Governance.sol\":2770:2845  require(state(proposalId) == ProposalState.Active, \"Invalid voting state.\") */\n      tag_122\n      jumpi\n      mload(0x40)\n      0x08c379a000000000000000000000000000000000000000000000000000000000\n      dup2\n      mstore\n      0x04\n      add\n      tag_123\n      swap1\n      tag_90\n      jump\t// in\n    tag_123:\n      mload(0x40)\n      dup1\n      swap2\n      sub\n      swap1\n      revert\n    tag_122:\n        /* \"contracts/Governance.sol\":2856:2872  uint votingPower */\n      0x00\n        /* \"contracts/Governance.sol\":2875:2880  token */\n      0x02\n      0x00\n      swap1\n      sload\n      swap1\n      0x0100\n      exp\n      swap1\n      div\n      0xffffffffffffffffffffffffffffffffffffffff\n      and\n        /* \"contracts/Governance.sol\":2875:2890  token.balanceOf */\n      0xffffffffffffffffffffffffffffffffffffffff\n      and\n      0x70a08231\n        /* \"contracts/Governance.sol\":2891:2901  msg.sender */\n      caller\n        /* \"contracts/Governance.sol\":2875:2902  token.balanceOf(msg.sender) */\n      mload(0x40)\n      dup3\n      0xffffffff\n      and\n      0xe0\n      shl\n      dup2\n      mstore\n      0x04\n      add\n      tag_124\n      swap2\n      swap1\n      tag_61\n      jump\t// in\n    tag_124:\n      0x20\n      mload(0x40)\n      dup1\n      dup4\n      sub\n      dup2\n      dup7\n      dup1\n      extcodesize\n      iszero\n      dup1\n      iszero\n      tag_125\n      jumpi\n      0x00\n      dup1\n      revert\n    tag_125:\n      pop\n      gas\n      staticcall\n      iszero\n      dup1\n      iszero\n      tag_127\n      jumpi\n      returndatasize\n      0x00\n      dup1\n      returndatacopy\n      revert(0x00, returndatasize)\n    tag_127:\n      pop\n      pop\n      pop\n      pop\n      mload(0x40)\n      returndatasize\n      not(0x1f)\n      0x1f\n      dup3\n      add\n      and\n      dup3\n      add\n      dup1\n      0x40\n      mstore\n      pop\n      dup2\n      add\n      swap1\n      tag_128\n      swap2\n      swap1\n      tag_66\n      jump\t// in\n    tag_128:\n        /* \"contracts/Governance.sol\":2856:2902  uint votingPower = token.balanceOf(msg.sender) */\n      swap1\n      pop\n        /* \"contracts/Governance.sol\":2913:2946  ProposalVote storage proposalVote */\n      0x00\n        /* \"contracts/Governance.sol\":2949:2962  proposalVotes */\n      0x01\n        /* \"contracts/Governance.sol\":2949:2974  proposalVotes[proposalId] */\n      0x00\n        /* \"contracts/Governance.sol\":2963:2973  proposalId */\n      dup10\n        /* \"contracts/Governance.sol\":2949:2974  proposalVotes[proposalId] */\n      dup2\n      mstore\n      0x20\n      add\n      swap1\n      dup2\n      mstore\n      0x20\n      add\n      0x00\n      keccak256\n        /* \"contracts/Governance.sol\":2913:2974  ProposalVote storage proposalVote = proposalVotes[proposalId] */\n      swap1\n      pop\n        /* \"contracts/Governance.sol\":3002:3003  0 */\n      0x00\n        /* \"contracts/Governance.sol\":2990:2998  voteType */\n      dup8\n        /* \"contracts/Governance.sol\":2990:3003  voteType == 0 */\n      0xff\n      and\n      eq\n        /* \"contracts/Governance.sol\":2987:3232  if(voteType == 0) {\r... */\n      iszero\n      tag_129\n      jumpi\n        /* \"contracts/Governance.sol\":3049:3060  votingPower */\n      dup2\n        /* \"contracts/Governance.sol\":3020:3032  proposalVote */\n      dup2\n        /* \"contracts/Governance.sol\":3020:3045  proposalVote.againstVotes */\n      0x00\n      add\n      0x00\n        /* \"contracts/Governance.sol\":3020:3060  proposalVote.againstVotes += votingPower */\n      dup3\n      dup3\n      sload\n      tag_130\n      swap2\n      swap1\n      tag_79\n      jump\t// in\n    tag_130:\n      swap3\n      pop\n      pop\n      dup2\n      swap1\n      sstore\n      pop\n        /* \"contracts/Governance.sol\":2987:3232  if(voteType == 0) {\r... */\n      jump(tag_131)\n    tag_129:\n        /* \"contracts/Governance.sol\":3093:3094  1 */\n      0x01\n        /* \"contracts/Governance.sol\":3081:3089  voteType */\n      dup8\n        /* \"contracts/Governance.sol\":3081:3094  voteType == 1 */\n      0xff\n      and\n      eq\n        /* \"contracts/Governance.sol\":3078:3232  if(voteType == 1) {\r... */\n      iszero\n      tag_132\n      jumpi\n        /* \"contracts/Governance.sol\":3136:3147  votingPower */\n      dup2\n        /* \"contracts/Governance.sol\":3111:3123  proposalVote */\n      dup2\n        /* \"contracts/Governance.sol\":3111:3132  proposalVote.forVotes */\n      0x01\n      add\n      0x00\n        /* \"contracts/Governance.sol\":3111:3147  proposalVote.forVotes += votingPower */\n      dup3\n      dup3\n      sload\n      tag_133\n      swap2\n      swap1\n      tag_79\n      jump\t// in\n    tag_133:\n      swap3\n      pop\n      pop\n      dup2\n      swap1\n      sstore\n      pop\n        /* \"contracts/Governance.sol\":3078:3232  if(voteType == 1) {\r... */\n      jump(tag_134)\n    tag_132:\n        /* \"contracts/Governance.sol\":3209:3220  votingPower */\n      dup2\n        /* \"contracts/Governance.sol\":3180:3192  proposalVote */\n      dup2\n        /* \"contracts/Governance.sol\":3180:3205  proposalVote.abstainVotes */\n      0x02\n      add\n      0x00\n        /* \"contracts/Governance.sol\":3180:3220  proposalVote.abstainVotes += votingPower */\n      dup3\n      dup3\n      sload\n      tag_135\n      swap2\n      swap1\n      tag_79\n      jump\t// in\n    tag_135:\n      swap3\n      pop\n      pop\n      dup2\n      swap1\n      sstore\n      pop\n        /* \"contracts/Governance.sol\":3078:3232  if(voteType == 1) {\r... */\n    tag_134:\n        /* \"contracts/Governance.sol\":2987:3232  if(voteType == 0) {\r... */\n    tag_131:\n        /* \"contracts/Governance.sol\":3280:3284  true */\n      0x01\n        /* \"contracts/Governance.sol\":3244:3256  proposalVote */\n      dup2\n        /* \"contracts/Governance.sol\":3244:3265  proposalVote.hasVoted */\n      0x03\n      add\n        /* \"contracts/Governance.sol\":3244:3277  proposalVote.hasVoted[msg.sender] */\n      0x00\n        /* \"contracts/Governance.sol\":3266:3276  msg.sender */\n      caller\n        /* \"contracts/Governance.sol\":3244:3277  proposalVote.hasVoted[msg.sender] */\n      0xffffffffffffffffffffffffffffffffffffffff\n      and\n      0xffffffffffffffffffffffffffffffffffffffff\n      and\n      dup2\n      mstore\n      0x20\n      add\n      swap1\n      dup2\n      mstore\n      0x20\n      add\n      0x00\n      keccak256\n      0x00\n        /* \"contracts/Governance.sol\":3244:3284  proposalVote.hasVoted[msg.sender] = true */\n      0x0100\n      exp\n      dup2\n      sload\n      dup2\n      0xff\n      mul\n      not\n      and\n      swap1\n      dup4\n      iszero\n      iszero\n      mul\n      or\n      swap1\n      sstore\n      pop\n        /* \"contracts/Governance.sol\":2759:3292  {\r... */\n      pop\n      pop\n        /* \"contracts/Governance.sol\":847:848  _ */\n      pop\n      pop\n        /* \"contracts/Governance.sol\":2636:3292  function vote(bytes32 proposalId, uint8 voteType) external enoughTokens(msg.sender, 0) hasNotVoted(msg.sender, proposalId) {\r... */\n      pop\n      pop\n      pop\n      pop\n      jump\t// out\n        /* \"contracts/Governance.sol\":505:558  mapping(bytes32 => ProposalVote) public proposalVotes */\n    tag_45:\n      mstore(0x20, 0x01)\n      dup1\n      0x00\n      mstore\n      keccak256(0x00, 0x40)\n      0x00\n      swap2\n      pop\n      swap1\n      pop\n      dup1\n      0x00\n      add\n      sload\n      swap1\n      dup1\n      0x01\n      add\n      sload\n      swap1\n      dup1\n      0x02\n      add\n      sload\n      swap1\n      pop\n      dup4\n      jump\t// out\n        /* \"contracts/Governance.sol\":567:586  IERC20 public token */\n    tag_49:\n      0x02\n      0x00\n      swap1\n      sload\n      swap1\n      0x0100\n      exp\n      swap1\n      div\n      0xffffffffffffffffffffffffffffffffffffffff\n      and\n      dup2\n      jump\t// out\n        /* \"contracts/Governance.sol\":3956:4280  function generateProposalId(\r... */\n    tag_74:\n        /* \"contracts/Governance.sol\":4155:4162  bytes32 */\n      0x00\n        /* \"contracts/Governance.sol\":4217:4220  _to */\n      dup8\n        /* \"contracts/Governance.sol\":4222:4228  _value */\n      dup8\n        /* \"contracts/Governance.sol\":4230:4235  _func */\n      dup8\n      dup8\n        /* \"contracts/Governance.sol\":4237:4242  _data */\n      dup8\n      dup8\n        /* \"contracts/Governance.sol\":4244:4260  _descriptionHash */\n      dup8\n        /* \"contracts/Governance.sol\":4192:4271  abi.encode(\r... */\n      add(0x20, mload(0x40))\n      tag_137\n      swap8\n      swap7\n      swap6\n      swap5\n      swap4\n      swap3\n      swap2\n      swap1\n      tag_138\n      jump\t// in\n    tag_137:\n      mload(0x40)\n      0x20\n      dup2\n      dup4\n      sub\n      sub\n      dup2\n      mstore\n      swap1\n      0x40\n      mstore\n        /* \"contracts/Governance.sol\":4182:4272  keccak256(abi.encode(\r... */\n      dup1\n      mload\n      swap1\n      0x20\n      add\n      keccak256\n        /* \"contracts/Governance.sol\":4175:4272  return keccak256(abi.encode(\r... */\n      swap1\n      pop\n        /* \"contracts/Governance.sol\":3956:4280  function generateProposalId(\r... */\n      swap8\n      swap7\n      pop\n      pop\n      pop\n      pop\n      pop\n      pop\n      pop\n      jump\t// out\n        /* \"#utility.yul\":7:146   */\n    tag_140:\n        /* \"#utility.yul\":53:58   */\n      0x00\n        /* \"#utility.yul\":91:97   */\n      dup2\n        /* \"#utility.yul\":78:98   */\n      calldataload\n        /* \"#utility.yul\":69:98   */\n      swap1\n      pop\n        /* \"#utility.yul\":107:140   */\n      tag_142\n        /* \"#utility.yul\":134:139   */\n      dup2\n        /* \"#utility.yul\":107:140   */\n      tag_143\n      jump\t// in\n    tag_142:\n        /* \"#utility.yul\":7:146   */\n      swap3\n      swap2\n      pop\n      pop\n      jump\t// out\n        /* \"#utility.yul\":152:291   */\n    tag_144:\n        /* \"#utility.yul\":198:203   */\n      0x00\n        /* \"#utility.yul\":236:242   */\n      dup2\n        /* \"#utility.yul\":223:243   */\n      calldataload\n        /* \"#utility.yul\":214:243   */\n      swap1\n      pop\n        /* \"#utility.yul\":252:285   */\n      tag_146\n        /* \"#utility.yul\":279:284   */\n      dup2\n        /* \"#utility.yul\":252:285   */\n      tag_147\n      jump\t// in\n    tag_146:\n        /* \"#utility.yul\":152:291   */\n      swap3\n      swap2\n      pop\n      pop\n      jump\t// out\n        /* \"#utility.yul\":310:862   */\n    tag_148:\n        /* \"#utility.yul\":367:375   */\n      0x00\n        /* \"#utility.yul\":377:383   */\n      dup1\n        /* \"#utility.yul\":427:430   */\n      dup4\n        /* \"#utility.yul\":420:424   */\n      0x1f\n        /* \"#utility.yul\":412:418   */\n      dup5\n        /* \"#utility.yul\":408:425   */\n      add\n        /* \"#utility.yul\":404:431   */\n      slt\n        /* \"#utility.yul\":394:516   */\n      tag_150\n      jumpi\n        /* \"#utility.yul\":435:514   */\n      tag_151\n      tag_152\n      jump\t// in\n    tag_151:\n        /* \"#utility.yul\":394:516   */\n    tag_150:\n        /* \"#utility.yul\":548:554   */\n      dup3\n        /* \"#utility.yul\":535:555   */\n      calldataload\n        /* \"#utility.yul\":525:555   */\n      swap1\n      pop\n        /* \"#utility.yul\":578:596   */\n      0xffffffffffffffff\n        /* \"#utility.yul\":570:576   */\n      dup2\n        /* \"#utility.yul\":567:597   */\n      gt\n        /* \"#utility.yul\":564:681   */\n      iszero\n      tag_153\n      jumpi\n        /* \"#utility.yul\":600:679   */\n      tag_154\n      tag_155\n      jump\t// in\n    tag_154:\n        /* \"#utility.yul\":564:681   */\n    tag_153:\n        /* \"#utility.yul\":714:718   */\n      0x20\n        /* \"#utility.yul\":706:712   */\n      dup4\n        /* \"#utility.yul\":702:719   */\n      add\n        /* \"#utility.yul\":690:719   */\n      swap2\n      pop\n        /* \"#utility.yul\":768:771   */\n      dup4\n        /* \"#utility.yul\":760:764   */\n      0x01\n        /* \"#utility.yul\":752:758   */\n      dup3\n        /* \"#utility.yul\":748:765   */\n      mul\n        /* \"#utility.yul\":738:746   */\n      dup4\n        /* \"#utility.yul\":734:766   */\n      add\n        /* \"#utility.yul\":731:772   */\n      gt\n        /* \"#utility.yul\":728:856   */\n      iszero\n      tag_156\n      jumpi\n        /* \"#utility.yul\":775:854   */\n      tag_157\n      tag_158\n      jump\t// in\n    tag_157:\n        /* \"#utility.yul\":728:856   */\n    tag_156:\n        /* \"#utility.yul\":310:862   */\n      swap3\n      pop\n      swap3\n      swap1\n      pop\n      jump\t// out\n        /* \"#utility.yul\":882:1435   */\n    tag_159:\n        /* \"#utility.yul\":940:948   */\n      0x00\n        /* \"#utility.yul\":950:956   */\n      dup1\n        /* \"#utility.yul\":1000:1003   */\n      dup4\n        /* \"#utility.yul\":993:997   */\n      0x1f\n        /* \"#utility.yul\":985:991   */\n      dup5\n        /* \"#utility.yul\":981:998   */\n      add\n        /* \"#utility.yul\":977:1004   */\n      slt\n        /* \"#utility.yul\":967:1089   */\n      tag_161\n      jumpi\n        /* \"#utility.yul\":1008:1087   */\n      tag_162\n      tag_152\n      jump\t// in\n    tag_162:\n        /* \"#utility.yul\":967:1089   */\n    tag_161:\n        /* \"#utility.yul\":1121:1127   */\n      dup3\n        /* \"#utility.yul\":1108:1128   */\n      calldataload\n        /* \"#utility.yul\":1098:1128   */\n      swap1\n      pop\n        /* \"#utility.yul\":1151:1169   */\n      0xffffffffffffffff\n        /* \"#utility.yul\":1143:1149   */\n      dup2\n        /* \"#utility.yul\":1140:1170   */\n      gt\n        /* \"#utility.yul\":1137:1254   */\n      iszero\n      tag_163\n      jumpi\n        /* \"#utility.yul\":1173:1252   */\n      tag_164\n      tag_155\n      jump\t// in\n    tag_164:\n        /* \"#utility.yul\":1137:1254   */\n    tag_163:\n        /* \"#utility.yul\":1287:1291   */\n      0x20\n        /* \"#utility.yul\":1279:1285   */\n      dup4\n        /* \"#utility.yul\":1275:1292   */\n      add\n        /* \"#utility.yul\":1263:1292   */\n      swap2\n      pop\n        /* \"#utility.yul\":1341:1344   */\n      dup4\n        /* \"#utility.yul\":1333:1337   */\n      0x01\n        /* \"#utility.yul\":1325:1331   */\n      dup3\n        /* \"#utility.yul\":1321:1338   */\n      mul\n        /* \"#utility.yul\":1311:1319   */\n      dup4\n        /* \"#utility.yul\":1307:1339   */\n      add\n        /* \"#utility.yul\":1304:1345   */\n      gt\n        /* \"#utility.yul\":1301:1429   */\n      iszero\n      tag_165\n      jumpi\n        /* \"#utility.yul\":1348:1427   */\n      tag_166\n      tag_158\n      jump\t// in\n    tag_166:\n        /* \"#utility.yul\":1301:1429   */\n    tag_165:\n        /* \"#utility.yul\":882:1435   */\n      swap3\n      pop\n      swap3\n      swap1\n      pop\n      jump\t// out\n        /* \"#utility.yul\":1441:1580   */\n    tag_167:\n        /* \"#utility.yul\":1487:1492   */\n      0x00\n        /* \"#utility.yul\":1525:1531   */\n      dup2\n        /* \"#utility.yul\":1512:1532   */\n      calldataload\n        /* \"#utility.yul\":1503:1532   */\n      swap1\n      pop\n        /* \"#utility.yul\":1541:1574   */\n      tag_169\n        /* \"#utility.yul\":1568:1573   */\n      dup2\n        /* \"#utility.yul\":1541:1574   */\n      tag_170\n      jump\t// in\n    tag_169:\n        /* \"#utility.yul\":1441:1580   */\n      swap3\n      swap2\n      pop\n      pop\n      jump\t// out\n        /* \"#utility.yul\":1586:1729   */\n    tag_171:\n        /* \"#utility.yul\":1643:1648   */\n      0x00\n        /* \"#utility.yul\":1674:1680   */\n      dup2\n        /* \"#utility.yul\":1668:1681   */\n      mload\n        /* \"#utility.yul\":1659:1681   */\n      swap1\n      pop\n        /* \"#utility.yul\":1690:1723   */\n      tag_173\n        /* \"#utility.yul\":1717:1722   */\n      dup2\n        /* \"#utility.yul\":1690:1723   */\n      tag_170\n      jump\t// in\n    tag_173:\n        /* \"#utility.yul\":1586:1729   */\n      swap3\n      swap2\n      pop\n      pop\n      jump\t// out\n        /* \"#utility.yul\":1735:1870   */\n    tag_174:\n        /* \"#utility.yul\":1779:1784   */\n      0x00\n        /* \"#utility.yul\":1817:1823   */\n      dup2\n        /* \"#utility.yul\":1804:1824   */\n      calldataload\n        /* \"#utility.yul\":1795:1824   */\n      swap1\n      pop\n        /* \"#utility.yul\":1833:1864   */\n      tag_176\n        /* \"#utility.yul\":1858:1863   */\n      dup2\n        /* \"#utility.yul\":1833:1864   */\n      tag_177\n      jump\t// in\n    tag_176:\n        /* \"#utility.yul\":1735:1870   */\n      swap3\n      swap2\n      pop\n      pop\n      jump\t// out\n        /* \"#utility.yul\":1876:3185   */\n    tag_35:\n        /* \"#utility.yul\":1994:2000   */\n      0x00\n        /* \"#utility.yul\":2002:2008   */\n      dup1\n        /* \"#utility.yul\":2010:2016   */\n      0x00\n        /* \"#utility.yul\":2018:2024   */\n      dup1\n        /* \"#utility.yul\":2026:2032   */\n      0x00\n        /* \"#utility.yul\":2034:2040   */\n      dup1\n        /* \"#utility.yul\":2042:2048   */\n      0x00\n        /* \"#utility.yul\":2091:2094   */\n      0xa0\n        /* \"#utility.yul\":2079:2088   */\n      dup9\n        /* \"#utility.yul\":2070:2077   */\n      dup11\n        /* \"#utility.yul\":2066:2089   */\n      sub\n        /* \"#utility.yul\":2062:2095   */\n      slt\n        /* \"#utility.yul\":2059:2179   */\n      iszero\n      tag_179\n      jumpi\n        /* \"#utility.yul\":2098:2177   */\n      tag_180\n      tag_181\n      jump\t// in\n    tag_180:\n        /* \"#utility.yul\":2059:2179   */\n    tag_179:\n        /* \"#utility.yul\":2218:2219   */\n      0x00\n        /* \"#utility.yul\":2243:2296   */\n      tag_182\n        /* \"#utility.yul\":2288:2295   */\n      dup11\n        /* \"#utility.yul\":2279:2285   */\n      dup3\n        /* \"#utility.yul\":2268:2277   */\n      dup12\n        /* \"#utility.yul\":2264:2286   */\n      add\n        /* \"#utility.yul\":2243:2296   */\n      tag_140\n      jump\t// in\n    tag_182:\n        /* \"#utility.yul\":2233:2296   */\n      swap8\n      pop\n        /* \"#utility.yul\":2189:2306   */\n      pop\n        /* \"#utility.yul\":2345:2347   */\n      0x20\n        /* \"#utility.yul\":2371:2424   */\n      tag_183\n        /* \"#utility.yul\":2416:2423   */\n      dup11\n        /* \"#utility.yul\":2407:2413   */\n      dup3\n        /* \"#utility.yul\":2396:2405   */\n      dup12\n        /* \"#utility.yul\":2392:2414   */\n      add\n        /* \"#utility.yul\":2371:2424   */\n      tag_167\n      jump\t// in\n    tag_183:\n        /* \"#utility.yul\":2361:2424   */\n      swap7\n      pop\n        /* \"#utility.yul\":2316:2434   */\n      pop\n        /* \"#utility.yul\":2501:2503   */\n      0x40\n        /* \"#utility.yul\":2490:2499   */\n      dup9\n        /* \"#utility.yul\":2486:2504   */\n      add\n        /* \"#utility.yul\":2473:2505   */\n      calldataload\n        /* \"#utility.yul\":2532:2550   */\n      0xffffffffffffffff\n        /* \"#utility.yul\":2524:2530   */\n      dup2\n        /* \"#utility.yul\":2521:2551   */\n      gt\n        /* \"#utility.yul\":2518:2635   */\n      iszero\n      tag_184\n      jumpi\n        /* \"#utility.yul\":2554:2633   */\n      tag_185\n      tag_186\n      jump\t// in\n    tag_185:\n        /* \"#utility.yul\":2518:2635   */\n    tag_184:\n        /* \"#utility.yul\":2667:2732   */\n      tag_187\n        /* \"#utility.yul\":2724:2731   */\n      dup11\n        /* \"#utility.yul\":2715:2721   */\n      dup3\n        /* \"#utility.yul\":2704:2713   */\n      dup12\n        /* \"#utility.yul\":2700:2722   */\n      add\n        /* \"#utility.yul\":2667:2732   */\n      tag_159\n      jump\t// in\n    tag_187:\n        /* \"#utility.yul\":2649:2732   */\n      swap6\n      pop\n      swap6\n      pop\n        /* \"#utility.yul\":2444:2742   */\n      pop\n        /* \"#utility.yul\":2809:2811   */\n      0x60\n        /* \"#utility.yul\":2798:2807   */\n      dup9\n        /* \"#utility.yul\":2794:2812   */\n      add\n        /* \"#utility.yul\":2781:2813   */\n      calldataload\n        /* \"#utility.yul\":2840:2858   */\n      0xffffffffffffffff\n        /* \"#utility.yul\":2832:2838   */\n      dup2\n        /* \"#utility.yul\":2829:2859   */\n      gt\n        /* \"#utility.yul\":2826:2943   */\n      iszero\n      tag_188\n      jumpi\n        /* \"#utility.yul\":2862:2941   */\n      tag_189\n      tag_186\n      jump\t// in\n    tag_189:\n        /* \"#utility.yul\":2826:2943   */\n    tag_188:\n        /* \"#utility.yul\":2975:3039   */\n      tag_190\n        /* \"#utility.yul\":3031:3038   */\n      dup11\n        /* \"#utility.yul\":3022:3028   */\n      dup3\n        /* \"#utility.yul\":3011:3020   */\n      dup12\n        /* \"#utility.yul\":3007:3029   */\n      add\n        /* \"#utility.yul\":2975:3039   */\n      tag_148\n      jump\t// in\n    tag_190:\n        /* \"#utility.yul\":2957:3039   */\n      swap4\n      pop\n      swap4\n      pop\n        /* \"#utility.yul\":2752:3049   */\n      pop\n        /* \"#utility.yul\":3088:3091   */\n      0x80\n        /* \"#utility.yul\":3115:3168   */\n      tag_191\n        /* \"#utility.yul\":3160:3167   */\n      dup11\n        /* \"#utility.yul\":3151:3157   */\n      dup3\n        /* \"#utility.yul\":3140:3149   */\n      dup12\n        /* \"#utility.yul\":3136:3158   */\n      add\n        /* \"#utility.yul\":3115:3168   */\n      tag_144\n      jump\t// in\n    tag_191:\n        /* \"#utility.yul\":3105:3168   */\n      swap2\n      pop\n        /* \"#utility.yul\":3059:3178   */\n      pop\n        /* \"#utility.yul\":1876:3185   */\n      swap3\n      swap6\n      swap9\n      swap2\n      swap5\n      swap8\n      pop\n      swap3\n      swap6\n      pop\n      jump\t// out\n        /* \"#utility.yul\":3191:4700   */\n    tag_25:\n        /* \"#utility.yul\":3321:3327   */\n      0x00\n        /* \"#utility.yul\":3329:3335   */\n      dup1\n        /* \"#utility.yul\":3337:3343   */\n      0x00\n        /* \"#utility.yul\":3345:3351   */\n      dup1\n        /* \"#utility.yul\":3353:3359   */\n      0x00\n        /* \"#utility.yul\":3361:3367   */\n      dup1\n        /* \"#utility.yul\":3369:3375   */\n      0x00\n        /* \"#utility.yul\":3377:3383   */\n      dup1\n        /* \"#utility.yul\":3426:3429   */\n      0xa0\n        /* \"#utility.yul\":3414:3423   */\n      dup10\n        /* \"#utility.yul\":3405:3412   */\n      dup12\n        /* \"#utility.yul\":3401:3424   */\n      sub\n        /* \"#utility.yul\":3397:3430   */\n      slt\n        /* \"#utility.yul\":3394:3514   */\n      iszero\n      tag_193\n      jumpi\n        /* \"#utility.yul\":3433:3512   */\n      tag_194\n      tag_181\n      jump\t// in\n    tag_194:\n        /* \"#utility.yul\":3394:3514   */\n    tag_193:\n        /* \"#utility.yul\":3553:3554   */\n      0x00\n        /* \"#utility.yul\":3578:3631   */\n      tag_195\n        /* \"#utility.yul\":3623:3630   */\n      dup12\n        /* \"#utility.yul\":3614:3620   */\n      dup3\n        /* \"#utility.yul\":3603:3612   */\n      dup13\n        /* \"#utility.yul\":3599:3621   */\n      add\n        /* \"#utility.yul\":3578:3631   */\n      tag_140\n      jump\t// in\n    tag_195:\n        /* \"#utility.yul\":3568:3631   */\n      swap9\n      pop\n        /* \"#utility.yul\":3524:3641   */\n      pop\n        /* \"#utility.yul\":3680:3682   */\n      0x20\n        /* \"#utility.yul\":3706:3759   */\n      tag_196\n        /* \"#utility.yul\":3751:3758   */\n      dup12\n        /* \"#utility.yul\":3742:3748   */\n      dup3\n        /* \"#utility.yul\":3731:3740   */\n      dup13\n        /* \"#utility.yul\":3727:3749   */\n      add\n        /* \"#utility.yul\":3706:3759   */\n      tag_167\n      jump\t// in\n    tag_196:\n        /* \"#utility.yul\":3696:3759   */\n      swap8\n      pop\n        /* \"#utility.yul\":3651:3769   */\n      pop\n        /* \"#utility.yul\":3836:3838   */\n      0x40\n        /* \"#utility.yul\":3825:3834   */\n      dup10\n        /* \"#utility.yul\":3821:3839   */\n      add\n        /* \"#utility.yul\":3808:3840   */\n      calldataload\n        /* \"#utility.yul\":3867:3885   */\n      0xffffffffffffffff\n        /* \"#utility.yul\":3859:3865   */\n      dup2\n        /* \"#utility.yul\":3856:3886   */\n      gt\n        /* \"#utility.yul\":3853:3970   */\n      iszero\n      tag_197\n      jumpi\n        /* \"#utility.yul\":3889:3968   */\n      tag_198\n      tag_186\n      jump\t// in\n    tag_198:\n        /* \"#utility.yul\":3853:3970   */\n    tag_197:\n        /* \"#utility.yul\":4002:4067   */\n      tag_199\n        /* \"#utility.yul\":4059:4066   */\n      dup12\n        /* \"#utility.yul\":4050:4056   */\n      dup3\n        /* \"#utility.yul\":4039:4048   */\n      dup13\n        /* \"#utility.yul\":4035:4057   */\n      add\n        /* \"#utility.yul\":4002:4067   */\n      tag_159\n      jump\t// in\n    tag_199:\n        /* \"#utility.yul\":3984:4067   */\n      swap7\n      pop\n      swap7\n      pop\n        /* \"#utility.yul\":3779:4077   */\n      pop\n        /* \"#utility.yul\":4144:4146   */\n      0x60\n        /* \"#utility.yul\":4133:4142   */\n      dup10\n        /* \"#utility.yul\":4129:4147   */\n      add\n        /* \"#utility.yul\":4116:4148   */\n      calldataload\n        /* \"#utility.yul\":4175:4193   */\n      0xffffffffffffffff\n        /* \"#utility.yul\":4167:4173   */\n      dup2\n        /* \"#utility.yul\":4164:4194   */\n      gt\n        /* \"#utility.yul\":4161:4278   */\n      iszero\n      tag_200\n      jumpi\n        /* \"#utility.yul\":4197:4276   */\n      tag_201\n      tag_186\n      jump\t// in\n    tag_201:\n        /* \"#utility.yul\":4161:4278   */\n    tag_200:\n        /* \"#utility.yul\":4310:4374   */\n      tag_202\n        /* \"#utility.yul\":4366:4373   */\n      dup12\n        /* \"#utility.yul\":4357:4363   */\n      dup3\n        /* \"#utility.yul\":4346:4355   */\n      dup13\n        /* \"#utility.yul\":4342:4364   */\n      add\n        /* \"#utility.yul\":4310:4374   */\n      tag_148\n      jump\t// in\n    tag_202:\n        /* \"#utility.yul\":4292:4374   */\n      swap5\n      pop\n      swap5\n      pop\n        /* \"#utility.yul\":4087:4384   */\n      pop\n        /* \"#utility.yul\":4451:4454   */\n      0x80\n        /* \"#utility.yul\":4440:4449   */\n      dup10\n        /* \"#utility.yul\":4436:4455   */\n      add\n        /* \"#utility.yul\":4423:4456   */\n      calldataload\n        /* \"#utility.yul\":4483:4501   */\n      0xffffffffffffffff\n        /* \"#utility.yul\":4475:4481   */\n      dup2\n        /* \"#utility.yul\":4472:4502   */\n      gt\n        /* \"#utility.yul\":4469:4586   */\n      iszero\n      tag_203\n      jumpi\n        /* \"#utility.yul\":4505:4584   */\n      tag_204\n      tag_186\n      jump\t// in\n    tag_204:\n        /* \"#utility.yul\":4469:4586   */\n    tag_203:\n        /* \"#utility.yul\":4618:4683   */\n      tag_205\n        /* \"#utility.yul\":4675:4682   */\n      dup12\n        /* \"#utility.yul\":4666:4672   */\n      dup3\n        /* \"#utility.yul\":4655:4664   */\n      dup13\n        /* \"#utility.yul\":4651:4673   */\n      add\n        /* \"#utility.yul\":4618:4683   */\n      tag_159\n      jump\t// in\n    tag_205:\n        /* \"#utility.yul\":4600:4683   */\n      swap3\n      pop\n      swap3\n      pop\n        /* \"#utility.yul\":4394:4693   */\n      pop\n        /* \"#utility.yul\":3191:4700   */\n      swap3\n      swap6\n      swap9\n      pop\n      swap3\n      swap6\n      swap9\n      swap1\n      swap4\n      swap7\n      pop\n      jump\t// out\n        /* \"#utility.yul\":4706:5035   */\n    tag_14:\n        /* \"#utility.yul\":4765:4771   */\n      0x00\n        /* \"#utility.yul\":4814:4816   */\n      0x20\n        /* \"#utility.yul\":4802:4811   */\n      dup3\n        /* \"#utility.yul\":4793:4800   */\n      dup5\n        /* \"#utility.yul\":4789:4812   */\n      sub\n        /* \"#utility.yul\":4785:4817   */\n      slt\n        /* \"#utility.yul\":4782:4901   */\n      iszero\n      tag_207\n      jumpi\n        /* \"#utility.yul\":4820:4899   */\n      tag_208\n      tag_181\n      jump\t// in\n    tag_208:\n        /* \"#utility.yul\":4782:4901   */\n    tag_207:\n        /* \"#utility.yul\":4940:4941   */\n      0x00\n        /* \"#utility.yul\":4965:5018   */\n      tag_209\n        /* \"#utility.yul\":5010:5017   */\n      dup5\n        /* \"#utility.yul\":5001:5007   */\n      dup3\n        /* \"#utility.yul\":4990:4999   */\n      dup6\n        /* \"#utility.yul\":4986:5008   */\n      add\n        /* \"#utility.yul\":4965:5018   */\n      tag_144\n      jump\t// in\n    tag_209:\n        /* \"#utility.yul\":4955:5018   */\n      swap2\n      pop\n        /* \"#utility.yul\":4911:5028   */\n      pop\n        /* \"#utility.yul\":4706:5035   */\n      swap3\n      swap2\n      pop\n      pop\n      jump\t// out\n        /* \"#utility.yul\":5041:5511   */\n    tag_41:\n        /* \"#utility.yul\":5107:5113   */\n      0x00\n        /* \"#utility.yul\":5115:5121   */\n      dup1\n        /* \"#utility.yul\":5164:5166   */\n      0x40\n        /* \"#utility.yul\":5152:5161   */\n      dup4\n        /* \"#utility.yul\":5143:5150   */\n      dup6\n        /* \"#utility.yul\":5139:5162   */\n      sub\n        /* \"#utility.yul\":5135:5167   */\n      slt\n        /* \"#utility.yul\":5132:5251   */\n      iszero\n      tag_211\n      jumpi\n        /* \"#utility.yul\":5170:5249   */\n      tag_212\n      tag_181\n      jump\t// in\n    tag_212:\n        /* \"#utility.yul\":5132:5251   */\n    tag_211:\n        /* \"#utility.yul\":5290:5291   */\n      0x00\n        /* \"#utility.yul\":5315:5368   */\n      tag_213\n        /* \"#utility.yul\":5360:5367   */\n      dup6\n        /* \"#utility.yul\":5351:5357   */\n      dup3\n        /* \"#utility.yul\":5340:5349   */\n      dup7\n        /* \"#utility.yul\":5336:5358   */\n      add\n        /* \"#utility.yul\":5315:5368   */\n      tag_144\n      jump\t// in\n    tag_213:\n        /* \"#utility.yul\":5305:5368   */\n      swap3\n      pop\n        /* \"#utility.yul\":5261:5378   */\n      pop\n        /* \"#utility.yul\":5417:5419   */\n      0x20\n        /* \"#utility.yul\":5443:5494   */\n      tag_214\n        /* \"#utility.yul\":5486:5493   */\n      dup6\n        /* \"#utility.yul\":5477:5483   */\n      dup3\n        /* \"#utility.yul\":5466:5475   */\n      dup7\n        /* \"#utility.yul\":5462:5484   */\n      add\n        /* \"#utility.yul\":5443:5494   */\n      tag_174\n      jump\t// in\n    tag_214:\n        /* \"#utility.yul\":5433:5494   */\n      swap2\n      pop\n        /* \"#utility.yul\":5388:5504   */\n      pop\n        /* \"#utility.yul\":5041:5511   */\n      swap3\n      pop\n      swap3\n      swap1\n      pop\n      jump\t// out\n        /* \"#utility.yul\":5517:5868   */\n    tag_66:\n        /* \"#utility.yul\":5587:5593   */\n      0x00\n        /* \"#utility.yul\":5636:5638   */\n      0x20\n        /* \"#utility.yul\":5624:5633   */\n      dup3\n        /* \"#utility.yul\":5615:5622   */\n      dup5\n        /* \"#utility.yul\":5611:5634   */\n      sub\n        /* \"#utility.yul\":5607:5639   */\n      slt\n        /* \"#utility.yul\":5604:5723   */\n      iszero\n      tag_216\n      jumpi\n        /* \"#utility.yul\":5642:5721   */\n      tag_217\n      tag_181\n      jump\t// in\n    tag_217:\n        /* \"#utility.yul\":5604:5723   */\n    tag_216:\n        /* \"#utility.yul\":5762:5763   */\n      0x00\n        /* \"#utility.yul\":5787:5851   */\n      tag_218\n        /* \"#utility.yul\":5843:5850   */\n      dup5\n        /* \"#utility.yul\":5834:5840   */\n      dup3\n        /* \"#utility.yul\":5823:5832   */\n      dup6\n        /* \"#utility.yul\":5819:5841   */\n      add\n        /* \"#utility.yul\":5787:5851   */\n      tag_171\n      jump\t// in\n    tag_218:\n        /* \"#utility.yul\":5777:5851   */\n      swap2\n      pop\n        /* \"#utility.yul\":5733:5861   */\n      pop\n        /* \"#utility.yul\":5517:5868   */\n      swap3\n      swap2\n      pop\n      pop\n      jump\t// out\n        /* \"#utility.yul\":5874:5992   */\n    tag_219:\n        /* \"#utility.yul\":5961:5985   */\n      tag_221\n        /* \"#utility.yul\":5979:5984   */\n      dup2\n        /* \"#utility.yul\":5961:5985   */\n      tag_222\n      jump\t// in\n    tag_221:\n        /* \"#utility.yul\":5956:5959   */\n      dup3\n        /* \"#utility.yul\":5949:5986   */\n      mstore\n        /* \"#utility.yul\":5874:5992   */\n      pop\n      pop\n      jump\t// out\n        /* \"#utility.yul\":5998:6107   */\n    tag_223:\n        /* \"#utility.yul\":6079:6100   */\n      tag_225\n        /* \"#utility.yul\":6094:6099   */\n      dup2\n        /* \"#utility.yul\":6079:6100   */\n      tag_226\n      jump\t// in\n    tag_225:\n        /* \"#utility.yul\":6074:6077   */\n      dup3\n        /* \"#utility.yul\":6067:6101   */\n      mstore\n        /* \"#utility.yul\":5998:6107   */\n      pop\n      pop\n      jump\t// out\n        /* \"#utility.yul\":6113:6231   */\n    tag_227:\n        /* \"#utility.yul\":6200:6224   */\n      tag_229\n        /* \"#utility.yul\":6218:6223   */\n      dup2\n        /* \"#utility.yul\":6200:6224   */\n      tag_230\n      jump\t// in\n    tag_229:\n        /* \"#utility.yul\":6195:6198   */\n      dup3\n        /* \"#utility.yul\":6188:6225   */\n      mstore\n        /* \"#utility.yul\":6113:6231   */\n      pop\n      pop\n      jump\t// out\n        /* \"#utility.yul\":6237:6390   */\n    tag_231:\n        /* \"#utility.yul\":6340:6383   */\n      tag_233\n        /* \"#utility.yul\":6359:6382   */\n      tag_234\n        /* \"#utility.yul\":6376:6381   */\n      dup3\n        /* \"#utility.yul\":6359:6382   */\n      tag_235\n      jump\t// in\n    tag_234:\n        /* \"#utility.yul\":6340:6383   */\n      tag_236\n      jump\t// in\n    tag_233:\n        /* \"#utility.yul\":6335:6338   */\n      dup3\n        /* \"#utility.yul\":6328:6384   */\n      mstore\n        /* \"#utility.yul\":6237:6390   */\n      pop\n      pop\n      jump\t// out\n        /* \"#utility.yul\":6418:6719   */\n    tag_237:\n        /* \"#utility.yul\":6514:6517   */\n      0x00\n        /* \"#utility.yul\":6535:6605   */\n      tag_239\n        /* \"#utility.yul\":6598:6604   */\n      dup4\n        /* \"#utility.yul\":6593:6596   */\n      dup6\n        /* \"#utility.yul\":6535:6605   */\n      tag_240\n      jump\t// in\n    tag_239:\n        /* \"#utility.yul\":6528:6605   */\n      swap4\n      pop\n        /* \"#utility.yul\":6615:6658   */\n      tag_241\n        /* \"#utility.yul\":6651:6657   */\n      dup4\n        /* \"#utility.yul\":6646:6649   */\n      dup6\n        /* \"#utility.yul\":6639:6644   */\n      dup5\n        /* \"#utility.yul\":6615:6658   */\n      tag_242\n      jump\t// in\n    tag_241:\n        /* \"#utility.yul\":6683:6712   */\n      tag_243\n        /* \"#utility.yul\":6705:6711   */\n      dup4\n        /* \"#utility.yul\":6683:6712   */\n      tag_244\n      jump\t// in\n    tag_243:\n        /* \"#utility.yul\":6678:6681   */\n      dup5\n        /* \"#utility.yul\":6674:6713   */\n      add\n        /* \"#utility.yul\":6667:6713   */\n      swap1\n      pop\n        /* \"#utility.yul\":6418:6719   */\n      swap4\n      swap3\n      pop\n      pop\n      pop\n      jump\t// out\n        /* \"#utility.yul\":6747:7061   */\n    tag_245:\n        /* \"#utility.yul\":6861:6864   */\n      0x00\n        /* \"#utility.yul\":6882:6970   */\n      tag_247\n        /* \"#utility.yul\":6963:6969   */\n      dup4\n        /* \"#utility.yul\":6958:6961   */\n      dup6\n        /* \"#utility.yul\":6882:6970   */\n      tag_248\n      jump\t// in\n    tag_247:\n        /* \"#utility.yul\":6875:6970   */\n      swap4\n      pop\n        /* \"#utility.yul\":6980:7023   */\n      tag_249\n        /* \"#utility.yul\":7016:7022   */\n      dup4\n        /* \"#utility.yul\":7011:7014   */\n      dup6\n        /* \"#utility.yul\":7004:7009   */\n      dup5\n        /* \"#utility.yul\":6980:7023   */\n      tag_242\n      jump\t// in\n    tag_249:\n        /* \"#utility.yul\":7048:7054   */\n      dup3\n        /* \"#utility.yul\":7043:7046   */\n      dup5\n        /* \"#utility.yul\":7039:7055   */\n      add\n        /* \"#utility.yul\":7032:7055   */\n      swap1\n      pop\n        /* \"#utility.yul\":6747:7061   */\n      swap4\n      swap3\n      pop\n      pop\n      pop\n      jump\t// out\n        /* \"#utility.yul\":7067:7427   */\n    tag_250:\n        /* \"#utility.yul\":7153:7156   */\n      0x00\n        /* \"#utility.yul\":7181:7219   */\n      tag_252\n        /* \"#utility.yul\":7213:7218   */\n      dup3\n        /* \"#utility.yul\":7181:7219   */\n      tag_253\n      jump\t// in\n    tag_252:\n        /* \"#utility.yul\":7235:7305   */\n      tag_254\n        /* \"#utility.yul\":7298:7304   */\n      dup2\n        /* \"#utility.yul\":7293:7296   */\n      dup6\n        /* \"#utility.yul\":7235:7305   */\n      tag_240\n      jump\t// in\n    tag_254:\n        /* \"#utility.yul\":7228:7305   */\n      swap4\n      pop\n        /* \"#utility.yul\":7314:7366   */\n      tag_255\n        /* \"#utility.yul\":7359:7365   */\n      dup2\n        /* \"#utility.yul\":7354:7357   */\n      dup6\n        /* \"#utility.yul\":7347:7351   */\n      0x20\n        /* \"#utility.yul\":7340:7345   */\n      dup7\n        /* \"#utility.yul\":7336:7352   */\n      add\n        /* \"#utility.yul\":7314:7366   */\n      tag_256\n      jump\t// in\n    tag_255:\n        /* \"#utility.yul\":7391:7420   */\n      tag_257\n        /* \"#utility.yul\":7413:7419   */\n      dup2\n        /* \"#utility.yul\":7391:7420   */\n      tag_244\n      jump\t// in\n    tag_257:\n        /* \"#utility.yul\":7386:7389   */\n      dup5\n        /* \"#utility.yul\":7382:7421   */\n      add\n        /* \"#utility.yul\":7375:7421   */\n      swap2\n      pop\n        /* \"#utility.yul\":7157:7427   */\n      pop\n        /* \"#utility.yul\":7067:7427   */\n      swap3\n      swap2\n      pop\n      pop\n      jump\t// out\n        /* \"#utility.yul\":7433:7806   */\n    tag_258:\n        /* \"#utility.yul\":7537:7540   */\n      0x00\n        /* \"#utility.yul\":7565:7603   */\n      tag_260\n        /* \"#utility.yul\":7597:7602   */\n      dup3\n        /* \"#utility.yul\":7565:7603   */\n      tag_253\n      jump\t// in\n    tag_260:\n        /* \"#utility.yul\":7619:7707   */\n      tag_261\n        /* \"#utility.yul\":7700:7706   */\n      dup2\n        /* \"#utility.yul\":7695:7698   */\n      dup6\n        /* \"#utility.yul\":7619:7707   */\n      tag_248\n      jump\t// in\n    tag_261:\n        /* \"#utility.yul\":7612:7707   */\n      swap4\n      pop\n        /* \"#utility.yul\":7716:7768   */\n      tag_262\n        /* \"#utility.yul\":7761:7767   */\n      dup2\n        /* \"#utility.yul\":7756:7759   */\n      dup6\n        /* \"#utility.yul\":7749:7753   */\n      0x20\n        /* \"#utility.yul\":7742:7747   */\n      dup7\n        /* \"#utility.yul\":7738:7754   */\n      add\n        /* \"#utility.yul\":7716:7768   */\n      tag_256\n      jump\t// in\n    tag_262:\n        /* \"#utility.yul\":7793:7799   */\n      dup1\n        /* \"#utility.yul\":7788:7791   */\n      dup5\n        /* \"#utility.yul\":7784:7800   */\n      add\n        /* \"#utility.yul\":7777:7800   */\n      swap2\n      pop\n        /* \"#utility.yul\":7541:7806   */\n      pop\n        /* \"#utility.yul\":7433:7806   */\n      swap3\n      swap2\n      pop\n      pop\n      jump\t// out\n        /* \"#utility.yul\":7812:7971   */\n    tag_263:\n        /* \"#utility.yul\":7913:7964   */\n      tag_265\n        /* \"#utility.yul\":7958:7963   */\n      dup2\n        /* \"#utility.yul\":7913:7964   */\n      tag_266\n      jump\t// in\n    tag_265:\n        /* \"#utility.yul\":7908:7911   */\n      dup3\n        /* \"#utility.yul\":7901:7965   */\n      mstore\n        /* \"#utility.yul\":7812:7971   */\n      pop\n      pop\n      jump\t// out\n        /* \"#utility.yul\":7977:8136   */\n    tag_267:\n        /* \"#utility.yul\":8078:8129   */\n      tag_269\n        /* \"#utility.yul\":8123:8128   */\n      dup2\n        /* \"#utility.yul\":8078:8129   */\n      tag_270\n      jump\t// in\n    tag_269:\n        /* \"#utility.yul\":8073:8076   */\n      dup3\n        /* \"#utility.yul\":8066:8130   */\n      mstore\n        /* \"#utility.yul\":7977:8136   */\n      pop\n      pop\n      jump\t// out\n        /* \"#utility.yul\":8166:8470   */\n    tag_271:\n        /* \"#utility.yul\":8264:8267   */\n      0x00\n        /* \"#utility.yul\":8285:8356   */\n      tag_273\n        /* \"#utility.yul\":8349:8355   */\n      dup4\n        /* \"#utility.yul\":8344:8347   */\n      dup6\n        /* \"#utility.yul\":8285:8356   */\n      tag_274\n      jump\t// in\n    tag_273:\n        /* \"#utility.yul\":8278:8356   */\n      swap4\n      pop\n        /* \"#utility.yul\":8366:8409   */\n      tag_275\n        /* \"#utility.yul\":8402:8408   */\n      dup4\n        /* \"#utility.yul\":8397:8400   */\n      dup6\n        /* \"#utility.yul\":8390:8395   */\n      dup5\n        /* \"#utility.yul\":8366:8409   */\n      tag_242\n      jump\t// in\n    tag_275:\n        /* \"#utility.yul\":8434:8463   */\n      tag_276\n        /* \"#utility.yul\":8456:8462   */\n      dup4\n        /* \"#utility.yul\":8434:8463   */\n      tag_244\n      jump\t// in\n    tag_276:\n        /* \"#utility.yul\":8429:8432   */\n      dup5\n        /* \"#utility.yul\":8425:8464   */\n      add\n        /* \"#utility.yul\":8418:8464   */\n      swap1\n      pop\n        /* \"#utility.yul\":8166:8470   */\n      swap4\n      swap3\n      pop\n      pop\n      pop\n      jump\t// out\n        /* \"#utility.yul\":8476:8842   */\n    tag_277:\n        /* \"#utility.yul\":8618:8621   */\n      0x00\n        /* \"#utility.yul\":8639:8706   */\n      tag_279\n        /* \"#utility.yul\":8703:8705   */\n      0x13\n        /* \"#utility.yul\":8698:8701   */\n      dup4\n        /* \"#utility.yul\":8639:8706   */\n      tag_274\n      jump\t// in\n    tag_279:\n        /* \"#utility.yul\":8632:8706   */\n      swap2\n      pop\n        /* \"#utility.yul\":8715:8808   */\n      tag_280\n        /* \"#utility.yul\":8804:8807   */\n      dup3\n        /* \"#utility.yul\":8715:8808   */\n      tag_281\n      jump\t// in\n    tag_280:\n        /* \"#utility.yul\":8833:8835   */\n      0x20\n        /* \"#utility.yul\":8828:8831   */\n      dup3\n        /* \"#utility.yul\":8824:8836   */\n      add\n        /* \"#utility.yul\":8817:8836   */\n      swap1\n      pop\n        /* \"#utility.yul\":8476:8842   */\n      swap2\n      swap1\n      pop\n      jump\t// out\n        /* \"#utility.yul\":8848:9214   */\n    tag_282:\n        /* \"#utility.yul\":8990:8993   */\n      0x00\n        /* \"#utility.yul\":9011:9078   */\n      tag_284\n        /* \"#utility.yul\":9075:9077   */\n      0x12\n        /* \"#utility.yul\":9070:9073   */\n      dup4\n        /* \"#utility.yul\":9011:9078   */\n      tag_274\n      jump\t// in\n    tag_284:\n        /* \"#utility.yul\":9004:9078   */\n      swap2\n      pop\n        /* \"#utility.yul\":9087:9180   */\n      tag_285\n        /* \"#utility.yul\":9176:9179   */\n      dup3\n        /* \"#utility.yul\":9087:9180   */\n      tag_286\n      jump\t// in\n    tag_285:\n        /* \"#utility.yul\":9205:9207   */\n      0x20\n        /* \"#utility.yul\":9200:9203   */\n      dup3\n        /* \"#utility.yul\":9196:9208   */\n      add\n        /* \"#utility.yul\":9189:9208   */\n      swap1\n      pop\n        /* \"#utility.yul\":8848:9214   */\n      swap2\n      swap1\n      pop\n      jump\t// out\n        /* \"#utility.yul\":9220:9586   */\n    tag_287:\n        /* \"#utility.yul\":9362:9365   */\n      0x00\n        /* \"#utility.yul\":9383:9450   */\n      tag_289\n        /* \"#utility.yul\":9447:9449   */\n      0x15\n        /* \"#utility.yul\":9442:9445   */\n      dup4\n        /* \"#utility.yul\":9383:9450   */\n      tag_274\n      jump\t// in\n    tag_289:\n        /* \"#utility.yul\":9376:9450   */\n      swap2\n      pop\n        /* \"#utility.yul\":9459:9552   */\n      tag_290\n        /* \"#utility.yul\":9548:9551   */\n      dup3\n        /* \"#utility.yul\":9459:9552   */\n      tag_291\n      jump\t// in\n    tag_290:\n        /* \"#utility.yul\":9577:9579   */\n      0x20\n        /* \"#utility.yul\":9572:9575   */\n      dup3\n        /* \"#utility.yul\":9568:9580   */\n      add\n        /* \"#utility.yul\":9561:9580   */\n      swap1\n      pop\n        /* \"#utility.yul\":9220:9586   */\n      swap2\n      swap1\n      pop\n      jump\t// out\n        /* \"#utility.yul\":9592:9958   */\n    tag_292:\n        /* \"#utility.yul\":9734:9737   */\n      0x00\n        /* \"#utility.yul\":9755:9822   */\n      tag_294\n        /* \"#utility.yul\":9819:9821   */\n      0x18\n        /* \"#utility.yul\":9814:9817   */\n      dup4\n        /* \"#utility.yul\":9755:9822   */\n      tag_274\n      jump\t// in\n    tag_294:\n        /* \"#utility.yul\":9748:9822   */\n      swap2\n      pop\n        /* \"#utility.yul\":9831:9924   */\n      tag_295\n        /* \"#utility.yul\":9920:9923   */\n      dup3\n        /* \"#utility.yul\":9831:9924   */\n      tag_296\n      jump\t// in\n    tag_295:\n        /* \"#utility.yul\":9949:9951   */\n      0x20\n        /* \"#utility.yul\":9944:9947   */\n      dup3\n        /* \"#utility.yul\":9940:9952   */\n      add\n        /* \"#utility.yul\":9933:9952   */\n      swap1\n      pop\n        /* \"#utility.yul\":9592:9958   */\n      swap2\n      swap1\n      pop\n      jump\t// out\n        /* \"#utility.yul\":9964:10330   */\n    tag_297:\n        /* \"#utility.yul\":10106:10109   */\n      0x00\n        /* \"#utility.yul\":10127:10194   */\n      tag_299\n        /* \"#utility.yul\":10191:10193   */\n      0x12\n        /* \"#utility.yul\":10186:10189   */\n      dup4\n        /* \"#utility.yul\":10127:10194   */\n      tag_274\n      jump\t// in\n    tag_299:\n        /* \"#utility.yul\":10120:10194   */\n      swap2\n      pop\n        /* \"#utility.yul\":10203:10296   */\n      tag_300\n        /* \"#utility.yul\":10292:10295   */\n      dup3\n        /* \"#utility.yul\":10203:10296   */\n      tag_301\n      jump\t// in\n    tag_300:\n        /* \"#utility.yul\":10321:10323   */\n      0x20\n        /* \"#utility.yul\":10316:10319   */\n      dup3\n        /* \"#utility.yul\":10312:10324   */\n      add\n        /* \"#utility.yul\":10305:10324   */\n      swap1\n      pop\n        /* \"#utility.yul\":9964:10330   */\n      swap2\n      swap1\n      pop\n      jump\t// out\n        /* \"#utility.yul\":10336:10702   */\n    tag_302:\n        /* \"#utility.yul\":10478:10481   */\n      0x00\n        /* \"#utility.yul\":10499:10566   */\n      tag_304\n        /* \"#utility.yul\":10563:10565   */\n      0x16\n        /* \"#utility.yul\":10558:10561   */\n      dup4\n        /* \"#utility.yul\":10499:10566   */\n      tag_274\n      jump\t// in\n    tag_304:\n        /* \"#utility.yul\":10492:10566   */\n      swap2\n      pop\n        /* \"#utility.yul\":10575:10668   */\n      tag_305\n        /* \"#utility.yul\":10664:10667   */\n      dup3\n        /* \"#utility.yul\":10575:10668   */\n      tag_306\n      jump\t// in\n    tag_305:\n        /* \"#utility.yul\":10693:10695   */\n      0x20\n        /* \"#utility.yul\":10688:10691   */\n      dup3\n        /* \"#utility.yul\":10684:10696   */\n      add\n        /* \"#utility.yul\":10677:10696   */\n      swap1\n      pop\n        /* \"#utility.yul\":10336:10702   */\n      swap2\n      swap1\n      pop\n      jump\t// out\n        /* \"#utility.yul\":10708:10826   */\n    tag_307:\n        /* \"#utility.yul\":10795:10819   */\n      tag_309\n        /* \"#utility.yul\":10813:10818   */\n      dup2\n        /* \"#utility.yul\":10795:10819   */\n      tag_310\n      jump\t// in\n    tag_309:\n        /* \"#utility.yul\":10790:10793   */\n      dup3\n        /* \"#utility.yul\":10783:10820   */\n      mstore\n        /* \"#utility.yul\":10708:10826   */\n      pop\n      pop\n      jump\t// out\n        /* \"#utility.yul\":10832:11259   */\n    tag_94:\n        /* \"#utility.yul\":10998:11001   */\n      0x00\n        /* \"#utility.yul\":11013:11086   */\n      tag_312\n        /* \"#utility.yul\":11082:11085   */\n      dup3\n        /* \"#utility.yul\":11073:11079   */\n      dup7\n        /* \"#utility.yul\":11013:11086   */\n      tag_231\n      jump\t// in\n    tag_312:\n        /* \"#utility.yul\":11111:11112   */\n      0x04\n        /* \"#utility.yul\":11106:11109   */\n      dup3\n        /* \"#utility.yul\":11102:11113   */\n      add\n        /* \"#utility.yul\":11095:11113   */\n      swap2\n      pop\n        /* \"#utility.yul\":11130:11233   */\n      tag_313\n        /* \"#utility.yul\":11229:11232   */\n      dup3\n        /* \"#utility.yul\":11220:11226   */\n      dup5\n        /* \"#utility.yul\":11212:11218   */\n      dup7\n        /* \"#utility.yul\":11130:11233   */\n      tag_245\n      jump\t// in\n    tag_313:\n        /* \"#utility.yul\":11123:11233   */\n      swap2\n      pop\n        /* \"#utility.yul\":11250:11253   */\n      dup2\n        /* \"#utility.yul\":11243:11253   */\n      swap1\n      pop\n        /* \"#utility.yul\":10832:11259   */\n      swap5\n      swap4\n      pop\n      pop\n      pop\n      pop\n      jump\t// out\n        /* \"#utility.yul\":11265:11556   */\n    tag_73:\n        /* \"#utility.yul\":11405:11408   */\n      0x00\n        /* \"#utility.yul\":11427:11530   */\n      tag_315\n        /* \"#utility.yul\":11526:11529   */\n      dup3\n        /* \"#utility.yul\":11517:11523   */\n      dup5\n        /* \"#utility.yul\":11509:11515   */\n      dup7\n        /* \"#utility.yul\":11427:11530   */\n      tag_245\n      jump\t// in\n    tag_315:\n        /* \"#utility.yul\":11420:11530   */\n      swap2\n      pop\n        /* \"#utility.yul\":11547:11550   */\n      dup2\n        /* \"#utility.yul\":11540:11550   */\n      swap1\n      pop\n        /* \"#utility.yul\":11265:11556   */\n      swap4\n      swap3\n      pop\n      pop\n      pop\n      jump\t// out\n        /* \"#utility.yul\":11562:11833   */\n    tag_97:\n        /* \"#utility.yul\":11692:11695   */\n      0x00\n        /* \"#utility.yul\":11714:11807   */\n      tag_317\n        /* \"#utility.yul\":11803:11806   */\n      dup3\n        /* \"#utility.yul\":11794:11800   */\n      dup5\n        /* \"#utility.yul\":11714:11807   */\n      tag_258\n      jump\t// in\n    tag_317:\n        /* \"#utility.yul\":11707:11807   */\n      swap2\n      pop\n        /* \"#utility.yul\":11824:11827   */\n      dup2\n        /* \"#utility.yul\":11817:11827   */\n      swap1\n      pop\n        /* \"#utility.yul\":11562:11833   */\n      swap3\n      swap2\n      pop\n      pop\n      jump\t// out\n        /* \"#utility.yul\":11839:12061   */\n    tag_61:\n        /* \"#utility.yul\":11932:11936   */\n      0x00\n        /* \"#utility.yul\":11970:11972   */\n      0x20\n        /* \"#utility.yul\":11959:11968   */\n      dup3\n        /* \"#utility.yul\":11955:11973   */\n      add\n        /* \"#utility.yul\":11947:11973   */\n      swap1\n      pop\n        /* \"#utility.yul\":11983:12054   */\n      tag_319\n        /* \"#utility.yul\":12051:12052   */\n      0x00\n        /* \"#utility.yul\":12040:12049   */\n      dup4\n        /* \"#utility.yul\":12036:12053   */\n      add\n        /* \"#utility.yul\":12027:12033   */\n      dup5\n        /* \"#utility.yul\":11983:12054   */\n      tag_219\n      jump\t// in\n    tag_319:\n        /* \"#utility.yul\":11839:12061   */\n      swap3\n      swap2\n      pop\n      pop\n      jump\t// out\n        /* \"#utility.yul\":12067:12949   */\n    tag_138:\n        /* \"#utility.yul\":12330:12334   */\n      0x00\n        /* \"#utility.yul\":12368:12371   */\n      0xa0\n        /* \"#utility.yul\":12357:12366   */\n      dup3\n        /* \"#utility.yul\":12353:12372   */\n      add\n        /* \"#utility.yul\":12345:12372   */\n      swap1\n      pop\n        /* \"#utility.yul\":12382:12453   */\n      tag_321\n        /* \"#utility.yul\":12450:12451   */\n      0x00\n        /* \"#utility.yul\":12439:12448   */\n      dup4\n        /* \"#utility.yul\":12435:12452   */\n      add\n        /* \"#utility.yul\":12426:12432   */\n      dup11\n        /* \"#utility.yul\":12382:12453   */\n      tag_219\n      jump\t// in\n    tag_321:\n        /* \"#utility.yul\":12463:12535   */\n      tag_322\n        /* \"#utility.yul\":12531:12533   */\n      0x20\n        /* \"#utility.yul\":12520:12529   */\n      dup4\n        /* \"#utility.yul\":12516:12534   */\n      add\n        /* \"#utility.yul\":12507:12513   */\n      dup10\n        /* \"#utility.yul\":12463:12535   */\n      tag_307\n      jump\t// in\n    tag_322:\n        /* \"#utility.yul\":12582:12591   */\n      dup2\n        /* \"#utility.yul\":12576:12580   */\n      dup2\n        /* \"#utility.yul\":12572:12592   */\n      sub\n        /* \"#utility.yul\":12567:12569   */\n      0x40\n        /* \"#utility.yul\":12556:12565   */\n      dup4\n        /* \"#utility.yul\":12552:12570   */\n      add\n        /* \"#utility.yul\":12545:12593   */\n      mstore\n        /* \"#utility.yul\":12610:12698   */\n      tag_323\n        /* \"#utility.yul\":12693:12697   */\n      dup2\n        /* \"#utility.yul\":12684:12690   */\n      dup8\n        /* \"#utility.yul\":12676:12682   */\n      dup10\n        /* \"#utility.yul\":12610:12698   */\n      tag_271\n      jump\t// in\n    tag_323:\n        /* \"#utility.yul\":12602:12698   */\n      swap1\n      pop\n        /* \"#utility.yul\":12745:12754   */\n      dup2\n        /* \"#utility.yul\":12739:12743   */\n      dup2\n        /* \"#utility.yul\":12735:12755   */\n      sub\n        /* \"#utility.yul\":12730:12732   */\n      0x60\n        /* \"#utility.yul\":12719:12728   */\n      dup4\n        /* \"#utility.yul\":12715:12733   */\n      add\n        /* \"#utility.yul\":12708:12756   */\n      mstore\n        /* \"#utility.yul\":12773:12859   */\n      tag_324\n        /* \"#utility.yul\":12854:12858   */\n      dup2\n        /* \"#utility.yul\":12845:12851   */\n      dup6\n        /* \"#utility.yul\":12837:12843   */\n      dup8\n        /* \"#utility.yul\":12773:12859   */\n      tag_237\n      jump\t// in\n    tag_324:\n        /* \"#utility.yul\":12765:12859   */\n      swap1\n      pop\n        /* \"#utility.yul\":12869:12942   */\n      tag_325\n        /* \"#utility.yul\":12937:12940   */\n      0x80\n        /* \"#utility.yul\":12926:12935   */\n      dup4\n        /* \"#utility.yul\":12922:12941   */\n      add\n        /* \"#utility.yul\":12913:12919   */\n      dup5\n        /* \"#utility.yul\":12869:12942   */\n      tag_227\n      jump\t// in\n    tag_325:\n        /* \"#utility.yul\":12067:12949   */\n      swap9\n      swap8\n      pop\n      pop\n      pop\n      pop\n      pop\n      pop\n      pop\n      pop\n      jump\t// out\n        /* \"#utility.yul\":12955:13177   */\n    tag_28:\n        /* \"#utility.yul\":13048:13052   */\n      0x00\n        /* \"#utility.yul\":13086:13088   */\n      0x20\n        /* \"#utility.yul\":13075:13084   */\n      dup3\n        /* \"#utility.yul\":13071:13089   */\n      add\n        /* \"#utility.yul\":13063:13089   */\n      swap1\n      pop\n        /* \"#utility.yul\":13099:13170   */\n      tag_327\n        /* \"#utility.yul\":13167:13168   */\n      0x00\n        /* \"#utility.yul\":13156:13165   */\n      dup4\n        /* \"#utility.yul\":13152:13169   */\n      add\n        /* \"#utility.yul\":13143:13149   */\n      dup5\n        /* \"#utility.yul\":13099:13170   */\n      tag_227\n      jump\t// in\n    tag_327:\n        /* \"#utility.yul\":12955:13177   */\n      swap3\n      swap2\n      pop\n      pop\n      jump\t// out\n        /* \"#utility.yul\":13183:13492   */\n    tag_38:\n        /* \"#utility.yul\":13294:13298   */\n      0x00\n        /* \"#utility.yul\":13332:13334   */\n      0x20\n        /* \"#utility.yul\":13321:13330   */\n      dup3\n        /* \"#utility.yul\":13317:13335   */\n      add\n        /* \"#utility.yul\":13309:13335   */\n      swap1\n      pop\n        /* \"#utility.yul\":13381:13390   */\n      dup2\n        /* \"#utility.yul\":13375:13379   */\n      dup2\n        /* \"#utility.yul\":13371:13391   */\n      sub\n        /* \"#utility.yul\":13367:13368   */\n      0x00\n        /* \"#utility.yul\":13356:13365   */\n      dup4\n        /* \"#utility.yul\":13352:13369   */\n      add\n        /* \"#utility.yul\":13345:13392   */\n      mstore\n        /* \"#utility.yul\":13409:13485   */\n      tag_329\n        /* \"#utility.yul\":13480:13484   */\n      dup2\n        /* \"#utility.yul\":13471:13477   */\n      dup5\n        /* \"#utility.yul\":13409:13485   */\n      tag_250\n      jump\t// in\n    tag_329:\n        /* \"#utility.yul\":13401:13485   */\n      swap1\n      pop\n        /* \"#utility.yul\":13183:13492   */\n      swap3\n      swap2\n      pop\n      pop\n      jump\t// out\n        /* \"#utility.yul\":13498:13748   */\n    tag_51:\n        /* \"#utility.yul\":13605:13609   */\n      0x00\n        /* \"#utility.yul\":13643:13645   */\n      0x20\n        /* \"#utility.yul\":13632:13641   */\n      dup3\n        /* \"#utility.yul\":13628:13646   */\n      add\n        /* \"#utility.yul\":13620:13646   */\n      swap1\n      pop\n        /* \"#utility.yul\":13656:13741   */\n      tag_331\n        /* \"#utility.yul\":13738:13739   */\n      0x00\n        /* \"#utility.yul\":13727:13736   */\n      dup4\n        /* \"#utility.yul\":13723:13740   */\n      add\n        /* \"#utility.yul\":13714:13720   */\n      dup5\n        /* \"#utility.yul\":13656:13741   */\n      tag_263\n      jump\t// in\n    tag_331:\n        /* \"#utility.yul\":13498:13748   */\n      swap3\n      swap2\n      pop\n      pop\n      jump\t// out\n        /* \"#utility.yul\":13754:14004   */\n    tag_22:\n        /* \"#utility.yul\":13861:13865   */\n      0x00\n        /* \"#utility.yul\":13899:13901   */\n      0x20\n        /* \"#utility.yul\":13888:13897   */\n      dup3\n        /* \"#utility.yul\":13884:13902   */\n      add\n        /* \"#utility.yul\":13876:13902   */\n      swap1\n      pop\n        /* \"#utility.yul\":13912:13997   */\n      tag_333\n        /* \"#utility.yul\":13994:13995   */\n      0x00\n        /* \"#utility.yul\":13983:13992   */\n      dup4\n        /* \"#utility.yul\":13979:13996   */\n      add\n        /* \"#utility.yul\":13970:13976   */\n      dup5\n        /* \"#utility.yul\":13912:13997   */\n      tag_267\n      jump\t// in\n    tag_333:\n        /* \"#utility.yul\":13754:14004   */\n      swap3\n      swap2\n      pop\n      pop\n      jump\t// out\n        /* \"#utility.yul\":14010:14429   */\n    tag_103:\n        /* \"#utility.yul\":14176:14180   */\n      0x00\n        /* \"#utility.yul\":14214:14216   */\n      0x20\n        /* \"#utility.yul\":14203:14212   */\n      dup3\n        /* \"#utility.yul\":14199:14217   */\n      add\n        /* \"#utility.yul\":14191:14217   */\n      swap1\n      pop\n        /* \"#utility.yul\":14263:14272   */\n      dup2\n        /* \"#utility.yul\":14257:14261   */\n      dup2\n        /* \"#utility.yul\":14253:14273   */\n      sub\n        /* \"#utility.yul\":14249:14250   */\n      0x00\n        /* \"#utility.yul\":14238:14247   */\n      dup4\n        /* \"#utility.yul\":14234:14251   */\n      add\n        /* \"#utility.yul\":14227:14274   */\n      mstore\n        /* \"#utility.yul\":14291:14422   */\n      tag_335\n        /* \"#utility.yul\":14417:14421   */\n      dup2\n        /* \"#utility.yul\":14291:14422   */\n      tag_277\n      jump\t// in\n    tag_335:\n        /* \"#utility.yul\":14283:14422   */\n      swap1\n      pop\n        /* \"#utility.yul\":14010:14429   */\n      swap2\n      swap1\n      pop\n      jump\t// out\n        /* \"#utility.yul\":14435:14854   */\n    tag_69:\n        /* \"#utility.yul\":14601:14605   */\n      0x00\n        /* \"#utility.yul\":14639:14641   */\n      0x20\n        /* \"#utility.yul\":14628:14637   */\n      dup3\n        /* \"#utility.yul\":14624:14642   */\n      add\n        /* \"#utility.yul\":14616:14642   */\n      swap1\n      pop\n        /* \"#utility.yul\":14688:14697   */\n      dup2\n        /* \"#utility.yul\":14682:14686   */\n      dup2\n        /* \"#utility.yul\":14678:14698   */\n      sub\n        /* \"#utility.yul\":14674:14675   */\n      0x00\n        /* \"#utility.yul\":14663:14672   */\n      dup4\n        /* \"#utility.yul\":14659:14676   */\n      add\n        /* \"#utility.yul\":14652:14699   */\n      mstore\n        /* \"#utility.yul\":14716:14847   */\n      tag_337\n        /* \"#utility.yul\":14842:14846   */\n      dup2\n        /* \"#utility.yul\":14716:14847   */\n      tag_282\n      jump\t// in\n    tag_337:\n        /* \"#utility.yul\":14708:14847   */\n      swap1\n      pop\n        /* \"#utility.yul\":14435:14854   */\n      swap2\n      swap1\n      pop\n      jump\t// out\n        /* \"#utility.yul\":14860:15279   */\n    tag_90:\n        /* \"#utility.yul\":15026:15030   */\n      0x00\n        /* \"#utility.yul\":15064:15066   */\n      0x20\n        /* \"#utility.yul\":15053:15062   */\n      dup3\n        /* \"#utility.yul\":15049:15067   */\n      add\n        /* \"#utility.yul\":15041:15067   */\n      swap1\n      pop\n        /* \"#utility.yul\":15113:15122   */\n      dup2\n        /* \"#utility.yul\":15107:15111   */\n      dup2\n        /* \"#utility.yul\":15103:15123   */\n      sub\n        /* \"#utility.yul\":15099:15100   */\n      0x00\n        /* \"#utility.yul\":15088:15097   */\n      dup4\n        /* \"#utility.yul\":15084:15101   */\n      add\n        /* \"#utility.yul\":15077:15124   */\n      mstore\n        /* \"#utility.yul\":15141:15272   */\n      tag_339\n        /* \"#utility.yul\":15267:15271   */\n      dup2\n        /* \"#utility.yul\":15141:15272   */\n      tag_287\n      jump\t// in\n    tag_339:\n        /* \"#utility.yul\":15133:15272   */\n      swap1\n      pop\n        /* \"#utility.yul\":14860:15279   */\n      swap2\n      swap1\n      pop\n      jump\t// out\n        /* \"#utility.yul\":15285:15704   */\n    tag_77:\n        /* \"#utility.yul\":15451:15455   */\n      0x00\n        /* \"#utility.yul\":15489:15491   */\n      0x20\n        /* \"#utility.yul\":15478:15487   */\n      dup3\n        /* \"#utility.yul\":15474:15492   */\n      add\n        /* \"#utility.yul\":15466:15492   */\n      swap1\n      pop\n        /* \"#utility.yul\":15538:15547   */\n      dup2\n        /* \"#utility.yul\":15532:15536   */\n      dup2\n        /* \"#utility.yul\":15528:15548   */\n      sub\n        /* \"#utility.yul\":15524:15525   */\n      0x00\n        /* \"#utility.yul\":15513:15522   */\n      dup4\n        /* \"#utility.yul\":15509:15526   */\n      add\n        /* \"#utility.yul\":15502:15549   */\n      mstore\n        /* \"#utility.yul\":15566:15697   */\n      tag_341\n        /* \"#utility.yul\":15692:15696   */\n      dup2\n        /* \"#utility.yul\":15566:15697   */\n      tag_292\n      jump\t// in\n    tag_341:\n        /* \"#utility.yul\":15558:15697   */\n      swap1\n      pop\n        /* \"#utility.yul\":15285:15704   */\n      swap2\n      swap1\n      pop\n      jump\t// out\n        /* \"#utility.yul\":15710:16129   */\n    tag_115:\n        /* \"#utility.yul\":15876:15880   */\n      0x00\n        /* \"#utility.yul\":15914:15916   */\n      0x20\n        /* \"#utility.yul\":15903:15912   */\n      dup3\n        /* \"#utility.yul\":15899:15917   */\n      add\n        /* \"#utility.yul\":15891:15917   */\n      swap1\n      pop\n        /* \"#utility.yul\":15963:15972   */\n      dup2\n        /* \"#utility.yul\":15957:15961   */\n      dup2\n        /* \"#utility.yul\":15953:15973   */\n      sub\n        /* \"#utility.yul\":15949:15950   */\n      0x00\n        /* \"#utility.yul\":15938:15947   */\n      dup4\n        /* \"#utility.yul\":15934:15951   */\n      add\n        /* \"#utility.yul\":15927:15974   */\n      mstore\n        /* \"#utility.yul\":15991:16122   */\n      tag_343\n        /* \"#utility.yul\":16117:16121   */\n      dup2\n        /* \"#utility.yul\":15991:16122   */\n      tag_297\n      jump\t// in\n    tag_343:\n        /* \"#utility.yul\":15983:16122   */\n      swap1\n      pop\n        /* \"#utility.yul\":15710:16129   */\n      swap2\n      swap1\n      pop\n      jump\t// out\n        /* \"#utility.yul\":16135:16554   */\n    tag_55:\n        /* \"#utility.yul\":16301:16305   */\n      0x00\n        /* \"#utility.yul\":16339:16341   */\n      0x20\n        /* \"#utility.yul\":16328:16337   */\n      dup3\n        /* \"#utility.yul\":16324:16342   */\n      add\n        /* \"#utility.yul\":16316:16342   */\n      swap1\n      pop\n        /* \"#utility.yul\":16388:16397   */\n      dup2\n        /* \"#utility.yul\":16382:16386   */\n      dup2\n        /* \"#utility.yul\":16378:16398   */\n      sub\n        /* \"#utility.yul\":16374:16375   */\n      0x00\n        /* \"#utility.yul\":16363:16372   */\n      dup4\n        /* \"#utility.yul\":16359:16376   */\n      add\n        /* \"#utility.yul\":16352:16399   */\n      mstore\n        /* \"#utility.yul\":16416:16547   */\n      tag_345\n        /* \"#utility.yul\":16542:16546   */\n      dup2\n        /* \"#utility.yul\":16416:16547   */\n      tag_302\n      jump\t// in\n    tag_345:\n        /* \"#utility.yul\":16408:16547   */\n      swap1\n      pop\n        /* \"#utility.yul\":16135:16554   */\n      swap2\n      swap1\n      pop\n      jump\t// out\n        /* \"#utility.yul\":16560:16782   */\n    tag_32:\n        /* \"#utility.yul\":16653:16657   */\n      0x00\n        /* \"#utility.yul\":16691:16693   */\n      0x20\n        /* \"#utility.yul\":16680:16689   */\n      dup3\n        /* \"#utility.yul\":16676:16694   */\n      add\n        /* \"#utility.yul\":16668:16694   */\n      swap1\n      pop\n        /* \"#utility.yul\":16704:16775   */\n      tag_347\n        /* \"#utility.yul\":16772:16773   */\n      0x00\n        /* \"#utility.yul\":16761:16770   */\n      dup4\n        /* \"#utility.yul\":16757:16774   */\n      add\n        /* \"#utility.yul\":16748:16754   */\n      dup5\n        /* \"#utility.yul\":16704:16775   */\n      tag_307\n      jump\t// in\n    tag_347:\n        /* \"#utility.yul\":16560:16782   */\n      swap3\n      swap2\n      pop\n      pop\n      jump\t// out\n        /* \"#utility.yul\":16788:17218   */\n    tag_17:\n        /* \"#utility.yul\":16931:16935   */\n      0x00\n        /* \"#utility.yul\":16969:16971   */\n      0x60\n        /* \"#utility.yul\":16958:16967   */\n      dup3\n        /* \"#utility.yul\":16954:16972   */\n      add\n        /* \"#utility.yul\":16946:16972   */\n      swap1\n      pop\n        /* \"#utility.yul\":16982:17053   */\n      tag_349\n        /* \"#utility.yul\":17050:17051   */\n      0x00\n        /* \"#utility.yul\":17039:17048   */\n      dup4\n        /* \"#utility.yul\":17035:17052   */\n      add\n        /* \"#utility.yul\":17026:17032   */\n      dup7\n        /* \"#utility.yul\":16982:17053   */\n      tag_307\n      jump\t// in\n    tag_349:\n        /* \"#utility.yul\":17063:17135   */\n      tag_350\n        /* \"#utility.yul\":17131:17133   */\n      0x20\n        /* \"#utility.yul\":17120:17129   */\n      dup4\n        /* \"#utility.yul\":17116:17134   */\n      add\n        /* \"#utility.yul\":17107:17113   */\n      dup6\n        /* \"#utility.yul\":17063:17135   */\n      tag_307\n      jump\t// in\n    tag_350:\n        /* \"#utility.yul\":17145:17211   */\n      tag_351\n        /* \"#utility.yul\":17207:17209   */\n      0x40\n        /* \"#utility.yul\":17196:17205   */\n      dup4\n        /* \"#utility.yul\":17192:17210   */\n      add\n        /* \"#utility.yul\":17183:17189   */\n      dup5\n        /* \"#utility.yul\":17145:17211   */\n      tag_223\n      jump\t// in\n    tag_351:\n        /* \"#utility.yul\":16788:17218   */\n      swap5\n      swap4\n      pop\n      pop\n      pop\n      pop\n      jump\t// out\n        /* \"#utility.yul\":17224:17666   */\n    tag_47:\n        /* \"#utility.yul\":17373:17377   */\n      0x00\n        /* \"#utility.yul\":17411:17413   */\n      0x60\n        /* \"#utility.yul\":17400:17409   */\n      dup3\n        /* \"#utility.yul\":17396:17414   */\n      add\n        /* \"#utility.yul\":17388:17414   */\n      swap1\n      pop\n        /* \"#utility.yul\":17424:17495   */\n      tag_353\n        /* \"#utility.yul\":17492:17493   */\n      0x00\n        /* \"#utility.yul\":17481:17490   */\n      dup4\n        /* \"#utility.yul\":17477:17494   */\n      add\n        /* \"#utility.yul\":17468:17474   */\n      dup7\n        /* \"#utility.yul\":17424:17495   */\n      tag_307\n      jump\t// in\n    tag_353:\n        /* \"#utility.yul\":17505:17577   */\n      tag_354\n        /* \"#utility.yul\":17573:17575   */\n      0x20\n        /* \"#utility.yul\":17562:17571   */\n      dup4\n        /* \"#utility.yul\":17558:17576   */\n      add\n        /* \"#utility.yul\":17549:17555   */\n      dup6\n        /* \"#utility.yul\":17505:17577   */\n      tag_307\n      jump\t// in\n    tag_354:\n        /* \"#utility.yul\":17587:17659   */\n      tag_355\n        /* \"#utility.yul\":17655:17657   */\n      0x40\n        /* \"#utility.yul\":17644:17653   */\n      dup4\n        /* \"#utility.yul\":17640:17658   */\n      add\n        /* \"#utility.yul\":17631:17637   */\n      dup5\n        /* \"#utility.yul\":17587:17659   */\n      tag_307\n      jump\t// in\n    tag_355:\n        /* \"#utility.yul\":17224:17666   */\n      swap5\n      swap4\n      pop\n      pop\n      pop\n      pop\n      jump\t// out\n        /* \"#utility.yul\":17753:17851   */\n    tag_253:\n        /* \"#utility.yul\":17804:17810   */\n      0x00\n        /* \"#utility.yul\":17838:17843   */\n      dup2\n        /* \"#utility.yul\":17832:17844   */\n      mload\n        /* \"#utility.yul\":17822:17844   */\n      swap1\n      pop\n        /* \"#utility.yul\":17753:17851   */\n      swap2\n      swap1\n      pop\n      jump\t// out\n        /* \"#utility.yul\":17857:18025   */\n    tag_240:\n        /* \"#utility.yul\":17940:17951   */\n      0x00\n        /* \"#utility.yul\":17974:17980   */\n      dup3\n        /* \"#utility.yul\":17969:17972   */\n      dup3\n        /* \"#utility.yul\":17962:17981   */\n      mstore\n        /* \"#utility.yul\":18014:18018   */\n      0x20\n        /* \"#utility.yul\":18009:18012   */\n      dup3\n        /* \"#utility.yul\":18005:18019   */\n      add\n        /* \"#utility.yul\":17990:18019   */\n      swap1\n      pop\n        /* \"#utility.yul\":17857:18025   */\n      swap3\n      swap2\n      pop\n      pop\n      jump\t// out\n        /* \"#utility.yul\":18031:18178   */\n    tag_248:\n        /* \"#utility.yul\":18132:18143   */\n      0x00\n        /* \"#utility.yul\":18169:18172   */\n      dup2\n        /* \"#utility.yul\":18154:18172   */\n      swap1\n      pop\n        /* \"#utility.yul\":18031:18178   */\n      swap3\n      swap2\n      pop\n      pop\n      jump\t// out\n        /* \"#utility.yul\":18184:18353   */\n    tag_274:\n        /* \"#utility.yul\":18268:18279   */\n      0x00\n        /* \"#utility.yul\":18302:18308   */\n      dup3\n        /* \"#utility.yul\":18297:18300   */\n      dup3\n        /* \"#utility.yul\":18290:18309   */\n      mstore\n        /* \"#utility.yul\":18342:18346   */\n      0x20\n        /* \"#utility.yul\":18337:18340   */\n      dup3\n        /* \"#utility.yul\":18333:18347   */\n      add\n        /* \"#utility.yul\":18318:18347   */\n      swap1\n      pop\n        /* \"#utility.yul\":18184:18353   */\n      swap3\n      swap2\n      pop\n      pop\n      jump\t// out\n        /* \"#utility.yul\":18359:18664   */\n    tag_79:\n        /* \"#utility.yul\":18399:18402   */\n      0x00\n        /* \"#utility.yul\":18418:18438   */\n      tag_363\n        /* \"#utility.yul\":18436:18437   */\n      dup3\n        /* \"#utility.yul\":18418:18438   */\n      tag_310\n      jump\t// in\n    tag_363:\n        /* \"#utility.yul\":18413:18438   */\n      swap2\n      pop\n        /* \"#utility.yul\":18452:18472   */\n      tag_364\n        /* \"#utility.yul\":18470:18471   */\n      dup4\n        /* \"#utility.yul\":18452:18472   */\n      tag_310\n      jump\t// in\n    tag_364:\n        /* \"#utility.yul\":18447:18472   */\n      swap3\n      pop\n        /* \"#utility.yul\":18606:18607   */\n      dup3\n        /* \"#utility.yul\":18538:18604   */\n      0xffffffffffffffffffffffffffffffffffffffffffffffffffffffffffffffff\n        /* \"#utility.yul\":18534:18608   */\n      sub\n        /* \"#utility.yul\":18531:18532   */\n      dup3\n        /* \"#utility.yul\":18528:18609   */\n      gt\n        /* \"#utility.yul\":18525:18632   */\n      iszero\n      tag_365\n      jumpi\n        /* \"#utility.yul\":18612:18630   */\n      tag_366\n      tag_367\n      jump\t// in\n    tag_366:\n        /* \"#utility.yul\":18525:18632   */\n    tag_365:\n        /* \"#utility.yul\":18656:18657   */\n      dup3\n        /* \"#utility.yul\":18653:18654   */\n      dup3\n        /* \"#utility.yul\":18649:18658   */\n      add\n        /* \"#utility.yul\":18642:18658   */\n      swap1\n      pop\n        /* \"#utility.yul\":18359:18664   */\n      swap3\n      swap2\n      pop\n      pop\n      jump\t// out\n        /* \"#utility.yul\":18670:18766   */\n    tag_222:\n        /* \"#utility.yul\":18707:18714   */\n      0x00\n        /* \"#utility.yul\":18736:18760   */\n      tag_369\n        /* \"#utility.yul\":18754:18759   */\n      dup3\n        /* \"#utility.yul\":18736:18760   */\n      tag_370\n      jump\t// in\n    tag_369:\n        /* \"#utility.yul\":18725:18760   */\n      swap1\n      pop\n        /* \"#utility.yul\":18670:18766   */\n      swap2\n      swap1\n      pop\n      jump\t// out\n        /* \"#utility.yul\":18772:18862   */\n    tag_226:\n        /* \"#utility.yul\":18806:18813   */\n      0x00\n        /* \"#utility.yul\":18849:18854   */\n      dup2\n        /* \"#utility.yul\":18842:18855   */\n      iszero\n        /* \"#utility.yul\":18835:18856   */\n      iszero\n        /* \"#utility.yul\":18824:18856   */\n      swap1\n      pop\n        /* \"#utility.yul\":18772:18862   */\n      swap2\n      swap1\n      pop\n      jump\t// out\n        /* \"#utility.yul\":18868:18945   */\n    tag_230:\n        /* \"#utility.yul\":18905:18912   */\n      0x00\n        /* \"#utility.yul\":18934:18939   */\n      dup2\n        /* \"#utility.yul\":18923:18939   */\n      swap1\n      pop\n        /* \"#utility.yul\":18868:18945   */\n      swap2\n      swap1\n      pop\n      jump\t// out\n        /* \"#utility.yul\":18951:19100   */\n    tag_235:\n        /* \"#utility.yul\":18987:18994   */\n      0x00\n        /* \"#utility.yul\":19027:19093   */\n      0xffffffff00000000000000000000000000000000000000000000000000000000\n        /* \"#utility.yul\":19020:19025   */\n      dup3\n        /* \"#utility.yul\":19016:19094   */\n      and\n        /* \"#utility.yul\":19005:19094   */\n      swap1\n      pop\n        /* \"#utility.yul\":18951:19100   */\n      swap2\n      swap1\n      pop\n      jump\t// out\n        /* \"#utility.yul\":19106:19249   */\n    tag_374:\n        /* \"#utility.yul\":19159:19166   */\n      0x00\n        /* \"#utility.yul\":19188:19193   */\n      dup2\n        /* \"#utility.yul\":19177:19193   */\n      swap1\n      pop\n        /* \"#utility.yul\":19194:19243   */\n      tag_376\n        /* \"#utility.yul\":19237:19242   */\n      dup3\n        /* \"#utility.yul\":19194:19243   */\n      tag_377\n      jump\t// in\n    tag_376:\n        /* \"#utility.yul\":19106:19249   */\n      swap2\n      swap1\n      pop\n      jump\t// out\n        /* \"#utility.yul\":19255:19381   */\n    tag_370:\n        /* \"#utility.yul\":19292:19299   */\n      0x00\n        /* \"#utility.yul\":19332:19374   */\n      0xffffffffffffffffffffffffffffffffffffffff\n        /* \"#utility.yul\":19325:19330   */\n      dup3\n        /* \"#utility.yul\":19321:19375   */\n      and\n        /* \"#utility.yul\":19310:19375   */\n      swap1\n      pop\n        /* \"#utility.yul\":19255:19381   */\n      swap2\n      swap1\n      pop\n      jump\t// out\n        /* \"#utility.yul\":19387:19464   */\n    tag_310:\n        /* \"#utility.yul\":19424:19431   */\n      0x00\n        /* \"#utility.yul\":19453:19458   */\n      dup2\n        /* \"#utility.yul\":19442:19458   */\n      swap1\n      pop\n        /* \"#utility.yul\":19387:19464   */\n      swap2\n      swap1\n      pop\n      jump\t// out\n        /* \"#utility.yul\":19470:19556   */\n    tag_380:\n        /* \"#utility.yul\":19505:19512   */\n      0x00\n        /* \"#utility.yul\":19545:19549   */\n      0xff\n        /* \"#utility.yul\":19538:19543   */\n      dup3\n        /* \"#utility.yul\":19534:19550   */\n      and\n        /* \"#utility.yul\":19523:19550   */\n      swap1\n      pop\n        /* \"#utility.yul\":19470:19556   */\n      swap2\n      swap1\n      pop\n      jump\t// out\n        /* \"#utility.yul\":19562:19702   */\n    tag_266:\n        /* \"#utility.yul\":19626:19635   */\n      0x00\n        /* \"#utility.yul\":19659:19696   */\n      tag_383\n        /* \"#utility.yul\":19690:19695   */\n      dup3\n        /* \"#utility.yul\":19659:19696   */\n      tag_384\n      jump\t// in\n    tag_383:\n        /* \"#utility.yul\":19646:19696   */\n      swap1\n      pop\n        /* \"#utility.yul\":19562:19702   */\n      swap2\n      swap1\n      pop\n      jump\t// out\n        /* \"#utility.yul\":19708:19851   */\n    tag_270:\n        /* \"#utility.yul\":19772:19781   */\n      0x00\n        /* \"#utility.yul\":19805:19845   */\n      tag_386\n        /* \"#utility.yul\":19839:19844   */\n      dup3\n        /* \"#utility.yul\":19805:19845   */\n      tag_374\n      jump\t// in\n    tag_386:\n        /* \"#utility.yul\":19792:19845   */\n      swap1\n      pop\n        /* \"#utility.yul\":19708:19851   */\n      swap2\n      swap1\n      pop\n      jump\t// out\n        /* \"#utility.yul\":19857:19983   */\n    tag_384:\n        /* \"#utility.yul\":19907:19916   */\n      0x00\n        /* \"#utility.yul\":19940:19977   */\n      tag_388\n        /* \"#utility.yul\":19971:19976   */\n      dup3\n        /* \"#utility.yul\":19940:19977   */\n      tag_389\n      jump\t// in\n    tag_388:\n        /* \"#utility.yul\":19927:19977   */\n      swap1\n      pop\n        /* \"#utility.yul\":19857:19983   */\n      swap2\n      swap1\n      pop\n      jump\t// out\n        /* \"#utility.yul\":19989:20102   */\n    tag_389:\n        /* \"#utility.yul\":20039:20048   */\n      0x00\n        /* \"#utility.yul\":20072:20096   */\n      tag_391\n        /* \"#utility.yul\":20090:20095   */\n      dup3\n        /* \"#utility.yul\":20072:20096   */\n      tag_370\n      jump\t// in\n    tag_391:\n        /* \"#utility.yul\":20059:20096   */\n      swap1\n      pop\n        /* \"#utility.yul\":19989:20102   */\n      swap2\n      swap1\n      pop\n      jump\t// out\n        /* \"#utility.yul\":20108:20262   */\n    tag_242:\n        /* \"#utility.yul\":20192:20198   */\n      dup3\n        /* \"#utility.yul\":20187:20190   */\n      dup2\n        /* \"#utility.yul\":20182:20185   */\n      dup4\n        /* \"#utility.yul\":20169:20199   */\n      calldatacopy\n        /* \"#utility.yul\":20254:20255   */\n      0x00\n        /* \"#utility.yul\":20245:20251   */\n      dup4\n        /* \"#utility.yul\":20240:20243   */\n      dup4\n        /* \"#utility.yul\":20236:20252   */\n      add\n        /* \"#utility.yul\":20229:20256   */\n      mstore\n        /* \"#utility.yul\":20108:20262   */\n      pop\n      pop\n      pop\n      jump\t// out\n        /* \"#utility.yul\":20268:20575   */\n    tag_256:\n        /* \"#utility.yul\":20336:20337   */\n      0x00\n        /* \"#utility.yul\":20346:20459   */\n    tag_394:\n        /* \"#utility.yul\":20360:20366   */\n      dup4\n        /* \"#utility.yul\":20357:20358   */\n      dup2\n        /* \"#utility.yul\":20354:20367   */\n      lt\n        /* \"#utility.yul\":20346:20459   */\n      iszero\n      tag_396\n      jumpi\n        /* \"#utility.yul\":20445:20446   */\n      dup1\n        /* \"#utility.yul\":20440:20443   */\n      dup3\n        /* \"#utility.yul\":20436:20447   */\n      add\n        /* \"#utility.yul\":20430:20448   */\n      mload\n        /* \"#utility.yul\":20426:20427   */\n      dup2\n        /* \"#utility.yul\":20421:20424   */\n      dup5\n        /* \"#utility.yul\":20417:20428   */\n      add\n        /* \"#utility.yul\":20410:20449   */\n      mstore\n        /* \"#utility.yul\":20382:20384   */\n      0x20\n        /* \"#utility.yul\":20379:20380   */\n      dup2\n        /* \"#utility.yul\":20375:20385   */\n      add\n        /* \"#utility.yul\":20370:20385   */\n      swap1\n      pop\n        /* \"#utility.yul\":20346:20459   */\n      jump(tag_394)\n    tag_396:\n        /* \"#utility.yul\":20477:20483   */\n      dup4\n        /* \"#utility.yul\":20474:20475   */\n      dup2\n        /* \"#utility.yul\":20471:20484   */\n      gt\n        /* \"#utility.yul\":20468:20569   */\n      iszero\n      tag_397\n      jumpi\n        /* \"#utility.yul\":20557:20558   */\n      0x00\n        /* \"#utility.yul\":20548:20554   */\n      dup5\n        /* \"#utility.yul\":20543:20546   */\n      dup5\n        /* \"#utility.yul\":20539:20555   */\n      add\n        /* \"#utility.yul\":20532:20559   */\n      mstore\n        /* \"#utility.yul\":20468:20569   */\n    tag_397:\n        /* \"#utility.yul\":20317:20575   */\n      pop\n        /* \"#utility.yul\":20268:20575   */\n      pop\n      pop\n      pop\n      jump\t// out\n        /* \"#utility.yul\":20581:20659   */\n    tag_236:\n        /* \"#utility.yul\":20619:20626   */\n      0x00\n        /* \"#utility.yul\":20648:20653   */\n      dup2\n        /* \"#utility.yul\":20637:20653   */\n      swap1\n      pop\n        /* \"#utility.yul\":20581:20659   */\n      swap2\n      swap1\n      pop\n      jump\t// out\n        /* \"#utility.yul\":20665:20845   */\n    tag_367:\n        /* \"#utility.yul\":20713:20790   */\n      0x4e487b7100000000000000000000000000000000000000000000000000000000\n        /* \"#utility.yul\":20710:20711   */\n      0x00\n        /* \"#utility.yul\":20703:20791   */\n      mstore\n        /* \"#utility.yul\":20810:20814   */\n      0x11\n        /* \"#utility.yul\":20807:20808   */\n      0x04\n        /* \"#utility.yul\":20800:20815   */\n      mstore\n        /* \"#utility.yul\":20834:20838   */\n      0x24\n        /* \"#utility.yul\":20831:20832   */\n      0x00\n        /* \"#utility.yul\":20824:20839   */\n      revert\n        /* \"#utility.yul\":20851:21031   */\n    tag_84:\n        /* \"#utility.yul\":20899:20976   */\n      0x4e487b7100000000000000000000000000000000000000000000000000000000\n        /* \"#utility.yul\":20896:20897   */\n      0x00\n        /* \"#utility.yul\":20889:20977   */\n      mstore\n        /* \"#utility.yul\":20996:21000   */\n      0x21\n        /* \"#utility.yul\":20993:20994   */\n      0x04\n        /* \"#utility.yul\":20986:21001   */\n      mstore\n        /* \"#utility.yul\":21020:21024   */\n      0x24\n        /* \"#utility.yul\":21017:21018   */\n      0x00\n        /* \"#utility.yul\":21010:21025   */\n      revert\n        /* \"#utility.yul\":21037:21154   */\n    tag_155:\n        /* \"#utility.yul\":21146:21147   */\n      0x00\n        /* \"#utility.yul\":21143:21144   */\n      dup1\n        /* \"#utility.yul\":21136:21148   */\n      revert\n        /* \"#utility.yul\":21160:21277   */\n    tag_152:\n        /* \"#utility.yul\":21269:21270   */\n      0x00\n        /* \"#utility.yul\":21266:21267   */\n      dup1\n        /* \"#utility.yul\":21259:21271   */\n      revert\n        /* \"#utility.yul\":21283:21400   */\n    tag_158:\n        /* \"#utility.yul\":21392:21393   */\n      0x00\n        /* \"#utility.yul\":21389:21390   */\n      dup1\n        /* \"#utility.yul\":21382:21394   */\n      revert\n        /* \"#utility.yul\":21406:21523   */\n    tag_186:\n        /* \"#utility.yul\":21515:21516   */\n      0x00\n        /* \"#utility.yul\":21512:21513   */\n      dup1\n        /* \"#utility.yul\":21505:21517   */\n      revert\n        /* \"#utility.yul\":21529:21646   */\n    tag_181:\n        /* \"#utility.yul\":21638:21639   */\n      0x00\n        /* \"#utility.yul\":21635:21636   */\n      dup1\n        /* \"#utility.yul\":21628:21640   */\n      revert\n        /* \"#utility.yul\":21652:21754   */\n    tag_244:\n        /* \"#utility.yul\":21693:21699   */\n      0x00\n        /* \"#utility.yul\":21744:21746   */\n      0x1f\n        /* \"#utility.yul\":21740:21747   */\n      not\n        /* \"#utility.yul\":21735:21737   */\n      0x1f\n        /* \"#utility.yul\":21728:21733   */\n      dup4\n        /* \"#utility.yul\":21724:21738   */\n      add\n        /* \"#utility.yul\":21720:21748   */\n      and\n        /* \"#utility.yul\":21710:21748   */\n      swap1\n      pop\n        /* \"#utility.yul\":21652:21754   */\n      swap2\n      swap1\n      pop\n      jump\t// out\n        /* \"#utility.yul\":21760:21929   */\n    tag_281:\n        /* \"#utility.yul\":21900:21921   */\n      0x5472616e73616374696f6e206661696c65642e00000000000000000000000000\n        /* \"#utility.yul\":21896:21897   */\n      0x00\n        /* \"#utility.yul\":21888:21894   */\n      dup3\n        /* \"#utility.yul\":21884:21898   */\n      add\n        /* \"#utility.yul\":21877:21922   */\n      mstore\n        /* \"#utility.yul\":21760:21929   */\n      pop\n      jump\t// out\n        /* \"#utility.yul\":21935:22103   */\n    tag_286:\n        /* \"#utility.yul\":22075:22095   */\n      0x4e6f7420656e6f75676820746f6b656e73210000000000000000000000000000\n        /* \"#utility.yul\":22071:22072   */\n      0x00\n        /* \"#utility.yul\":22063:22069   */\n      dup3\n        /* \"#utility.yul\":22059:22073   */\n      add\n        /* \"#utility.yul\":22052:22096   */\n      mstore\n        /* \"#utility.yul\":21935:22103   */\n      pop\n      jump\t// out\n        /* \"#utility.yul\":22109:22280   */\n    tag_291:\n        /* \"#utility.yul\":22249:22272   */\n      0x496e76616c696420766f74696e672073746174652e0000000000000000000000\n        /* \"#utility.yul\":22245:22246   */\n      0x00\n        /* \"#utility.yul\":22237:22243   */\n      dup3\n        /* \"#utility.yul\":22233:22247   */\n      add\n        /* \"#utility.yul\":22226:22273   */\n      mstore\n        /* \"#utility.yul\":22109:22280   */\n      pop\n      jump\t// out\n        /* \"#utility.yul\":22286:22460   */\n    tag_296:\n        /* \"#utility.yul\":22426:22452   */\n      0x50726f706f73616c20616c7265616479206578697374732e0000000000000000\n        /* \"#utility.yul\":22422:22423   */\n      0x00\n        /* \"#utility.yul\":22414:22420   */\n      dup3\n        /* \"#utility.yul\":22410:22424   */\n      add\n        /* \"#utility.yul\":22403:22453   */\n      mstore\n        /* \"#utility.yul\":22286:22460   */\n      pop\n      jump\t// out\n        /* \"#utility.yul\":22466:22634   */\n    tag_301:\n        /* \"#utility.yul\":22606:22626   */\n      0x596f7520616c726561647920766f746564210000000000000000000000000000\n        /* \"#utility.yul\":22602:22603   */\n      0x00\n        /* \"#utility.yul\":22594:22600   */\n      dup3\n        /* \"#utility.yul\":22590:22604   */\n      add\n        /* \"#utility.yul\":22583:22627   */\n      mstore\n        /* \"#utility.yul\":22466:22634   */\n      pop\n      jump\t// out\n        /* \"#utility.yul\":22640:22812   */\n    tag_306:\n        /* \"#utility.yul\":22780:22804   */\n      0x50726f706f73616c20646f65736e742065786973742100000000000000000000\n        /* \"#utility.yul\":22776:22777   */\n      0x00\n        /* \"#utility.yul\":22768:22774   */\n      dup3\n        /* \"#utility.yul\":22764:22778   */\n      add\n        /* \"#utility.yul\":22757:22805   */\n      mstore\n        /* \"#utility.yul\":22640:22812   */\n      pop\n      jump\t// out\n        /* \"#utility.yul\":22818:22939   */\n    tag_377:\n        /* \"#utility.yul\":22907:22908   */\n      0x04\n        /* \"#utility.yul\":22900:22905   */\n      dup2\n        /* \"#utility.yul\":22897:22909   */\n      lt\n        /* \"#utility.yul\":22887:22933   */\n      tag_414\n      jumpi\n        /* \"#utility.yul\":22913:22931   */\n      tag_415\n      tag_84\n      jump\t// in\n    tag_415:\n        /* \"#utility.yul\":22887:22933   */\n    tag_414:\n        /* \"#utility.yul\":22818:22939   */\n      pop\n      jump\t// out\n        /* \"#utility.yul\":22945:23067   */\n    tag_143:\n        /* \"#utility.yul\":23018:23042   */\n      tag_417\n        /* \"#utility.yul\":23036:23041   */\n      dup2\n        /* \"#utility.yul\":23018:23042   */\n      tag_222\n      jump\t// in\n    tag_417:\n        /* \"#utility.yul\":23011:23016   */\n      dup2\n        /* \"#utility.yul\":23008:23043   */\n      eq\n        /* \"#utility.yul\":22998:23061   */\n      tag_418\n      jumpi\n        /* \"#utility.yul\":23057:23058   */\n      0x00\n        /* \"#utility.yul\":23054:23055   */\n      dup1\n        /* \"#utility.yul\":23047:23059   */\n      revert\n        /* \"#utility.yul\":22998:23061   */\n    tag_418:\n        /* \"#utility.yul\":22945:23067   */\n      pop\n      jump\t// out\n        /* \"#utility.yul\":23073:23195   */\n    tag_147:\n        /* \"#utility.yul\":23146:23170   */\n      tag_420\n        /* \"#utility.yul\":23164:23169   */\n      dup2\n        /* \"#utility.yul\":23146:23170   */\n      tag_230\n      jump\t// in\n    tag_420:\n        /* \"#utility.yul\":23139:23144   */\n      dup2\n        /* \"#utility.yul\":23136:23171   */\n      eq\n        /* \"#utility.yul\":23126:23189   */\n      tag_421\n      jumpi\n        /* \"#utility.yul\":23185:23186   */\n      0x00\n        /* \"#utility.yul\":23182:23183   */\n      dup1\n        /* \"#utility.yul\":23175:23187   */\n      revert\n        /* \"#utility.yul\":23126:23189   */\n    tag_421:\n        /* \"#utility.yul\":23073:23195   */\n      pop\n      jump\t// out\n        /* \"#utility.yul\":23201:23323   */\n    tag_170:\n        /* \"#utility.yul\":23274:23298   */\n      tag_423\n        /* \"#utility.yul\":23292:23297   */\n      dup2\n        /* \"#utility.yul\":23274:23298   */\n      tag_310\n      jump\t// in\n    tag_423:\n        /* \"#utility.yul\":23267:23272   */\n      dup2\n        /* \"#utility.yul\":23264:23299   */\n      eq\n        /* \"#utility.yul\":23254:23317   */\n      tag_424\n      jumpi\n        /* \"#utility.yul\":23313:23314   */\n      0x00\n        /* \"#utility.yul\":23310:23311   */\n      dup1\n        /* \"#utility.yul\":23303:23315   */\n      revert\n        /* \"#utility.yul\":23254:23317   */\n    tag_424:\n        /* \"#utility.yul\":23201:23323   */\n      pop\n      jump\t// out\n        /* \"#utility.yul\":23329:23447   */\n    tag_177:\n        /* \"#utility.yul\":23400:23422   */\n      tag_426\n        /* \"#utility.yul\":23416:23421   */\n      dup2\n        /* \"#utility.yul\":23400:23422   */\n      tag_380\n      jump\t// in\n    tag_426:\n        /* \"#utility.yul\":23393:23398   */\n      dup2\n        /* \"#utility.yul\":23390:23423   */\n      eq\n        /* \"#utility.yul\":23380:23441   */\n      tag_427\n      jumpi\n        /* \"#utility.yul\":23437:23438   */\n      0x00\n        /* \"#utility.yul\":23434:23435   */\n      dup1\n        /* \"#utility.yul\":23427:23439   */\n      revert\n        /* \"#utility.yul\":23380:23441   */\n    tag_427:\n        /* \"#utility.yul\":23329:23447   */\n      pop\n      jump\t// out\n\n    auxdata: 0xa264697066735822122025f4f1589641f2f3155d53d1c0850a6cacd9c07e96738a1a3b8f0d03aec2a64264736f6c63430008070033\n}\n",
				"bytecode": {
					"linkReferences": {},
					"object": "60806040523480156200001157600080fd5b506040516200185238038062001852833981810160405281019062000037919062000096565b80600260006101000a81548173ffffffffffffffffffffffffffffffffffffffff021916908373ffffffffffffffffffffffffffffffffffffffff160217905550506200012f565b600081519050620000908162000115565b92915050565b600060208284031215620000af57620000ae62000110565b5b6000620000bf848285016200007f565b91505092915050565b6000620000d582620000f0565b9050919050565b6000620000e982620000c8565b9050919050565b600073ffffffffffffffffffffffffffffffffffffffff82169050919050565b600080fd5b6200012081620000dc565b81146200012c57600080fd5b50565b611713806200013f6000396000f3fe608060405234801561001057600080fd5b50600436106100885760003560e01c8063bb0f4b151161005b578063bb0f4b151461013d578063c9a28cb91461016d578063d14b85b914610189578063fc0c546a146101bb57610088565b806332ed5b121461008d57806361d585da146100bf5780638524c65d146100ef578063a438d2081461011f575b600080fd5b6100a760048036038101906100a29190610dd3565b6101d9565b6040516100b6939291906112c1565b60405180910390f35b6100d960048036038101906100d49190610dd3565b610210565b6040516100e691906111cb565b60405180910390f35b61010960048036038101906101049190610cf7565b6102e5565b6040516101169190611173565b60405180910390f35b6101276104dd565b60405161013491906112a6565b60405180910390f35b61015760048036038101906101529190610c3b565b6104e2565b604051610164919061118e565b60405180910390f35b61018760048036038101906101829190610e00565b6106f4565b005b6101a3600480360381019061019e9190610dd3565b610a94565b6040516101b2939291906112f8565b60405180910390f35b6101c3610abe565b6040516101d091906111b0565b60405180910390f35b60006020528060005260406000206000915090508060000154908060010154908060020160009054906101000a900460ff16905083565b600080600080848152602001908152602001600020905060006001600085815260200190815260200160002090506000826000015411610285576040517f08c379a000000000000000000000000000000000000000000000000000000000815260040161027c90611286565b60405180910390fd5b8160020160009054906101000a900460ff16156102a7576003925050506102e0565b81600101544210156102be576000925050506102e0565b8060000154816001015411156102d9576001925050506102e0565b6002925050505b919050565b600033600080600260009054906101000a900473ffffffffffffffffffffffffffffffffffffffff1673ffffffffffffffffffffffffffffffffffffffff166370a08231846040518263ffffffff1660e01b815260040161034691906110f3565b60206040518083038186803b15801561035e57600080fd5b505afa158015610372573d6000803e3d6000fd5b505050506040513d601f19601f820116820180604052508101906103969190610e40565b106103d6576040517f08c379a00000000000000000000000000000000000000000000000000000000081526004016103cd90611206565b60405180910390fd5b60006103fe8c8c8c8c8c8c8c8c6040516103f19291906110c3565b6040518091039020610ae4565b905060008060008381526020019081526020016000206000015414610458576040517f08c379a000000000000000000000000000000000000000000000000000000000815260040161044f90611246565b60405180910390fd5b6040518060600160405280428152602001605a426104769190611367565b815260200160001515815250600080838152602001908152602001600020600082015181600001556020820151816001015560408201518160020160006101000a81548160ff02191690831515021790555090505080935050505098975050505050505050565b605a81565b606060006104f589898989898989610ae4565b90506001600381111561050b5761050a61151e565b5b61051482610210565b60038111156105265761052561151e565b5b14610566576040517f08c379a000000000000000000000000000000000000000000000000000000000815260040161055d90611226565b60405180910390fd5b6000806000838152602001908152602001600020905060018160020160006101000a81548160ff021916908315150217905550606060008989905011156105e95788886040516105b79291906110c3565b604051809103902087876040516020016105d393929190611099565b6040516020818303038152906040529050610631565b86868080601f016020809104026020016040519081016040528093929190818152602001838380828437600081840152601f19601f8201169050808301925050505050505090505b6000808c73ffffffffffffffffffffffffffffffffffffffff168c8460405161065a91906110dc565b60006040518083038185875af1925050503d8060008114610697576040519150601f19603f3d011682016040523d82523d6000602084013e61069c565b606091505b5091509150816106e1576040517f08c379a00000000000000000000000000000000000000000000000000000000081526004016106d8906111e6565b60405180910390fd5b8095505050505050979650505050505050565b33600080600260009054906101000a900473ffffffffffffffffffffffffffffffffffffffff1673ffffffffffffffffffffffffffffffffffffffff166370a08231846040518263ffffffff1660e01b815260040161075391906110f3565b60206040518083038186803b15801561076b57600080fd5b505afa15801561077f573d6000803e3d6000fd5b505050506040513d601f19601f820116820180604052508101906107a39190610e40565b106107e3576040517f08c379a00000000000000000000000000000000000000000000000000000000081526004016107da90611206565b60405180910390fd5b33846001600082815260200190815260200160002060030160008373ffffffffffffffffffffffffffffffffffffffff1673ffffffffffffffffffffffffffffffffffffffff16815260200190815260200160002060009054906101000a900460ff1615610886576040517f08c379a000000000000000000000000000000000000000000000000000000000815260040161087d90611266565b60405180910390fd5b6000600381111561089a5761089961151e565b5b6108a387610210565b60038111156108b5576108b461151e565b5b146108f5576040517f08c379a00000000000000000000000000000000000000000000000000000000081526004016108ec90611226565b60405180910390fd5b6000600260009054906101000a900473ffffffffffffffffffffffffffffffffffffffff1673ffffffffffffffffffffffffffffffffffffffff166370a08231336040518263ffffffff1660e01b815260040161095291906110f3565b60206040518083038186803b15801561096a57600080fd5b505afa15801561097e573d6000803e3d6000fd5b505050506040513d601f19601f820116820180604052508101906109a29190610e40565b9050600060016000898152602001908152602001600020905060008760ff1614156109e757818160000160008282546109db9190611367565b92505081905550610a30565b60018760ff161415610a135781816001016000828254610a079190611367565b92505081905550610a2f565b81816002016000828254610a279190611367565b925050819055505b5b60018160030160003373ffffffffffffffffffffffffffffffffffffffff1673ffffffffffffffffffffffffffffffffffffffff16815260200190815260200160002060006101000a81548160ff0219169083151502179055505050505050505050565b60016020528060005260406000206000915090508060000154908060010154908060020154905083565b600260009054906101000a900473ffffffffffffffffffffffffffffffffffffffff1681565b600087878787878787604051602001610b03979695949392919061110e565b604051602081830303815290604052805190602001209050979650505050505050565b600081359050610b3581611681565b92915050565b600081359050610b4a81611698565b92915050565b60008083601f840112610b6657610b65611552565b5b8235905067ffffffffffffffff811115610b8357610b8261154d565b5b602083019150836001820283011115610b9f57610b9e611557565b5b9250929050565b60008083601f840112610bbc57610bbb611552565b5b8235905067ffffffffffffffff811115610bd957610bd861154d565b5b602083019150836001820283011115610bf557610bf4611557565b5b9250929050565b600081359050610c0b816116af565b92915050565b600081519050610c20816116af565b92915050565b600081359050610c35816116c6565b92915050565b600080600080600080600060a0888a031215610c5a57610c59611561565b5b6000610c688a828b01610b26565b9750506020610c798a828b01610bfc565b965050604088013567ffffffffffffffff811115610c9a57610c9961155c565b5b610ca68a828b01610ba6565b9550955050606088013567ffffffffffffffff811115610cc957610cc861155c565b5b610cd58a828b01610b50565b93509350506080610ce88a828b01610b3b565b91505092959891949750929550565b60008060008060008060008060a0898b031215610d1757610d16611561565b5b6000610d258b828c01610b26565b9850506020610d368b828c01610bfc565b975050604089013567ffffffffffffffff811115610d5757610d5661155c565b5b610d638b828c01610ba6565b9650965050606089013567ffffffffffffffff811115610d8657610d8561155c565b5b610d928b828c01610b50565b9450945050608089013567ffffffffffffffff811115610db557610db461155c565b5b610dc18b828c01610ba6565b92509250509295985092959890939650565b600060208284031215610de957610de8611561565b5b6000610df784828501610b3b565b91505092915050565b60008060408385031215610e1757610e16611561565b5b6000610e2585828601610b3b565b9250506020610e3685828601610c26565b9150509250929050565b600060208284031215610e5657610e55611561565b5b6000610e6484828501610c11565b91505092915050565b610e76816113bd565b82525050565b610e85816113cf565b82525050565b610e94816113db565b82525050565b610eab610ea6826113e5565b6114e5565b82525050565b6000610ebd838561133a565b9350610eca8385846114a3565b610ed383611566565b840190509392505050565b6000610eea838561134b565b9350610ef78385846114a3565b82840190509392505050565b6000610f0e8261132f565b610f18818561133a565b9350610f288185602086016114b2565b610f3181611566565b840191505092915050565b6000610f478261132f565b610f51818561134b565b9350610f618185602086016114b2565b80840191505092915050565b610f768161145b565b82525050565b610f858161146d565b82525050565b6000610f978385611356565b9350610fa48385846114a3565b610fad83611566565b840190509392505050565b6000610fc5601383611356565b9150610fd082611577565b602082019050919050565b6000610fe8601283611356565b9150610ff3826115a0565b602082019050919050565b600061100b601583611356565b9150611016826115c9565b602082019050919050565b600061102e601883611356565b9150611039826115f2565b602082019050919050565b6000611051601283611356565b915061105c8261161b565b602082019050919050565b6000611074601683611356565b915061107f82611644565b602082019050919050565b61109381611444565b82525050565b60006110a58286610e9a565b6004820191506110b6828486610ede565b9150819050949350505050565b60006110d0828486610ede565b91508190509392505050565b60006110e88284610f3c565b915081905092915050565b60006020820190506111086000830184610e6d565b92915050565b600060a082019050611123600083018a610e6d565b611130602083018961108a565b8181036040830152611143818789610f8b565b90508181036060830152611158818587610eb1565b90506111676080830184610e8b565b98975050505050505050565b60006020820190506111886000830184610e8b565b92915050565b600060208201905081810360008301526111a88184610f03565b905092915050565b60006020820190506111c56000830184610f6d565b92915050565b60006020820190506111e06000830184610f7c565b92915050565b600060208201905081810360008301526111ff81610fb8565b9050919050565b6000602082019050818103600083015261121f81610fdb565b9050919050565b6000602082019050818103600083015261123f81610ffe565b9050919050565b6000602082019050818103600083015261125f81611021565b9050919050565b6000602082019050818103600083015261127f81611044565b9050919050565b6000602082019050818103600083015261129f81611067565b9050919050565b60006020820190506112bb600083018461108a565b92915050565b60006060820190506112d6600083018661108a565b6112e3602083018561108a565b6112f06040830184610e7c565b949350505050565b600060608201905061130d600083018661108a565b61131a602083018561108a565b611327604083018461108a565b949350505050565b600081519050919050565b600082825260208201905092915050565b600081905092915050565b600082825260208201905092915050565b600061137282611444565b915061137d83611444565b9250827fffffffffffffffffffffffffffffffffffffffffffffffffffffffffffffffff038211156113b2576113b16114ef565b5b828201905092915050565b60006113c882611424565b9050919050565b60008115159050919050565b6000819050919050565b60007fffffffff0000000000000000000000000000000000000000000000000000000082169050919050565b600081905061141f8261166d565b919050565b600073ffffffffffffffffffffffffffffffffffffffff82169050919050565b6000819050919050565b600060ff82169050919050565b60006114668261147f565b9050919050565b600061147882611411565b9050919050565b600061148a82611491565b9050919050565b600061149c82611424565b9050919050565b82818337600083830152505050565b60005b838110156114d05780820151818401526020810190506114b5565b838111156114df576000848401525b50505050565b6000819050919050565b7f4e487b7100000000000000000000000000000000000000000000000000000000600052601160045260246000fd5b7f4e487b7100000000000000000000000000000000000000000000000000000000600052602160045260246000fd5b600080fd5b600080fd5b600080fd5b600080fd5b600080fd5b6000601f19601f8301169050919050565b7f5472616e73616374696f6e206661696c65642e00000000000000000000000000600082015250565b7f4e6f7420656e6f75676820746f6b656e73210000000000000000000000000000600082015250565b7f496e76616c696420766f74696e672073746174652e0000000000000000000000600082015250565b7f50726f706f73616c20616c7265616479206578697374732e0000000000000000600082015250565b7f596f7520616c726561647920766f746564210000000000000000000000000000600082015250565b7f50726f706f73616c20646f65736e742065786973742100000000000000000000600082015250565b6004811061167e5761167d61151e565b5b50565b61168a816113bd565b811461169557600080fd5b50565b6116a1816113db565b81146116ac57600080fd5b50565b6116b881611444565b81146116c357600080fd5b50565b6116cf8161144e565b81146116da57600080fd5b5056fea264697066735822122025f4f1589641f2f3155d53d1c0850a6cacd9c07e96738a1a3b8f0d03aec2a64264736f6c63430008070033",
					"opcodes": "PUSH1 0x80 PUSH1 0x40 MSTORE CALLVALUE DUP1 ISZERO PUSH3 0x11 JUMPI PUSH1 0x0 DUP1 REVERT JUMPDEST POP PUSH1 0x40 MLOAD PUSH3 0x1852 CODESIZE SUB DUP1 PUSH3 0x1852 DUP4 CODECOPY DUP2 DUP2 ADD PUSH1 0x40 MSTORE DUP2 ADD SWAP1 PUSH3 0x37 SWAP2 SWAP1 PUSH3 0x96 JUMP JUMPDEST DUP1 PUSH1 0x2 PUSH1 0x0 PUSH2 0x100 EXP DUP2 SLOAD DUP2 PUSH20 0xFFFFFFFFFFFFFFFFFFFFFFFFFFFFFFFFFFFFFFFF MUL NOT AND SWAP1 DUP4 PUSH20 0xFFFFFFFFFFFFFFFFFFFFFFFFFFFFFFFFFFFFFFFF AND MUL OR SWAP1 SSTORE POP POP PUSH3 0x12F JUMP JUMPDEST PUSH1 0x0 DUP2 MLOAD SWAP1 POP PUSH3 0x90 DUP2 PUSH3 0x115 JUMP JUMPDEST SWAP3 SWAP2 POP POP JUMP JUMPDEST PUSH1 0x0 PUSH1 0x20 DUP3 DUP5 SUB SLT ISZERO PUSH3 0xAF JUMPI PUSH3 0xAE PUSH3 0x110 JUMP JUMPDEST JUMPDEST PUSH1 0x0 PUSH3 0xBF DUP5 DUP3 DUP6 ADD PUSH3 0x7F JUMP JUMPDEST SWAP2 POP POP SWAP3 SWAP2 POP POP JUMP JUMPDEST PUSH1 0x0 PUSH3 0xD5 DUP3 PUSH3 0xF0 JUMP JUMPDEST SWAP1 POP SWAP2 SWAP1 POP JUMP JUMPDEST PUSH1 0x0 PUSH3 0xE9 DUP3 PUSH3 0xC8 JUMP JUMPDEST SWAP1 POP SWAP2 SWAP1 POP JUMP JUMPDEST PUSH1 0x0 PUSH20 0xFFFFFFFFFFFFFFFFFFFFFFFFFFFFFFFFFFFFFFFF DUP3 AND SWAP1 POP SWAP2 SWAP1 POP JUMP JUMPDEST PUSH1 0x0 DUP1 REVERT JUMPDEST PUSH3 0x120 DUP2 PUSH3 0xDC JUMP JUMPDEST DUP2 EQ PUSH3 0x12C JUMPI PUSH1 0x0 DUP1 REVERT JUMPDEST POP JUMP JUMPDEST PUSH2 0x1713 DUP1 PUSH3 0x13F PUSH1 0x0 CODECOPY PUSH1 0x0 RETURN INVALID PUSH1 0x80 PUSH1 0x40 MSTORE CALLVALUE DUP1 ISZERO PUSH2 0x10 JUMPI PUSH1 0x0 DUP1 REVERT JUMPDEST POP PUSH1 0x4 CALLDATASIZE LT PUSH2 0x88 JUMPI PUSH1 0x0 CALLDATALOAD PUSH1 0xE0 SHR DUP1 PUSH4 0xBB0F4B15 GT PUSH2 0x5B JUMPI DUP1 PUSH4 0xBB0F4B15 EQ PUSH2 0x13D JUMPI DUP1 PUSH4 0xC9A28CB9 EQ PUSH2 0x16D JUMPI DUP1 PUSH4 0xD14B85B9 EQ PUSH2 0x189 JUMPI DUP1 PUSH4 0xFC0C546A EQ PUSH2 0x1BB JUMPI PUSH2 0x88 JUMP JUMPDEST DUP1 PUSH4 0x32ED5B12 EQ PUSH2 0x8D JUMPI DUP1 PUSH4 0x61D585DA EQ PUSH2 0xBF JUMPI DUP1 PUSH4 0x8524C65D EQ PUSH2 0xEF JUMPI DUP1 PUSH4 0xA438D208 EQ PUSH2 0x11F JUMPI JUMPDEST PUSH1 0x0 DUP1 REVERT JUMPDEST PUSH2 0xA7 PUSH1 0x4 DUP1 CALLDATASIZE SUB DUP2 ADD SWAP1 PUSH2 0xA2 SWAP2 SWAP1 PUSH2 0xDD3 JUMP JUMPDEST PUSH2 0x1D9 JUMP JUMPDEST PUSH1 0x40 MLOAD PUSH2 0xB6 SWAP4 SWAP3 SWAP2 SWAP1 PUSH2 0x12C1 JUMP JUMPDEST PUSH1 0x40 MLOAD DUP1 SWAP2 SUB SWAP1 RETURN JUMPDEST PUSH2 0xD9 PUSH1 0x4 DUP1 CALLDATASIZE SUB DUP2 ADD SWAP1 PUSH2 0xD4 SWAP2 SWAP1 PUSH2 0xDD3 JUMP JUMPDEST PUSH2 0x210 JUMP JUMPDEST PUSH1 0x40 MLOAD PUSH2 0xE6 SWAP2 SWAP1 PUSH2 0x11CB JUMP JUMPDEST PUSH1 0x40 MLOAD DUP1 SWAP2 SUB SWAP1 RETURN JUMPDEST PUSH2 0x109 PUSH1 0x4 DUP1 CALLDATASIZE SUB DUP2 ADD SWAP1 PUSH2 0x104 SWAP2 SWAP1 PUSH2 0xCF7 JUMP JUMPDEST PUSH2 0x2E5 JUMP JUMPDEST PUSH1 0x40 MLOAD PUSH2 0x116 SWAP2 SWAP1 PUSH2 0x1173 JUMP JUMPDEST PUSH1 0x40 MLOAD DUP1 SWAP2 SUB SWAP1 RETURN JUMPDEST PUSH2 0x127 PUSH2 0x4DD JUMP JUMPDEST PUSH1 0x40 MLOAD PUSH2 0x134 SWAP2 SWAP1 PUSH2 0x12A6 JUMP JUMPDEST PUSH1 0x40 MLOAD DUP1 SWAP2 SUB SWAP1 RETURN JUMPDEST PUSH2 0x157 PUSH1 0x4 DUP1 CALLDATASIZE SUB DUP2 ADD SWAP1 PUSH2 0x152 SWAP2 SWAP1 PUSH2 0xC3B JUMP JUMPDEST PUSH2 0x4E2 JUMP JUMPDEST PUSH1 0x40 MLOAD PUSH2 0x164 SWAP2 SWAP1 PUSH2 0x118E JUMP JUMPDEST PUSH1 0x40 MLOAD DUP1 SWAP2 SUB SWAP1 RETURN JUMPDEST PUSH2 0x187 PUSH1 0x4 DUP1 CALLDATASIZE SUB DUP2 ADD SWAP1 PUSH2 0x182 SWAP2 SWAP1 PUSH2 0xE00 JUMP JUMPDEST PUSH2 0x6F4 JUMP JUMPDEST STOP JUMPDEST PUSH2 0x1A3 PUSH1 0x4 DUP1 CALLDATASIZE SUB DUP2 ADD SWAP1 PUSH2 0x19E SWAP2 SWAP1 PUSH2 0xDD3 JUMP JUMPDEST PUSH2 0xA94 JUMP JUMPDEST PUSH1 0x40 MLOAD PUSH2 0x1B2 SWAP4 SWAP3 SWAP2 SWAP1 PUSH2 0x12F8 JUMP JUMPDEST PUSH1 0x40 MLOAD DUP1 SWAP2 SUB SWAP1 RETURN JUMPDEST PUSH2 0x1C3 PUSH2 0xABE JUMP JUMPDEST PUSH1 0x40 MLOAD PUSH2 0x1D0 SWAP2 SWAP1 PUSH2 0x11B0 JUMP JUMPDEST PUSH1 0x40 MLOAD DUP1 SWAP2 SUB SWAP1 RETURN JUMPDEST PUSH1 0x0 PUSH1 0x20 MSTORE DUP1 PUSH1 0x0 MSTORE PUSH1 0x40 PUSH1 0x0 KECCAK256 PUSH1 0x0 SWAP2 POP SWAP1 POP DUP1 PUSH1 0x0 ADD SLOAD SWAP1 DUP1 PUSH1 0x1 ADD SLOAD SWAP1 DUP1 PUSH1 0x2 ADD PUSH1 0x0 SWAP1 SLOAD SWAP1 PUSH2 0x100 EXP SWAP1 DIV PUSH1 0xFF AND SWAP1 POP DUP4 JUMP JUMPDEST PUSH1 0x0 DUP1 PUSH1 0x0 DUP1 DUP5 DUP2 MSTORE PUSH1 0x20 ADD SWAP1 DUP2 MSTORE PUSH1 0x20 ADD PUSH1 0x0 KECCAK256 SWAP1 POP PUSH1 0x0 PUSH1 0x1 PUSH1 0x0 DUP6 DUP2 MSTORE PUSH1 0x20 ADD SWAP1 DUP2 MSTORE PUSH1 0x20 ADD PUSH1 0x0 KECCAK256 SWAP1 POP PUSH1 0x0 DUP3 PUSH1 0x0 ADD SLOAD GT PUSH2 0x285 JUMPI PUSH1 0x40 MLOAD PUSH32 0x8C379A000000000000000000000000000000000000000000000000000000000 DUP2 MSTORE PUSH1 0x4 ADD PUSH2 0x27C SWAP1 PUSH2 0x1286 JUMP JUMPDEST PUSH1 0x40 MLOAD DUP1 SWAP2 SUB SWAP1 REVERT JUMPDEST DUP2 PUSH1 0x2 ADD PUSH1 0x0 SWAP1 SLOAD SWAP1 PUSH2 0x100 EXP SWAP1 DIV PUSH1 0xFF AND ISZERO PUSH2 0x2A7 JUMPI PUSH1 0x3 SWAP3 POP POP POP PUSH2 0x2E0 JUMP JUMPDEST DUP2 PUSH1 0x1 ADD SLOAD TIMESTAMP LT ISZERO PUSH2 0x2BE JUMPI PUSH1 0x0 SWAP3 POP POP POP PUSH2 0x2E0 JUMP JUMPDEST DUP1 PUSH1 0x0 ADD SLOAD DUP2 PUSH1 0x1 ADD SLOAD GT ISZERO PUSH2 0x2D9 JUMPI PUSH1 0x1 SWAP3 POP POP POP PUSH2 0x2E0 JUMP JUMPDEST PUSH1 0x2 SWAP3 POP POP POP JUMPDEST SWAP2 SWAP1 POP JUMP JUMPDEST PUSH1 0x0 CALLER PUSH1 0x0 DUP1 PUSH1 0x2 PUSH1 0x0 SWAP1 SLOAD SWAP1 PUSH2 0x100 EXP SWAP1 DIV PUSH20 0xFFFFFFFFFFFFFFFFFFFFFFFFFFFFFFFFFFFFFFFF AND PUSH20 0xFFFFFFFFFFFFFFFFFFFFFFFFFFFFFFFFFFFFFFFF AND PUSH4 0x70A08231 DUP5 PUSH1 0x40 MLOAD DUP3 PUSH4 0xFFFFFFFF AND PUSH1 0xE0 SHL DUP2 MSTORE PUSH1 0x4 ADD PUSH2 0x346 SWAP2 SWAP1 PUSH2 0x10F3 JUMP JUMPDEST PUSH1 0x20 PUSH1 0x40 MLOAD DUP1 DUP4 SUB DUP2 DUP7 DUP1 EXTCODESIZE ISZERO DUP1 ISZERO PUSH2 0x35E JUMPI PUSH1 0x0 DUP1 REVERT JUMPDEST POP GAS STATICCALL ISZERO DUP1 ISZERO PUSH2 0x372 JUMPI RETURNDATASIZE PUSH1 0x0 DUP1 RETURNDATACOPY RETURNDATASIZE PUSH1 0x0 REVERT JUMPDEST POP POP POP POP PUSH1 0x40 MLOAD RETURNDATASIZE PUSH1 0x1F NOT PUSH1 0x1F DUP3 ADD AND DUP3 ADD DUP1 PUSH1 0x40 MSTORE POP DUP2 ADD SWAP1 PUSH2 0x396 SWAP2 SWAP1 PUSH2 0xE40 JUMP JUMPDEST LT PUSH2 0x3D6 JUMPI PUSH1 0x40 MLOAD PUSH32 0x8C379A000000000000000000000000000000000000000000000000000000000 DUP2 MSTORE PUSH1 0x4 ADD PUSH2 0x3CD SWAP1 PUSH2 0x1206 JUMP JUMPDEST PUSH1 0x40 MLOAD DUP1 SWAP2 SUB SWAP1 REVERT JUMPDEST PUSH1 0x0 PUSH2 0x3FE DUP13 DUP13 DUP13 DUP13 DUP13 DUP13 DUP13 DUP13 PUSH1 0x40 MLOAD PUSH2 0x3F1 SWAP3 SWAP2 SWAP1 PUSH2 0x10C3 JUMP JUMPDEST PUSH1 0x40 MLOAD DUP1 SWAP2 SUB SWAP1 KECCAK256 PUSH2 0xAE4 JUMP JUMPDEST SWAP1 POP PUSH1 0x0 DUP1 PUSH1 0x0 DUP4 DUP2 MSTORE PUSH1 0x20 ADD SWAP1 DUP2 MSTORE PUSH1 0x20 ADD PUSH1 0x0 KECCAK256 PUSH1 0x0 ADD SLOAD EQ PUSH2 0x458 JUMPI PUSH1 0x40 MLOAD PUSH32 0x8C379A000000000000000000000000000000000000000000000000000000000 DUP2 MSTORE PUSH1 0x4 ADD PUSH2 0x44F SWAP1 PUSH2 0x1246 JUMP JUMPDEST PUSH1 0x40 MLOAD DUP1 SWAP2 SUB SWAP1 REVERT JUMPDEST PUSH1 0x40 MLOAD DUP1 PUSH1 0x60 ADD PUSH1 0x40 MSTORE DUP1 TIMESTAMP DUP2 MSTORE PUSH1 0x20 ADD PUSH1 0x5A TIMESTAMP PUSH2 0x476 SWAP2 SWAP1 PUSH2 0x1367 JUMP JUMPDEST DUP2 MSTORE PUSH1 0x20 ADD PUSH1 0x0 ISZERO ISZERO DUP2 MSTORE POP PUSH1 0x0 DUP1 DUP4 DUP2 MSTORE PUSH1 0x20 ADD SWAP1 DUP2 MSTORE PUSH1 0x20 ADD PUSH1 0x0 KECCAK256 PUSH1 0x0 DUP3 ADD MLOAD DUP2 PUSH1 0x0 ADD SSTORE PUSH1 0x20 DUP3 ADD MLOAD DUP2 PUSH1 0x1 ADD SSTORE PUSH1 0x40 DUP3 ADD MLOAD DUP2 PUSH1 0x2 ADD PUSH1 0x0 PUSH2 0x100 EXP DUP2 SLOAD DUP2 PUSH1 0xFF MUL NOT AND SWAP1 DUP4 ISZERO ISZERO MUL OR SWAP1 SSTORE POP SWAP1 POP POP DUP1 SWAP4 POP POP POP POP SWAP9 SWAP8 POP POP POP POP POP POP POP POP JUMP JUMPDEST PUSH1 0x5A DUP2 JUMP JUMPDEST PUSH1 0x60 PUSH1 0x0 PUSH2 0x4F5 DUP10 DUP10 DUP10 DUP10 DUP10 DUP10 DUP10 PUSH2 0xAE4 JUMP JUMPDEST SWAP1 POP PUSH1 0x1 PUSH1 0x3 DUP2 GT ISZERO PUSH2 0x50B JUMPI PUSH2 0x50A PUSH2 0x151E JUMP JUMPDEST JUMPDEST PUSH2 0x514 DUP3 PUSH2 0x210 JUMP JUMPDEST PUSH1 0x3 DUP2 GT ISZERO PUSH2 0x526 JUMPI PUSH2 0x525 PUSH2 0x151E JUMP JUMPDEST JUMPDEST EQ PUSH2 0x566 JUMPI PUSH1 0x40 MLOAD PUSH32 0x8C379A000000000000000000000000000000000000000000000000000000000 DUP2 MSTORE PUSH1 0x4 ADD PUSH2 0x55D SWAP1 PUSH2 0x1226 JUMP JUMPDEST PUSH1 0x40 MLOAD DUP1 SWAP2 SUB SWAP1 REVERT JUMPDEST PUSH1 0x0 DUP1 PUSH1 0x0 DUP4 DUP2 MSTORE PUSH1 0x20 ADD SWAP1 DUP2 MSTORE PUSH1 0x20 ADD PUSH1 0x0 KECCAK256 SWAP1 POP PUSH1 0x1 DUP2 PUSH1 0x2 ADD PUSH1 0x0 PUSH2 0x100 EXP DUP2 SLOAD DUP2 PUSH1 0xFF MUL NOT AND SWAP1 DUP4 ISZERO ISZERO MUL OR SWAP1 SSTORE POP PUSH1 0x60 PUSH1 0x0 DUP10 DUP10 SWAP1 POP GT ISZERO PUSH2 0x5E9 JUMPI DUP9 DUP9 PUSH1 0x40 MLOAD PUSH2 0x5B7 SWAP3 SWAP2 SWAP1 PUSH2 0x10C3 JUMP JUMPDEST PUSH1 0x40 MLOAD DUP1 SWAP2 SUB SWAP1 KECCAK256 DUP8 DUP8 PUSH1 0x40 MLOAD PUSH1 0x20 ADD PUSH2 0x5D3 SWAP4 SWAP3 SWAP2 SWAP1 PUSH2 0x1099 JUMP JUMPDEST PUSH1 0x40 MLOAD PUSH1 0x20 DUP2 DUP4 SUB SUB DUP2 MSTORE SWAP1 PUSH1 0x40 MSTORE SWAP1 POP PUSH2 0x631 JUMP JUMPDEST DUP7 DUP7 DUP1 DUP1 PUSH1 0x1F ADD PUSH1 0x20 DUP1 SWAP2 DIV MUL PUSH1 0x20 ADD PUSH1 0x40 MLOAD SWAP1 DUP2 ADD PUSH1 0x40 MSTORE DUP1 SWAP4 SWAP3 SWAP2 SWAP1 DUP2 DUP2 MSTORE PUSH1 0x20 ADD DUP4 DUP4 DUP1 DUP3 DUP5 CALLDATACOPY PUSH1 0x0 DUP2 DUP5 ADD MSTORE PUSH1 0x1F NOT PUSH1 0x1F DUP3 ADD AND SWAP1 POP DUP1 DUP4 ADD SWAP3 POP POP POP POP POP POP POP SWAP1 POP JUMPDEST PUSH1 0x0 DUP1 DUP13 PUSH20 0xFFFFFFFFFFFFFFFFFFFFFFFFFFFFFFFFFFFFFFFF AND DUP13 DUP5 PUSH1 0x40 MLOAD PUSH2 0x65A SWAP2 SWAP1 PUSH2 0x10DC JUMP JUMPDEST PUSH1 0x0 PUSH1 0x40 MLOAD DUP1 DUP4 SUB DUP2 DUP6 DUP8 GAS CALL SWAP3 POP POP POP RETURNDATASIZE DUP1 PUSH1 0x0 DUP2 EQ PUSH2 0x697 JUMPI PUSH1 0x40 MLOAD SWAP2 POP PUSH1 0x1F NOT PUSH1 0x3F RETURNDATASIZE ADD AND DUP3 ADD PUSH1 0x40 MSTORE RETURNDATASIZE DUP3 MSTORE RETURNDATASIZE PUSH1 0x0 PUSH1 0x20 DUP5 ADD RETURNDATACOPY PUSH2 0x69C JUMP JUMPDEST PUSH1 0x60 SWAP2 POP JUMPDEST POP SWAP2 POP SWAP2 POP DUP2 PUSH2 0x6E1 JUMPI PUSH1 0x40 MLOAD PUSH32 0x8C379A000000000000000000000000000000000000000000000000000000000 DUP2 MSTORE PUSH1 0x4 ADD PUSH2 0x6D8 SWAP1 PUSH2 0x11E6 JUMP JUMPDEST PUSH1 0x40 MLOAD DUP1 SWAP2 SUB SWAP1 REVERT JUMPDEST DUP1 SWAP6 POP POP POP POP POP POP SWAP8 SWAP7 POP POP POP POP POP POP POP JUMP JUMPDEST CALLER PUSH1 0x0 DUP1 PUSH1 0x2 PUSH1 0x0 SWAP1 SLOAD SWAP1 PUSH2 0x100 EXP SWAP1 DIV PUSH20 0xFFFFFFFFFFFFFFFFFFFFFFFFFFFFFFFFFFFFFFFF AND PUSH20 0xFFFFFFFFFFFFFFFFFFFFFFFFFFFFFFFFFFFFFFFF AND PUSH4 0x70A08231 DUP5 PUSH1 0x40 MLOAD DUP3 PUSH4 0xFFFFFFFF AND PUSH1 0xE0 SHL DUP2 MSTORE PUSH1 0x4 ADD PUSH2 0x753 SWAP2 SWAP1 PUSH2 0x10F3 JUMP JUMPDEST PUSH1 0x20 PUSH1 0x40 MLOAD DUP1 DUP4 SUB DUP2 DUP7 DUP1 EXTCODESIZE ISZERO DUP1 ISZERO PUSH2 0x76B JUMPI PUSH1 0x0 DUP1 REVERT JUMPDEST POP GAS STATICCALL ISZERO DUP1 ISZERO PUSH2 0x77F JUMPI RETURNDATASIZE PUSH1 0x0 DUP1 RETURNDATACOPY RETURNDATASIZE PUSH1 0x0 REVERT JUMPDEST POP POP POP POP PUSH1 0x40 MLOAD RETURNDATASIZE PUSH1 0x1F NOT PUSH1 0x1F DUP3 ADD AND DUP3 ADD DUP1 PUSH1 0x40 MSTORE POP DUP2 ADD SWAP1 PUSH2 0x7A3 SWAP2 SWAP1 PUSH2 0xE40 JUMP JUMPDEST LT PUSH2 0x7E3 JUMPI PUSH1 0x40 MLOAD PUSH32 0x8C379A000000000000000000000000000000000000000000000000000000000 DUP2 MSTORE PUSH1 0x4 ADD PUSH2 0x7DA SWAP1 PUSH2 0x1206 JUMP JUMPDEST PUSH1 0x40 MLOAD DUP1 SWAP2 SUB SWAP1 REVERT JUMPDEST CALLER DUP5 PUSH1 0x1 PUSH1 0x0 DUP3 DUP2 MSTORE PUSH1 0x20 ADD SWAP1 DUP2 MSTORE PUSH1 0x20 ADD PUSH1 0x0 KECCAK256 PUSH1 0x3 ADD PUSH1 0x0 DUP4 PUSH20 0xFFFFFFFFFFFFFFFFFFFFFFFFFFFFFFFFFFFFFFFF AND PUSH20 0xFFFFFFFFFFFFFFFFFFFFFFFFFFFFFFFFFFFFFFFF AND DUP2 MSTORE PUSH1 0x20 ADD SWAP1 DUP2 MSTORE PUSH1 0x20 ADD PUSH1 0x0 KECCAK256 PUSH1 0x0 SWAP1 SLOAD SWAP1 PUSH2 0x100 EXP SWAP1 DIV PUSH1 0xFF AND ISZERO PUSH2 0x886 JUMPI PUSH1 0x40 MLOAD PUSH32 0x8C379A000000000000000000000000000000000000000000000000000000000 DUP2 MSTORE PUSH1 0x4 ADD PUSH2 0x87D SWAP1 PUSH2 0x1266 JUMP JUMPDEST PUSH1 0x40 MLOAD DUP1 SWAP2 SUB SWAP1 REVERT JUMPDEST PUSH1 0x0 PUSH1 0x3 DUP2 GT ISZERO PUSH2 0x89A JUMPI PUSH2 0x899 PUSH2 0x151E JUMP JUMPDEST JUMPDEST PUSH2 0x8A3 DUP8 PUSH2 0x210 JUMP JUMPDEST PUSH1 0x3 DUP2 GT ISZERO PUSH2 0x8B5 JUMPI PUSH2 0x8B4 PUSH2 0x151E JUMP JUMPDEST JUMPDEST EQ PUSH2 0x8F5 JUMPI PUSH1 0x40 MLOAD PUSH32 0x8C379A000000000000000000000000000000000000000000000000000000000 DUP2 MSTORE PUSH1 0x4 ADD PUSH2 0x8EC SWAP1 PUSH2 0x1226 JUMP JUMPDEST PUSH1 0x40 MLOAD DUP1 SWAP2 SUB SWAP1 REVERT JUMPDEST PUSH1 0x0 PUSH1 0x2 PUSH1 0x0 SWAP1 SLOAD SWAP1 PUSH2 0x100 EXP SWAP1 DIV PUSH20 0xFFFFFFFFFFFFFFFFFFFFFFFFFFFFFFFFFFFFFFFF AND PUSH20 0xFFFFFFFFFFFFFFFFFFFFFFFFFFFFFFFFFFFFFFFF AND PUSH4 0x70A08231 CALLER PUSH1 0x40 MLOAD DUP3 PUSH4 0xFFFFFFFF AND PUSH1 0xE0 SHL DUP2 MSTORE PUSH1 0x4 ADD PUSH2 0x952 SWAP2 SWAP1 PUSH2 0x10F3 JUMP JUMPDEST PUSH1 0x20 PUSH1 0x40 MLOAD DUP1 DUP4 SUB DUP2 DUP7 DUP1 EXTCODESIZE ISZERO DUP1 ISZERO PUSH2 0x96A JUMPI PUSH1 0x0 DUP1 REVERT JUMPDEST POP GAS STATICCALL ISZERO DUP1 ISZERO PUSH2 0x97E JUMPI RETURNDATASIZE PUSH1 0x0 DUP1 RETURNDATACOPY RETURNDATASIZE PUSH1 0x0 REVERT JUMPDEST POP POP POP POP PUSH1 0x40 MLOAD RETURNDATASIZE PUSH1 0x1F NOT PUSH1 0x1F DUP3 ADD AND DUP3 ADD DUP1 PUSH1 0x40 MSTORE POP DUP2 ADD SWAP1 PUSH2 0x9A2 SWAP2 SWAP1 PUSH2 0xE40 JUMP JUMPDEST SWAP1 POP PUSH1 0x0 PUSH1 0x1 PUSH1 0x0 DUP10 DUP2 MSTORE PUSH1 0x20 ADD SWAP1 DUP2 MSTORE PUSH1 0x20 ADD PUSH1 0x0 KECCAK256 SWAP1 POP PUSH1 0x0 DUP8 PUSH1 0xFF AND EQ ISZERO PUSH2 0x9E7 JUMPI DUP2 DUP2 PUSH1 0x0 ADD PUSH1 0x0 DUP3 DUP3 SLOAD PUSH2 0x9DB SWAP2 SWAP1 PUSH2 0x1367 JUMP JUMPDEST SWAP3 POP POP DUP2 SWAP1 SSTORE POP PUSH2 0xA30 JUMP JUMPDEST PUSH1 0x1 DUP8 PUSH1 0xFF AND EQ ISZERO PUSH2 0xA13 JUMPI DUP2 DUP2 PUSH1 0x1 ADD PUSH1 0x0 DUP3 DUP3 SLOAD PUSH2 0xA07 SWAP2 SWAP1 PUSH2 0x1367 JUMP JUMPDEST SWAP3 POP POP DUP2 SWAP1 SSTORE POP PUSH2 0xA2F JUMP JUMPDEST DUP2 DUP2 PUSH1 0x2 ADD PUSH1 0x0 DUP3 DUP3 SLOAD PUSH2 0xA27 SWAP2 SWAP1 PUSH2 0x1367 JUMP JUMPDEST SWAP3 POP POP DUP2 SWAP1 SSTORE POP JUMPDEST JUMPDEST PUSH1 0x1 DUP2 PUSH1 0x3 ADD PUSH1 0x0 CALLER PUSH20 0xFFFFFFFFFFFFFFFFFFFFFFFFFFFFFFFFFFFFFFFF AND PUSH20 0xFFFFFFFFFFFFFFFFFFFFFFFFFFFFFFFFFFFFFFFF AND DUP2 MSTORE PUSH1 0x20 ADD SWAP1 DUP2 MSTORE PUSH1 0x20 ADD PUSH1 0x0 KECCAK256 PUSH1 0x0 PUSH2 0x100 EXP DUP2 SLOAD DUP2 PUSH1 0xFF MUL NOT AND SWAP1 DUP4 ISZERO ISZERO MUL OR SWAP1 SSTORE POP POP POP POP POP POP POP POP POP JUMP JUMPDEST PUSH1 0x1 PUSH1 0x20 MSTORE DUP1 PUSH1 0x0 MSTORE PUSH1 0x40 PUSH1 0x0 KECCAK256 PUSH1 0x0 SWAP2 POP SWAP1 POP DUP1 PUSH1 0x0 ADD SLOAD SWAP1 DUP1 PUSH1 0x1 ADD SLOAD SWAP1 DUP1 PUSH1 0x2 ADD SLOAD SWAP1 POP DUP4 JUMP JUMPDEST PUSH1 0x2 PUSH1 0x0 SWAP1 SLOAD SWAP1 PUSH2 0x100 EXP SWAP1 DIV PUSH20 0xFFFFFFFFFFFFFFFFFFFFFFFFFFFFFFFFFFFFFFFF AND DUP2 JUMP JUMPDEST PUSH1 0x0 DUP8 DUP8 DUP8 DUP8 DUP8 DUP8 DUP8 PUSH1 0x40 MLOAD PUSH1 0x20 ADD PUSH2 0xB03 SWAP8 SWAP7 SWAP6 SWAP5 SWAP4 SWAP3 SWAP2 SWAP1 PUSH2 0x110E JUMP JUMPDEST PUSH1 0x40 MLOAD PUSH1 0x20 DUP2 DUP4 SUB SUB DUP2 MSTORE SWAP1 PUSH1 0x40 MSTORE DUP1 MLOAD SWAP1 PUSH1 0x20 ADD KECCAK256 SWAP1 POP SWAP8 SWAP7 POP POP POP POP POP POP POP JUMP JUMPDEST PUSH1 0x0 DUP2 CALLDATALOAD SWAP1 POP PUSH2 0xB35 DUP2 PUSH2 0x1681 JUMP JUMPDEST SWAP3 SWAP2 POP POP JUMP JUMPDEST PUSH1 0x0 DUP2 CALLDATALOAD SWAP1 POP PUSH2 0xB4A DUP2 PUSH2 0x1698 JUMP JUMPDEST SWAP3 SWAP2 POP POP JUMP JUMPDEST PUSH1 0x0 DUP1 DUP4 PUSH1 0x1F DUP5 ADD SLT PUSH2 0xB66 JUMPI PUSH2 0xB65 PUSH2 0x1552 JUMP JUMPDEST JUMPDEST DUP3 CALLDATALOAD SWAP1 POP PUSH8 0xFFFFFFFFFFFFFFFF DUP2 GT ISZERO PUSH2 0xB83 JUMPI PUSH2 0xB82 PUSH2 0x154D JUMP JUMPDEST JUMPDEST PUSH1 0x20 DUP4 ADD SWAP2 POP DUP4 PUSH1 0x1 DUP3 MUL DUP4 ADD GT ISZERO PUSH2 0xB9F JUMPI PUSH2 0xB9E PUSH2 0x1557 JUMP JUMPDEST JUMPDEST SWAP3 POP SWAP3 SWAP1 POP JUMP JUMPDEST PUSH1 0x0 DUP1 DUP4 PUSH1 0x1F DUP5 ADD SLT PUSH2 0xBBC JUMPI PUSH2 0xBBB PUSH2 0x1552 JUMP JUMPDEST JUMPDEST DUP3 CALLDATALOAD SWAP1 POP PUSH8 0xFFFFFFFFFFFFFFFF DUP2 GT ISZERO PUSH2 0xBD9 JUMPI PUSH2 0xBD8 PUSH2 0x154D JUMP JUMPDEST JUMPDEST PUSH1 0x20 DUP4 ADD SWAP2 POP DUP4 PUSH1 0x1 DUP3 MUL DUP4 ADD GT ISZERO PUSH2 0xBF5 JUMPI PUSH2 0xBF4 PUSH2 0x1557 JUMP JUMPDEST JUMPDEST SWAP3 POP SWAP3 SWAP1 POP JUMP JUMPDEST PUSH1 0x0 DUP2 CALLDATALOAD SWAP1 POP PUSH2 0xC0B DUP2 PUSH2 0x16AF JUMP JUMPDEST SWAP3 SWAP2 POP POP JUMP JUMPDEST PUSH1 0x0 DUP2 MLOAD SWAP1 POP PUSH2 0xC20 DUP2 PUSH2 0x16AF JUMP JUMPDEST SWAP3 SWAP2 POP POP JUMP JUMPDEST PUSH1 0x0 DUP2 CALLDATALOAD SWAP1 POP PUSH2 0xC35 DUP2 PUSH2 0x16C6 JUMP JUMPDEST SWAP3 SWAP2 POP POP JUMP JUMPDEST PUSH1 0x0 DUP1 PUSH1 0x0 DUP1 PUSH1 0x0 DUP1 PUSH1 0x0 PUSH1 0xA0 DUP9 DUP11 SUB SLT ISZERO PUSH2 0xC5A JUMPI PUSH2 0xC59 PUSH2 0x1561 JUMP JUMPDEST JUMPDEST PUSH1 0x0 PUSH2 0xC68 DUP11 DUP3 DUP12 ADD PUSH2 0xB26 JUMP JUMPDEST SWAP8 POP POP PUSH1 0x20 PUSH2 0xC79 DUP11 DUP3 DUP12 ADD PUSH2 0xBFC JUMP JUMPDEST SWAP7 POP POP PUSH1 0x40 DUP9 ADD CALLDATALOAD PUSH8 0xFFFFFFFFFFFFFFFF DUP2 GT ISZERO PUSH2 0xC9A JUMPI PUSH2 0xC99 PUSH2 0x155C JUMP JUMPDEST JUMPDEST PUSH2 0xCA6 DUP11 DUP3 DUP12 ADD PUSH2 0xBA6 JUMP JUMPDEST SWAP6 POP SWAP6 POP POP PUSH1 0x60 DUP9 ADD CALLDATALOAD PUSH8 0xFFFFFFFFFFFFFFFF DUP2 GT ISZERO PUSH2 0xCC9 JUMPI PUSH2 0xCC8 PUSH2 0x155C JUMP JUMPDEST JUMPDEST PUSH2 0xCD5 DUP11 DUP3 DUP12 ADD PUSH2 0xB50 JUMP JUMPDEST SWAP4 POP SWAP4 POP POP PUSH1 0x80 PUSH2 0xCE8 DUP11 DUP3 DUP12 ADD PUSH2 0xB3B JUMP JUMPDEST SWAP2 POP POP SWAP3 SWAP6 SWAP9 SWAP2 SWAP5 SWAP8 POP SWAP3 SWAP6 POP JUMP JUMPDEST PUSH1 0x0 DUP1 PUSH1 0x0 DUP1 PUSH1 0x0 DUP1 PUSH1 0x0 DUP1 PUSH1 0xA0 DUP10 DUP12 SUB SLT ISZERO PUSH2 0xD17 JUMPI PUSH2 0xD16 PUSH2 0x1561 JUMP JUMPDEST JUMPDEST PUSH1 0x0 PUSH2 0xD25 DUP12 DUP3 DUP13 ADD PUSH2 0xB26 JUMP JUMPDEST SWAP9 POP POP PUSH1 0x20 PUSH2 0xD36 DUP12 DUP3 DUP13 ADD PUSH2 0xBFC JUMP JUMPDEST SWAP8 POP POP PUSH1 0x40 DUP10 ADD CALLDATALOAD PUSH8 0xFFFFFFFFFFFFFFFF DUP2 GT ISZERO PUSH2 0xD57 JUMPI PUSH2 0xD56 PUSH2 0x155C JUMP JUMPDEST JUMPDEST PUSH2 0xD63 DUP12 DUP3 DUP13 ADD PUSH2 0xBA6 JUMP JUMPDEST SWAP7 POP SWAP7 POP POP PUSH1 0x60 DUP10 ADD CALLDATALOAD PUSH8 0xFFFFFFFFFFFFFFFF DUP2 GT ISZERO PUSH2 0xD86 JUMPI PUSH2 0xD85 PUSH2 0x155C JUMP JUMPDEST JUMPDEST PUSH2 0xD92 DUP12 DUP3 DUP13 ADD PUSH2 0xB50 JUMP JUMPDEST SWAP5 POP SWAP5 POP POP PUSH1 0x80 DUP10 ADD CALLDATALOAD PUSH8 0xFFFFFFFFFFFFFFFF DUP2 GT ISZERO PUSH2 0xDB5 JUMPI PUSH2 0xDB4 PUSH2 0x155C JUMP JUMPDEST JUMPDEST PUSH2 0xDC1 DUP12 DUP3 DUP13 ADD PUSH2 0xBA6 JUMP JUMPDEST SWAP3 POP SWAP3 POP POP SWAP3 SWAP6 SWAP9 POP SWAP3 SWAP6 SWAP9 SWAP1 SWAP4 SWAP7 POP JUMP JUMPDEST PUSH1 0x0 PUSH1 0x20 DUP3 DUP5 SUB SLT ISZERO PUSH2 0xDE9 JUMPI PUSH2 0xDE8 PUSH2 0x1561 JUMP JUMPDEST JUMPDEST PUSH1 0x0 PUSH2 0xDF7 DUP5 DUP3 DUP6 ADD PUSH2 0xB3B JUMP JUMPDEST SWAP2 POP POP SWAP3 SWAP2 POP POP JUMP JUMPDEST PUSH1 0x0 DUP1 PUSH1 0x40 DUP4 DUP6 SUB SLT ISZERO PUSH2 0xE17 JUMPI PUSH2 0xE16 PUSH2 0x1561 JUMP JUMPDEST JUMPDEST PUSH1 0x0 PUSH2 0xE25 DUP6 DUP3 DUP7 ADD PUSH2 0xB3B JUMP JUMPDEST SWAP3 POP POP PUSH1 0x20 PUSH2 0xE36 DUP6 DUP3 DUP7 ADD PUSH2 0xC26 JUMP JUMPDEST SWAP2 POP POP SWAP3 POP SWAP3 SWAP1 POP JUMP JUMPDEST PUSH1 0x0 PUSH1 0x20 DUP3 DUP5 SUB SLT ISZERO PUSH2 0xE56 JUMPI PUSH2 0xE55 PUSH2 0x1561 JUMP JUMPDEST JUMPDEST PUSH1 0x0 PUSH2 0xE64 DUP5 DUP3 DUP6 ADD PUSH2 0xC11 JUMP JUMPDEST SWAP2 POP POP SWAP3 SWAP2 POP POP JUMP JUMPDEST PUSH2 0xE76 DUP2 PUSH2 0x13BD JUMP JUMPDEST DUP3 MSTORE POP POP JUMP JUMPDEST PUSH2 0xE85 DUP2 PUSH2 0x13CF JUMP JUMPDEST DUP3 MSTORE POP POP JUMP JUMPDEST PUSH2 0xE94 DUP2 PUSH2 0x13DB JUMP JUMPDEST DUP3 MSTORE POP POP JUMP JUMPDEST PUSH2 0xEAB PUSH2 0xEA6 DUP3 PUSH2 0x13E5 JUMP JUMPDEST PUSH2 0x14E5 JUMP JUMPDEST DUP3 MSTORE POP POP JUMP JUMPDEST PUSH1 0x0 PUSH2 0xEBD DUP4 DUP6 PUSH2 0x133A JUMP JUMPDEST SWAP4 POP PUSH2 0xECA DUP4 DUP6 DUP5 PUSH2 0x14A3 JUMP JUMPDEST PUSH2 0xED3 DUP4 PUSH2 0x1566 JUMP JUMPDEST DUP5 ADD SWAP1 POP SWAP4 SWAP3 POP POP POP JUMP JUMPDEST PUSH1 0x0 PUSH2 0xEEA DUP4 DUP6 PUSH2 0x134B JUMP JUMPDEST SWAP4 POP PUSH2 0xEF7 DUP4 DUP6 DUP5 PUSH2 0x14A3 JUMP JUMPDEST DUP3 DUP5 ADD SWAP1 POP SWAP4 SWAP3 POP POP POP JUMP JUMPDEST PUSH1 0x0 PUSH2 0xF0E DUP3 PUSH2 0x132F JUMP JUMPDEST PUSH2 0xF18 DUP2 DUP6 PUSH2 0x133A JUMP JUMPDEST SWAP4 POP PUSH2 0xF28 DUP2 DUP6 PUSH1 0x20 DUP7 ADD PUSH2 0x14B2 JUMP JUMPDEST PUSH2 0xF31 DUP2 PUSH2 0x1566 JUMP JUMPDEST DUP5 ADD SWAP2 POP POP SWAP3 SWAP2 POP POP JUMP JUMPDEST PUSH1 0x0 PUSH2 0xF47 DUP3 PUSH2 0x132F JUMP JUMPDEST PUSH2 0xF51 DUP2 DUP6 PUSH2 0x134B JUMP JUMPDEST SWAP4 POP PUSH2 0xF61 DUP2 DUP6 PUSH1 0x20 DUP7 ADD PUSH2 0x14B2 JUMP JUMPDEST DUP1 DUP5 ADD SWAP2 POP POP SWAP3 SWAP2 POP POP JUMP JUMPDEST PUSH2 0xF76 DUP2 PUSH2 0x145B JUMP JUMPDEST DUP3 MSTORE POP POP JUMP JUMPDEST PUSH2 0xF85 DUP2 PUSH2 0x146D JUMP JUMPDEST DUP3 MSTORE POP POP JUMP JUMPDEST PUSH1 0x0 PUSH2 0xF97 DUP4 DUP6 PUSH2 0x1356 JUMP JUMPDEST SWAP4 POP PUSH2 0xFA4 DUP4 DUP6 DUP5 PUSH2 0x14A3 JUMP JUMPDEST PUSH2 0xFAD DUP4 PUSH2 0x1566 JUMP JUMPDEST DUP5 ADD SWAP1 POP SWAP4 SWAP3 POP POP POP JUMP JUMPDEST PUSH1 0x0 PUSH2 0xFC5 PUSH1 0x13 DUP4 PUSH2 0x1356 JUMP JUMPDEST SWAP2 POP PUSH2 0xFD0 DUP3 PUSH2 0x1577 JUMP JUMPDEST PUSH1 0x20 DUP3 ADD SWAP1 POP SWAP2 SWAP1 POP JUMP JUMPDEST PUSH1 0x0 PUSH2 0xFE8 PUSH1 0x12 DUP4 PUSH2 0x1356 JUMP JUMPDEST SWAP2 POP PUSH2 0xFF3 DUP3 PUSH2 0x15A0 JUMP JUMPDEST PUSH1 0x20 DUP3 ADD SWAP1 POP SWAP2 SWAP1 POP JUMP JUMPDEST PUSH1 0x0 PUSH2 0x100B PUSH1 0x15 DUP4 PUSH2 0x1356 JUMP JUMPDEST SWAP2 POP PUSH2 0x1016 DUP3 PUSH2 0x15C9 JUMP JUMPDEST PUSH1 0x20 DUP3 ADD SWAP1 POP SWAP2 SWAP1 POP JUMP JUMPDEST PUSH1 0x0 PUSH2 0x102E PUSH1 0x18 DUP4 PUSH2 0x1356 JUMP JUMPDEST SWAP2 POP PUSH2 0x1039 DUP3 PUSH2 0x15F2 JUMP JUMPDEST PUSH1 0x20 DUP3 ADD SWAP1 POP SWAP2 SWAP1 POP JUMP JUMPDEST PUSH1 0x0 PUSH2 0x1051 PUSH1 0x12 DUP4 PUSH2 0x1356 JUMP JUMPDEST SWAP2 POP PUSH2 0x105C DUP3 PUSH2 0x161B JUMP JUMPDEST PUSH1 0x20 DUP3 ADD SWAP1 POP SWAP2 SWAP1 POP JUMP JUMPDEST PUSH1 0x0 PUSH2 0x1074 PUSH1 0x16 DUP4 PUSH2 0x1356 JUMP JUMPDEST SWAP2 POP PUSH2 0x107F DUP3 PUSH2 0x1644 JUMP JUMPDEST PUSH1 0x20 DUP3 ADD SWAP1 POP SWAP2 SWAP1 POP JUMP JUMPDEST PUSH2 0x1093 DUP2 PUSH2 0x1444 JUMP JUMPDEST DUP3 MSTORE POP POP JUMP JUMPDEST PUSH1 0x0 PUSH2 0x10A5 DUP3 DUP7 PUSH2 0xE9A JUMP JUMPDEST PUSH1 0x4 DUP3 ADD SWAP2 POP PUSH2 0x10B6 DUP3 DUP5 DUP7 PUSH2 0xEDE JUMP JUMPDEST SWAP2 POP DUP2 SWAP1 POP SWAP5 SWAP4 POP POP POP POP JUMP JUMPDEST PUSH1 0x0 PUSH2 0x10D0 DUP3 DUP5 DUP7 PUSH2 0xEDE JUMP JUMPDEST SWAP2 POP DUP2 SWAP1 POP SWAP4 SWAP3 POP POP POP JUMP JUMPDEST PUSH1 0x0 PUSH2 0x10E8 DUP3 DUP5 PUSH2 0xF3C JUMP JUMPDEST SWAP2 POP DUP2 SWAP1 POP SWAP3 SWAP2 POP POP JUMP JUMPDEST PUSH1 0x0 PUSH1 0x20 DUP3 ADD SWAP1 POP PUSH2 0x1108 PUSH1 0x0 DUP4 ADD DUP5 PUSH2 0xE6D JUMP JUMPDEST SWAP3 SWAP2 POP POP JUMP JUMPDEST PUSH1 0x0 PUSH1 0xA0 DUP3 ADD SWAP1 POP PUSH2 0x1123 PUSH1 0x0 DUP4 ADD DUP11 PUSH2 0xE6D JUMP JUMPDEST PUSH2 0x1130 PUSH1 0x20 DUP4 ADD DUP10 PUSH2 0x108A JUMP JUMPDEST DUP2 DUP2 SUB PUSH1 0x40 DUP4 ADD MSTORE PUSH2 0x1143 DUP2 DUP8 DUP10 PUSH2 0xF8B JUMP JUMPDEST SWAP1 POP DUP2 DUP2 SUB PUSH1 0x60 DUP4 ADD MSTORE PUSH2 0x1158 DUP2 DUP6 DUP8 PUSH2 0xEB1 JUMP JUMPDEST SWAP1 POP PUSH2 0x1167 PUSH1 0x80 DUP4 ADD DUP5 PUSH2 0xE8B JUMP JUMPDEST SWAP9 SWAP8 POP POP POP POP POP POP POP POP JUMP JUMPDEST PUSH1 0x0 PUSH1 0x20 DUP3 ADD SWAP1 POP PUSH2 0x1188 PUSH1 0x0 DUP4 ADD DUP5 PUSH2 0xE8B JUMP JUMPDEST SWAP3 SWAP2 POP POP JUMP JUMPDEST PUSH1 0x0 PUSH1 0x20 DUP3 ADD SWAP1 POP DUP2 DUP2 SUB PUSH1 0x0 DUP4 ADD MSTORE PUSH2 0x11A8 DUP2 DUP5 PUSH2 0xF03 JUMP JUMPDEST SWAP1 POP SWAP3 SWAP2 POP POP JUMP JUMPDEST PUSH1 0x0 PUSH1 0x20 DUP3 ADD SWAP1 POP PUSH2 0x11C5 PUSH1 0x0 DUP4 ADD DUP5 PUSH2 0xF6D JUMP JUMPDEST SWAP3 SWAP2 POP POP JUMP JUMPDEST PUSH1 0x0 PUSH1 0x20 DUP3 ADD SWAP1 POP PUSH2 0x11E0 PUSH1 0x0 DUP4 ADD DUP5 PUSH2 0xF7C JUMP JUMPDEST SWAP3 SWAP2 POP POP JUMP JUMPDEST PUSH1 0x0 PUSH1 0x20 DUP3 ADD SWAP1 POP DUP2 DUP2 SUB PUSH1 0x0 DUP4 ADD MSTORE PUSH2 0x11FF DUP2 PUSH2 0xFB8 JUMP JUMPDEST SWAP1 POP SWAP2 SWAP1 POP JUMP JUMPDEST PUSH1 0x0 PUSH1 0x20 DUP3 ADD SWAP1 POP DUP2 DUP2 SUB PUSH1 0x0 DUP4 ADD MSTORE PUSH2 0x121F DUP2 PUSH2 0xFDB JUMP JUMPDEST SWAP1 POP SWAP2 SWAP1 POP JUMP JUMPDEST PUSH1 0x0 PUSH1 0x20 DUP3 ADD SWAP1 POP DUP2 DUP2 SUB PUSH1 0x0 DUP4 ADD MSTORE PUSH2 0x123F DUP2 PUSH2 0xFFE JUMP JUMPDEST SWAP1 POP SWAP2 SWAP1 POP JUMP JUMPDEST PUSH1 0x0 PUSH1 0x20 DUP3 ADD SWAP1 POP DUP2 DUP2 SUB PUSH1 0x0 DUP4 ADD MSTORE PUSH2 0x125F DUP2 PUSH2 0x1021 JUMP JUMPDEST SWAP1 POP SWAP2 SWAP1 POP JUMP JUMPDEST PUSH1 0x0 PUSH1 0x20 DUP3 ADD SWAP1 POP DUP2 DUP2 SUB PUSH1 0x0 DUP4 ADD MSTORE PUSH2 0x127F DUP2 PUSH2 0x1044 JUMP JUMPDEST SWAP1 POP SWAP2 SWAP1 POP JUMP JUMPDEST PUSH1 0x0 PUSH1 0x20 DUP3 ADD SWAP1 POP DUP2 DUP2 SUB PUSH1 0x0 DUP4 ADD MSTORE PUSH2 0x129F DUP2 PUSH2 0x1067 JUMP JUMPDEST SWAP1 POP SWAP2 SWAP1 POP JUMP JUMPDEST PUSH1 0x0 PUSH1 0x20 DUP3 ADD SWAP1 POP PUSH2 0x12BB PUSH1 0x0 DUP4 ADD DUP5 PUSH2 0x108A JUMP JUMPDEST SWAP3 SWAP2 POP POP JUMP JUMPDEST PUSH1 0x0 PUSH1 0x60 DUP3 ADD SWAP1 POP PUSH2 0x12D6 PUSH1 0x0 DUP4 ADD DUP7 PUSH2 0x108A JUMP JUMPDEST PUSH2 0x12E3 PUSH1 0x20 DUP4 ADD DUP6 PUSH2 0x108A JUMP JUMPDEST PUSH2 0x12F0 PUSH1 0x40 DUP4 ADD DUP5 PUSH2 0xE7C JUMP JUMPDEST SWAP5 SWAP4 POP POP POP POP JUMP JUMPDEST PUSH1 0x0 PUSH1 0x60 DUP3 ADD SWAP1 POP PUSH2 0x130D PUSH1 0x0 DUP4 ADD DUP7 PUSH2 0x108A JUMP JUMPDEST PUSH2 0x131A PUSH1 0x20 DUP4 ADD DUP6 PUSH2 0x108A JUMP JUMPDEST PUSH2 0x1327 PUSH1 0x40 DUP4 ADD DUP5 PUSH2 0x108A JUMP JUMPDEST SWAP5 SWAP4 POP POP POP POP JUMP JUMPDEST PUSH1 0x0 DUP2 MLOAD SWAP1 POP SWAP2 SWAP1 POP JUMP JUMPDEST PUSH1 0x0 DUP3 DUP3 MSTORE PUSH1 0x20 DUP3 ADD SWAP1 POP SWAP3 SWAP2 POP POP JUMP JUMPDEST PUSH1 0x0 DUP2 SWAP1 POP SWAP3 SWAP2 POP POP JUMP JUMPDEST PUSH1 0x0 DUP3 DUP3 MSTORE PUSH1 0x20 DUP3 ADD SWAP1 POP SWAP3 SWAP2 POP POP JUMP JUMPDEST PUSH1 0x0 PUSH2 0x1372 DUP3 PUSH2 0x1444 JUMP JUMPDEST SWAP2 POP PUSH2 0x137D DUP4 PUSH2 0x1444 JUMP JUMPDEST SWAP3 POP DUP3 PUSH32 0xFFFFFFFFFFFFFFFFFFFFFFFFFFFFFFFFFFFFFFFFFFFFFFFFFFFFFFFFFFFFFFFF SUB DUP3 GT ISZERO PUSH2 0x13B2 JUMPI PUSH2 0x13B1 PUSH2 0x14EF JUMP JUMPDEST JUMPDEST DUP3 DUP3 ADD SWAP1 POP SWAP3 SWAP2 POP POP JUMP JUMPDEST PUSH1 0x0 PUSH2 0x13C8 DUP3 PUSH2 0x1424 JUMP JUMPDEST SWAP1 POP SWAP2 SWAP1 POP JUMP JUMPDEST PUSH1 0x0 DUP2 ISZERO ISZERO SWAP1 POP SWAP2 SWAP1 POP JUMP JUMPDEST PUSH1 0x0 DUP2 SWAP1 POP SWAP2 SWAP1 POP JUMP JUMPDEST PUSH1 0x0 PUSH32 0xFFFFFFFF00000000000000000000000000000000000000000000000000000000 DUP3 AND SWAP1 POP SWAP2 SWAP1 POP JUMP JUMPDEST PUSH1 0x0 DUP2 SWAP1 POP PUSH2 0x141F DUP3 PUSH2 0x166D JUMP JUMPDEST SWAP2 SWAP1 POP JUMP JUMPDEST PUSH1 0x0 PUSH20 0xFFFFFFFFFFFFFFFFFFFFFFFFFFFFFFFFFFFFFFFF DUP3 AND SWAP1 POP SWAP2 SWAP1 POP JUMP JUMPDEST PUSH1 0x0 DUP2 SWAP1 POP SWAP2 SWAP1 POP JUMP JUMPDEST PUSH1 0x0 PUSH1 0xFF DUP3 AND SWAP1 POP SWAP2 SWAP1 POP JUMP JUMPDEST PUSH1 0x0 PUSH2 0x1466 DUP3 PUSH2 0x147F JUMP JUMPDEST SWAP1 POP SWAP2 SWAP1 POP JUMP JUMPDEST PUSH1 0x0 PUSH2 0x1478 DUP3 PUSH2 0x1411 JUMP JUMPDEST SWAP1 POP SWAP2 SWAP1 POP JUMP JUMPDEST PUSH1 0x0 PUSH2 0x148A DUP3 PUSH2 0x1491 JUMP JUMPDEST SWAP1 POP SWAP2 SWAP1 POP JUMP JUMPDEST PUSH1 0x0 PUSH2 0x149C DUP3 PUSH2 0x1424 JUMP JUMPDEST SWAP1 POP SWAP2 SWAP1 POP JUMP JUMPDEST DUP3 DUP2 DUP4 CALLDATACOPY PUSH1 0x0 DUP4 DUP4 ADD MSTORE POP POP POP JUMP JUMPDEST PUSH1 0x0 JUMPDEST DUP4 DUP2 LT ISZERO PUSH2 0x14D0 JUMPI DUP1 DUP3 ADD MLOAD DUP2 DUP5 ADD MSTORE PUSH1 0x20 DUP2 ADD SWAP1 POP PUSH2 0x14B5 JUMP JUMPDEST DUP4 DUP2 GT ISZERO PUSH2 0x14DF JUMPI PUSH1 0x0 DUP5 DUP5 ADD MSTORE JUMPDEST POP POP POP POP JUMP JUMPDEST PUSH1 0x0 DUP2 SWAP1 POP SWAP2 SWAP1 POP JUMP JUMPDEST PUSH32 0x4E487B7100000000000000000000000000000000000000000000000000000000 PUSH1 0x0 MSTORE PUSH1 0x11 PUSH1 0x4 MSTORE PUSH1 0x24 PUSH1 0x0 REVERT JUMPDEST PUSH32 0x4E487B7100000000000000000000000000000000000000000000000000000000 PUSH1 0x0 MSTORE PUSH1 0x21 PUSH1 0x4 MSTORE PUSH1 0x24 PUSH1 0x0 REVERT JUMPDEST PUSH1 0x0 DUP1 REVERT JUMPDEST PUSH1 0x0 DUP1 REVERT JUMPDEST PUSH1 0x0 DUP1 REVERT JUMPDEST PUSH1 0x0 DUP1 REVERT JUMPDEST PUSH1 0x0 DUP1 REVERT JUMPDEST PUSH1 0x0 PUSH1 0x1F NOT PUSH1 0x1F DUP4 ADD AND SWAP1 POP SWAP2 SWAP1 POP JUMP JUMPDEST PUSH32 0x5472616E73616374696F6E206661696C65642E00000000000000000000000000 PUSH1 0x0 DUP3 ADD MSTORE POP JUMP JUMPDEST PUSH32 0x4E6F7420656E6F75676820746F6B656E73210000000000000000000000000000 PUSH1 0x0 DUP3 ADD MSTORE POP JUMP JUMPDEST PUSH32 0x496E76616C696420766F74696E672073746174652E0000000000000000000000 PUSH1 0x0 DUP3 ADD MSTORE POP JUMP JUMPDEST PUSH32 0x50726F706F73616C20616C7265616479206578697374732E0000000000000000 PUSH1 0x0 DUP3 ADD MSTORE POP JUMP JUMPDEST PUSH32 0x596F7520616C726561647920766F746564210000000000000000000000000000 PUSH1 0x0 DUP3 ADD MSTORE POP JUMP JUMPDEST PUSH32 0x50726F706F73616C20646F65736E742065786973742100000000000000000000 PUSH1 0x0 DUP3 ADD MSTORE POP JUMP JUMPDEST PUSH1 0x4 DUP2 LT PUSH2 0x167E JUMPI PUSH2 0x167D PUSH2 0x151E JUMP JUMPDEST JUMPDEST POP JUMP JUMPDEST PUSH2 0x168A DUP2 PUSH2 0x13BD JUMP JUMPDEST DUP2 EQ PUSH2 0x1695 JUMPI PUSH1 0x0 DUP1 REVERT JUMPDEST POP JUMP JUMPDEST PUSH2 0x16A1 DUP2 PUSH2 0x13DB JUMP JUMPDEST DUP2 EQ PUSH2 0x16AC JUMPI PUSH1 0x0 DUP1 REVERT JUMPDEST POP JUMP JUMPDEST PUSH2 0x16B8 DUP2 PUSH2 0x1444 JUMP JUMPDEST DUP2 EQ PUSH2 0x16C3 JUMPI PUSH1 0x0 DUP1 REVERT JUMPDEST POP JUMP JUMPDEST PUSH2 0x16CF DUP2 PUSH2 0x144E JUMP JUMPDEST DUP2 EQ PUSH2 0x16DA JUMPI PUSH1 0x0 DUP1 REVERT JUMPDEST POP JUMP INVALID LOG2 PUSH5 0x6970667358 0x22 SLT KECCAK256 0x25 DELEGATECALL CALL PC SWAP7 COINBASE CALLCODE RETURN ISZERO 0x5D MSTORE8 0xD1 0xC0 DUP6 EXP PUSH13 0xACD9C07E96738A1A3B8F0D03AE 0xC2 0xA6 TIMESTAMP PUSH5 0x736F6C6343 STOP ADDMOD SMOD STOP CALLER "
				},
				"gasEstimates": {
					"creation": {
						"codeDepositCost": "1181400",
						"executionCost": "infinite",
						"totalCost": "infinite"
					},
					"external": {
						"VOTING_DURATION()": "396",
						"execute(address,uint256,string,bytes,bytes32)": "infinite",
						"proposalVotes(bytes32)": "infinite",
						"proposals(bytes32)": "infinite",
						"propose(address,uint256,string,bytes,string)": "infinite",
						"state(bytes32)": "11573",
						"token()": "2666",
						"vote(bytes32,uint8)": "infinite"
					},
					"internal": {
						"generateProposalId(address,uint256,string calldata,bytes calldata,bytes32)": "infinite"
					}
				},
				"methodIdentifiers": {
					"VOTING_DURATION()": "a438d208",
					"execute(address,uint256,string,bytes,bytes32)": "bb0f4b15",
					"proposalVotes(bytes32)": "d14b85b9",
					"proposals(bytes32)": "32ed5b12",
					"propose(address,uint256,string,bytes,string)": "8524c65d",
					"state(bytes32)": "61d585da",
					"token()": "fc0c546a",
					"vote(bytes32,uint8)": "c9a28cb9"
				}
			},
			"storageLayout": {
				"storage": [
					{
						"astId": 30,
						"contract": "contracts/Governance.sol:Governance",
						"label": "proposals",
						"offset": 0,
						"slot": "0",
						"type": "t_mapping(t_bytes32,t_struct(Proposal)20_storage)"
					},
					{
						"astId": 35,
						"contract": "contracts/Governance.sol:Governance",
						"label": "proposalVotes",
						"offset": 0,
						"slot": "1",
						"type": "t_mapping(t_bytes32,t_struct(ProposalVote)13_storage)"
					},
					{
						"astId": 38,
						"contract": "contracts/Governance.sol:Governance",
						"label": "token",
						"offset": 0,
						"slot": "2",
						"type": "t_contract(IERC20)499"
					}
				],
				"types": {
					"t_address": {
						"encoding": "inplace",
						"label": "address",
						"numberOfBytes": "20"
					},
					"t_bool": {
						"encoding": "inplace",
						"label": "bool",
						"numberOfBytes": "1"
					},
					"t_bytes32": {
						"encoding": "inplace",
						"label": "bytes32",
						"numberOfBytes": "32"
					},
					"t_contract(IERC20)499": {
						"encoding": "inplace",
						"label": "contract IERC20",
						"numberOfBytes": "20"
					},
					"t_mapping(t_address,t_bool)": {
						"encoding": "mapping",
						"key": "t_address",
						"label": "mapping(address => bool)",
						"numberOfBytes": "32",
						"value": "t_bool"
					},
					"t_mapping(t_bytes32,t_struct(Proposal)20_storage)": {
						"encoding": "mapping",
						"key": "t_bytes32",
						"label": "mapping(bytes32 => struct Governance.Proposal)",
						"numberOfBytes": "32",
						"value": "t_struct(Proposal)20_storage"
					},
					"t_mapping(t_bytes32,t_struct(ProposalVote)13_storage)": {
						"encoding": "mapping",
						"key": "t_bytes32",
						"label": "mapping(bytes32 => struct Governance.ProposalVote)",
						"numberOfBytes": "32",
						"value": "t_struct(ProposalVote)13_storage"
					},
					"t_struct(Proposal)20_storage": {
						"encoding": "inplace",
						"label": "struct Governance.Proposal",
						"members": [
							{
								"astId": 15,
								"contract": "contracts/Governance.sol:Governance",
								"label": "votingStarts",
								"offset": 0,
								"slot": "0",
								"type": "t_uint256"
							},
							{
								"astId": 17,
								"contract": "contracts/Governance.sol:Governance",
								"label": "votingEnds",
								"offset": 0,
								"slot": "1",
								"type": "t_uint256"
							},
							{
								"astId": 19,
								"contract": "contracts/Governance.sol:Governance",
								"label": "executed",
								"offset": 0,
								"slot": "2",
								"type": "t_bool"
							}
						],
						"numberOfBytes": "96"
					},
					"t_struct(ProposalVote)13_storage": {
						"encoding": "inplace",
						"label": "struct Governance.ProposalVote",
						"members": [
							{
								"astId": 4,
								"contract": "contracts/Governance.sol:Governance",
								"label": "againstVotes",
								"offset": 0,
								"slot": "0",
								"type": "t_uint256"
							},
							{
								"astId": 6,
								"contract": "contracts/Governance.sol:Governance",
								"label": "forVotes",
								"offset": 0,
								"slot": "1",
								"type": "t_uint256"
							},
							{
								"astId": 8,
								"contract": "contracts/Governance.sol:Governance",
								"label": "abstainVotes",
								"offset": 0,
								"slot": "2",
								"type": "t_uint256"
							},
							{
								"astId": 12,
								"contract": "contracts/Governance.sol:Governance",
								"label": "hasVoted",
								"offset": 0,
								"slot": "3",
								"type": "t_mapping(t_address,t_bool)"
							}
						],
						"numberOfBytes": "128"
					},
					"t_uint256": {
						"encoding": "inplace",
						"label": "uint256",
						"numberOfBytes": "32"
					}
				}
			},
			"userdoc": {
				"kind": "user",
				"methods": {},
				"version": 1
			}
		}
	}
}