{
	"contracts/ERC20.sol": {
		"ERC20": {
			"abi": [
				{
					"inputs": [
						{
							"internalType": "string",
							"name": "name_",
							"type": "string"
						},
						{
							"internalType": "string",
							"name": "symbol_",
							"type": "string"
						},
						{
							"internalType": "uint256",
							"name": "initialSupply",
							"type": "uint256"
						}
					],
					"stateMutability": "nonpayable",
					"type": "constructor"
				},
				{
					"anonymous": false,
					"inputs": [
						{
							"indexed": true,
							"internalType": "address",
							"name": "owner",
							"type": "address"
						},
						{
							"indexed": true,
							"internalType": "address",
							"name": "to",
							"type": "address"
						},
						{
							"indexed": false,
							"internalType": "uint256",
							"name": "amount",
							"type": "uint256"
						}
					],
					"name": "Approve",
					"type": "event"
				},
				{
					"anonymous": false,
					"inputs": [
						{
							"indexed": true,
							"internalType": "address",
							"name": "from",
							"type": "address"
						},
						{
							"indexed": true,
							"internalType": "address",
							"name": "to",
							"type": "address"
						},
						{
							"indexed": false,
							"internalType": "uint256",
							"name": "amount",
							"type": "uint256"
						}
					],
					"name": "Transfer",
					"type": "event"
				},
				{
					"inputs": [
						{
							"internalType": "address",
							"name": "_owner",
							"type": "address"
						},
						{
							"internalType": "address",
							"name": "spender",
							"type": "address"
						}
					],
					"name": "allowance",
					"outputs": [
						{
							"internalType": "uint256",
							"name": "",
							"type": "uint256"
						}
					],
					"stateMutability": "view",
					"type": "function"
				},
				{
					"inputs": [
						{
							"internalType": "address",
							"name": "spender",
							"type": "address"
						},
						{
							"internalType": "uint256",
							"name": "amount",
							"type": "uint256"
						}
					],
					"name": "approve",
					"outputs": [],
					"stateMutability": "nonpayable",
					"type": "function"
				},
				{
					"inputs": [
						{
							"internalType": "address",
							"name": "account",
							"type": "address"
						}
					],
					"name": "balanceOf",
					"outputs": [
						{
							"internalType": "uint256",
							"name": "",
							"type": "uint256"
						}
					],
					"stateMutability": "view",
					"type": "function"
				},
				{
					"inputs": [
						{
							"internalType": "address",
							"name": "_from",
							"type": "address"
						},
						{
							"internalType": "uint256",
							"name": "_amount",
							"type": "uint256"
						}
					],
					"name": "burn",
					"outputs": [],
					"stateMutability": "nonpayable",
					"type": "function"
				},
				{
					"inputs": [],
					"name": "decimals",
					"outputs": [
						{
							"internalType": "uint256",
							"name": "",
							"type": "uint256"
						}
					],
					"stateMutability": "pure",
					"type": "function"
				},
				{
					"inputs": [
						{
							"internalType": "uint256",
							"name": "amount",
							"type": "uint256"
						},
						{
							"internalType": "address",
							"name": "_to",
							"type": "address"
						}
					],
					"name": "mint",
					"outputs": [],
					"stateMutability": "nonpayable",
					"type": "function"
				},
				{
					"inputs": [],
					"name": "name",
					"outputs": [
						{
							"internalType": "string",
							"name": "",
							"type": "string"
						}
					],
					"stateMutability": "view",
					"type": "function"
				},
				{
					"inputs": [],
					"name": "symbol",
					"outputs": [
						{
							"internalType": "string",
							"name": "",
							"type": "string"
						}
					],
					"stateMutability": "view",
					"type": "function"
				},
				{
					"inputs": [],
					"name": "totalSupply",
					"outputs": [
						{
							"internalType": "uint256",
							"name": "",
							"type": "uint256"
						}
					],
					"stateMutability": "view",
					"type": "function"
				},
				{
					"inputs": [
						{
							"internalType": "address",
							"name": "to",
							"type": "address"
						},
						{
							"internalType": "uint256",
							"name": "amount",
							"type": "uint256"
						}
					],
					"name": "transfer",
					"outputs": [],
					"stateMutability": "nonpayable",
					"type": "function"
				},
				{
					"inputs": [
						{
							"internalType": "address",
							"name": "sender",
							"type": "address"
						},
						{
							"internalType": "address",
							"name": "recipient",
							"type": "address"
						},
						{
							"internalType": "uint256",
							"name": "amount",
							"type": "uint256"
						}
					],
					"name": "transferFrom",
					"outputs": [],
					"stateMutability": "nonpayable",
					"type": "function"
				}
			],
			"devdoc": {
				"kind": "dev",
				"methods": {},
				"version": 1
			},
			"evm": {
				"assembly": "    /* \"contracts/ERC20.sol\":88:2903  contract ERC20 is IERC20 {\r... */\n  mstore(0x40, 0x80)\n    /* \"contracts/ERC20.sol\":560:796  constructor(\r... */\n  callvalue\n  dup1\n  iszero\n  tag_1\n  jumpi\n  0x00\n  dup1\n  revert\ntag_1:\n  pop\n  mload(0x40)\n  sub(codesize, bytecodeSize)\n  dup1\n  bytecodeSize\n  dup4\n  codecopy\n  dup2\n  dup2\n  add\n  0x40\n  mstore\n  dup2\n  add\n  swap1\n  tag_2\n  swap2\n  swap1\n  tag_3\n  jump\t// in\ntag_2:\n    /* \"contracts/ERC20.sol\":689:694  name_ */\n  dup3\n    /* \"contracts/ERC20.sol\":681:686  _name */\n  0x04\n    /* \"contracts/ERC20.sol\":681:694  _name = name_ */\n  swap1\n  dup1\n  mload\n  swap1\n  0x20\n  add\n  swap1\n  tag_6\n  swap3\n  swap2\n  swap1\n  tag_7\n  jump\t// in\ntag_6:\n  pop\n    /* \"contracts/ERC20.sol\":715:722  symbol_ */\n  dup2\n    /* \"contracts/ERC20.sol\":705:712  _symbol */\n  0x05\n    /* \"contracts/ERC20.sol\":705:722  _symbol = symbol_ */\n  swap1\n  dup1\n  mload\n  swap1\n  0x20\n  add\n  swap1\n  tag_8\n  swap3\n  swap2\n  swap1\n  tag_7\n  jump\t// in\ntag_8:\n  pop\n    /* \"contracts/ERC20.sol\":741:751  msg.sender */\n  caller\n    /* \"contracts/ERC20.sol\":733:738  owner */\n  0x01\n  0x00\n    /* \"contracts/ERC20.sol\":733:751  owner = msg.sender */\n  0x0100\n  exp\n  dup2\n  sload\n  dup2\n  0xffffffffffffffffffffffffffffffffffffffff\n  mul\n  not\n  and\n  swap1\n  dup4\n  0xffffffffffffffffffffffffffffffffffffffff\n  and\n  mul\n  or\n  swap1\n  sstore\n  pop\n    /* \"contracts/ERC20.sol\":762:788  mint(initialSupply, owner) */\n  tag_9\n    /* \"contracts/ERC20.sol\":767:780  initialSupply */\n  dup2\n    /* \"contracts/ERC20.sol\":782:787  owner */\n  0x01\n  0x00\n  swap1\n  sload\n  swap1\n  0x0100\n  exp\n  swap1\n  div\n  0xffffffffffffffffffffffffffffffffffffffff\n  and\n    /* \"contracts/ERC20.sol\":762:766  mint */\n  shl(0x20, tag_10)\n    /* \"contracts/ERC20.sol\":762:788  mint(initialSupply, owner) */\n  0x20\n  shr\n  jump\t// in\ntag_9:\n    /* \"contracts/ERC20.sol\":560:796  constructor(\r... */\n  pop\n  pop\n  pop\n    /* \"contracts/ERC20.sol\":88:2903  contract ERC20 is IERC20 {\r... */\n  jump(tag_11)\n    /* \"contracts/ERC20.sol\":2294:2534  function mint(uint amount, address _to) public onlyOwner {\r... */\ntag_10:\n    /* \"contracts/ERC20.sol\":509:514  owner */\n  0x01\n  0x00\n  swap1\n  sload\n  swap1\n  0x0100\n  exp\n  swap1\n  div\n  0xffffffffffffffffffffffffffffffffffffffff\n  and\n    /* \"contracts/ERC20.sol\":495:514  msg.sender == owner */\n  0xffffffffffffffffffffffffffffffffffffffff\n  and\n    /* \"contracts/ERC20.sol\":495:505  msg.sender */\n  caller\n    /* \"contracts/ERC20.sol\":495:514  msg.sender == owner */\n  0xffffffffffffffffffffffffffffffffffffffff\n  and\n  eq\n    /* \"contracts/ERC20.sol\":487:532  require(msg.sender == owner, \"not an owner!\") */\n  tag_13\n  jumpi\n  mload(0x40)\n  0x08c379a000000000000000000000000000000000000000000000000000000000\n  dup2\n  mstore\n  0x04\n  add\n  tag_14\n  swap1\n  tag_15\n  jump\t// in\ntag_14:\n  mload(0x40)\n  dup1\n  swap2\n  sub\n  swap1\n  revert\ntag_13:\n    /* \"contracts/ERC20.sol\":2362:2407  _beforeTokenTransfer(address(0), _to, amount) */\n  tag_17\n    /* \"contracts/ERC20.sol\":2391:2392  0 */\n  0x00\n    /* \"contracts/ERC20.sol\":2395:2398  _to */\n  dup3\n    /* \"contracts/ERC20.sol\":2400:2406  amount */\n  dup5\n    /* \"contracts/ERC20.sol\":2362:2382  _beforeTokenTransfer */\n  shl(0x20, tag_18)\n    /* \"contracts/ERC20.sol\":2362:2407  _beforeTokenTransfer(address(0), _to, amount) */\n  0x20\n  shr\n  jump\t// in\ntag_17:\n    /* \"contracts/ERC20.sol\":2437:2443  amount */\n  dup2\n    /* \"contracts/ERC20.sol\":2420:2428  balances */\n  0x02\n    /* \"contracts/ERC20.sol\":2420:2433  balances[_to] */\n  0x00\n    /* \"contracts/ERC20.sol\":2429:2432  _to */\n  dup4\n    /* \"contracts/ERC20.sol\":2420:2433  balances[_to] */\n  0xffffffffffffffffffffffffffffffffffffffff\n  and\n  0xffffffffffffffffffffffffffffffffffffffff\n  and\n  dup2\n  mstore\n  0x20\n  add\n  swap1\n  dup2\n  mstore\n  0x20\n  add\n  0x00\n  keccak256\n  0x00\n    /* \"contracts/ERC20.sol\":2420:2443  balances[_to] += amount */\n  dup3\n  dup3\n  sload\n  tag_19\n  swap2\n  swap1\n  tag_20\n  jump\t// in\ntag_19:\n  swap3\n  pop\n  pop\n  dup2\n  swap1\n  sstore\n  pop\n    /* \"contracts/ERC20.sol\":2469:2475  amount */\n  dup2\n    /* \"contracts/ERC20.sol\":2454:2465  totalTokens */\n  0x00\n  dup1\n    /* \"contracts/ERC20.sol\":2454:2475  totalTokens += amount */\n  dup3\n  dup3\n  sload\n  tag_21\n  swap2\n  swap1\n  tag_20\n  jump\t// in\ntag_21:\n  swap3\n  pop\n  pop\n  dup2\n  swap1\n  sstore\n  pop\n    /* \"contracts/ERC20.sol\":2514:2517  _to */\n  dup1\n    /* \"contracts/ERC20.sol\":2493:2526  Transfer(address(0), _to, amount) */\n  0xffffffffffffffffffffffffffffffffffffffff\n  and\n    /* \"contracts/ERC20.sol\":2510:2511  0 */\n  0x00\n    /* \"contracts/ERC20.sol\":2493:2526  Transfer(address(0), _to, amount) */\n  0xffffffffffffffffffffffffffffffffffffffff\n  and\n  0xddf252ad1be2c89b69c2b068fc378daa952ba7f163c4a11628f55a4df523b3ef\n    /* \"contracts/ERC20.sol\":2519:2525  amount */\n  dup5\n    /* \"contracts/ERC20.sol\":2493:2526  Transfer(address(0), _to, amount) */\n  mload(0x40)\n  tag_22\n  swap2\n  swap1\n  tag_23\n  jump\t// in\ntag_22:\n  mload(0x40)\n  dup1\n  swap2\n  sub\n  swap1\n  log3\n    /* \"contracts/ERC20.sol\":2294:2534  function mint(uint amount, address _to) public onlyOwner {\r... */\n  pop\n  pop\n  jump\t// out\n    /* \"contracts/ERC20.sol\":2778:2900  function _beforeTokenTransfer(\r... */\ntag_18:\n  pop\n  pop\n  pop\n  jump\t// out\n    /* \"contracts/ERC20.sol\":88:2903  contract ERC20 is IERC20 {\r... */\ntag_7:\n  dup3\n  dup1\n  sload\n  tag_25\n  swap1\n  tag_26\n  jump\t// in\ntag_25:\n  swap1\n  0x00\n  mstore\n  keccak256(0x00, 0x20)\n  swap1\n  0x1f\n  add\n  0x20\n  swap1\n  div\n  dup2\n  add\n  swap3\n  dup3\n  tag_28\n  jumpi\n  0x00\n  dup6\n  sstore\n  jump(tag_27)\ntag_28:\n  dup3\n  0x1f\n  lt\n  tag_29\n  jumpi\n  dup1\n  mload\n  not(0xff)\n  and\n  dup4\n  dup1\n  add\n  or\n  dup6\n  sstore\n  jump(tag_27)\ntag_29:\n  dup3\n  dup1\n  add\n  0x01\n  add\n  dup6\n  sstore\n  dup3\n  iszero\n  tag_27\n  jumpi\n  swap2\n  dup3\n  add\ntag_30:\n  dup3\n  dup2\n  gt\n  iszero\n  tag_31\n  jumpi\n  dup3\n  mload\n  dup3\n  sstore\n  swap2\n  0x20\n  add\n  swap2\n  swap1\n  0x01\n  add\n  swap1\n  jump(tag_30)\ntag_31:\ntag_27:\n  pop\n  swap1\n  pop\n  tag_32\n  swap2\n  swap1\n  tag_33\n  jump\t// in\ntag_32:\n  pop\n  swap1\n  jump\t// out\ntag_33:\ntag_34:\n  dup1\n  dup3\n  gt\n  iszero\n  tag_35\n  jumpi\n  0x00\n  dup2\n  0x00\n  swap1\n  sstore\n  pop\n  0x01\n  add\n  jump(tag_34)\ntag_35:\n  pop\n  swap1\n  jump\t// out\n    /* \"#utility.yul\":7:428   */\ntag_37:\n    /* \"#utility.yul\":96:101   */\n  0x00\n    /* \"#utility.yul\":121:187   */\n  tag_39\n    /* \"#utility.yul\":137:186   */\n  tag_40\n    /* \"#utility.yul\":179:185   */\n  dup5\n    /* \"#utility.yul\":137:186   */\n  tag_41\n  jump\t// in\ntag_40:\n    /* \"#utility.yul\":121:187   */\n  tag_42\n  jump\t// in\ntag_39:\n    /* \"#utility.yul\":112:187   */\n  swap1\n  pop\n    /* \"#utility.yul\":210:216   */\n  dup3\n    /* \"#utility.yul\":203:208   */\n  dup2\n    /* \"#utility.yul\":196:217   */\n  mstore\n    /* \"#utility.yul\":248:252   */\n  0x20\n    /* \"#utility.yul\":241:246   */\n  dup2\n    /* \"#utility.yul\":237:253   */\n  add\n    /* \"#utility.yul\":286:289   */\n  dup5\n    /* \"#utility.yul\":277:283   */\n  dup5\n    /* \"#utility.yul\":272:275   */\n  dup5\n    /* \"#utility.yul\":268:284   */\n  add\n    /* \"#utility.yul\":265:290   */\n  gt\n    /* \"#utility.yul\":262:374   */\n  iszero\n  tag_43\n  jumpi\n    /* \"#utility.yul\":293:372   */\n  tag_44\n  tag_45\n  jump\t// in\ntag_44:\n    /* \"#utility.yul\":262:374   */\ntag_43:\n    /* \"#utility.yul\":383:422   */\n  tag_46\n    /* \"#utility.yul\":415:421   */\n  dup5\n    /* \"#utility.yul\":410:413   */\n  dup3\n    /* \"#utility.yul\":405:408   */\n  dup6\n    /* \"#utility.yul\":383:422   */\n  tag_47\n  jump\t// in\ntag_46:\n    /* \"#utility.yul\":102:428   */\n  pop\n    /* \"#utility.yul\":7:428   */\n  swap4\n  swap3\n  pop\n  pop\n  pop\n  jump\t// out\n    /* \"#utility.yul\":448:803   */\ntag_48:\n    /* \"#utility.yul\":515:520   */\n  0x00\n    /* \"#utility.yul\":564:567   */\n  dup3\n    /* \"#utility.yul\":557:561   */\n  0x1f\n    /* \"#utility.yul\":549:555   */\n  dup4\n    /* \"#utility.yul\":545:562   */\n  add\n    /* \"#utility.yul\":541:568   */\n  slt\n    /* \"#utility.yul\":531:653   */\n  tag_50\n  jumpi\n    /* \"#utility.yul\":572:651   */\n  tag_51\n  tag_52\n  jump\t// in\ntag_51:\n    /* \"#utility.yul\":531:653   */\ntag_50:\n    /* \"#utility.yul\":682:688   */\n  dup2\n    /* \"#utility.yul\":676:689   */\n  mload\n    /* \"#utility.yul\":707:797   */\n  tag_53\n    /* \"#utility.yul\":793:796   */\n  dup5\n    /* \"#utility.yul\":785:791   */\n  dup3\n    /* \"#utility.yul\":778:782   */\n  0x20\n    /* \"#utility.yul\":770:776   */\n  dup7\n    /* \"#utility.yul\":766:783   */\n  add\n    /* \"#utility.yul\":707:797   */\n  tag_37\n  jump\t// in\ntag_53:\n    /* \"#utility.yul\":698:797   */\n  swap2\n  pop\n    /* \"#utility.yul\":521:803   */\n  pop\n    /* \"#utility.yul\":448:803   */\n  swap3\n  swap2\n  pop\n  pop\n  jump\t// out\n    /* \"#utility.yul\":809:952   */\ntag_54:\n    /* \"#utility.yul\":866:871   */\n  0x00\n    /* \"#utility.yul\":897:903   */\n  dup2\n    /* \"#utility.yul\":891:904   */\n  mload\n    /* \"#utility.yul\":882:904   */\n  swap1\n  pop\n    /* \"#utility.yul\":913:946   */\n  tag_56\n    /* \"#utility.yul\":940:945   */\n  dup2\n    /* \"#utility.yul\":913:946   */\n  tag_57\n  jump\t// in\ntag_56:\n    /* \"#utility.yul\":809:952   */\n  swap3\n  swap2\n  pop\n  pop\n  jump\t// out\n    /* \"#utility.yul\":958:1967   */\ntag_3:\n    /* \"#utility.yul\":1066:1072   */\n  0x00\n    /* \"#utility.yul\":1074:1080   */\n  dup1\n    /* \"#utility.yul\":1082:1088   */\n  0x00\n    /* \"#utility.yul\":1131:1133   */\n  0x60\n    /* \"#utility.yul\":1119:1128   */\n  dup5\n    /* \"#utility.yul\":1110:1117   */\n  dup7\n    /* \"#utility.yul\":1106:1129   */\n  sub\n    /* \"#utility.yul\":1102:1134   */\n  slt\n    /* \"#utility.yul\":1099:1218   */\n  iszero\n  tag_59\n  jumpi\n    /* \"#utility.yul\":1137:1216   */\n  tag_60\n  tag_61\n  jump\t// in\ntag_60:\n    /* \"#utility.yul\":1099:1218   */\ntag_59:\n    /* \"#utility.yul\":1278:1279   */\n  0x00\n    /* \"#utility.yul\":1267:1276   */\n  dup5\n    /* \"#utility.yul\":1263:1280   */\n  add\n    /* \"#utility.yul\":1257:1281   */\n  mload\n    /* \"#utility.yul\":1308:1326   */\n  0xffffffffffffffff\n    /* \"#utility.yul\":1300:1306   */\n  dup2\n    /* \"#utility.yul\":1297:1327   */\n  gt\n    /* \"#utility.yul\":1294:1411   */\n  iszero\n  tag_62\n  jumpi\n    /* \"#utility.yul\":1330:1409   */\n  tag_63\n  tag_64\n  jump\t// in\ntag_63:\n    /* \"#utility.yul\":1294:1411   */\ntag_62:\n    /* \"#utility.yul\":1435:1509   */\n  tag_65\n    /* \"#utility.yul\":1501:1508   */\n  dup7\n    /* \"#utility.yul\":1492:1498   */\n  dup3\n    /* \"#utility.yul\":1481:1490   */\n  dup8\n    /* \"#utility.yul\":1477:1499   */\n  add\n    /* \"#utility.yul\":1435:1509   */\n  tag_48\n  jump\t// in\ntag_65:\n    /* \"#utility.yul\":1425:1509   */\n  swap4\n  pop\n    /* \"#utility.yul\":1228:1519   */\n  pop\n    /* \"#utility.yul\":1579:1581   */\n  0x20\n    /* \"#utility.yul\":1568:1577   */\n  dup5\n    /* \"#utility.yul\":1564:1582   */\n  add\n    /* \"#utility.yul\":1558:1583   */\n  mload\n    /* \"#utility.yul\":1610:1628   */\n  0xffffffffffffffff\n    /* \"#utility.yul\":1602:1608   */\n  dup2\n    /* \"#utility.yul\":1599:1629   */\n  gt\n    /* \"#utility.yul\":1596:1713   */\n  iszero\n  tag_66\n  jumpi\n    /* \"#utility.yul\":1632:1711   */\n  tag_67\n  tag_64\n  jump\t// in\ntag_67:\n    /* \"#utility.yul\":1596:1713   */\ntag_66:\n    /* \"#utility.yul\":1737:1811   */\n  tag_68\n    /* \"#utility.yul\":1803:1810   */\n  dup7\n    /* \"#utility.yul\":1794:1800   */\n  dup3\n    /* \"#utility.yul\":1783:1792   */\n  dup8\n    /* \"#utility.yul\":1779:1801   */\n  add\n    /* \"#utility.yul\":1737:1811   */\n  tag_48\n  jump\t// in\ntag_68:\n    /* \"#utility.yul\":1727:1811   */\n  swap3\n  pop\n    /* \"#utility.yul\":1529:1821   */\n  pop\n    /* \"#utility.yul\":1860:1862   */\n  0x40\n    /* \"#utility.yul\":1886:1950   */\n  tag_69\n    /* \"#utility.yul\":1942:1949   */\n  dup7\n    /* \"#utility.yul\":1933:1939   */\n  dup3\n    /* \"#utility.yul\":1922:1931   */\n  dup8\n    /* \"#utility.yul\":1918:1940   */\n  add\n    /* \"#utility.yul\":1886:1950   */\n  tag_54\n  jump\t// in\ntag_69:\n    /* \"#utility.yul\":1876:1950   */\n  swap2\n  pop\n    /* \"#utility.yul\":1831:1960   */\n  pop\n    /* \"#utility.yul\":958:1967   */\n  swap3\n  pop\n  swap3\n  pop\n  swap3\n  jump\t// out\n    /* \"#utility.yul\":1973:2339   */\ntag_70:\n    /* \"#utility.yul\":2115:2118   */\n  0x00\n    /* \"#utility.yul\":2136:2203   */\n  tag_72\n    /* \"#utility.yul\":2200:2202   */\n  0x0d\n    /* \"#utility.yul\":2195:2198   */\n  dup4\n    /* \"#utility.yul\":2136:2203   */\n  tag_73\n  jump\t// in\ntag_72:\n    /* \"#utility.yul\":2129:2203   */\n  swap2\n  pop\n    /* \"#utility.yul\":2212:2305   */\n  tag_74\n    /* \"#utility.yul\":2301:2304   */\n  dup3\n    /* \"#utility.yul\":2212:2305   */\n  tag_75\n  jump\t// in\ntag_74:\n    /* \"#utility.yul\":2330:2332   */\n  0x20\n    /* \"#utility.yul\":2325:2328   */\n  dup3\n    /* \"#utility.yul\":2321:2333   */\n  add\n    /* \"#utility.yul\":2314:2333   */\n  swap1\n  pop\n    /* \"#utility.yul\":1973:2339   */\n  swap2\n  swap1\n  pop\n  jump\t// out\n    /* \"#utility.yul\":2345:2463   */\ntag_76:\n    /* \"#utility.yul\":2432:2456   */\n  tag_78\n    /* \"#utility.yul\":2450:2455   */\n  dup2\n    /* \"#utility.yul\":2432:2456   */\n  tag_79\n  jump\t// in\ntag_78:\n    /* \"#utility.yul\":2427:2430   */\n  dup3\n    /* \"#utility.yul\":2420:2457   */\n  mstore\n    /* \"#utility.yul\":2345:2463   */\n  pop\n  pop\n  jump\t// out\n    /* \"#utility.yul\":2469:2888   */\ntag_15:\n    /* \"#utility.yul\":2635:2639   */\n  0x00\n    /* \"#utility.yul\":2673:2675   */\n  0x20\n    /* \"#utility.yul\":2662:2671   */\n  dup3\n    /* \"#utility.yul\":2658:2676   */\n  add\n    /* \"#utility.yul\":2650:2676   */\n  swap1\n  pop\n    /* \"#utility.yul\":2722:2731   */\n  dup2\n    /* \"#utility.yul\":2716:2720   */\n  dup2\n    /* \"#utility.yul\":2712:2732   */\n  sub\n    /* \"#utility.yul\":2708:2709   */\n  0x00\n    /* \"#utility.yul\":2697:2706   */\n  dup4\n    /* \"#utility.yul\":2693:2710   */\n  add\n    /* \"#utility.yul\":2686:2733   */\n  mstore\n    /* \"#utility.yul\":2750:2881   */\n  tag_81\n    /* \"#utility.yul\":2876:2880   */\n  dup2\n    /* \"#utility.yul\":2750:2881   */\n  tag_70\n  jump\t// in\ntag_81:\n    /* \"#utility.yul\":2742:2881   */\n  swap1\n  pop\n    /* \"#utility.yul\":2469:2888   */\n  swap2\n  swap1\n  pop\n  jump\t// out\n    /* \"#utility.yul\":2894:3116   */\ntag_23:\n    /* \"#utility.yul\":2987:2991   */\n  0x00\n    /* \"#utility.yul\":3025:3027   */\n  0x20\n    /* \"#utility.yul\":3014:3023   */\n  dup3\n    /* \"#utility.yul\":3010:3028   */\n  add\n    /* \"#utility.yul\":3002:3028   */\n  swap1\n  pop\n    /* \"#utility.yul\":3038:3109   */\n  tag_83\n    /* \"#utility.yul\":3106:3107   */\n  0x00\n    /* \"#utility.yul\":3095:3104   */\n  dup4\n    /* \"#utility.yul\":3091:3108   */\n  add\n    /* \"#utility.yul\":3082:3088   */\n  dup5\n    /* \"#utility.yul\":3038:3109   */\n  tag_76\n  jump\t// in\ntag_83:\n    /* \"#utility.yul\":2894:3116   */\n  swap3\n  swap2\n  pop\n  pop\n  jump\t// out\n    /* \"#utility.yul\":3122:3251   */\ntag_42:\n    /* \"#utility.yul\":3156:3162   */\n  0x00\n    /* \"#utility.yul\":3183:3203   */\n  tag_85\n  tag_86\n  jump\t// in\ntag_85:\n    /* \"#utility.yul\":3173:3203   */\n  swap1\n  pop\n    /* \"#utility.yul\":3212:3245   */\n  tag_87\n    /* \"#utility.yul\":3240:3244   */\n  dup3\n    /* \"#utility.yul\":3232:3238   */\n  dup3\n    /* \"#utility.yul\":3212:3245   */\n  tag_88\n  jump\t// in\ntag_87:\n    /* \"#utility.yul\":3122:3251   */\n  swap2\n  swap1\n  pop\n  jump\t// out\n    /* \"#utility.yul\":3257:3332   */\ntag_86:\n    /* \"#utility.yul\":3290:3296   */\n  0x00\n    /* \"#utility.yul\":3323:3325   */\n  0x40\n    /* \"#utility.yul\":3317:3326   */\n  mload\n    /* \"#utility.yul\":3307:3326   */\n  swap1\n  pop\n    /* \"#utility.yul\":3257:3332   */\n  swap1\n  jump\t// out\n    /* \"#utility.yul\":3338:3646   */\ntag_41:\n    /* \"#utility.yul\":3400:3404   */\n  0x00\n    /* \"#utility.yul\":3490:3508   */\n  0xffffffffffffffff\n    /* \"#utility.yul\":3482:3488   */\n  dup3\n    /* \"#utility.yul\":3479:3509   */\n  gt\n    /* \"#utility.yul\":3476:3532   */\n  iszero\n  tag_91\n  jumpi\n    /* \"#utility.yul\":3512:3530   */\n  tag_92\n  tag_93\n  jump\t// in\ntag_92:\n    /* \"#utility.yul\":3476:3532   */\ntag_91:\n    /* \"#utility.yul\":3550:3579   */\n  tag_94\n    /* \"#utility.yul\":3572:3578   */\n  dup3\n    /* \"#utility.yul\":3550:3579   */\n  tag_95\n  jump\t// in\ntag_94:\n    /* \"#utility.yul\":3542:3579   */\n  swap1\n  pop\n    /* \"#utility.yul\":3634:3638   */\n  0x20\n    /* \"#utility.yul\":3628:3632   */\n  dup2\n    /* \"#utility.yul\":3624:3639   */\n  add\n    /* \"#utility.yul\":3616:3639   */\n  swap1\n  pop\n    /* \"#utility.yul\":3338:3646   */\n  swap2\n  swap1\n  pop\n  jump\t// out\n    /* \"#utility.yul\":3652:3821   */\ntag_73:\n    /* \"#utility.yul\":3736:3747   */\n  0x00\n    /* \"#utility.yul\":3770:3776   */\n  dup3\n    /* \"#utility.yul\":3765:3768   */\n  dup3\n    /* \"#utility.yul\":3758:3777   */\n  mstore\n    /* \"#utility.yul\":3810:3814   */\n  0x20\n    /* \"#utility.yul\":3805:3808   */\n  dup3\n    /* \"#utility.yul\":3801:3815   */\n  add\n    /* \"#utility.yul\":3786:3815   */\n  swap1\n  pop\n    /* \"#utility.yul\":3652:3821   */\n  swap3\n  swap2\n  pop\n  pop\n  jump\t// out\n    /* \"#utility.yul\":3827:4132   */\ntag_20:\n    /* \"#utility.yul\":3867:3870   */\n  0x00\n    /* \"#utility.yul\":3886:3906   */\n  tag_98\n    /* \"#utility.yul\":3904:3905   */\n  dup3\n    /* \"#utility.yul\":3886:3906   */\n  tag_79\n  jump\t// in\ntag_98:\n    /* \"#utility.yul\":3881:3906   */\n  swap2\n  pop\n    /* \"#utility.yul\":3920:3940   */\n  tag_99\n    /* \"#utility.yul\":3938:3939   */\n  dup4\n    /* \"#utility.yul\":3920:3940   */\n  tag_79\n  jump\t// in\ntag_99:\n    /* \"#utility.yul\":3915:3940   */\n  swap3\n  pop\n    /* \"#utility.yul\":4074:4075   */\n  dup3\n    /* \"#utility.yul\":4006:4072   */\n  0xffffffffffffffffffffffffffffffffffffffffffffffffffffffffffffffff\n    /* \"#utility.yul\":4002:4076   */\n  sub\n    /* \"#utility.yul\":3999:4000   */\n  dup3\n    /* \"#utility.yul\":3996:4077   */\n  gt\n    /* \"#utility.yul\":3993:4100   */\n  iszero\n  tag_100\n  jumpi\n    /* \"#utility.yul\":4080:4098   */\n  tag_101\n  tag_102\n  jump\t// in\ntag_101:\n    /* \"#utility.yul\":3993:4100   */\ntag_100:\n    /* \"#utility.yul\":4124:4125   */\n  dup3\n    /* \"#utility.yul\":4121:4122   */\n  dup3\n    /* \"#utility.yul\":4117:4126   */\n  add\n    /* \"#utility.yul\":4110:4126   */\n  swap1\n  pop\n    /* \"#utility.yul\":3827:4132   */\n  swap3\n  swap2\n  pop\n  pop\n  jump\t// out\n    /* \"#utility.yul\":4138:4215   */\ntag_79:\n    /* \"#utility.yul\":4175:4182   */\n  0x00\n    /* \"#utility.yul\":4204:4209   */\n  dup2\n    /* \"#utility.yul\":4193:4209   */\n  swap1\n  pop\n    /* \"#utility.yul\":4138:4215   */\n  swap2\n  swap1\n  pop\n  jump\t// out\n    /* \"#utility.yul\":4221:4528   */\ntag_47:\n    /* \"#utility.yul\":4289:4290   */\n  0x00\n    /* \"#utility.yul\":4299:4412   */\ntag_105:\n    /* \"#utility.yul\":4313:4319   */\n  dup4\n    /* \"#utility.yul\":4310:4311   */\n  dup2\n    /* \"#utility.yul\":4307:4320   */\n  lt\n    /* \"#utility.yul\":4299:4412   */\n  iszero\n  tag_107\n  jumpi\n    /* \"#utility.yul\":4398:4399   */\n  dup1\n    /* \"#utility.yul\":4393:4396   */\n  dup3\n    /* \"#utility.yul\":4389:4400   */\n  add\n    /* \"#utility.yul\":4383:4401   */\n  mload\n    /* \"#utility.yul\":4379:4380   */\n  dup2\n    /* \"#utility.yul\":4374:4377   */\n  dup5\n    /* \"#utility.yul\":4370:4381   */\n  add\n    /* \"#utility.yul\":4363:4402   */\n  mstore\n    /* \"#utility.yul\":4335:4337   */\n  0x20\n    /* \"#utility.yul\":4332:4333   */\n  dup2\n    /* \"#utility.yul\":4328:4338   */\n  add\n    /* \"#utility.yul\":4323:4338   */\n  swap1\n  pop\n    /* \"#utility.yul\":4299:4412   */\n  jump(tag_105)\ntag_107:\n    /* \"#utility.yul\":4430:4436   */\n  dup4\n    /* \"#utility.yul\":4427:4428   */\n  dup2\n    /* \"#utility.yul\":4424:4437   */\n  gt\n    /* \"#utility.yul\":4421:4522   */\n  iszero\n  tag_108\n  jumpi\n    /* \"#utility.yul\":4510:4511   */\n  0x00\n    /* \"#utility.yul\":4501:4507   */\n  dup5\n    /* \"#utility.yul\":4496:4499   */\n  dup5\n    /* \"#utility.yul\":4492:4508   */\n  add\n    /* \"#utility.yul\":4485:4512   */\n  mstore\n    /* \"#utility.yul\":4421:4522   */\ntag_108:\n    /* \"#utility.yul\":4270:4528   */\n  pop\n    /* \"#utility.yul\":4221:4528   */\n  pop\n  pop\n  pop\n  jump\t// out\n    /* \"#utility.yul\":4534:4854   */\ntag_26:\n    /* \"#utility.yul\":4578:4584   */\n  0x00\n    /* \"#utility.yul\":4615:4616   */\n  0x02\n    /* \"#utility.yul\":4609:4613   */\n  dup3\n    /* \"#utility.yul\":4605:4617   */\n  div\n    /* \"#utility.yul\":4595:4617   */\n  swap1\n  pop\n    /* \"#utility.yul\":4662:4663   */\n  0x01\n    /* \"#utility.yul\":4656:4660   */\n  dup3\n    /* \"#utility.yul\":4652:4664   */\n  and\n    /* \"#utility.yul\":4683:4701   */\n  dup1\n    /* \"#utility.yul\":4673:4754   */\n  tag_110\n  jumpi\n    /* \"#utility.yul\":4739:4743   */\n  0x7f\n    /* \"#utility.yul\":4731:4737   */\n  dup3\n    /* \"#utility.yul\":4727:4744   */\n  and\n    /* \"#utility.yul\":4717:4744   */\n  swap2\n  pop\n    /* \"#utility.yul\":4673:4754   */\ntag_110:\n    /* \"#utility.yul\":4801:4803   */\n  0x20\n    /* \"#utility.yul\":4793:4799   */\n  dup3\n    /* \"#utility.yul\":4790:4804   */\n  lt\n    /* \"#utility.yul\":4770:4788   */\n  dup2\n    /* \"#utility.yul\":4767:4805   */\n  eq\n    /* \"#utility.yul\":4764:4848   */\n  iszero\n  tag_111\n  jumpi\n    /* \"#utility.yul\":4820:4838   */\n  tag_112\n  tag_113\n  jump\t// in\ntag_112:\n    /* \"#utility.yul\":4764:4848   */\ntag_111:\n    /* \"#utility.yul\":4585:4854   */\n  pop\n    /* \"#utility.yul\":4534:4854   */\n  swap2\n  swap1\n  pop\n  jump\t// out\n    /* \"#utility.yul\":4860:5141   */\ntag_88:\n    /* \"#utility.yul\":4943:4970   */\n  tag_115\n    /* \"#utility.yul\":4965:4969   */\n  dup3\n    /* \"#utility.yul\":4943:4970   */\n  tag_95\n  jump\t// in\ntag_115:\n    /* \"#utility.yul\":4935:4941   */\n  dup2\n    /* \"#utility.yul\":4931:4971   */\n  add\n    /* \"#utility.yul\":5073:5079   */\n  dup2\n    /* \"#utility.yul\":5061:5071   */\n  dup2\n    /* \"#utility.yul\":5058:5080   */\n  lt\n    /* \"#utility.yul\":5037:5055   */\n  0xffffffffffffffff\n    /* \"#utility.yul\":5025:5035   */\n  dup3\n    /* \"#utility.yul\":5022:5056   */\n  gt\n    /* \"#utility.yul\":5019:5081   */\n  or\n    /* \"#utility.yul\":5016:5104   */\n  iszero\n  tag_116\n  jumpi\n    /* \"#utility.yul\":5084:5102   */\n  tag_117\n  tag_93\n  jump\t// in\ntag_117:\n    /* \"#utility.yul\":5016:5104   */\ntag_116:\n    /* \"#utility.yul\":5124:5134   */\n  dup1\n    /* \"#utility.yul\":5120:5122   */\n  0x40\n    /* \"#utility.yul\":5113:5135   */\n  mstore\n    /* \"#utility.yul\":4903:5141   */\n  pop\n    /* \"#utility.yul\":4860:5141   */\n  pop\n  pop\n  jump\t// out\n    /* \"#utility.yul\":5147:5327   */\ntag_102:\n    /* \"#utility.yul\":5195:5272   */\n  0x4e487b7100000000000000000000000000000000000000000000000000000000\n    /* \"#utility.yul\":5192:5193   */\n  0x00\n    /* \"#utility.yul\":5185:5273   */\n  mstore\n    /* \"#utility.yul\":5292:5296   */\n  0x11\n    /* \"#utility.yul\":5289:5290   */\n  0x04\n    /* \"#utility.yul\":5282:5297   */\n  mstore\n    /* \"#utility.yul\":5316:5320   */\n  0x24\n    /* \"#utility.yul\":5313:5314   */\n  0x00\n    /* \"#utility.yul\":5306:5321   */\n  revert\n    /* \"#utility.yul\":5333:5513   */\ntag_113:\n    /* \"#utility.yul\":5381:5458   */\n  0x4e487b7100000000000000000000000000000000000000000000000000000000\n    /* \"#utility.yul\":5378:5379   */\n  0x00\n    /* \"#utility.yul\":5371:5459   */\n  mstore\n    /* \"#utility.yul\":5478:5482   */\n  0x22\n    /* \"#utility.yul\":5475:5476   */\n  0x04\n    /* \"#utility.yul\":5468:5483   */\n  mstore\n    /* \"#utility.yul\":5502:5506   */\n  0x24\n    /* \"#utility.yul\":5499:5500   */\n  0x00\n    /* \"#utility.yul\":5492:5507   */\n  revert\n    /* \"#utility.yul\":5519:5699   */\ntag_93:\n    /* \"#utility.yul\":5567:5644   */\n  0x4e487b7100000000000000000000000000000000000000000000000000000000\n    /* \"#utility.yul\":5564:5565   */\n  0x00\n    /* \"#utility.yul\":5557:5645   */\n  mstore\n    /* \"#utility.yul\":5664:5668   */\n  0x41\n    /* \"#utility.yul\":5661:5662   */\n  0x04\n    /* \"#utility.yul\":5654:5669   */\n  mstore\n    /* \"#utility.yul\":5688:5692   */\n  0x24\n    /* \"#utility.yul\":5685:5686   */\n  0x00\n    /* \"#utility.yul\":5678:5693   */\n  revert\n    /* \"#utility.yul\":5705:5822   */\ntag_52:\n    /* \"#utility.yul\":5814:5815   */\n  0x00\n    /* \"#utility.yul\":5811:5812   */\n  dup1\n    /* \"#utility.yul\":5804:5816   */\n  revert\n    /* \"#utility.yul\":5828:5945   */\ntag_45:\n    /* \"#utility.yul\":5937:5938   */\n  0x00\n    /* \"#utility.yul\":5934:5935   */\n  dup1\n    /* \"#utility.yul\":5927:5939   */\n  revert\n    /* \"#utility.yul\":5951:6068   */\ntag_64:\n    /* \"#utility.yul\":6060:6061   */\n  0x00\n    /* \"#utility.yul\":6057:6058   */\n  dup1\n    /* \"#utility.yul\":6050:6062   */\n  revert\n    /* \"#utility.yul\":6074:6191   */\ntag_61:\n    /* \"#utility.yul\":6183:6184   */\n  0x00\n    /* \"#utility.yul\":6180:6181   */\n  dup1\n    /* \"#utility.yul\":6173:6185   */\n  revert\n    /* \"#utility.yul\":6197:6299   */\ntag_95:\n    /* \"#utility.yul\":6238:6244   */\n  0x00\n    /* \"#utility.yul\":6289:6291   */\n  0x1f\n    /* \"#utility.yul\":6285:6292   */\n  not\n    /* \"#utility.yul\":6280:6282   */\n  0x1f\n    /* \"#utility.yul\":6273:6278   */\n  dup4\n    /* \"#utility.yul\":6269:6283   */\n  add\n    /* \"#utility.yul\":6265:6293   */\n  and\n    /* \"#utility.yul\":6255:6293   */\n  swap1\n  pop\n    /* \"#utility.yul\":6197:6299   */\n  swap2\n  swap1\n  pop\n  jump\t// out\n    /* \"#utility.yul\":6305:6468   */\ntag_75:\n    /* \"#utility.yul\":6445:6460   */\n  0x6e6f7420616e206f776e65722100000000000000000000000000000000000000\n    /* \"#utility.yul\":6441:6442   */\n  0x00\n    /* \"#utility.yul\":6433:6439   */\n  dup3\n    /* \"#utility.yul\":6429:6443   */\n  add\n    /* \"#utility.yul\":6422:6461   */\n  mstore\n    /* \"#utility.yul\":6305:6468   */\n  pop\n  jump\t// out\n    /* \"#utility.yul\":6474:6596   */\ntag_57:\n    /* \"#utility.yul\":6547:6571   */\n  tag_128\n    /* \"#utility.yul\":6565:6570   */\n  dup2\n    /* \"#utility.yul\":6547:6571   */\n  tag_79\n  jump\t// in\ntag_128:\n    /* \"#utility.yul\":6540:6545   */\n  dup2\n    /* \"#utility.yul\":6537:6572   */\n  eq\n    /* \"#utility.yul\":6527:6590   */\n  tag_129\n  jumpi\n    /* \"#utility.yul\":6586:6587   */\n  0x00\n    /* \"#utility.yul\":6583:6584   */\n  dup1\n    /* \"#utility.yul\":6576:6588   */\n  revert\n    /* \"#utility.yul\":6527:6590   */\ntag_129:\n    /* \"#utility.yul\":6474:6596   */\n  pop\n  jump\t// out\n    /* \"contracts/ERC20.sol\":88:2903  contract ERC20 is IERC20 {\r... */\ntag_11:\n  dataSize(sub_0)\n  dup1\n  dataOffset(sub_0)\n  0x00\n  codecopy\n  0x00\n  return\nstop\n\nsub_0: assembly {\n        /* \"contracts/ERC20.sol\":88:2903  contract ERC20 is IERC20 {\r... */\n      mstore(0x40, 0x80)\n      callvalue\n      dup1\n      iszero\n      tag_1\n      jumpi\n      0x00\n      dup1\n      revert\n    tag_1:\n      pop\n      jumpi(tag_2, lt(calldatasize, 0x04))\n      shr(0xe0, calldataload(0x00))\n      dup1\n      0x70a08231\n      gt\n      tag_14\n      jumpi\n      dup1\n      0x70a08231\n      eq\n      tag_8\n      jumpi\n      dup1\n      0x94bf804d\n      eq\n      tag_9\n      jumpi\n      dup1\n      0x95d89b41\n      eq\n      tag_10\n      jumpi\n      dup1\n      0x9dc29fac\n      eq\n      tag_11\n      jumpi\n      dup1\n      0xa9059cbb\n      eq\n      tag_12\n      jumpi\n      dup1\n      0xdd62ed3e\n      eq\n      tag_13\n      jumpi\n      jump(tag_2)\n    tag_14:\n      dup1\n      0x06fdde03\n      eq\n      tag_3\n      jumpi\n      dup1\n      0x095ea7b3\n      eq\n      tag_4\n      jumpi\n      dup1\n      0x18160ddd\n      eq\n      tag_5\n      jumpi\n      dup1\n      0x23b872dd\n      eq\n      tag_6\n      jumpi\n      dup1\n      0x313ce567\n      eq\n      tag_7\n      jumpi\n    tag_2:\n      0x00\n      dup1\n      revert\n        /* \"contracts/ERC20.sol\":804:895  function name() public override view returns(string memory) {\r... */\n    tag_3:\n      tag_15\n      tag_16\n      jump\t// in\n    tag_15:\n      mload(0x40)\n      tag_17\n      swap2\n      swap1\n      tag_18\n      jump\t// in\n    tag_17:\n      mload(0x40)\n      dup1\n      swap2\n      sub\n      swap1\n      return\n        /* \"contracts/ERC20.sol\":1763:1941  function approve(address spender, uint amount) external override {\r... */\n    tag_4:\n      tag_19\n      0x04\n      dup1\n      calldatasize\n      sub\n      dup2\n      add\n      swap1\n      tag_20\n      swap2\n      swap1\n      tag_21\n      jump\t// in\n    tag_20:\n      tag_22\n      jump\t// in\n    tag_19:\n      stop\n        /* \"contracts/ERC20.sol\":1097:1192  function totalSupply() public override view returns(uint) {\r... */\n    tag_5:\n      tag_23\n      tag_24\n      jump\t// in\n    tag_23:\n      mload(0x40)\n      tag_25\n      swap2\n      swap1\n      tag_26\n      jump\t// in\n    tag_25:\n      mload(0x40)\n      dup1\n      swap2\n      sub\n      swap1\n      return\n        /* \"contracts/ERC20.sol\":1949:2286  function transferFrom(address sender, address recipient, uint amount) external override {\r... */\n    tag_6:\n      tag_27\n      0x04\n      dup1\n      calldatasize\n      sub\n      dup2\n      add\n      swap1\n      tag_28\n      swap2\n      swap1\n      tag_29\n      jump\t// in\n    tag_28:\n      tag_30\n      jump\t// in\n    tag_27:\n      stop\n        /* \"contracts/ERC20.sol\":1006:1089  function decimals() public override pure returns(uint) {\r... */\n    tag_7:\n      tag_31\n      tag_32\n      jump\t// in\n    tag_31:\n      mload(0x40)\n      tag_33\n      swap2\n      swap1\n      tag_26\n      jump\t// in\n    tag_33:\n      mload(0x40)\n      dup1\n      swap2\n      sub\n      swap1\n      return\n        /* \"contracts/ERC20.sol\":1200:1314  function balanceOf(address account) public override view returns(uint) {\r... */\n    tag_8:\n      tag_34\n      0x04\n      dup1\n      calldatasize\n      sub\n      dup2\n      add\n      swap1\n      tag_35\n      swap2\n      swap1\n      tag_36\n      jump\t// in\n    tag_35:\n      tag_37\n      jump\t// in\n    tag_34:\n      mload(0x40)\n      tag_38\n      swap2\n      swap1\n      tag_26\n      jump\t// in\n    tag_38:\n      mload(0x40)\n      dup1\n      swap2\n      sub\n      swap1\n      return\n        /* \"contracts/ERC20.sol\":2294:2534  function mint(uint amount, address _to) public onlyOwner {\r... */\n    tag_9:\n      tag_39\n      0x04\n      dup1\n      calldatasize\n      sub\n      dup2\n      add\n      swap1\n      tag_40\n      swap2\n      swap1\n      tag_41\n      jump\t// in\n    tag_40:\n      tag_42\n      jump\t// in\n    tag_39:\n      stop\n        /* \"contracts/ERC20.sol\":903:998  function symbol() public override view returns(string memory) {\r... */\n    tag_10:\n      tag_43\n      tag_44\n      jump\t// in\n    tag_43:\n      mload(0x40)\n      tag_45\n      swap2\n      swap1\n      tag_18\n      jump\t// in\n    tag_45:\n      mload(0x40)\n      dup1\n      swap2\n      sub\n      swap1\n      return\n        /* \"contracts/ERC20.sol\":2542:2770  function burn(address _from, uint _amount) public onlyOwner enoughTokens(_from, _amount) {\r... */\n    tag_11:\n      tag_46\n      0x04\n      dup1\n      calldatasize\n      sub\n      dup2\n      add\n      swap1\n      tag_47\n      swap2\n      swap1\n      tag_21\n      jump\t// in\n    tag_47:\n      tag_48\n      jump\t// in\n    tag_46:\n      stop\n        /* \"contracts/ERC20.sol\":1322:1605  function transfer(address to, uint amount) external override enoughTokens(msg.sender, amount) {\r... */\n    tag_12:\n      tag_49\n      0x04\n      dup1\n      calldatasize\n      sub\n      dup2\n      add\n      swap1\n      tag_50\n      swap2\n      swap1\n      tag_21\n      jump\t// in\n    tag_50:\n      tag_51\n      jump\t// in\n    tag_49:\n      stop\n        /* \"contracts/ERC20.sol\":1613:1755  function allowance(address _owner, address spender) external override view returns(uint) {\r... */\n    tag_13:\n      tag_52\n      0x04\n      dup1\n      calldatasize\n      sub\n      dup2\n      add\n      swap1\n      tag_53\n      swap2\n      swap1\n      tag_54\n      jump\t// in\n    tag_53:\n      tag_55\n      jump\t// in\n    tag_52:\n      mload(0x40)\n      tag_56\n      swap2\n      swap1\n      tag_26\n      jump\t// in\n    tag_56:\n      mload(0x40)\n      dup1\n      swap2\n      sub\n      swap1\n      return\n        /* \"contracts/ERC20.sol\":804:895  function name() public override view returns(string memory) {\r... */\n    tag_16:\n        /* \"contracts/ERC20.sol\":849:862  string memory */\n      0x60\n        /* \"contracts/ERC20.sol\":882:887  _name */\n      0x04\n        /* \"contracts/ERC20.sol\":875:887  return _name */\n      dup1\n      sload\n      tag_58\n      swap1\n      tag_59\n      jump\t// in\n    tag_58:\n      dup1\n      0x1f\n      add\n      0x20\n      dup1\n      swap2\n      div\n      mul\n      0x20\n      add\n      mload(0x40)\n      swap1\n      dup2\n      add\n      0x40\n      mstore\n      dup1\n      swap3\n      swap2\n      swap1\n      dup2\n      dup2\n      mstore\n      0x20\n      add\n      dup3\n      dup1\n      sload\n      tag_60\n      swap1\n      tag_59\n      jump\t// in\n    tag_60:\n      dup1\n      iszero\n      tag_61\n      jumpi\n      dup1\n      0x1f\n      lt\n      tag_62\n      jumpi\n      0x0100\n      dup1\n      dup4\n      sload\n      div\n      mul\n      dup4\n      mstore\n      swap2\n      0x20\n      add\n      swap2\n      jump(tag_61)\n    tag_62:\n      dup3\n      add\n      swap2\n      swap1\n      0x00\n      mstore\n      keccak256(0x00, 0x20)\n      swap1\n    tag_63:\n      dup2\n      sload\n      dup2\n      mstore\n      swap1\n      0x01\n      add\n      swap1\n      0x20\n      add\n      dup1\n      dup4\n      gt\n      tag_63\n      jumpi\n      dup3\n      swap1\n      sub\n      0x1f\n      and\n      dup3\n      add\n      swap2\n    tag_61:\n      pop\n      pop\n      pop\n      pop\n      pop\n      swap1\n      pop\n        /* \"contracts/ERC20.sol\":804:895  function name() public override view returns(string memory) {\r... */\n      swap1\n      jump\t// out\n        /* \"contracts/ERC20.sol\":1763:1941  function approve(address spender, uint amount) external override {\r... */\n    tag_22:\n        /* \"contracts/ERC20.sol\":1873:1879  amount */\n      dup1\n        /* \"contracts/ERC20.sol\":1839:1849  allowances */\n      0x03\n        /* \"contracts/ERC20.sol\":1839:1861  allowances[msg.sender] */\n      0x00\n        /* \"contracts/ERC20.sol\":1850:1860  msg.sender */\n      caller\n        /* \"contracts/ERC20.sol\":1839:1861  allowances[msg.sender] */\n      0xffffffffffffffffffffffffffffffffffffffff\n      and\n      0xffffffffffffffffffffffffffffffffffffffff\n      and\n      dup2\n      mstore\n      0x20\n      add\n      swap1\n      dup2\n      mstore\n      0x20\n      add\n      0x00\n      keccak256\n        /* \"contracts/ERC20.sol\":1839:1870  allowances[msg.sender][spender] */\n      0x00\n        /* \"contracts/ERC20.sol\":1862:1869  spender */\n      dup5\n        /* \"contracts/ERC20.sol\":1839:1870  allowances[msg.sender][spender] */\n      0xffffffffffffffffffffffffffffffffffffffff\n      and\n      0xffffffffffffffffffffffffffffffffffffffff\n      and\n      dup2\n      mstore\n      0x20\n      add\n      swap1\n      dup2\n      mstore\n      0x20\n      add\n      0x00\n      keccak256\n        /* \"contracts/ERC20.sol\":1839:1879  allowances[msg.sender][spender] = amount */\n      dup2\n      swap1\n      sstore\n      pop\n        /* \"contracts/ERC20.sol\":1917:1924  spender */\n      dup2\n        /* \"contracts/ERC20.sol\":1897:1933  Approve(msg.sender, spender, amount) */\n      0xffffffffffffffffffffffffffffffffffffffff\n      and\n        /* \"contracts/ERC20.sol\":1905:1915  msg.sender */\n      caller\n        /* \"contracts/ERC20.sol\":1897:1933  Approve(msg.sender, spender, amount) */\n      0xffffffffffffffffffffffffffffffffffffffff\n      and\n      0x6e11fb1b7f119e3f2fa29896ef5fdf8b8a2d0d4df6fe90ba8668e7d8b2ffa25e\n        /* \"contracts/ERC20.sol\":1926:1932  amount */\n      dup4\n        /* \"contracts/ERC20.sol\":1897:1933  Approve(msg.sender, spender, amount) */\n      mload(0x40)\n      tag_65\n      swap2\n      swap1\n      tag_26\n      jump\t// in\n    tag_65:\n      mload(0x40)\n      dup1\n      swap2\n      sub\n      swap1\n      log3\n        /* \"contracts/ERC20.sol\":1763:1941  function approve(address spender, uint amount) external override {\r... */\n      pop\n      pop\n      jump\t// out\n        /* \"contracts/ERC20.sol\":1097:1192  function totalSupply() public override view returns(uint) {\r... */\n    tag_24:\n        /* \"contracts/ERC20.sol\":1149:1153  uint */\n      0x00\n        /* \"contracts/ERC20.sol\":1173:1184  totalTokens */\n      dup1\n      sload\n        /* \"contracts/ERC20.sol\":1166:1184  return totalTokens */\n      swap1\n      pop\n        /* \"contracts/ERC20.sol\":1097:1192  function totalSupply() public override view returns(uint) {\r... */\n      swap1\n      jump\t// out\n        /* \"contracts/ERC20.sol\":1949:2286  function transferFrom(address sender, address recipient, uint amount) external override {\r... */\n    tag_30:\n        /* \"contracts/ERC20.sol\":2048:2095  _beforeTokenTransfer(sender, recipient, amount) */\n      tag_68\n        /* \"contracts/ERC20.sol\":2069:2075  sender */\n      dup4\n        /* \"contracts/ERC20.sol\":2077:2086  recipient */\n      dup4\n        /* \"contracts/ERC20.sol\":2088:2094  amount */\n      dup4\n        /* \"contracts/ERC20.sol\":2048:2068  _beforeTokenTransfer */\n      tag_69\n        /* \"contracts/ERC20.sol\":2048:2095  _beforeTokenTransfer(sender, recipient, amount) */\n      jump\t// in\n    tag_68:\n        /* \"contracts/ERC20.sol\":2142:2148  amount */\n      dup1\n        /* \"contracts/ERC20.sol\":2108:2118  allowances */\n      0x03\n        /* \"contracts/ERC20.sol\":2108:2126  allowances[sender] */\n      0x00\n        /* \"contracts/ERC20.sol\":2119:2125  sender */\n      dup6\n        /* \"contracts/ERC20.sol\":2108:2126  allowances[sender] */\n      0xffffffffffffffffffffffffffffffffffffffff\n      and\n      0xffffffffffffffffffffffffffffffffffffffff\n      and\n      dup2\n      mstore\n      0x20\n      add\n      swap1\n      dup2\n      mstore\n      0x20\n      add\n      0x00\n      keccak256\n        /* \"contracts/ERC20.sol\":2108:2138  allowances[sender][msg.sender] */\n      0x00\n        /* \"contracts/ERC20.sol\":2127:2137  msg.sender */\n      caller\n        /* \"contracts/ERC20.sol\":2108:2138  allowances[sender][msg.sender] */\n      0xffffffffffffffffffffffffffffffffffffffff\n      and\n      0xffffffffffffffffffffffffffffffffffffffff\n      and\n      dup2\n      mstore\n      0x20\n      add\n      swap1\n      dup2\n      mstore\n      0x20\n      add\n      0x00\n      keccak256\n      0x00\n        /* \"contracts/ERC20.sol\":2108:2148  allowances[sender][msg.sender] -= amount */\n      dup3\n      dup3\n      sload\n      tag_70\n      swap2\n      swap1\n      tag_71\n      jump\t// in\n    tag_70:\n      swap3\n      pop\n      pop\n      dup2\n      swap1\n      sstore\n      pop\n        /* \"contracts/ERC20.sol\":2179:2185  amount */\n      dup1\n        /* \"contracts/ERC20.sol\":2159:2167  balances */\n      0x02\n        /* \"contracts/ERC20.sol\":2159:2175  balances[sender] */\n      0x00\n        /* \"contracts/ERC20.sol\":2168:2174  sender */\n      dup6\n        /* \"contracts/ERC20.sol\":2159:2175  balances[sender] */\n      0xffffffffffffffffffffffffffffffffffffffff\n      and\n      0xffffffffffffffffffffffffffffffffffffffff\n      and\n      dup2\n      mstore\n      0x20\n      add\n      swap1\n      dup2\n      mstore\n      0x20\n      add\n      0x00\n      keccak256\n      0x00\n        /* \"contracts/ERC20.sol\":2159:2185  balances[sender] -= amount */\n      dup3\n      dup3\n      sload\n      tag_72\n      swap2\n      swap1\n      tag_71\n      jump\t// in\n    tag_72:\n      swap3\n      pop\n      pop\n      dup2\n      swap1\n      sstore\n      pop\n        /* \"contracts/ERC20.sol\":2219:2225  amount */\n      dup1\n        /* \"contracts/ERC20.sol\":2196:2204  balances */\n      0x02\n        /* \"contracts/ERC20.sol\":2196:2215  balances[recipient] */\n      0x00\n        /* \"contracts/ERC20.sol\":2205:2214  recipient */\n      dup5\n        /* \"contracts/ERC20.sol\":2196:2215  balances[recipient] */\n      0xffffffffffffffffffffffffffffffffffffffff\n      and\n      0xffffffffffffffffffffffffffffffffffffffff\n      and\n      dup2\n      mstore\n      0x20\n      add\n      swap1\n      dup2\n      mstore\n      0x20\n      add\n      0x00\n      keccak256\n      0x00\n        /* \"contracts/ERC20.sol\":2196:2225  balances[recipient] += amount */\n      dup3\n      dup3\n      sload\n      tag_73\n      swap2\n      swap1\n      tag_74\n      jump\t// in\n    tag_73:\n      swap3\n      pop\n      pop\n      dup2\n      swap1\n      sstore\n      pop\n        /* \"contracts/ERC20.sol\":2260:2269  recipient */\n      dup2\n        /* \"contracts/ERC20.sol\":2243:2278  Transfer(sender, recipient, amount) */\n      0xffffffffffffffffffffffffffffffffffffffff\n      and\n        /* \"contracts/ERC20.sol\":2252:2258  sender */\n      dup4\n        /* \"contracts/ERC20.sol\":2243:2278  Transfer(sender, recipient, amount) */\n      0xffffffffffffffffffffffffffffffffffffffff\n      and\n      0xddf252ad1be2c89b69c2b068fc378daa952ba7f163c4a11628f55a4df523b3ef\n        /* \"contracts/ERC20.sol\":2271:2277  amount */\n      dup4\n        /* \"contracts/ERC20.sol\":2243:2278  Transfer(sender, recipient, amount) */\n      mload(0x40)\n      tag_75\n      swap2\n      swap1\n      tag_26\n      jump\t// in\n    tag_75:\n      mload(0x40)\n      dup1\n      swap2\n      sub\n      swap1\n      log3\n        /* \"contracts/ERC20.sol\":1949:2286  function transferFrom(address sender, address recipient, uint amount) external override {\r... */\n      pop\n      pop\n      pop\n      jump\t// out\n        /* \"contracts/ERC20.sol\":1006:1089  function decimals() public override pure returns(uint) {\r... */\n    tag_32:\n        /* \"contracts/ERC20.sol\":1055:1059  uint */\n      0x00\n        /* \"contracts/ERC20.sol\":1079:1081  18 */\n      0x12\n        /* \"contracts/ERC20.sol\":1072:1081  return 18 */\n      swap1\n      pop\n        /* \"contracts/ERC20.sol\":1006:1089  function decimals() public override pure returns(uint) {\r... */\n      swap1\n      jump\t// out\n        /* \"contracts/ERC20.sol\":1200:1314  function balanceOf(address account) public override view returns(uint) {\r... */\n    tag_37:\n        /* \"contracts/ERC20.sol\":1265:1269  uint */\n      0x00\n        /* \"contracts/ERC20.sol\":1289:1297  balances */\n      0x02\n        /* \"contracts/ERC20.sol\":1289:1306  balances[account] */\n      0x00\n        /* \"contracts/ERC20.sol\":1298:1305  account */\n      dup4\n        /* \"contracts/ERC20.sol\":1289:1306  balances[account] */\n      0xffffffffffffffffffffffffffffffffffffffff\n      and\n      0xffffffffffffffffffffffffffffffffffffffff\n      and\n      dup2\n      mstore\n      0x20\n      add\n      swap1\n      dup2\n      mstore\n      0x20\n      add\n      0x00\n      keccak256\n      sload\n        /* \"contracts/ERC20.sol\":1282:1306  return balances[account] */\n      swap1\n      pop\n        /* \"contracts/ERC20.sol\":1200:1314  function balanceOf(address account) public override view returns(uint) {\r... */\n      swap2\n      swap1\n      pop\n      jump\t// out\n        /* \"contracts/ERC20.sol\":2294:2534  function mint(uint amount, address _to) public onlyOwner {\r... */\n    tag_42:\n        /* \"contracts/ERC20.sol\":509:514  owner */\n      0x01\n      0x00\n      swap1\n      sload\n      swap1\n      0x0100\n      exp\n      swap1\n      div\n      0xffffffffffffffffffffffffffffffffffffffff\n      and\n        /* \"contracts/ERC20.sol\":495:514  msg.sender == owner */\n      0xffffffffffffffffffffffffffffffffffffffff\n      and\n        /* \"contracts/ERC20.sol\":495:505  msg.sender */\n      caller\n        /* \"contracts/ERC20.sol\":495:514  msg.sender == owner */\n      0xffffffffffffffffffffffffffffffffffffffff\n      and\n      eq\n        /* \"contracts/ERC20.sol\":487:532  require(msg.sender == owner, \"not an owner!\") */\n      tag_79\n      jumpi\n      mload(0x40)\n      0x08c379a000000000000000000000000000000000000000000000000000000000\n      dup2\n      mstore\n      0x04\n      add\n      tag_80\n      swap1\n      tag_81\n      jump\t// in\n    tag_80:\n      mload(0x40)\n      dup1\n      swap2\n      sub\n      swap1\n      revert\n    tag_79:\n        /* \"contracts/ERC20.sol\":2362:2407  _beforeTokenTransfer(address(0), _to, amount) */\n      tag_83\n        /* \"contracts/ERC20.sol\":2391:2392  0 */\n      0x00\n        /* \"contracts/ERC20.sol\":2395:2398  _to */\n      dup3\n        /* \"contracts/ERC20.sol\":2400:2406  amount */\n      dup5\n        /* \"contracts/ERC20.sol\":2362:2382  _beforeTokenTransfer */\n      tag_69\n        /* \"contracts/ERC20.sol\":2362:2407  _beforeTokenTransfer(address(0), _to, amount) */\n      jump\t// in\n    tag_83:\n        /* \"contracts/ERC20.sol\":2437:2443  amount */\n      dup2\n        /* \"contracts/ERC20.sol\":2420:2428  balances */\n      0x02\n        /* \"contracts/ERC20.sol\":2420:2433  balances[_to] */\n      0x00\n        /* \"contracts/ERC20.sol\":2429:2432  _to */\n      dup4\n        /* \"contracts/ERC20.sol\":2420:2433  balances[_to] */\n      0xffffffffffffffffffffffffffffffffffffffff\n      and\n      0xffffffffffffffffffffffffffffffffffffffff\n      and\n      dup2\n      mstore\n      0x20\n      add\n      swap1\n      dup2\n      mstore\n      0x20\n      add\n      0x00\n      keccak256\n      0x00\n        /* \"contracts/ERC20.sol\":2420:2443  balances[_to] += amount */\n      dup3\n      dup3\n      sload\n      tag_84\n      swap2\n      swap1\n      tag_74\n      jump\t// in\n    tag_84:\n      swap3\n      pop\n      pop\n      dup2\n      swap1\n      sstore\n      pop\n        /* \"contracts/ERC20.sol\":2469:2475  amount */\n      dup2\n        /* \"contracts/ERC20.sol\":2454:2465  totalTokens */\n      0x00\n      dup1\n        /* \"contracts/ERC20.sol\":2454:2475  totalTokens += amount */\n      dup3\n      dup3\n      sload\n      tag_85\n      swap2\n      swap1\n      tag_74\n      jump\t// in\n    tag_85:\n      swap3\n      pop\n      pop\n      dup2\n      swap1\n      sstore\n      pop\n        /* \"contracts/ERC20.sol\":2514:2517  _to */\n      dup1\n        /* \"contracts/ERC20.sol\":2493:2526  Transfer(address(0), _to, amount) */\n      0xffffffffffffffffffffffffffffffffffffffff\n      and\n        /* \"contracts/ERC20.sol\":2510:2511  0 */\n      0x00\n        /* \"contracts/ERC20.sol\":2493:2526  Transfer(address(0), _to, amount) */\n      0xffffffffffffffffffffffffffffffffffffffff\n      and\n      0xddf252ad1be2c89b69c2b068fc378daa952ba7f163c4a11628f55a4df523b3ef\n        /* \"contracts/ERC20.sol\":2519:2525  amount */\n      dup5\n        /* \"contracts/ERC20.sol\":2493:2526  Transfer(address(0), _to, amount) */\n      mload(0x40)\n      tag_86\n      swap2\n      swap1\n      tag_26\n      jump\t// in\n    tag_86:\n      mload(0x40)\n      dup1\n      swap2\n      sub\n      swap1\n      log3\n        /* \"contracts/ERC20.sol\":2294:2534  function mint(uint amount, address _to) public onlyOwner {\r... */\n      pop\n      pop\n      jump\t// out\n        /* \"contracts/ERC20.sol\":903:998  function symbol() public override view returns(string memory) {\r... */\n    tag_44:\n        /* \"contracts/ERC20.sol\":950:963  string memory */\n      0x60\n        /* \"contracts/ERC20.sol\":983:990  _symbol */\n      0x05\n        /* \"contracts/ERC20.sol\":976:990  return _symbol */\n      dup1\n      sload\n      tag_88\n      swap1\n      tag_59\n      jump\t// in\n    tag_88:\n      dup1\n      0x1f\n      add\n      0x20\n      dup1\n      swap2\n      div\n      mul\n      0x20\n      add\n      mload(0x40)\n      swap1\n      dup2\n      add\n      0x40\n      mstore\n      dup1\n      swap3\n      swap2\n      swap1\n      dup2\n      dup2\n      mstore\n      0x20\n      add\n      dup3\n      dup1\n      sload\n      tag_89\n      swap1\n      tag_59\n      jump\t// in\n    tag_89:\n      dup1\n      iszero\n      tag_90\n      jumpi\n      dup1\n      0x1f\n      lt\n      tag_91\n      jumpi\n      0x0100\n      dup1\n      dup4\n      sload\n      div\n      mul\n      dup4\n      mstore\n      swap2\n      0x20\n      add\n      swap2\n      jump(tag_90)\n    tag_91:\n      dup3\n      add\n      swap2\n      swap1\n      0x00\n      mstore\n      keccak256(0x00, 0x20)\n      swap1\n    tag_92:\n      dup2\n      sload\n      dup2\n      mstore\n      swap1\n      0x01\n      add\n      swap1\n      0x20\n      add\n      dup1\n      dup4\n      gt\n      tag_92\n      jumpi\n      dup3\n      swap1\n      sub\n      0x1f\n      and\n      dup3\n      add\n      swap2\n    tag_90:\n      pop\n      pop\n      pop\n      pop\n      pop\n      swap1\n      pop\n        /* \"contracts/ERC20.sol\":903:998  function symbol() public override view returns(string memory) {\r... */\n      swap1\n      jump\t// out\n        /* \"contracts/ERC20.sol\":2542:2770  function burn(address _from, uint _amount) public onlyOwner enoughTokens(_from, _amount) {\r... */\n    tag_48:\n        /* \"contracts/ERC20.sol\":509:514  owner */\n      0x01\n      0x00\n      swap1\n      sload\n      swap1\n      0x0100\n      exp\n      swap1\n      div\n      0xffffffffffffffffffffffffffffffffffffffff\n      and\n        /* \"contracts/ERC20.sol\":495:514  msg.sender == owner */\n      0xffffffffffffffffffffffffffffffffffffffff\n      and\n        /* \"contracts/ERC20.sol\":495:505  msg.sender */\n      caller\n        /* \"contracts/ERC20.sol\":495:514  msg.sender == owner */\n      0xffffffffffffffffffffffffffffffffffffffff\n      and\n      eq\n        /* \"contracts/ERC20.sol\":487:532  require(msg.sender == owner, \"not an owner!\") */\n      tag_94\n      jumpi\n      mload(0x40)\n      0x08c379a000000000000000000000000000000000000000000000000000000000\n      dup2\n      mstore\n      0x04\n      add\n      tag_95\n      swap1\n      tag_81\n      jump\t// in\n    tag_95:\n      mload(0x40)\n      dup1\n      swap2\n      sub\n      swap1\n      revert\n    tag_94:\n        /* \"contracts/ERC20.sol\":2615:2620  _from */\n      dup2\n        /* \"contracts/ERC20.sol\":2622:2629  _amount */\n      dup2\n        /* \"contracts/ERC20.sol\":397:404  _amount */\n      dup1\n        /* \"contracts/ERC20.sol\":377:393  balanceOf(_from) */\n      tag_97\n        /* \"contracts/ERC20.sol\":387:392  _from */\n      dup4\n        /* \"contracts/ERC20.sol\":377:386  balanceOf */\n      tag_37\n        /* \"contracts/ERC20.sol\":377:393  balanceOf(_from) */\n      jump\t// in\n    tag_97:\n        /* \"contracts/ERC20.sol\":377:404  balanceOf(_from) >= _amount */\n      lt\n      iszero\n        /* \"contracts/ERC20.sol\":369:427  require(balanceOf(_from) >= _amount, \"not enough tokens!\") */\n      tag_98\n      jumpi\n      mload(0x40)\n      0x08c379a000000000000000000000000000000000000000000000000000000000\n      dup2\n      mstore\n      0x04\n      add\n      tag_99\n      swap1\n      tag_100\n      jump\t// in\n    tag_99:\n      mload(0x40)\n      dup1\n      swap2\n      sub\n      swap1\n      revert\n    tag_98:\n        /* \"contracts/ERC20.sol\":2642:2690  _beforeTokenTransfer(_from, address(0), _amount) */\n      tag_102\n        /* \"contracts/ERC20.sol\":2663:2668  _from */\n      dup5\n        /* \"contracts/ERC20.sol\":2678:2679  0 */\n      0x00\n        /* \"contracts/ERC20.sol\":2682:2689  _amount */\n      dup6\n        /* \"contracts/ERC20.sol\":2642:2662  _beforeTokenTransfer */\n      tag_69\n        /* \"contracts/ERC20.sol\":2642:2690  _beforeTokenTransfer(_from, address(0), _amount) */\n      jump\t// in\n    tag_102:\n        /* \"contracts/ERC20.sol\":2722:2729  _amount */\n      dup3\n        /* \"contracts/ERC20.sol\":2703:2711  balances */\n      0x02\n        /* \"contracts/ERC20.sol\":2703:2718  balances[_from] */\n      0x00\n        /* \"contracts/ERC20.sol\":2712:2717  _from */\n      dup7\n        /* \"contracts/ERC20.sol\":2703:2718  balances[_from] */\n      0xffffffffffffffffffffffffffffffffffffffff\n      and\n      0xffffffffffffffffffffffffffffffffffffffff\n      and\n      dup2\n      mstore\n      0x20\n      add\n      swap1\n      dup2\n      mstore\n      0x20\n      add\n      0x00\n      keccak256\n      0x00\n        /* \"contracts/ERC20.sol\":2703:2729  balances[_from] -= _amount */\n      dup3\n      dup3\n      sload\n      tag_103\n      swap2\n      swap1\n      tag_71\n      jump\t// in\n    tag_103:\n      swap3\n      pop\n      pop\n      dup2\n      swap1\n      sstore\n      pop\n        /* \"contracts/ERC20.sol\":2755:2762  _amount */\n      dup3\n        /* \"contracts/ERC20.sol\":2740:2751  totalTokens */\n      0x00\n      dup1\n        /* \"contracts/ERC20.sol\":2740:2762  totalTokens -= _amount */\n      dup3\n      dup3\n      sload\n      tag_104\n      swap2\n      swap1\n      tag_71\n      jump\t// in\n    tag_104:\n      swap3\n      pop\n      pop\n      dup2\n      swap1\n      sstore\n      pop\n        /* \"contracts/ERC20.sol\":543:544  _ */\n      pop\n      pop\n        /* \"contracts/ERC20.sol\":2542:2770  function burn(address _from, uint _amount) public onlyOwner enoughTokens(_from, _amount) {\r... */\n      pop\n      pop\n      jump\t// out\n        /* \"contracts/ERC20.sol\":1322:1605  function transfer(address to, uint amount) external override enoughTokens(msg.sender, amount) {\r... */\n    tag_51:\n        /* \"contracts/ERC20.sol\":1396:1406  msg.sender */\n      caller\n        /* \"contracts/ERC20.sol\":1408:1414  amount */\n      dup2\n        /* \"contracts/ERC20.sol\":397:404  _amount */\n      dup1\n        /* \"contracts/ERC20.sol\":377:393  balanceOf(_from) */\n      tag_106\n        /* \"contracts/ERC20.sol\":387:392  _from */\n      dup4\n        /* \"contracts/ERC20.sol\":377:386  balanceOf */\n      tag_37\n        /* \"contracts/ERC20.sol\":377:393  balanceOf(_from) */\n      jump\t// in\n    tag_106:\n        /* \"contracts/ERC20.sol\":377:404  balanceOf(_from) >= _amount */\n      lt\n      iszero\n        /* \"contracts/ERC20.sol\":369:427  require(balanceOf(_from) >= _amount, \"not enough tokens!\") */\n      tag_107\n      jumpi\n      mload(0x40)\n      0x08c379a000000000000000000000000000000000000000000000000000000000\n      dup2\n      mstore\n      0x04\n      add\n      tag_108\n      swap1\n      tag_100\n      jump\t// in\n    tag_108:\n      mload(0x40)\n      dup1\n      swap2\n      sub\n      swap1\n      revert\n    tag_107:\n        /* \"contracts/ERC20.sol\":1427:1471  _beforeTokenTransfer(msg.sender, to, amount) */\n      tag_110\n        /* \"contracts/ERC20.sol\":1448:1458  msg.sender */\n      caller\n        /* \"contracts/ERC20.sol\":1460:1462  to */\n      dup6\n        /* \"contracts/ERC20.sol\":1464:1470  amount */\n      dup6\n        /* \"contracts/ERC20.sol\":1427:1447  _beforeTokenTransfer */\n      tag_69\n        /* \"contracts/ERC20.sol\":1427:1471  _beforeTokenTransfer(msg.sender, to, amount) */\n      jump\t// in\n    tag_110:\n        /* \"contracts/ERC20.sol\":1508:1514  amount */\n      dup3\n        /* \"contracts/ERC20.sol\":1484:1492  balances */\n      0x02\n        /* \"contracts/ERC20.sol\":1484:1504  balances[msg.sender] */\n      0x00\n        /* \"contracts/ERC20.sol\":1493:1503  msg.sender */\n      caller\n        /* \"contracts/ERC20.sol\":1484:1504  balances[msg.sender] */\n      0xffffffffffffffffffffffffffffffffffffffff\n      and\n      0xffffffffffffffffffffffffffffffffffffffff\n      and\n      dup2\n      mstore\n      0x20\n      add\n      swap1\n      dup2\n      mstore\n      0x20\n      add\n      0x00\n      keccak256\n      0x00\n        /* \"contracts/ERC20.sol\":1484:1514  balances[msg.sender] -= amount */\n      dup3\n      dup3\n      sload\n      tag_111\n      swap2\n      swap1\n      tag_71\n      jump\t// in\n    tag_111:\n      swap3\n      pop\n      pop\n      dup2\n      swap1\n      sstore\n      pop\n        /* \"contracts/ERC20.sol\":1541:1547  amount */\n      dup3\n        /* \"contracts/ERC20.sol\":1525:1533  balances */\n      0x02\n        /* \"contracts/ERC20.sol\":1525:1537  balances[to] */\n      0x00\n        /* \"contracts/ERC20.sol\":1534:1536  to */\n      dup7\n        /* \"contracts/ERC20.sol\":1525:1537  balances[to] */\n      0xffffffffffffffffffffffffffffffffffffffff\n      and\n      0xffffffffffffffffffffffffffffffffffffffff\n      and\n      dup2\n      mstore\n      0x20\n      add\n      swap1\n      dup2\n      mstore\n      0x20\n      add\n      0x00\n      keccak256\n      0x00\n        /* \"contracts/ERC20.sol\":1525:1547  balances[to] += amount */\n      dup3\n      dup3\n      sload\n      tag_112\n      swap2\n      swap1\n      tag_74\n      jump\t// in\n    tag_112:\n      swap3\n      pop\n      pop\n      dup2\n      swap1\n      sstore\n      pop\n        /* \"contracts/ERC20.sol\":1586:1588  to */\n      dup4\n        /* \"contracts/ERC20.sol\":1565:1597  Transfer(msg.sender, to, amount) */\n      0xffffffffffffffffffffffffffffffffffffffff\n      and\n        /* \"contracts/ERC20.sol\":1574:1584  msg.sender */\n      caller\n        /* \"contracts/ERC20.sol\":1565:1597  Transfer(msg.sender, to, amount) */\n      0xffffffffffffffffffffffffffffffffffffffff\n      and\n      0xddf252ad1be2c89b69c2b068fc378daa952ba7f163c4a11628f55a4df523b3ef\n        /* \"contracts/ERC20.sol\":1590:1596  amount */\n      dup6\n        /* \"contracts/ERC20.sol\":1565:1597  Transfer(msg.sender, to, amount) */\n      mload(0x40)\n      tag_113\n      swap2\n      swap1\n      tag_26\n      jump\t// in\n    tag_113:\n      mload(0x40)\n      dup1\n      swap2\n      sub\n      swap1\n      log3\n        /* \"contracts/ERC20.sol\":1322:1605  function transfer(address to, uint amount) external override enoughTokens(msg.sender, amount) {\r... */\n      pop\n      pop\n      pop\n      pop\n      jump\t// out\n        /* \"contracts/ERC20.sol\":1613:1755  function allowance(address _owner, address spender) external override view returns(uint) {\r... */\n    tag_55:\n        /* \"contracts/ERC20.sol\":1696:1700  uint */\n      0x00\n        /* \"contracts/ERC20.sol\":1720:1730  allowances */\n      0x03\n        /* \"contracts/ERC20.sol\":1720:1738  allowances[_owner] */\n      0x00\n        /* \"contracts/ERC20.sol\":1731:1737  _owner */\n      dup5\n        /* \"contracts/ERC20.sol\":1720:1738  allowances[_owner] */\n      0xffffffffffffffffffffffffffffffffffffffff\n      and\n      0xffffffffffffffffffffffffffffffffffffffff\n      and\n      dup2\n      mstore\n      0x20\n      add\n      swap1\n      dup2\n      mstore\n      0x20\n      add\n      0x00\n      keccak256\n        /* \"contracts/ERC20.sol\":1720:1747  allowances[_owner][spender] */\n      0x00\n        /* \"contracts/ERC20.sol\":1739:1746  spender */\n      dup4\n        /* \"contracts/ERC20.sol\":1720:1747  allowances[_owner][spender] */\n      0xffffffffffffffffffffffffffffffffffffffff\n      and\n      0xffffffffffffffffffffffffffffffffffffffff\n      and\n      dup2\n      mstore\n      0x20\n      add\n      swap1\n      dup2\n      mstore\n      0x20\n      add\n      0x00\n      keccak256\n      sload\n        /* \"contracts/ERC20.sol\":1713:1747  return allowances[_owner][spender] */\n      swap1\n      pop\n        /* \"contracts/ERC20.sol\":1613:1755  function allowance(address _owner, address spender) external override view returns(uint) {\r... */\n      swap3\n      swap2\n      pop\n      pop\n      jump\t// out\n        /* \"contracts/ERC20.sol\":2778:2900  function _beforeTokenTransfer(\r... */\n    tag_69:\n      pop\n      pop\n      pop\n      jump\t// out\n        /* \"#utility.yul\":7:146   */\n    tag_117:\n        /* \"#utility.yul\":53:58   */\n      0x00\n        /* \"#utility.yul\":91:97   */\n      dup2\n        /* \"#utility.yul\":78:98   */\n      calldataload\n        /* \"#utility.yul\":69:98   */\n      swap1\n      pop\n        /* \"#utility.yul\":107:140   */\n      tag_119\n        /* \"#utility.yul\":134:139   */\n      dup2\n        /* \"#utility.yul\":107:140   */\n      tag_120\n      jump\t// in\n    tag_119:\n        /* \"#utility.yul\":7:146   */\n      swap3\n      swap2\n      pop\n      pop\n      jump\t// out\n        /* \"#utility.yul\":152:291   */\n    tag_121:\n        /* \"#utility.yul\":198:203   */\n      0x00\n        /* \"#utility.yul\":236:242   */\n      dup2\n        /* \"#utility.yul\":223:243   */\n      calldataload\n        /* \"#utility.yul\":214:243   */\n      swap1\n      pop\n        /* \"#utility.yul\":252:285   */\n      tag_123\n        /* \"#utility.yul\":279:284   */\n      dup2\n        /* \"#utility.yul\":252:285   */\n      tag_124\n      jump\t// in\n    tag_123:\n        /* \"#utility.yul\":152:291   */\n      swap3\n      swap2\n      pop\n      pop\n      jump\t// out\n        /* \"#utility.yul\":297:626   */\n    tag_36:\n        /* \"#utility.yul\":356:362   */\n      0x00\n        /* \"#utility.yul\":405:407   */\n      0x20\n        /* \"#utility.yul\":393:402   */\n      dup3\n        /* \"#utility.yul\":384:391   */\n      dup5\n        /* \"#utility.yul\":380:403   */\n      sub\n        /* \"#utility.yul\":376:408   */\n      slt\n        /* \"#utility.yul\":373:492   */\n      iszero\n      tag_126\n      jumpi\n        /* \"#utility.yul\":411:490   */\n      tag_127\n      tag_128\n      jump\t// in\n    tag_127:\n        /* \"#utility.yul\":373:492   */\n    tag_126:\n        /* \"#utility.yul\":531:532   */\n      0x00\n        /* \"#utility.yul\":556:609   */\n      tag_129\n        /* \"#utility.yul\":601:608   */\n      dup5\n        /* \"#utility.yul\":592:598   */\n      dup3\n        /* \"#utility.yul\":581:590   */\n      dup6\n        /* \"#utility.yul\":577:599   */\n      add\n        /* \"#utility.yul\":556:609   */\n      tag_117\n      jump\t// in\n    tag_129:\n        /* \"#utility.yul\":546:609   */\n      swap2\n      pop\n        /* \"#utility.yul\":502:619   */\n      pop\n        /* \"#utility.yul\":297:626   */\n      swap3\n      swap2\n      pop\n      pop\n      jump\t// out\n        /* \"#utility.yul\":632:1106   */\n    tag_54:\n        /* \"#utility.yul\":700:706   */\n      0x00\n        /* \"#utility.yul\":708:714   */\n      dup1\n        /* \"#utility.yul\":757:759   */\n      0x40\n        /* \"#utility.yul\":745:754   */\n      dup4\n        /* \"#utility.yul\":736:743   */\n      dup6\n        /* \"#utility.yul\":732:755   */\n      sub\n        /* \"#utility.yul\":728:760   */\n      slt\n        /* \"#utility.yul\":725:844   */\n      iszero\n      tag_131\n      jumpi\n        /* \"#utility.yul\":763:842   */\n      tag_132\n      tag_128\n      jump\t// in\n    tag_132:\n        /* \"#utility.yul\":725:844   */\n    tag_131:\n        /* \"#utility.yul\":883:884   */\n      0x00\n        /* \"#utility.yul\":908:961   */\n      tag_133\n        /* \"#utility.yul\":953:960   */\n      dup6\n        /* \"#utility.yul\":944:950   */\n      dup3\n        /* \"#utility.yul\":933:942   */\n      dup7\n        /* \"#utility.yul\":929:951   */\n      add\n        /* \"#utility.yul\":908:961   */\n      tag_117\n      jump\t// in\n    tag_133:\n        /* \"#utility.yul\":898:961   */\n      swap3\n      pop\n        /* \"#utility.yul\":854:971   */\n      pop\n        /* \"#utility.yul\":1010:1012   */\n      0x20\n        /* \"#utility.yul\":1036:1089   */\n      tag_134\n        /* \"#utility.yul\":1081:1088   */\n      dup6\n        /* \"#utility.yul\":1072:1078   */\n      dup3\n        /* \"#utility.yul\":1061:1070   */\n      dup7\n        /* \"#utility.yul\":1057:1079   */\n      add\n        /* \"#utility.yul\":1036:1089   */\n      tag_117\n      jump\t// in\n    tag_134:\n        /* \"#utility.yul\":1026:1089   */\n      swap2\n      pop\n        /* \"#utility.yul\":981:1099   */\n      pop\n        /* \"#utility.yul\":632:1106   */\n      swap3\n      pop\n      swap3\n      swap1\n      pop\n      jump\t// out\n        /* \"#utility.yul\":1112:1731   */\n    tag_29:\n        /* \"#utility.yul\":1189:1195   */\n      0x00\n        /* \"#utility.yul\":1197:1203   */\n      dup1\n        /* \"#utility.yul\":1205:1211   */\n      0x00\n        /* \"#utility.yul\":1254:1256   */\n      0x60\n        /* \"#utility.yul\":1242:1251   */\n      dup5\n        /* \"#utility.yul\":1233:1240   */\n      dup7\n        /* \"#utility.yul\":1229:1252   */\n      sub\n        /* \"#utility.yul\":1225:1257   */\n      slt\n        /* \"#utility.yul\":1222:1341   */\n      iszero\n      tag_136\n      jumpi\n        /* \"#utility.yul\":1260:1339   */\n      tag_137\n      tag_128\n      jump\t// in\n    tag_137:\n        /* \"#utility.yul\":1222:1341   */\n    tag_136:\n        /* \"#utility.yul\":1380:1381   */\n      0x00\n        /* \"#utility.yul\":1405:1458   */\n      tag_138\n        /* \"#utility.yul\":1450:1457   */\n      dup7\n        /* \"#utility.yul\":1441:1447   */\n      dup3\n        /* \"#utility.yul\":1430:1439   */\n      dup8\n        /* \"#utility.yul\":1426:1448   */\n      add\n        /* \"#utility.yul\":1405:1458   */\n      tag_117\n      jump\t// in\n    tag_138:\n        /* \"#utility.yul\":1395:1458   */\n      swap4\n      pop\n        /* \"#utility.yul\":1351:1468   */\n      pop\n        /* \"#utility.yul\":1507:1509   */\n      0x20\n        /* \"#utility.yul\":1533:1586   */\n      tag_139\n        /* \"#utility.yul\":1578:1585   */\n      dup7\n        /* \"#utility.yul\":1569:1575   */\n      dup3\n        /* \"#utility.yul\":1558:1567   */\n      dup8\n        /* \"#utility.yul\":1554:1576   */\n      add\n        /* \"#utility.yul\":1533:1586   */\n      tag_117\n      jump\t// in\n    tag_139:\n        /* \"#utility.yul\":1523:1586   */\n      swap3\n      pop\n        /* \"#utility.yul\":1478:1596   */\n      pop\n        /* \"#utility.yul\":1635:1637   */\n      0x40\n        /* \"#utility.yul\":1661:1714   */\n      tag_140\n        /* \"#utility.yul\":1706:1713   */\n      dup7\n        /* \"#utility.yul\":1697:1703   */\n      dup3\n        /* \"#utility.yul\":1686:1695   */\n      dup8\n        /* \"#utility.yul\":1682:1704   */\n      add\n        /* \"#utility.yul\":1661:1714   */\n      tag_121\n      jump\t// in\n    tag_140:\n        /* \"#utility.yul\":1651:1714   */\n      swap2\n      pop\n        /* \"#utility.yul\":1606:1724   */\n      pop\n        /* \"#utility.yul\":1112:1731   */\n      swap3\n      pop\n      swap3\n      pop\n      swap3\n      jump\t// out\n        /* \"#utility.yul\":1737:2211   */\n    tag_21:\n        /* \"#utility.yul\":1805:1811   */\n      0x00\n        /* \"#utility.yul\":1813:1819   */\n      dup1\n        /* \"#utility.yul\":1862:1864   */\n      0x40\n        /* \"#utility.yul\":1850:1859   */\n      dup4\n        /* \"#utility.yul\":1841:1848   */\n      dup6\n        /* \"#utility.yul\":1837:1860   */\n      sub\n        /* \"#utility.yul\":1833:1865   */\n      slt\n        /* \"#utility.yul\":1830:1949   */\n      iszero\n      tag_142\n      jumpi\n        /* \"#utility.yul\":1868:1947   */\n      tag_143\n      tag_128\n      jump\t// in\n    tag_143:\n        /* \"#utility.yul\":1830:1949   */\n    tag_142:\n        /* \"#utility.yul\":1988:1989   */\n      0x00\n        /* \"#utility.yul\":2013:2066   */\n      tag_144\n        /* \"#utility.yul\":2058:2065   */\n      dup6\n        /* \"#utility.yul\":2049:2055   */\n      dup3\n        /* \"#utility.yul\":2038:2047   */\n      dup7\n        /* \"#utility.yul\":2034:2056   */\n      add\n        /* \"#utility.yul\":2013:2066   */\n      tag_117\n      jump\t// in\n    tag_144:\n        /* \"#utility.yul\":2003:2066   */\n      swap3\n      pop\n        /* \"#utility.yul\":1959:2076   */\n      pop\n        /* \"#utility.yul\":2115:2117   */\n      0x20\n        /* \"#utility.yul\":2141:2194   */\n      tag_145\n        /* \"#utility.yul\":2186:2193   */\n      dup6\n        /* \"#utility.yul\":2177:2183   */\n      dup3\n        /* \"#utility.yul\":2166:2175   */\n      dup7\n        /* \"#utility.yul\":2162:2184   */\n      add\n        /* \"#utility.yul\":2141:2194   */\n      tag_121\n      jump\t// in\n    tag_145:\n        /* \"#utility.yul\":2131:2194   */\n      swap2\n      pop\n        /* \"#utility.yul\":2086:2204   */\n      pop\n        /* \"#utility.yul\":1737:2211   */\n      swap3\n      pop\n      swap3\n      swap1\n      pop\n      jump\t// out\n        /* \"#utility.yul\":2217:2691   */\n    tag_41:\n        /* \"#utility.yul\":2285:2291   */\n      0x00\n        /* \"#utility.yul\":2293:2299   */\n      dup1\n        /* \"#utility.yul\":2342:2344   */\n      0x40\n        /* \"#utility.yul\":2330:2339   */\n      dup4\n        /* \"#utility.yul\":2321:2328   */\n      dup6\n        /* \"#utility.yul\":2317:2340   */\n      sub\n        /* \"#utility.yul\":2313:2345   */\n      slt\n        /* \"#utility.yul\":2310:2429   */\n      iszero\n      tag_147\n      jumpi\n        /* \"#utility.yul\":2348:2427   */\n      tag_148\n      tag_128\n      jump\t// in\n    tag_148:\n        /* \"#utility.yul\":2310:2429   */\n    tag_147:\n        /* \"#utility.yul\":2468:2469   */\n      0x00\n        /* \"#utility.yul\":2493:2546   */\n      tag_149\n        /* \"#utility.yul\":2538:2545   */\n      dup6\n        /* \"#utility.yul\":2529:2535   */\n      dup3\n        /* \"#utility.yul\":2518:2527   */\n      dup7\n        /* \"#utility.yul\":2514:2536   */\n      add\n        /* \"#utility.yul\":2493:2546   */\n      tag_121\n      jump\t// in\n    tag_149:\n        /* \"#utility.yul\":2483:2546   */\n      swap3\n      pop\n        /* \"#utility.yul\":2439:2556   */\n      pop\n        /* \"#utility.yul\":2595:2597   */\n      0x20\n        /* \"#utility.yul\":2621:2674   */\n      tag_150\n        /* \"#utility.yul\":2666:2673   */\n      dup6\n        /* \"#utility.yul\":2657:2663   */\n      dup3\n        /* \"#utility.yul\":2646:2655   */\n      dup7\n        /* \"#utility.yul\":2642:2664   */\n      add\n        /* \"#utility.yul\":2621:2674   */\n      tag_117\n      jump\t// in\n    tag_150:\n        /* \"#utility.yul\":2611:2674   */\n      swap2\n      pop\n        /* \"#utility.yul\":2566:2684   */\n      pop\n        /* \"#utility.yul\":2217:2691   */\n      swap3\n      pop\n      swap3\n      swap1\n      pop\n      jump\t// out\n        /* \"#utility.yul\":2697:3061   */\n    tag_151:\n        /* \"#utility.yul\":2785:2788   */\n      0x00\n        /* \"#utility.yul\":2813:2852   */\n      tag_153\n        /* \"#utility.yul\":2846:2851   */\n      dup3\n        /* \"#utility.yul\":2813:2852   */\n      tag_154\n      jump\t// in\n    tag_153:\n        /* \"#utility.yul\":2868:2939   */\n      tag_155\n        /* \"#utility.yul\":2932:2938   */\n      dup2\n        /* \"#utility.yul\":2927:2930   */\n      dup6\n        /* \"#utility.yul\":2868:2939   */\n      tag_156\n      jump\t// in\n    tag_155:\n        /* \"#utility.yul\":2861:2939   */\n      swap4\n      pop\n        /* \"#utility.yul\":2948:3000   */\n      tag_157\n        /* \"#utility.yul\":2993:2999   */\n      dup2\n        /* \"#utility.yul\":2988:2991   */\n      dup6\n        /* \"#utility.yul\":2981:2985   */\n      0x20\n        /* \"#utility.yul\":2974:2979   */\n      dup7\n        /* \"#utility.yul\":2970:2986   */\n      add\n        /* \"#utility.yul\":2948:3000   */\n      tag_158\n      jump\t// in\n    tag_157:\n        /* \"#utility.yul\":3025:3054   */\n      tag_159\n        /* \"#utility.yul\":3047:3053   */\n      dup2\n        /* \"#utility.yul\":3025:3054   */\n      tag_160\n      jump\t// in\n    tag_159:\n        /* \"#utility.yul\":3020:3023   */\n      dup5\n        /* \"#utility.yul\":3016:3055   */\n      add\n        /* \"#utility.yul\":3009:3055   */\n      swap2\n      pop\n        /* \"#utility.yul\":2789:3061   */\n      pop\n        /* \"#utility.yul\":2697:3061   */\n      swap3\n      swap2\n      pop\n      pop\n      jump\t// out\n        /* \"#utility.yul\":3067:3433   */\n    tag_161:\n        /* \"#utility.yul\":3209:3212   */\n      0x00\n        /* \"#utility.yul\":3230:3297   */\n      tag_163\n        /* \"#utility.yul\":3294:3296   */\n      0x0d\n        /* \"#utility.yul\":3289:3292   */\n      dup4\n        /* \"#utility.yul\":3230:3297   */\n      tag_156\n      jump\t// in\n    tag_163:\n        /* \"#utility.yul\":3223:3297   */\n      swap2\n      pop\n        /* \"#utility.yul\":3306:3399   */\n      tag_164\n        /* \"#utility.yul\":3395:3398   */\n      dup3\n        /* \"#utility.yul\":3306:3399   */\n      tag_165\n      jump\t// in\n    tag_164:\n        /* \"#utility.yul\":3424:3426   */\n      0x20\n        /* \"#utility.yul\":3419:3422   */\n      dup3\n        /* \"#utility.yul\":3415:3427   */\n      add\n        /* \"#utility.yul\":3408:3427   */\n      swap1\n      pop\n        /* \"#utility.yul\":3067:3433   */\n      swap2\n      swap1\n      pop\n      jump\t// out\n        /* \"#utility.yul\":3439:3805   */\n    tag_166:\n        /* \"#utility.yul\":3581:3584   */\n      0x00\n        /* \"#utility.yul\":3602:3669   */\n      tag_168\n        /* \"#utility.yul\":3666:3668   */\n      0x12\n        /* \"#utility.yul\":3661:3664   */\n      dup4\n        /* \"#utility.yul\":3602:3669   */\n      tag_156\n      jump\t// in\n    tag_168:\n        /* \"#utility.yul\":3595:3669   */\n      swap2\n      pop\n        /* \"#utility.yul\":3678:3771   */\n      tag_169\n        /* \"#utility.yul\":3767:3770   */\n      dup3\n        /* \"#utility.yul\":3678:3771   */\n      tag_170\n      jump\t// in\n    tag_169:\n        /* \"#utility.yul\":3796:3798   */\n      0x20\n        /* \"#utility.yul\":3791:3794   */\n      dup3\n        /* \"#utility.yul\":3787:3799   */\n      add\n        /* \"#utility.yul\":3780:3799   */\n      swap1\n      pop\n        /* \"#utility.yul\":3439:3805   */\n      swap2\n      swap1\n      pop\n      jump\t// out\n        /* \"#utility.yul\":3811:3929   */\n    tag_171:\n        /* \"#utility.yul\":3898:3922   */\n      tag_173\n        /* \"#utility.yul\":3916:3921   */\n      dup2\n        /* \"#utility.yul\":3898:3922   */\n      tag_174\n      jump\t// in\n    tag_173:\n        /* \"#utility.yul\":3893:3896   */\n      dup3\n        /* \"#utility.yul\":3886:3923   */\n      mstore\n        /* \"#utility.yul\":3811:3929   */\n      pop\n      pop\n      jump\t// out\n        /* \"#utility.yul\":3935:4248   */\n    tag_18:\n        /* \"#utility.yul\":4048:4052   */\n      0x00\n        /* \"#utility.yul\":4086:4088   */\n      0x20\n        /* \"#utility.yul\":4075:4084   */\n      dup3\n        /* \"#utility.yul\":4071:4089   */\n      add\n        /* \"#utility.yul\":4063:4089   */\n      swap1\n      pop\n        /* \"#utility.yul\":4135:4144   */\n      dup2\n        /* \"#utility.yul\":4129:4133   */\n      dup2\n        /* \"#utility.yul\":4125:4145   */\n      sub\n        /* \"#utility.yul\":4121:4122   */\n      0x00\n        /* \"#utility.yul\":4110:4119   */\n      dup4\n        /* \"#utility.yul\":4106:4123   */\n      add\n        /* \"#utility.yul\":4099:4146   */\n      mstore\n        /* \"#utility.yul\":4163:4241   */\n      tag_176\n        /* \"#utility.yul\":4236:4240   */\n      dup2\n        /* \"#utility.yul\":4227:4233   */\n      dup5\n        /* \"#utility.yul\":4163:4241   */\n      tag_151\n      jump\t// in\n    tag_176:\n        /* \"#utility.yul\":4155:4241   */\n      swap1\n      pop\n        /* \"#utility.yul\":3935:4248   */\n      swap3\n      swap2\n      pop\n      pop\n      jump\t// out\n        /* \"#utility.yul\":4254:4673   */\n    tag_81:\n        /* \"#utility.yul\":4420:4424   */\n      0x00\n        /* \"#utility.yul\":4458:4460   */\n      0x20\n        /* \"#utility.yul\":4447:4456   */\n      dup3\n        /* \"#utility.yul\":4443:4461   */\n      add\n        /* \"#utility.yul\":4435:4461   */\n      swap1\n      pop\n        /* \"#utility.yul\":4507:4516   */\n      dup2\n        /* \"#utility.yul\":4501:4505   */\n      dup2\n        /* \"#utility.yul\":4497:4517   */\n      sub\n        /* \"#utility.yul\":4493:4494   */\n      0x00\n        /* \"#utility.yul\":4482:4491   */\n      dup4\n        /* \"#utility.yul\":4478:4495   */\n      add\n        /* \"#utility.yul\":4471:4518   */\n      mstore\n        /* \"#utility.yul\":4535:4666   */\n      tag_178\n        /* \"#utility.yul\":4661:4665   */\n      dup2\n        /* \"#utility.yul\":4535:4666   */\n      tag_161\n      jump\t// in\n    tag_178:\n        /* \"#utility.yul\":4527:4666   */\n      swap1\n      pop\n        /* \"#utility.yul\":4254:4673   */\n      swap2\n      swap1\n      pop\n      jump\t// out\n        /* \"#utility.yul\":4679:5098   */\n    tag_100:\n        /* \"#utility.yul\":4845:4849   */\n      0x00\n        /* \"#utility.yul\":4883:4885   */\n      0x20\n        /* \"#utility.yul\":4872:4881   */\n      dup3\n        /* \"#utility.yul\":4868:4886   */\n      add\n        /* \"#utility.yul\":4860:4886   */\n      swap1\n      pop\n        /* \"#utility.yul\":4932:4941   */\n      dup2\n        /* \"#utility.yul\":4926:4930   */\n      dup2\n        /* \"#utility.yul\":4922:4942   */\n      sub\n        /* \"#utility.yul\":4918:4919   */\n      0x00\n        /* \"#utility.yul\":4907:4916   */\n      dup4\n        /* \"#utility.yul\":4903:4920   */\n      add\n        /* \"#utility.yul\":4896:4943   */\n      mstore\n        /* \"#utility.yul\":4960:5091   */\n      tag_180\n        /* \"#utility.yul\":5086:5090   */\n      dup2\n        /* \"#utility.yul\":4960:5091   */\n      tag_166\n      jump\t// in\n    tag_180:\n        /* \"#utility.yul\":4952:5091   */\n      swap1\n      pop\n        /* \"#utility.yul\":4679:5098   */\n      swap2\n      swap1\n      pop\n      jump\t// out\n        /* \"#utility.yul\":5104:5326   */\n    tag_26:\n        /* \"#utility.yul\":5197:5201   */\n      0x00\n        /* \"#utility.yul\":5235:5237   */\n      0x20\n        /* \"#utility.yul\":5224:5233   */\n      dup3\n        /* \"#utility.yul\":5220:5238   */\n      add\n        /* \"#utility.yul\":5212:5238   */\n      swap1\n      pop\n        /* \"#utility.yul\":5248:5319   */\n      tag_182\n        /* \"#utility.yul\":5316:5317   */\n      0x00\n        /* \"#utility.yul\":5305:5314   */\n      dup4\n        /* \"#utility.yul\":5301:5318   */\n      add\n        /* \"#utility.yul\":5292:5298   */\n      dup5\n        /* \"#utility.yul\":5248:5319   */\n      tag_171\n      jump\t// in\n    tag_182:\n        /* \"#utility.yul\":5104:5326   */\n      swap3\n      swap2\n      pop\n      pop\n      jump\t// out\n        /* \"#utility.yul\":5413:5512   */\n    tag_154:\n        /* \"#utility.yul\":5465:5471   */\n      0x00\n        /* \"#utility.yul\":5499:5504   */\n      dup2\n        /* \"#utility.yul\":5493:5505   */\n      mload\n        /* \"#utility.yul\":5483:5505   */\n      swap1\n      pop\n        /* \"#utility.yul\":5413:5512   */\n      swap2\n      swap1\n      pop\n      jump\t// out\n        /* \"#utility.yul\":5518:5687   */\n    tag_156:\n        /* \"#utility.yul\":5602:5613   */\n      0x00\n        /* \"#utility.yul\":5636:5642   */\n      dup3\n        /* \"#utility.yul\":5631:5634   */\n      dup3\n        /* \"#utility.yul\":5624:5643   */\n      mstore\n        /* \"#utility.yul\":5676:5680   */\n      0x20\n        /* \"#utility.yul\":5671:5674   */\n      dup3\n        /* \"#utility.yul\":5667:5681   */\n      add\n        /* \"#utility.yul\":5652:5681   */\n      swap1\n      pop\n        /* \"#utility.yul\":5518:5687   */\n      swap3\n      swap2\n      pop\n      pop\n      jump\t// out\n        /* \"#utility.yul\":5693:5998   */\n    tag_74:\n        /* \"#utility.yul\":5733:5736   */\n      0x00\n        /* \"#utility.yul\":5752:5772   */\n      tag_188\n        /* \"#utility.yul\":5770:5771   */\n      dup3\n        /* \"#utility.yul\":5752:5772   */\n      tag_174\n      jump\t// in\n    tag_188:\n        /* \"#utility.yul\":5747:5772   */\n      swap2\n      pop\n        /* \"#utility.yul\":5786:5806   */\n      tag_189\n        /* \"#utility.yul\":5804:5805   */\n      dup4\n        /* \"#utility.yul\":5786:5806   */\n      tag_174\n      jump\t// in\n    tag_189:\n        /* \"#utility.yul\":5781:5806   */\n      swap3\n      pop\n        /* \"#utility.yul\":5940:5941   */\n      dup3\n        /* \"#utility.yul\":5872:5938   */\n      0xffffffffffffffffffffffffffffffffffffffffffffffffffffffffffffffff\n        /* \"#utility.yul\":5868:5942   */\n      sub\n        /* \"#utility.yul\":5865:5866   */\n      dup3\n        /* \"#utility.yul\":5862:5943   */\n      gt\n        /* \"#utility.yul\":5859:5966   */\n      iszero\n      tag_190\n      jumpi\n        /* \"#utility.yul\":5946:5964   */\n      tag_191\n      tag_192\n      jump\t// in\n    tag_191:\n        /* \"#utility.yul\":5859:5966   */\n    tag_190:\n        /* \"#utility.yul\":5990:5991   */\n      dup3\n        /* \"#utility.yul\":5987:5988   */\n      dup3\n        /* \"#utility.yul\":5983:5992   */\n      add\n        /* \"#utility.yul\":5976:5992   */\n      swap1\n      pop\n        /* \"#utility.yul\":5693:5998   */\n      swap3\n      swap2\n      pop\n      pop\n      jump\t// out\n        /* \"#utility.yul\":6004:6195   */\n    tag_71:\n        /* \"#utility.yul\":6044:6048   */\n      0x00\n        /* \"#utility.yul\":6064:6084   */\n      tag_194\n        /* \"#utility.yul\":6082:6083   */\n      dup3\n        /* \"#utility.yul\":6064:6084   */\n      tag_174\n      jump\t// in\n    tag_194:\n        /* \"#utility.yul\":6059:6084   */\n      swap2\n      pop\n        /* \"#utility.yul\":6098:6118   */\n      tag_195\n        /* \"#utility.yul\":6116:6117   */\n      dup4\n        /* \"#utility.yul\":6098:6118   */\n      tag_174\n      jump\t// in\n    tag_195:\n        /* \"#utility.yul\":6093:6118   */\n      swap3\n      pop\n        /* \"#utility.yul\":6137:6138   */\n      dup3\n        /* \"#utility.yul\":6134:6135   */\n      dup3\n        /* \"#utility.yul\":6131:6139   */\n      lt\n        /* \"#utility.yul\":6128:6162   */\n      iszero\n      tag_196\n      jumpi\n        /* \"#utility.yul\":6142:6160   */\n      tag_197\n      tag_192\n      jump\t// in\n    tag_197:\n        /* \"#utility.yul\":6128:6162   */\n    tag_196:\n        /* \"#utility.yul\":6187:6188   */\n      dup3\n        /* \"#utility.yul\":6184:6185   */\n      dup3\n        /* \"#utility.yul\":6180:6189   */\n      sub\n        /* \"#utility.yul\":6172:6189   */\n      swap1\n      pop\n        /* \"#utility.yul\":6004:6195   */\n      swap3\n      swap2\n      pop\n      pop\n      jump\t// out\n        /* \"#utility.yul\":6201:6297   */\n    tag_198:\n        /* \"#utility.yul\":6238:6245   */\n      0x00\n        /* \"#utility.yul\":6267:6291   */\n      tag_200\n        /* \"#utility.yul\":6285:6290   */\n      dup3\n        /* \"#utility.yul\":6267:6291   */\n      tag_201\n      jump\t// in\n    tag_200:\n        /* \"#utility.yul\":6256:6291   */\n      swap1\n      pop\n        /* \"#utility.yul\":6201:6297   */\n      swap2\n      swap1\n      pop\n      jump\t// out\n        /* \"#utility.yul\":6303:6429   */\n    tag_201:\n        /* \"#utility.yul\":6340:6347   */\n      0x00\n        /* \"#utility.yul\":6380:6422   */\n      0xffffffffffffffffffffffffffffffffffffffff\n        /* \"#utility.yul\":6373:6378   */\n      dup3\n        /* \"#utility.yul\":6369:6423   */\n      and\n        /* \"#utility.yul\":6358:6423   */\n      swap1\n      pop\n        /* \"#utility.yul\":6303:6429   */\n      swap2\n      swap1\n      pop\n      jump\t// out\n        /* \"#utility.yul\":6435:6512   */\n    tag_174:\n        /* \"#utility.yul\":6472:6479   */\n      0x00\n        /* \"#utility.yul\":6501:6506   */\n      dup2\n        /* \"#utility.yul\":6490:6506   */\n      swap1\n      pop\n        /* \"#utility.yul\":6435:6512   */\n      swap2\n      swap1\n      pop\n      jump\t// out\n        /* \"#utility.yul\":6518:6825   */\n    tag_158:\n        /* \"#utility.yul\":6586:6587   */\n      0x00\n        /* \"#utility.yul\":6596:6709   */\n    tag_205:\n        /* \"#utility.yul\":6610:6616   */\n      dup4\n        /* \"#utility.yul\":6607:6608   */\n      dup2\n        /* \"#utility.yul\":6604:6617   */\n      lt\n        /* \"#utility.yul\":6596:6709   */\n      iszero\n      tag_207\n      jumpi\n        /* \"#utility.yul\":6695:6696   */\n      dup1\n        /* \"#utility.yul\":6690:6693   */\n      dup3\n        /* \"#utility.yul\":6686:6697   */\n      add\n        /* \"#utility.yul\":6680:6698   */\n      mload\n        /* \"#utility.yul\":6676:6677   */\n      dup2\n        /* \"#utility.yul\":6671:6674   */\n      dup5\n        /* \"#utility.yul\":6667:6678   */\n      add\n        /* \"#utility.yul\":6660:6699   */\n      mstore\n        /* \"#utility.yul\":6632:6634   */\n      0x20\n        /* \"#utility.yul\":6629:6630   */\n      dup2\n        /* \"#utility.yul\":6625:6635   */\n      add\n        /* \"#utility.yul\":6620:6635   */\n      swap1\n      pop\n        /* \"#utility.yul\":6596:6709   */\n      jump(tag_205)\n    tag_207:\n        /* \"#utility.yul\":6727:6733   */\n      dup4\n        /* \"#utility.yul\":6724:6725   */\n      dup2\n        /* \"#utility.yul\":6721:6734   */\n      gt\n        /* \"#utility.yul\":6718:6819   */\n      iszero\n      tag_208\n      jumpi\n        /* \"#utility.yul\":6807:6808   */\n      0x00\n        /* \"#utility.yul\":6798:6804   */\n      dup5\n        /* \"#utility.yul\":6793:6796   */\n      dup5\n        /* \"#utility.yul\":6789:6805   */\n      add\n        /* \"#utility.yul\":6782:6809   */\n      mstore\n        /* \"#utility.yul\":6718:6819   */\n    tag_208:\n        /* \"#utility.yul\":6567:6825   */\n      pop\n        /* \"#utility.yul\":6518:6825   */\n      pop\n      pop\n      pop\n      jump\t// out\n        /* \"#utility.yul\":6831:7151   */\n    tag_59:\n        /* \"#utility.yul\":6875:6881   */\n      0x00\n        /* \"#utility.yul\":6912:6913   */\n      0x02\n        /* \"#utility.yul\":6906:6910   */\n      dup3\n        /* \"#utility.yul\":6902:6914   */\n      div\n        /* \"#utility.yul\":6892:6914   */\n      swap1\n      pop\n        /* \"#utility.yul\":6959:6960   */\n      0x01\n        /* \"#utility.yul\":6953:6957   */\n      dup3\n        /* \"#utility.yul\":6949:6961   */\n      and\n        /* \"#utility.yul\":6980:6998   */\n      dup1\n        /* \"#utility.yul\":6970:7051   */\n      tag_210\n      jumpi\n        /* \"#utility.yul\":7036:7040   */\n      0x7f\n        /* \"#utility.yul\":7028:7034   */\n      dup3\n        /* \"#utility.yul\":7024:7041   */\n      and\n        /* \"#utility.yul\":7014:7041   */\n      swap2\n      pop\n        /* \"#utility.yul\":6970:7051   */\n    tag_210:\n        /* \"#utility.yul\":7098:7100   */\n      0x20\n        /* \"#utility.yul\":7090:7096   */\n      dup3\n        /* \"#utility.yul\":7087:7101   */\n      lt\n        /* \"#utility.yul\":7067:7085   */\n      dup2\n        /* \"#utility.yul\":7064:7102   */\n      eq\n        /* \"#utility.yul\":7061:7145   */\n      iszero\n      tag_211\n      jumpi\n        /* \"#utility.yul\":7117:7135   */\n      tag_212\n      tag_213\n      jump\t// in\n    tag_212:\n        /* \"#utility.yul\":7061:7145   */\n    tag_211:\n        /* \"#utility.yul\":6882:7151   */\n      pop\n        /* \"#utility.yul\":6831:7151   */\n      swap2\n      swap1\n      pop\n      jump\t// out\n        /* \"#utility.yul\":7157:7337   */\n    tag_192:\n        /* \"#utility.yul\":7205:7282   */\n      0x4e487b7100000000000000000000000000000000000000000000000000000000\n        /* \"#utility.yul\":7202:7203   */\n      0x00\n        /* \"#utility.yul\":7195:7283   */\n      mstore\n        /* \"#utility.yul\":7302:7306   */\n      0x11\n        /* \"#utility.yul\":7299:7300   */\n      0x04\n        /* \"#utility.yul\":7292:7307   */\n      mstore\n        /* \"#utility.yul\":7326:7330   */\n      0x24\n        /* \"#utility.yul\":7323:7324   */\n      0x00\n        /* \"#utility.yul\":7316:7331   */\n      revert\n        /* \"#utility.yul\":7343:7523   */\n    tag_213:\n        /* \"#utility.yul\":7391:7468   */\n      0x4e487b7100000000000000000000000000000000000000000000000000000000\n        /* \"#utility.yul\":7388:7389   */\n      0x00\n        /* \"#utility.yul\":7381:7469   */\n      mstore\n        /* \"#utility.yul\":7488:7492   */\n      0x22\n        /* \"#utility.yul\":7485:7486   */\n      0x04\n        /* \"#utility.yul\":7478:7493   */\n      mstore\n        /* \"#utility.yul\":7512:7516   */\n      0x24\n        /* \"#utility.yul\":7509:7510   */\n      0x00\n        /* \"#utility.yul\":7502:7517   */\n      revert\n        /* \"#utility.yul\":7652:7769   */\n    tag_128:\n        /* \"#utility.yul\":7761:7762   */\n      0x00\n        /* \"#utility.yul\":7758:7759   */\n      dup1\n        /* \"#utility.yul\":7751:7763   */\n      revert\n        /* \"#utility.yul\":7775:7877   */\n    tag_160:\n        /* \"#utility.yul\":7816:7822   */\n      0x00\n        /* \"#utility.yul\":7867:7869   */\n      0x1f\n        /* \"#utility.yul\":7863:7870   */\n      not\n        /* \"#utility.yul\":7858:7860   */\n      0x1f\n        /* \"#utility.yul\":7851:7856   */\n      dup4\n        /* \"#utility.yul\":7847:7861   */\n      add\n        /* \"#utility.yul\":7843:7871   */\n      and\n        /* \"#utility.yul\":7833:7871   */\n      swap1\n      pop\n        /* \"#utility.yul\":7775:7877   */\n      swap2\n      swap1\n      pop\n      jump\t// out\n        /* \"#utility.yul\":7883:8046   */\n    tag_165:\n        /* \"#utility.yul\":8023:8038   */\n      0x6e6f7420616e206f776e65722100000000000000000000000000000000000000\n        /* \"#utility.yul\":8019:8020   */\n      0x00\n        /* \"#utility.yul\":8011:8017   */\n      dup3\n        /* \"#utility.yul\":8007:8021   */\n      add\n        /* \"#utility.yul\":8000:8039   */\n      mstore\n        /* \"#utility.yul\":7883:8046   */\n      pop\n      jump\t// out\n        /* \"#utility.yul\":8052:8220   */\n    tag_170:\n        /* \"#utility.yul\":8192:8212   */\n      0x6e6f7420656e6f75676820746f6b656e73210000000000000000000000000000\n        /* \"#utility.yul\":8188:8189   */\n      0x00\n        /* \"#utility.yul\":8180:8186   */\n      dup3\n        /* \"#utility.yul\":8176:8190   */\n      add\n        /* \"#utility.yul\":8169:8213   */\n      mstore\n        /* \"#utility.yul\":8052:8220   */\n      pop\n      jump\t// out\n        /* \"#utility.yul\":8226:8348   */\n    tag_120:\n        /* \"#utility.yul\":8299:8323   */\n      tag_223\n        /* \"#utility.yul\":8317:8322   */\n      dup2\n        /* \"#utility.yul\":8299:8323   */\n      tag_198\n      jump\t// in\n    tag_223:\n        /* \"#utility.yul\":8292:8297   */\n      dup2\n        /* \"#utility.yul\":8289:8324   */\n      eq\n        /* \"#utility.yul\":8279:8342   */\n      tag_224\n      jumpi\n        /* \"#utility.yul\":8338:8339   */\n      0x00\n        /* \"#utility.yul\":8335:8336   */\n      dup1\n        /* \"#utility.yul\":8328:8340   */\n      revert\n        /* \"#utility.yul\":8279:8342   */\n    tag_224:\n        /* \"#utility.yul\":8226:8348   */\n      pop\n      jump\t// out\n        /* \"#utility.yul\":8354:8476   */\n    tag_124:\n        /* \"#utility.yul\":8427:8451   */\n      tag_226\n        /* \"#utility.yul\":8445:8450   */\n      dup2\n        /* \"#utility.yul\":8427:8451   */\n      tag_174\n      jump\t// in\n    tag_226:\n        /* \"#utility.yul\":8420:8425   */\n      dup2\n        /* \"#utility.yul\":8417:8452   */\n      eq\n        /* \"#utility.yul\":8407:8470   */\n      tag_227\n      jumpi\n        /* \"#utility.yul\":8466:8467   */\n      0x00\n        /* \"#utility.yul\":8463:8464   */\n      dup1\n        /* \"#utility.yul\":8456:8468   */\n      revert\n        /* \"#utility.yul\":8407:8470   */\n    tag_227:\n        /* \"#utility.yul\":8354:8476   */\n      pop\n      jump\t// out\n\n    auxdata: 0xa2646970667358221220600a71113167923df713f4949a6362ed7c25e4e025191f141c3d9d357b2d3bac64736f6c63430008070033\n}\n",
				"bytecode": {
					"linkReferences": {},
					"object": "60806040523480156200001157600080fd5b5060405162001726380380620017268339818101604052810190620000379190620003b6565b82600490805190602001906200004f92919062000271565b5081600590805190602001906200006892919062000271565b5033600160006101000a81548173ffffffffffffffffffffffffffffffffffffffff021916908373ffffffffffffffffffffffffffffffffffffffff160217905550620000de81600160009054906101000a900473ffffffffffffffffffffffffffffffffffffffff16620000e760201b60201c565b50505062000735565b600160009054906101000a900473ffffffffffffffffffffffffffffffffffffffff1673ffffffffffffffffffffffffffffffffffffffff163373ffffffffffffffffffffffffffffffffffffffff16146200017a576040517f08c379a0000000000000000000000000000000000000000000000000000000008152600401620001719062000488565b60405180910390fd5b6200018e600082846200026c60201b60201c565b81600260008373ffffffffffffffffffffffffffffffffffffffff1673ffffffffffffffffffffffffffffffffffffffff1681526020019081526020016000206000828254620001df919062000537565b9250508190555081600080828254620001f9919062000537565b925050819055508073ffffffffffffffffffffffffffffffffffffffff16600073ffffffffffffffffffffffffffffffffffffffff167fddf252ad1be2c89b69c2b068fc378daa952ba7f163c4a11628f55a4df523b3ef84604051620002609190620004aa565b60405180910390a35050565b505050565b8280546200027f90620005d4565b90600052602060002090601f016020900481019282620002a35760008555620002ef565b82601f10620002be57805160ff1916838001178555620002ef565b82800160010185558215620002ef579182015b82811115620002ee578251825591602001919060010190620002d1565b5b509050620002fe919062000302565b5090565b5b808211156200031d57600081600090555060010162000303565b5090565b6000620003386200033284620004f0565b620004c7565b905082815260208101848484011115620003575762000356620006d2565b5b620003648482856200059e565b509392505050565b600082601f830112620003845762000383620006cd565b5b81516200039684826020860162000321565b91505092915050565b600081519050620003b0816200071b565b92915050565b600080600060608486031215620003d257620003d1620006dc565b5b600084015167ffffffffffffffff811115620003f357620003f2620006d7565b5b62000401868287016200036c565b935050602084015167ffffffffffffffff811115620004255762000424620006d7565b5b62000433868287016200036c565b925050604062000446868287016200039f565b9150509250925092565b60006200045f600d8362000526565b91506200046c82620006f2565b602082019050919050565b620004828162000594565b82525050565b60006020820190508181036000830152620004a38162000450565b9050919050565b6000602082019050620004c1600083018462000477565b92915050565b6000620004d3620004e6565b9050620004e182826200060a565b919050565b6000604051905090565b600067ffffffffffffffff8211156200050e576200050d6200069e565b5b6200051982620006e1565b9050602081019050919050565b600082825260208201905092915050565b6000620005448262000594565b9150620005518362000594565b9250827fffffffffffffffffffffffffffffffffffffffffffffffffffffffffffffffff0382111562000589576200058862000640565b5b828201905092915050565b6000819050919050565b60005b83811015620005be578082015181840152602081019050620005a1565b83811115620005ce576000848401525b50505050565b60006002820490506001821680620005ed57607f821691505b602082108114156200060457620006036200066f565b5b50919050565b6200061582620006e1565b810181811067ffffffffffffffff821117156200063757620006366200069e565b5b80604052505050565b7f4e487b7100000000000000000000000000000000000000000000000000000000600052601160045260246000fd5b7f4e487b7100000000000000000000000000000000000000000000000000000000600052602260045260246000fd5b7f4e487b7100000000000000000000000000000000000000000000000000000000600052604160045260246000fd5b600080fd5b600080fd5b600080fd5b600080fd5b6000601f19601f8301169050919050565b7f6e6f7420616e206f776e65722100000000000000000000000000000000000000600082015250565b620007268162000594565b81146200073257600080fd5b50565b610fe180620007456000396000f3fe608060405234801561001057600080fd5b50600436106100a95760003560e01c806370a082311161007157806370a082311461014057806394bf804d1461017057806395d89b411461018c5780639dc29fac146101aa578063a9059cbb146101c6578063dd62ed3e146101e2576100a9565b806306fdde03146100ae578063095ea7b3146100cc57806318160ddd146100e857806323b872dd14610106578063313ce56714610122575b600080fd5b6100b6610212565b6040516100c39190610cf3565b60405180910390f35b6100e660048036038101906100e19190610be5565b6102a4565b005b6100f061038e565b6040516100fd9190610d55565b60405180910390f35b610120600480360381019061011b9190610b92565b610397565b005b61012a61054b565b6040516101379190610d55565b60405180910390f35b61015a60048036038101906101559190610b25565b610554565b6040516101679190610d55565b60405180910390f35b61018a60048036038101906101859190610c25565b61059d565b005b610194610711565b6040516101a19190610cf3565b60405180910390f35b6101c460048036038101906101bf9190610be5565b6107a3565b005b6101e060048036038101906101db9190610be5565b610900565b005b6101fc60048036038101906101f79190610b52565b610a6f565b6040516102099190610d55565b60405180910390f35b60606004805461022190610e85565b80601f016020809104026020016040519081016040528092919081815260200182805461024d90610e85565b801561029a5780601f1061026f5761010080835404028352916020019161029a565b820191906000526020600020905b81548152906001019060200180831161027d57829003601f168201915b5050505050905090565b80600360003373ffffffffffffffffffffffffffffffffffffffff1673ffffffffffffffffffffffffffffffffffffffff16815260200190815260200160002060008473ffffffffffffffffffffffffffffffffffffffff1673ffffffffffffffffffffffffffffffffffffffff168152602001908152602001600020819055508173ffffffffffffffffffffffffffffffffffffffff163373ffffffffffffffffffffffffffffffffffffffff167f6e11fb1b7f119e3f2fa29896ef5fdf8b8a2d0d4df6fe90ba8668e7d8b2ffa25e836040516103829190610d55565b60405180910390a35050565b60008054905090565b6103a2838383610af6565b80600360008573ffffffffffffffffffffffffffffffffffffffff1673ffffffffffffffffffffffffffffffffffffffff16815260200190815260200160002060003373ffffffffffffffffffffffffffffffffffffffff1673ffffffffffffffffffffffffffffffffffffffff168152602001908152602001600020600082825461042e9190610de2565b9250508190555080600260008573ffffffffffffffffffffffffffffffffffffffff1673ffffffffffffffffffffffffffffffffffffffff16815260200190815260200160002060008282546104849190610de2565b9250508190555080600260008473ffffffffffffffffffffffffffffffffffffffff1673ffffffffffffffffffffffffffffffffffffffff16815260200190815260200160002060008282546104da9190610d8c565b925050819055508173ffffffffffffffffffffffffffffffffffffffff168373ffffffffffffffffffffffffffffffffffffffff167fddf252ad1be2c89b69c2b068fc378daa952ba7f163c4a11628f55a4df523b3ef8360405161053e9190610d55565b60405180910390a3505050565b60006012905090565b6000600260008373ffffffffffffffffffffffffffffffffffffffff1673ffffffffffffffffffffffffffffffffffffffff168152602001908152602001600020549050919050565b600160009054906101000a900473ffffffffffffffffffffffffffffffffffffffff1673ffffffffffffffffffffffffffffffffffffffff163373ffffffffffffffffffffffffffffffffffffffff161461062d576040517f08c379a000000000000000000000000000000000000000000000000000000000815260040161062490610d15565b60405180910390fd5b61063960008284610af6565b81600260008373ffffffffffffffffffffffffffffffffffffffff1673ffffffffffffffffffffffffffffffffffffffff16815260200190815260200160002060008282546106889190610d8c565b92505081905550816000808282546106a09190610d8c565b925050819055508073ffffffffffffffffffffffffffffffffffffffff16600073ffffffffffffffffffffffffffffffffffffffff167fddf252ad1be2c89b69c2b068fc378daa952ba7f163c4a11628f55a4df523b3ef846040516107059190610d55565b60405180910390a35050565b60606005805461072090610e85565b80601f016020809104026020016040519081016040528092919081815260200182805461074c90610e85565b80156107995780601f1061076e57610100808354040283529160200191610799565b820191906000526020600020905b81548152906001019060200180831161077c57829003601f168201915b5050505050905090565b600160009054906101000a900473ffffffffffffffffffffffffffffffffffffffff1673ffffffffffffffffffffffffffffffffffffffff163373ffffffffffffffffffffffffffffffffffffffff1614610833576040517f08c379a000000000000000000000000000000000000000000000000000000000815260040161082a90610d15565b60405180910390fd5b81818061083f83610554565b1015610880576040517f08c379a000000000000000000000000000000000000000000000000000000000815260040161087790610d35565b60405180910390fd5b61088c84600085610af6565b82600260008673ffffffffffffffffffffffffffffffffffffffff1673ffffffffffffffffffffffffffffffffffffffff16815260200190815260200160002060008282546108db9190610de2565b92505081905550826000808282546108f39190610de2565b9250508190555050505050565b33818061090c83610554565b101561094d576040517f08c379a000000000000000000000000000000000000000000000000000000000815260040161094490610d35565b60405180910390fd5b610958338585610af6565b82600260003373ffffffffffffffffffffffffffffffffffffffff1673ffffffffffffffffffffffffffffffffffffffff16815260200190815260200160002060008282546109a79190610de2565b9250508190555082600260008673ffffffffffffffffffffffffffffffffffffffff1673ffffffffffffffffffffffffffffffffffffffff16815260200190815260200160002060008282546109fd9190610d8c565b925050819055508373ffffffffffffffffffffffffffffffffffffffff163373ffffffffffffffffffffffffffffffffffffffff167fddf252ad1be2c89b69c2b068fc378daa952ba7f163c4a11628f55a4df523b3ef85604051610a619190610d55565b60405180910390a350505050565b6000600360008473ffffffffffffffffffffffffffffffffffffffff1673ffffffffffffffffffffffffffffffffffffffff16815260200190815260200160002060008373ffffffffffffffffffffffffffffffffffffffff1673ffffffffffffffffffffffffffffffffffffffff16815260200190815260200160002054905092915050565b505050565b600081359050610b0a81610f7d565b92915050565b600081359050610b1f81610f94565b92915050565b600060208284031215610b3b57610b3a610f15565b5b6000610b4984828501610afb565b91505092915050565b60008060408385031215610b6957610b68610f15565b5b6000610b7785828601610afb565b9250506020610b8885828601610afb565b9150509250929050565b600080600060608486031215610bab57610baa610f15565b5b6000610bb986828701610afb565b9350506020610bca86828701610afb565b9250506040610bdb86828701610b10565b9150509250925092565b60008060408385031215610bfc57610bfb610f15565b5b6000610c0a85828601610afb565b9250506020610c1b85828601610b10565b9150509250929050565b60008060408385031215610c3c57610c3b610f15565b5b6000610c4a85828601610b10565b9250506020610c5b85828601610afb565b9150509250929050565b6000610c7082610d70565b610c7a8185610d7b565b9350610c8a818560208601610e52565b610c9381610f1a565b840191505092915050565b6000610cab600d83610d7b565b9150610cb682610f2b565b602082019050919050565b6000610cce601283610d7b565b9150610cd982610f54565b602082019050919050565b610ced81610e48565b82525050565b60006020820190508181036000830152610d0d8184610c65565b905092915050565b60006020820190508181036000830152610d2e81610c9e565b9050919050565b60006020820190508181036000830152610d4e81610cc1565b9050919050565b6000602082019050610d6a6000830184610ce4565b92915050565b600081519050919050565b600082825260208201905092915050565b6000610d9782610e48565b9150610da283610e48565b9250827fffffffffffffffffffffffffffffffffffffffffffffffffffffffffffffffff03821115610dd757610dd6610eb7565b5b828201905092915050565b6000610ded82610e48565b9150610df883610e48565b925082821015610e0b57610e0a610eb7565b5b828203905092915050565b6000610e2182610e28565b9050919050565b600073ffffffffffffffffffffffffffffffffffffffff82169050919050565b6000819050919050565b60005b83811015610e70578082015181840152602081019050610e55565b83811115610e7f576000848401525b50505050565b60006002820490506001821680610e9d57607f821691505b60208210811415610eb157610eb0610ee6565b5b50919050565b7f4e487b7100000000000000000000000000000000000000000000000000000000600052601160045260246000fd5b7f4e487b7100000000000000000000000000000000000000000000000000000000600052602260045260246000fd5b600080fd5b6000601f19601f8301169050919050565b7f6e6f7420616e206f776e65722100000000000000000000000000000000000000600082015250565b7f6e6f7420656e6f75676820746f6b656e73210000000000000000000000000000600082015250565b610f8681610e16565b8114610f9157600080fd5b50565b610f9d81610e48565b8114610fa857600080fd5b5056fea2646970667358221220600a71113167923df713f4949a6362ed7c25e4e025191f141c3d9d357b2d3bac64736f6c63430008070033",
					"opcodes": "PUSH1 0x80 PUSH1 0x40 MSTORE CALLVALUE DUP1 ISZERO PUSH3 0x11 JUMPI PUSH1 0x0 DUP1 REVERT JUMPDEST POP PUSH1 0x40 MLOAD PUSH3 0x1726 CODESIZE SUB DUP1 PUSH3 0x1726 DUP4 CODECOPY DUP2 DUP2 ADD PUSH1 0x40 MSTORE DUP2 ADD SWAP1 PUSH3 0x37 SWAP2 SWAP1 PUSH3 0x3B6 JUMP JUMPDEST DUP3 PUSH1 0x4 SWAP1 DUP1 MLOAD SWAP1 PUSH1 0x20 ADD SWAP1 PUSH3 0x4F SWAP3 SWAP2 SWAP1 PUSH3 0x271 JUMP JUMPDEST POP DUP2 PUSH1 0x5 SWAP1 DUP1 MLOAD SWAP1 PUSH1 0x20 ADD SWAP1 PUSH3 0x68 SWAP3 SWAP2 SWAP1 PUSH3 0x271 JUMP JUMPDEST POP CALLER PUSH1 0x1 PUSH1 0x0 PUSH2 0x100 EXP DUP2 SLOAD DUP2 PUSH20 0xFFFFFFFFFFFFFFFFFFFFFFFFFFFFFFFFFFFFFFFF MUL NOT AND SWAP1 DUP4 PUSH20 0xFFFFFFFFFFFFFFFFFFFFFFFFFFFFFFFFFFFFFFFF AND MUL OR SWAP1 SSTORE POP PUSH3 0xDE DUP2 PUSH1 0x1 PUSH1 0x0 SWAP1 SLOAD SWAP1 PUSH2 0x100 EXP SWAP1 DIV PUSH20 0xFFFFFFFFFFFFFFFFFFFFFFFFFFFFFFFFFFFFFFFF AND PUSH3 0xE7 PUSH1 0x20 SHL PUSH1 0x20 SHR JUMP JUMPDEST POP POP POP PUSH3 0x735 JUMP JUMPDEST PUSH1 0x1 PUSH1 0x0 SWAP1 SLOAD SWAP1 PUSH2 0x100 EXP SWAP1 DIV PUSH20 0xFFFFFFFFFFFFFFFFFFFFFFFFFFFFFFFFFFFFFFFF AND PUSH20 0xFFFFFFFFFFFFFFFFFFFFFFFFFFFFFFFFFFFFFFFF AND CALLER PUSH20 0xFFFFFFFFFFFFFFFFFFFFFFFFFFFFFFFFFFFFFFFF AND EQ PUSH3 0x17A JUMPI PUSH1 0x40 MLOAD PUSH32 0x8C379A000000000000000000000000000000000000000000000000000000000 DUP2 MSTORE PUSH1 0x4 ADD PUSH3 0x171 SWAP1 PUSH3 0x488 JUMP JUMPDEST PUSH1 0x40 MLOAD DUP1 SWAP2 SUB SWAP1 REVERT JUMPDEST PUSH3 0x18E PUSH1 0x0 DUP3 DUP5 PUSH3 0x26C PUSH1 0x20 SHL PUSH1 0x20 SHR JUMP JUMPDEST DUP2 PUSH1 0x2 PUSH1 0x0 DUP4 PUSH20 0xFFFFFFFFFFFFFFFFFFFFFFFFFFFFFFFFFFFFFFFF AND PUSH20 0xFFFFFFFFFFFFFFFFFFFFFFFFFFFFFFFFFFFFFFFF AND DUP2 MSTORE PUSH1 0x20 ADD SWAP1 DUP2 MSTORE PUSH1 0x20 ADD PUSH1 0x0 KECCAK256 PUSH1 0x0 DUP3 DUP3 SLOAD PUSH3 0x1DF SWAP2 SWAP1 PUSH3 0x537 JUMP JUMPDEST SWAP3 POP POP DUP2 SWAP1 SSTORE POP DUP2 PUSH1 0x0 DUP1 DUP3 DUP3 SLOAD PUSH3 0x1F9 SWAP2 SWAP1 PUSH3 0x537 JUMP JUMPDEST SWAP3 POP POP DUP2 SWAP1 SSTORE POP DUP1 PUSH20 0xFFFFFFFFFFFFFFFFFFFFFFFFFFFFFFFFFFFFFFFF AND PUSH1 0x0 PUSH20 0xFFFFFFFFFFFFFFFFFFFFFFFFFFFFFFFFFFFFFFFF AND PUSH32 0xDDF252AD1BE2C89B69C2B068FC378DAA952BA7F163C4A11628F55A4DF523B3EF DUP5 PUSH1 0x40 MLOAD PUSH3 0x260 SWAP2 SWAP1 PUSH3 0x4AA JUMP JUMPDEST PUSH1 0x40 MLOAD DUP1 SWAP2 SUB SWAP1 LOG3 POP POP JUMP JUMPDEST POP POP POP JUMP JUMPDEST DUP3 DUP1 SLOAD PUSH3 0x27F SWAP1 PUSH3 0x5D4 JUMP JUMPDEST SWAP1 PUSH1 0x0 MSTORE PUSH1 0x20 PUSH1 0x0 KECCAK256 SWAP1 PUSH1 0x1F ADD PUSH1 0x20 SWAP1 DIV DUP2 ADD SWAP3 DUP3 PUSH3 0x2A3 JUMPI PUSH1 0x0 DUP6 SSTORE PUSH3 0x2EF JUMP JUMPDEST DUP3 PUSH1 0x1F LT PUSH3 0x2BE JUMPI DUP1 MLOAD PUSH1 0xFF NOT AND DUP4 DUP1 ADD OR DUP6 SSTORE PUSH3 0x2EF JUMP JUMPDEST DUP3 DUP1 ADD PUSH1 0x1 ADD DUP6 SSTORE DUP3 ISZERO PUSH3 0x2EF JUMPI SWAP2 DUP3 ADD JUMPDEST DUP3 DUP2 GT ISZERO PUSH3 0x2EE JUMPI DUP3 MLOAD DUP3 SSTORE SWAP2 PUSH1 0x20 ADD SWAP2 SWAP1 PUSH1 0x1 ADD SWAP1 PUSH3 0x2D1 JUMP JUMPDEST JUMPDEST POP SWAP1 POP PUSH3 0x2FE SWAP2 SWAP1 PUSH3 0x302 JUMP JUMPDEST POP SWAP1 JUMP JUMPDEST JUMPDEST DUP1 DUP3 GT ISZERO PUSH3 0x31D JUMPI PUSH1 0x0 DUP2 PUSH1 0x0 SWAP1 SSTORE POP PUSH1 0x1 ADD PUSH3 0x303 JUMP JUMPDEST POP SWAP1 JUMP JUMPDEST PUSH1 0x0 PUSH3 0x338 PUSH3 0x332 DUP5 PUSH3 0x4F0 JUMP JUMPDEST PUSH3 0x4C7 JUMP JUMPDEST SWAP1 POP DUP3 DUP2 MSTORE PUSH1 0x20 DUP2 ADD DUP5 DUP5 DUP5 ADD GT ISZERO PUSH3 0x357 JUMPI PUSH3 0x356 PUSH3 0x6D2 JUMP JUMPDEST JUMPDEST PUSH3 0x364 DUP5 DUP3 DUP6 PUSH3 0x59E JUMP JUMPDEST POP SWAP4 SWAP3 POP POP POP JUMP JUMPDEST PUSH1 0x0 DUP3 PUSH1 0x1F DUP4 ADD SLT PUSH3 0x384 JUMPI PUSH3 0x383 PUSH3 0x6CD JUMP JUMPDEST JUMPDEST DUP2 MLOAD PUSH3 0x396 DUP5 DUP3 PUSH1 0x20 DUP7 ADD PUSH3 0x321 JUMP JUMPDEST SWAP2 POP POP SWAP3 SWAP2 POP POP JUMP JUMPDEST PUSH1 0x0 DUP2 MLOAD SWAP1 POP PUSH3 0x3B0 DUP2 PUSH3 0x71B JUMP JUMPDEST SWAP3 SWAP2 POP POP JUMP JUMPDEST PUSH1 0x0 DUP1 PUSH1 0x0 PUSH1 0x60 DUP5 DUP7 SUB SLT ISZERO PUSH3 0x3D2 JUMPI PUSH3 0x3D1 PUSH3 0x6DC JUMP JUMPDEST JUMPDEST PUSH1 0x0 DUP5 ADD MLOAD PUSH8 0xFFFFFFFFFFFFFFFF DUP2 GT ISZERO PUSH3 0x3F3 JUMPI PUSH3 0x3F2 PUSH3 0x6D7 JUMP JUMPDEST JUMPDEST PUSH3 0x401 DUP7 DUP3 DUP8 ADD PUSH3 0x36C JUMP JUMPDEST SWAP4 POP POP PUSH1 0x20 DUP5 ADD MLOAD PUSH8 0xFFFFFFFFFFFFFFFF DUP2 GT ISZERO PUSH3 0x425 JUMPI PUSH3 0x424 PUSH3 0x6D7 JUMP JUMPDEST JUMPDEST PUSH3 0x433 DUP7 DUP3 DUP8 ADD PUSH3 0x36C JUMP JUMPDEST SWAP3 POP POP PUSH1 0x40 PUSH3 0x446 DUP7 DUP3 DUP8 ADD PUSH3 0x39F JUMP JUMPDEST SWAP2 POP POP SWAP3 POP SWAP3 POP SWAP3 JUMP JUMPDEST PUSH1 0x0 PUSH3 0x45F PUSH1 0xD DUP4 PUSH3 0x526 JUMP JUMPDEST SWAP2 POP PUSH3 0x46C DUP3 PUSH3 0x6F2 JUMP JUMPDEST PUSH1 0x20 DUP3 ADD SWAP1 POP SWAP2 SWAP1 POP JUMP JUMPDEST PUSH3 0x482 DUP2 PUSH3 0x594 JUMP JUMPDEST DUP3 MSTORE POP POP JUMP JUMPDEST PUSH1 0x0 PUSH1 0x20 DUP3 ADD SWAP1 POP DUP2 DUP2 SUB PUSH1 0x0 DUP4 ADD MSTORE PUSH3 0x4A3 DUP2 PUSH3 0x450 JUMP JUMPDEST SWAP1 POP SWAP2 SWAP1 POP JUMP JUMPDEST PUSH1 0x0 PUSH1 0x20 DUP3 ADD SWAP1 POP PUSH3 0x4C1 PUSH1 0x0 DUP4 ADD DUP5 PUSH3 0x477 JUMP JUMPDEST SWAP3 SWAP2 POP POP JUMP JUMPDEST PUSH1 0x0 PUSH3 0x4D3 PUSH3 0x4E6 JUMP JUMPDEST SWAP1 POP PUSH3 0x4E1 DUP3 DUP3 PUSH3 0x60A JUMP JUMPDEST SWAP2 SWAP1 POP JUMP JUMPDEST PUSH1 0x0 PUSH1 0x40 MLOAD SWAP1 POP SWAP1 JUMP JUMPDEST PUSH1 0x0 PUSH8 0xFFFFFFFFFFFFFFFF DUP3 GT ISZERO PUSH3 0x50E JUMPI PUSH3 0x50D PUSH3 0x69E JUMP JUMPDEST JUMPDEST PUSH3 0x519 DUP3 PUSH3 0x6E1 JUMP JUMPDEST SWAP1 POP PUSH1 0x20 DUP2 ADD SWAP1 POP SWAP2 SWAP1 POP JUMP JUMPDEST PUSH1 0x0 DUP3 DUP3 MSTORE PUSH1 0x20 DUP3 ADD SWAP1 POP SWAP3 SWAP2 POP POP JUMP JUMPDEST PUSH1 0x0 PUSH3 0x544 DUP3 PUSH3 0x594 JUMP JUMPDEST SWAP2 POP PUSH3 0x551 DUP4 PUSH3 0x594 JUMP JUMPDEST SWAP3 POP DUP3 PUSH32 0xFFFFFFFFFFFFFFFFFFFFFFFFFFFFFFFFFFFFFFFFFFFFFFFFFFFFFFFFFFFFFFFF SUB DUP3 GT ISZERO PUSH3 0x589 JUMPI PUSH3 0x588 PUSH3 0x640 JUMP JUMPDEST JUMPDEST DUP3 DUP3 ADD SWAP1 POP SWAP3 SWAP2 POP POP JUMP JUMPDEST PUSH1 0x0 DUP2 SWAP1 POP SWAP2 SWAP1 POP JUMP JUMPDEST PUSH1 0x0 JUMPDEST DUP4 DUP2 LT ISZERO PUSH3 0x5BE JUMPI DUP1 DUP3 ADD MLOAD DUP2 DUP5 ADD MSTORE PUSH1 0x20 DUP2 ADD SWAP1 POP PUSH3 0x5A1 JUMP JUMPDEST DUP4 DUP2 GT ISZERO PUSH3 0x5CE JUMPI PUSH1 0x0 DUP5 DUP5 ADD MSTORE JUMPDEST POP POP POP POP JUMP JUMPDEST PUSH1 0x0 PUSH1 0x2 DUP3 DIV SWAP1 POP PUSH1 0x1 DUP3 AND DUP1 PUSH3 0x5ED JUMPI PUSH1 0x7F DUP3 AND SWAP2 POP JUMPDEST PUSH1 0x20 DUP3 LT DUP2 EQ ISZERO PUSH3 0x604 JUMPI PUSH3 0x603 PUSH3 0x66F JUMP JUMPDEST JUMPDEST POP SWAP2 SWAP1 POP JUMP JUMPDEST PUSH3 0x615 DUP3 PUSH3 0x6E1 JUMP JUMPDEST DUP2 ADD DUP2 DUP2 LT PUSH8 0xFFFFFFFFFFFFFFFF DUP3 GT OR ISZERO PUSH3 0x637 JUMPI PUSH3 0x636 PUSH3 0x69E JUMP JUMPDEST JUMPDEST DUP1 PUSH1 0x40 MSTORE POP POP POP JUMP JUMPDEST PUSH32 0x4E487B7100000000000000000000000000000000000000000000000000000000 PUSH1 0x0 MSTORE PUSH1 0x11 PUSH1 0x4 MSTORE PUSH1 0x24 PUSH1 0x0 REVERT JUMPDEST PUSH32 0x4E487B7100000000000000000000000000000000000000000000000000000000 PUSH1 0x0 MSTORE PUSH1 0x22 PUSH1 0x4 MSTORE PUSH1 0x24 PUSH1 0x0 REVERT JUMPDEST PUSH32 0x4E487B7100000000000000000000000000000000000000000000000000000000 PUSH1 0x0 MSTORE PUSH1 0x41 PUSH1 0x4 MSTORE PUSH1 0x24 PUSH1 0x0 REVERT JUMPDEST PUSH1 0x0 DUP1 REVERT JUMPDEST PUSH1 0x0 DUP1 REVERT JUMPDEST PUSH1 0x0 DUP1 REVERT JUMPDEST PUSH1 0x0 DUP1 REVERT JUMPDEST PUSH1 0x0 PUSH1 0x1F NOT PUSH1 0x1F DUP4 ADD AND SWAP1 POP SWAP2 SWAP1 POP JUMP JUMPDEST PUSH32 0x6E6F7420616E206F776E65722100000000000000000000000000000000000000 PUSH1 0x0 DUP3 ADD MSTORE POP JUMP JUMPDEST PUSH3 0x726 DUP2 PUSH3 0x594 JUMP JUMPDEST DUP2 EQ PUSH3 0x732 JUMPI PUSH1 0x0 DUP1 REVERT JUMPDEST POP JUMP JUMPDEST PUSH2 0xFE1 DUP1 PUSH3 0x745 PUSH1 0x0 CODECOPY PUSH1 0x0 RETURN INVALID PUSH1 0x80 PUSH1 0x40 MSTORE CALLVALUE DUP1 ISZERO PUSH2 0x10 JUMPI PUSH1 0x0 DUP1 REVERT JUMPDEST POP PUSH1 0x4 CALLDATASIZE LT PUSH2 0xA9 JUMPI PUSH1 0x0 CALLDATALOAD PUSH1 0xE0 SHR DUP1 PUSH4 0x70A08231 GT PUSH2 0x71 JUMPI DUP1 PUSH4 0x70A08231 EQ PUSH2 0x140 JUMPI DUP1 PUSH4 0x94BF804D EQ PUSH2 0x170 JUMPI DUP1 PUSH4 0x95D89B41 EQ PUSH2 0x18C JUMPI DUP1 PUSH4 0x9DC29FAC EQ PUSH2 0x1AA JUMPI DUP1 PUSH4 0xA9059CBB EQ PUSH2 0x1C6 JUMPI DUP1 PUSH4 0xDD62ED3E EQ PUSH2 0x1E2 JUMPI PUSH2 0xA9 JUMP JUMPDEST DUP1 PUSH4 0x6FDDE03 EQ PUSH2 0xAE JUMPI DUP1 PUSH4 0x95EA7B3 EQ PUSH2 0xCC JUMPI DUP1 PUSH4 0x18160DDD EQ PUSH2 0xE8 JUMPI DUP1 PUSH4 0x23B872DD EQ PUSH2 0x106 JUMPI DUP1 PUSH4 0x313CE567 EQ PUSH2 0x122 JUMPI JUMPDEST PUSH1 0x0 DUP1 REVERT JUMPDEST PUSH2 0xB6 PUSH2 0x212 JUMP JUMPDEST PUSH1 0x40 MLOAD PUSH2 0xC3 SWAP2 SWAP1 PUSH2 0xCF3 JUMP JUMPDEST PUSH1 0x40 MLOAD DUP1 SWAP2 SUB SWAP1 RETURN JUMPDEST PUSH2 0xE6 PUSH1 0x4 DUP1 CALLDATASIZE SUB DUP2 ADD SWAP1 PUSH2 0xE1 SWAP2 SWAP1 PUSH2 0xBE5 JUMP JUMPDEST PUSH2 0x2A4 JUMP JUMPDEST STOP JUMPDEST PUSH2 0xF0 PUSH2 0x38E JUMP JUMPDEST PUSH1 0x40 MLOAD PUSH2 0xFD SWAP2 SWAP1 PUSH2 0xD55 JUMP JUMPDEST PUSH1 0x40 MLOAD DUP1 SWAP2 SUB SWAP1 RETURN JUMPDEST PUSH2 0x120 PUSH1 0x4 DUP1 CALLDATASIZE SUB DUP2 ADD SWAP1 PUSH2 0x11B SWAP2 SWAP1 PUSH2 0xB92 JUMP JUMPDEST PUSH2 0x397 JUMP JUMPDEST STOP JUMPDEST PUSH2 0x12A PUSH2 0x54B JUMP JUMPDEST PUSH1 0x40 MLOAD PUSH2 0x137 SWAP2 SWAP1 PUSH2 0xD55 JUMP JUMPDEST PUSH1 0x40 MLOAD DUP1 SWAP2 SUB SWAP1 RETURN JUMPDEST PUSH2 0x15A PUSH1 0x4 DUP1 CALLDATASIZE SUB DUP2 ADD SWAP1 PUSH2 0x155 SWAP2 SWAP1 PUSH2 0xB25 JUMP JUMPDEST PUSH2 0x554 JUMP JUMPDEST PUSH1 0x40 MLOAD PUSH2 0x167 SWAP2 SWAP1 PUSH2 0xD55 JUMP JUMPDEST PUSH1 0x40 MLOAD DUP1 SWAP2 SUB SWAP1 RETURN JUMPDEST PUSH2 0x18A PUSH1 0x4 DUP1 CALLDATASIZE SUB DUP2 ADD SWAP1 PUSH2 0x185 SWAP2 SWAP1 PUSH2 0xC25 JUMP JUMPDEST PUSH2 0x59D JUMP JUMPDEST STOP JUMPDEST PUSH2 0x194 PUSH2 0x711 JUMP JUMPDEST PUSH1 0x40 MLOAD PUSH2 0x1A1 SWAP2 SWAP1 PUSH2 0xCF3 JUMP JUMPDEST PUSH1 0x40 MLOAD DUP1 SWAP2 SUB SWAP1 RETURN JUMPDEST PUSH2 0x1C4 PUSH1 0x4 DUP1 CALLDATASIZE SUB DUP2 ADD SWAP1 PUSH2 0x1BF SWAP2 SWAP1 PUSH2 0xBE5 JUMP JUMPDEST PUSH2 0x7A3 JUMP JUMPDEST STOP JUMPDEST PUSH2 0x1E0 PUSH1 0x4 DUP1 CALLDATASIZE SUB DUP2 ADD SWAP1 PUSH2 0x1DB SWAP2 SWAP1 PUSH2 0xBE5 JUMP JUMPDEST PUSH2 0x900 JUMP JUMPDEST STOP JUMPDEST PUSH2 0x1FC PUSH1 0x4 DUP1 CALLDATASIZE SUB DUP2 ADD SWAP1 PUSH2 0x1F7 SWAP2 SWAP1 PUSH2 0xB52 JUMP JUMPDEST PUSH2 0xA6F JUMP JUMPDEST PUSH1 0x40 MLOAD PUSH2 0x209 SWAP2 SWAP1 PUSH2 0xD55 JUMP JUMPDEST PUSH1 0x40 MLOAD DUP1 SWAP2 SUB SWAP1 RETURN JUMPDEST PUSH1 0x60 PUSH1 0x4 DUP1 SLOAD PUSH2 0x221 SWAP1 PUSH2 0xE85 JUMP JUMPDEST DUP1 PUSH1 0x1F ADD PUSH1 0x20 DUP1 SWAP2 DIV MUL PUSH1 0x20 ADD PUSH1 0x40 MLOAD SWAP1 DUP2 ADD PUSH1 0x40 MSTORE DUP1 SWAP3 SWAP2 SWAP1 DUP2 DUP2 MSTORE PUSH1 0x20 ADD DUP3 DUP1 SLOAD PUSH2 0x24D SWAP1 PUSH2 0xE85 JUMP JUMPDEST DUP1 ISZERO PUSH2 0x29A JUMPI DUP1 PUSH1 0x1F LT PUSH2 0x26F JUMPI PUSH2 0x100 DUP1 DUP4 SLOAD DIV MUL DUP4 MSTORE SWAP2 PUSH1 0x20 ADD SWAP2 PUSH2 0x29A JUMP JUMPDEST DUP3 ADD SWAP2 SWAP1 PUSH1 0x0 MSTORE PUSH1 0x20 PUSH1 0x0 KECCAK256 SWAP1 JUMPDEST DUP2 SLOAD DUP2 MSTORE SWAP1 PUSH1 0x1 ADD SWAP1 PUSH1 0x20 ADD DUP1 DUP4 GT PUSH2 0x27D JUMPI DUP3 SWAP1 SUB PUSH1 0x1F AND DUP3 ADD SWAP2 JUMPDEST POP POP POP POP POP SWAP1 POP SWAP1 JUMP JUMPDEST DUP1 PUSH1 0x3 PUSH1 0x0 CALLER PUSH20 0xFFFFFFFFFFFFFFFFFFFFFFFFFFFFFFFFFFFFFFFF AND PUSH20 0xFFFFFFFFFFFFFFFFFFFFFFFFFFFFFFFFFFFFFFFF AND DUP2 MSTORE PUSH1 0x20 ADD SWAP1 DUP2 MSTORE PUSH1 0x20 ADD PUSH1 0x0 KECCAK256 PUSH1 0x0 DUP5 PUSH20 0xFFFFFFFFFFFFFFFFFFFFFFFFFFFFFFFFFFFFFFFF AND PUSH20 0xFFFFFFFFFFFFFFFFFFFFFFFFFFFFFFFFFFFFFFFF AND DUP2 MSTORE PUSH1 0x20 ADD SWAP1 DUP2 MSTORE PUSH1 0x20 ADD PUSH1 0x0 KECCAK256 DUP2 SWAP1 SSTORE POP DUP2 PUSH20 0xFFFFFFFFFFFFFFFFFFFFFFFFFFFFFFFFFFFFFFFF AND CALLER PUSH20 0xFFFFFFFFFFFFFFFFFFFFFFFFFFFFFFFFFFFFFFFF AND PUSH32 0x6E11FB1B7F119E3F2FA29896EF5FDF8B8A2D0D4DF6FE90BA8668E7D8B2FFA25E DUP4 PUSH1 0x40 MLOAD PUSH2 0x382 SWAP2 SWAP1 PUSH2 0xD55 JUMP JUMPDEST PUSH1 0x40 MLOAD DUP1 SWAP2 SUB SWAP1 LOG3 POP POP JUMP JUMPDEST PUSH1 0x0 DUP1 SLOAD SWAP1 POP SWAP1 JUMP JUMPDEST PUSH2 0x3A2 DUP4 DUP4 DUP4 PUSH2 0xAF6 JUMP JUMPDEST DUP1 PUSH1 0x3 PUSH1 0x0 DUP6 PUSH20 0xFFFFFFFFFFFFFFFFFFFFFFFFFFFFFFFFFFFFFFFF AND PUSH20 0xFFFFFFFFFFFFFFFFFFFFFFFFFFFFFFFFFFFFFFFF AND DUP2 MSTORE PUSH1 0x20 ADD SWAP1 DUP2 MSTORE PUSH1 0x20 ADD PUSH1 0x0 KECCAK256 PUSH1 0x0 CALLER PUSH20 0xFFFFFFFFFFFFFFFFFFFFFFFFFFFFFFFFFFFFFFFF AND PUSH20 0xFFFFFFFFFFFFFFFFFFFFFFFFFFFFFFFFFFFFFFFF AND DUP2 MSTORE PUSH1 0x20 ADD SWAP1 DUP2 MSTORE PUSH1 0x20 ADD PUSH1 0x0 KECCAK256 PUSH1 0x0 DUP3 DUP3 SLOAD PUSH2 0x42E SWAP2 SWAP1 PUSH2 0xDE2 JUMP JUMPDEST SWAP3 POP POP DUP2 SWAP1 SSTORE POP DUP1 PUSH1 0x2 PUSH1 0x0 DUP6 PUSH20 0xFFFFFFFFFFFFFFFFFFFFFFFFFFFFFFFFFFFFFFFF AND PUSH20 0xFFFFFFFFFFFFFFFFFFFFFFFFFFFFFFFFFFFFFFFF AND DUP2 MSTORE PUSH1 0x20 ADD SWAP1 DUP2 MSTORE PUSH1 0x20 ADD PUSH1 0x0 KECCAK256 PUSH1 0x0 DUP3 DUP3 SLOAD PUSH2 0x484 SWAP2 SWAP1 PUSH2 0xDE2 JUMP JUMPDEST SWAP3 POP POP DUP2 SWAP1 SSTORE POP DUP1 PUSH1 0x2 PUSH1 0x0 DUP5 PUSH20 0xFFFFFFFFFFFFFFFFFFFFFFFFFFFFFFFFFFFFFFFF AND PUSH20 0xFFFFFFFFFFFFFFFFFFFFFFFFFFFFFFFFFFFFFFFF AND DUP2 MSTORE PUSH1 0x20 ADD SWAP1 DUP2 MSTORE PUSH1 0x20 ADD PUSH1 0x0 KECCAK256 PUSH1 0x0 DUP3 DUP3 SLOAD PUSH2 0x4DA SWAP2 SWAP1 PUSH2 0xD8C JUMP JUMPDEST SWAP3 POP POP DUP2 SWAP1 SSTORE POP DUP2 PUSH20 0xFFFFFFFFFFFFFFFFFFFFFFFFFFFFFFFFFFFFFFFF AND DUP4 PUSH20 0xFFFFFFFFFFFFFFFFFFFFFFFFFFFFFFFFFFFFFFFF AND PUSH32 0xDDF252AD1BE2C89B69C2B068FC378DAA952BA7F163C4A11628F55A4DF523B3EF DUP4 PUSH1 0x40 MLOAD PUSH2 0x53E SWAP2 SWAP1 PUSH2 0xD55 JUMP JUMPDEST PUSH1 0x40 MLOAD DUP1 SWAP2 SUB SWAP1 LOG3 POP POP POP JUMP JUMPDEST PUSH1 0x0 PUSH1 0x12 SWAP1 POP SWAP1 JUMP JUMPDEST PUSH1 0x0 PUSH1 0x2 PUSH1 0x0 DUP4 PUSH20 0xFFFFFFFFFFFFFFFFFFFFFFFFFFFFFFFFFFFFFFFF AND PUSH20 0xFFFFFFFFFFFFFFFFFFFFFFFFFFFFFFFFFFFFFFFF AND DUP2 MSTORE PUSH1 0x20 ADD SWAP1 DUP2 MSTORE PUSH1 0x20 ADD PUSH1 0x0 KECCAK256 SLOAD SWAP1 POP SWAP2 SWAP1 POP JUMP JUMPDEST PUSH1 0x1 PUSH1 0x0 SWAP1 SLOAD SWAP1 PUSH2 0x100 EXP SWAP1 DIV PUSH20 0xFFFFFFFFFFFFFFFFFFFFFFFFFFFFFFFFFFFFFFFF AND PUSH20 0xFFFFFFFFFFFFFFFFFFFFFFFFFFFFFFFFFFFFFFFF AND CALLER PUSH20 0xFFFFFFFFFFFFFFFFFFFFFFFFFFFFFFFFFFFFFFFF AND EQ PUSH2 0x62D JUMPI PUSH1 0x40 MLOAD PUSH32 0x8C379A000000000000000000000000000000000000000000000000000000000 DUP2 MSTORE PUSH1 0x4 ADD PUSH2 0x624 SWAP1 PUSH2 0xD15 JUMP JUMPDEST PUSH1 0x40 MLOAD DUP1 SWAP2 SUB SWAP1 REVERT JUMPDEST PUSH2 0x639 PUSH1 0x0 DUP3 DUP5 PUSH2 0xAF6 JUMP JUMPDEST DUP2 PUSH1 0x2 PUSH1 0x0 DUP4 PUSH20 0xFFFFFFFFFFFFFFFFFFFFFFFFFFFFFFFFFFFFFFFF AND PUSH20 0xFFFFFFFFFFFFFFFFFFFFFFFFFFFFFFFFFFFFFFFF AND DUP2 MSTORE PUSH1 0x20 ADD SWAP1 DUP2 MSTORE PUSH1 0x20 ADD PUSH1 0x0 KECCAK256 PUSH1 0x0 DUP3 DUP3 SLOAD PUSH2 0x688 SWAP2 SWAP1 PUSH2 0xD8C JUMP JUMPDEST SWAP3 POP POP DUP2 SWAP1 SSTORE POP DUP2 PUSH1 0x0 DUP1 DUP3 DUP3 SLOAD PUSH2 0x6A0 SWAP2 SWAP1 PUSH2 0xD8C JUMP JUMPDEST SWAP3 POP POP DUP2 SWAP1 SSTORE POP DUP1 PUSH20 0xFFFFFFFFFFFFFFFFFFFFFFFFFFFFFFFFFFFFFFFF AND PUSH1 0x0 PUSH20 0xFFFFFFFFFFFFFFFFFFFFFFFFFFFFFFFFFFFFFFFF AND PUSH32 0xDDF252AD1BE2C89B69C2B068FC378DAA952BA7F163C4A11628F55A4DF523B3EF DUP5 PUSH1 0x40 MLOAD PUSH2 0x705 SWAP2 SWAP1 PUSH2 0xD55 JUMP JUMPDEST PUSH1 0x40 MLOAD DUP1 SWAP2 SUB SWAP1 LOG3 POP POP JUMP JUMPDEST PUSH1 0x60 PUSH1 0x5 DUP1 SLOAD PUSH2 0x720 SWAP1 PUSH2 0xE85 JUMP JUMPDEST DUP1 PUSH1 0x1F ADD PUSH1 0x20 DUP1 SWAP2 DIV MUL PUSH1 0x20 ADD PUSH1 0x40 MLOAD SWAP1 DUP2 ADD PUSH1 0x40 MSTORE DUP1 SWAP3 SWAP2 SWAP1 DUP2 DUP2 MSTORE PUSH1 0x20 ADD DUP3 DUP1 SLOAD PUSH2 0x74C SWAP1 PUSH2 0xE85 JUMP JUMPDEST DUP1 ISZERO PUSH2 0x799 JUMPI DUP1 PUSH1 0x1F LT PUSH2 0x76E JUMPI PUSH2 0x100 DUP1 DUP4 SLOAD DIV MUL DUP4 MSTORE SWAP2 PUSH1 0x20 ADD SWAP2 PUSH2 0x799 JUMP JUMPDEST DUP3 ADD SWAP2 SWAP1 PUSH1 0x0 MSTORE PUSH1 0x20 PUSH1 0x0 KECCAK256 SWAP1 JUMPDEST DUP2 SLOAD DUP2 MSTORE SWAP1 PUSH1 0x1 ADD SWAP1 PUSH1 0x20 ADD DUP1 DUP4 GT PUSH2 0x77C JUMPI DUP3 SWAP1 SUB PUSH1 0x1F AND DUP3 ADD SWAP2 JUMPDEST POP POP POP POP POP SWAP1 POP SWAP1 JUMP JUMPDEST PUSH1 0x1 PUSH1 0x0 SWAP1 SLOAD SWAP1 PUSH2 0x100 EXP SWAP1 DIV PUSH20 0xFFFFFFFFFFFFFFFFFFFFFFFFFFFFFFFFFFFFFFFF AND PUSH20 0xFFFFFFFFFFFFFFFFFFFFFFFFFFFFFFFFFFFFFFFF AND CALLER PUSH20 0xFFFFFFFFFFFFFFFFFFFFFFFFFFFFFFFFFFFFFFFF AND EQ PUSH2 0x833 JUMPI PUSH1 0x40 MLOAD PUSH32 0x8C379A000000000000000000000000000000000000000000000000000000000 DUP2 MSTORE PUSH1 0x4 ADD PUSH2 0x82A SWAP1 PUSH2 0xD15 JUMP JUMPDEST PUSH1 0x40 MLOAD DUP1 SWAP2 SUB SWAP1 REVERT JUMPDEST DUP2 DUP2 DUP1 PUSH2 0x83F DUP4 PUSH2 0x554 JUMP JUMPDEST LT ISZERO PUSH2 0x880 JUMPI PUSH1 0x40 MLOAD PUSH32 0x8C379A000000000000000000000000000000000000000000000000000000000 DUP2 MSTORE PUSH1 0x4 ADD PUSH2 0x877 SWAP1 PUSH2 0xD35 JUMP JUMPDEST PUSH1 0x40 MLOAD DUP1 SWAP2 SUB SWAP1 REVERT JUMPDEST PUSH2 0x88C DUP5 PUSH1 0x0 DUP6 PUSH2 0xAF6 JUMP JUMPDEST DUP3 PUSH1 0x2 PUSH1 0x0 DUP7 PUSH20 0xFFFFFFFFFFFFFFFFFFFFFFFFFFFFFFFFFFFFFFFF AND PUSH20 0xFFFFFFFFFFFFFFFFFFFFFFFFFFFFFFFFFFFFFFFF AND DUP2 MSTORE PUSH1 0x20 ADD SWAP1 DUP2 MSTORE PUSH1 0x20 ADD PUSH1 0x0 KECCAK256 PUSH1 0x0 DUP3 DUP3 SLOAD PUSH2 0x8DB SWAP2 SWAP1 PUSH2 0xDE2 JUMP JUMPDEST SWAP3 POP POP DUP2 SWAP1 SSTORE POP DUP3 PUSH1 0x0 DUP1 DUP3 DUP3 SLOAD PUSH2 0x8F3 SWAP2 SWAP1 PUSH2 0xDE2 JUMP JUMPDEST SWAP3 POP POP DUP2 SWAP1 SSTORE POP POP POP POP POP JUMP JUMPDEST CALLER DUP2 DUP1 PUSH2 0x90C DUP4 PUSH2 0x554 JUMP JUMPDEST LT ISZERO PUSH2 0x94D JUMPI PUSH1 0x40 MLOAD PUSH32 0x8C379A000000000000000000000000000000000000000000000000000000000 DUP2 MSTORE PUSH1 0x4 ADD PUSH2 0x944 SWAP1 PUSH2 0xD35 JUMP JUMPDEST PUSH1 0x40 MLOAD DUP1 SWAP2 SUB SWAP1 REVERT JUMPDEST PUSH2 0x958 CALLER DUP6 DUP6 PUSH2 0xAF6 JUMP JUMPDEST DUP3 PUSH1 0x2 PUSH1 0x0 CALLER PUSH20 0xFFFFFFFFFFFFFFFFFFFFFFFFFFFFFFFFFFFFFFFF AND PUSH20 0xFFFFFFFFFFFFFFFFFFFFFFFFFFFFFFFFFFFFFFFF AND DUP2 MSTORE PUSH1 0x20 ADD SWAP1 DUP2 MSTORE PUSH1 0x20 ADD PUSH1 0x0 KECCAK256 PUSH1 0x0 DUP3 DUP3 SLOAD PUSH2 0x9A7 SWAP2 SWAP1 PUSH2 0xDE2 JUMP JUMPDEST SWAP3 POP POP DUP2 SWAP1 SSTORE POP DUP3 PUSH1 0x2 PUSH1 0x0 DUP7 PUSH20 0xFFFFFFFFFFFFFFFFFFFFFFFFFFFFFFFFFFFFFFFF AND PUSH20 0xFFFFFFFFFFFFFFFFFFFFFFFFFFFFFFFFFFFFFFFF AND DUP2 MSTORE PUSH1 0x20 ADD SWAP1 DUP2 MSTORE PUSH1 0x20 ADD PUSH1 0x0 KECCAK256 PUSH1 0x0 DUP3 DUP3 SLOAD PUSH2 0x9FD SWAP2 SWAP1 PUSH2 0xD8C JUMP JUMPDEST SWAP3 POP POP DUP2 SWAP1 SSTORE POP DUP4 PUSH20 0xFFFFFFFFFFFFFFFFFFFFFFFFFFFFFFFFFFFFFFFF AND CALLER PUSH20 0xFFFFFFFFFFFFFFFFFFFFFFFFFFFFFFFFFFFFFFFF AND PUSH32 0xDDF252AD1BE2C89B69C2B068FC378DAA952BA7F163C4A11628F55A4DF523B3EF DUP6 PUSH1 0x40 MLOAD PUSH2 0xA61 SWAP2 SWAP1 PUSH2 0xD55 JUMP JUMPDEST PUSH1 0x40 MLOAD DUP1 SWAP2 SUB SWAP1 LOG3 POP POP POP POP JUMP JUMPDEST PUSH1 0x0 PUSH1 0x3 PUSH1 0x0 DUP5 PUSH20 0xFFFFFFFFFFFFFFFFFFFFFFFFFFFFFFFFFFFFFFFF AND PUSH20 0xFFFFFFFFFFFFFFFFFFFFFFFFFFFFFFFFFFFFFFFF AND DUP2 MSTORE PUSH1 0x20 ADD SWAP1 DUP2 MSTORE PUSH1 0x20 ADD PUSH1 0x0 KECCAK256 PUSH1 0x0 DUP4 PUSH20 0xFFFFFFFFFFFFFFFFFFFFFFFFFFFFFFFFFFFFFFFF AND PUSH20 0xFFFFFFFFFFFFFFFFFFFFFFFFFFFFFFFFFFFFFFFF AND DUP2 MSTORE PUSH1 0x20 ADD SWAP1 DUP2 MSTORE PUSH1 0x20 ADD PUSH1 0x0 KECCAK256 SLOAD SWAP1 POP SWAP3 SWAP2 POP POP JUMP JUMPDEST POP POP POP JUMP JUMPDEST PUSH1 0x0 DUP2 CALLDATALOAD SWAP1 POP PUSH2 0xB0A DUP2 PUSH2 0xF7D JUMP JUMPDEST SWAP3 SWAP2 POP POP JUMP JUMPDEST PUSH1 0x0 DUP2 CALLDATALOAD SWAP1 POP PUSH2 0xB1F DUP2 PUSH2 0xF94 JUMP JUMPDEST SWAP3 SWAP2 POP POP JUMP JUMPDEST PUSH1 0x0 PUSH1 0x20 DUP3 DUP5 SUB SLT ISZERO PUSH2 0xB3B JUMPI PUSH2 0xB3A PUSH2 0xF15 JUMP JUMPDEST JUMPDEST PUSH1 0x0 PUSH2 0xB49 DUP5 DUP3 DUP6 ADD PUSH2 0xAFB JUMP JUMPDEST SWAP2 POP POP SWAP3 SWAP2 POP POP JUMP JUMPDEST PUSH1 0x0 DUP1 PUSH1 0x40 DUP4 DUP6 SUB SLT ISZERO PUSH2 0xB69 JUMPI PUSH2 0xB68 PUSH2 0xF15 JUMP JUMPDEST JUMPDEST PUSH1 0x0 PUSH2 0xB77 DUP6 DUP3 DUP7 ADD PUSH2 0xAFB JUMP JUMPDEST SWAP3 POP POP PUSH1 0x20 PUSH2 0xB88 DUP6 DUP3 DUP7 ADD PUSH2 0xAFB JUMP JUMPDEST SWAP2 POP POP SWAP3 POP SWAP3 SWAP1 POP JUMP JUMPDEST PUSH1 0x0 DUP1 PUSH1 0x0 PUSH1 0x60 DUP5 DUP7 SUB SLT ISZERO PUSH2 0xBAB JUMPI PUSH2 0xBAA PUSH2 0xF15 JUMP JUMPDEST JUMPDEST PUSH1 0x0 PUSH2 0xBB9 DUP7 DUP3 DUP8 ADD PUSH2 0xAFB JUMP JUMPDEST SWAP4 POP POP PUSH1 0x20 PUSH2 0xBCA DUP7 DUP3 DUP8 ADD PUSH2 0xAFB JUMP JUMPDEST SWAP3 POP POP PUSH1 0x40 PUSH2 0xBDB DUP7 DUP3 DUP8 ADD PUSH2 0xB10 JUMP JUMPDEST SWAP2 POP POP SWAP3 POP SWAP3 POP SWAP3 JUMP JUMPDEST PUSH1 0x0 DUP1 PUSH1 0x40 DUP4 DUP6 SUB SLT ISZERO PUSH2 0xBFC JUMPI PUSH2 0xBFB PUSH2 0xF15 JUMP JUMPDEST JUMPDEST PUSH1 0x0 PUSH2 0xC0A DUP6 DUP3 DUP7 ADD PUSH2 0xAFB JUMP JUMPDEST SWAP3 POP POP PUSH1 0x20 PUSH2 0xC1B DUP6 DUP3 DUP7 ADD PUSH2 0xB10 JUMP JUMPDEST SWAP2 POP POP SWAP3 POP SWAP3 SWAP1 POP JUMP JUMPDEST PUSH1 0x0 DUP1 PUSH1 0x40 DUP4 DUP6 SUB SLT ISZERO PUSH2 0xC3C JUMPI PUSH2 0xC3B PUSH2 0xF15 JUMP JUMPDEST JUMPDEST PUSH1 0x0 PUSH2 0xC4A DUP6 DUP3 DUP7 ADD PUSH2 0xB10 JUMP JUMPDEST SWAP3 POP POP PUSH1 0x20 PUSH2 0xC5B DUP6 DUP3 DUP7 ADD PUSH2 0xAFB JUMP JUMPDEST SWAP2 POP POP SWAP3 POP SWAP3 SWAP1 POP JUMP JUMPDEST PUSH1 0x0 PUSH2 0xC70 DUP3 PUSH2 0xD70 JUMP JUMPDEST PUSH2 0xC7A DUP2 DUP6 PUSH2 0xD7B JUMP JUMPDEST SWAP4 POP PUSH2 0xC8A DUP2 DUP6 PUSH1 0x20 DUP7 ADD PUSH2 0xE52 JUMP JUMPDEST PUSH2 0xC93 DUP2 PUSH2 0xF1A JUMP JUMPDEST DUP5 ADD SWAP2 POP POP SWAP3 SWAP2 POP POP JUMP JUMPDEST PUSH1 0x0 PUSH2 0xCAB PUSH1 0xD DUP4 PUSH2 0xD7B JUMP JUMPDEST SWAP2 POP PUSH2 0xCB6 DUP3 PUSH2 0xF2B JUMP JUMPDEST PUSH1 0x20 DUP3 ADD SWAP1 POP SWAP2 SWAP1 POP JUMP JUMPDEST PUSH1 0x0 PUSH2 0xCCE PUSH1 0x12 DUP4 PUSH2 0xD7B JUMP JUMPDEST SWAP2 POP PUSH2 0xCD9 DUP3 PUSH2 0xF54 JUMP JUMPDEST PUSH1 0x20 DUP3 ADD SWAP1 POP SWAP2 SWAP1 POP JUMP JUMPDEST PUSH2 0xCED DUP2 PUSH2 0xE48 JUMP JUMPDEST DUP3 MSTORE POP POP JUMP JUMPDEST PUSH1 0x0 PUSH1 0x20 DUP3 ADD SWAP1 POP DUP2 DUP2 SUB PUSH1 0x0 DUP4 ADD MSTORE PUSH2 0xD0D DUP2 DUP5 PUSH2 0xC65 JUMP JUMPDEST SWAP1 POP SWAP3 SWAP2 POP POP JUMP JUMPDEST PUSH1 0x0 PUSH1 0x20 DUP3 ADD SWAP1 POP DUP2 DUP2 SUB PUSH1 0x0 DUP4 ADD MSTORE PUSH2 0xD2E DUP2 PUSH2 0xC9E JUMP JUMPDEST SWAP1 POP SWAP2 SWAP1 POP JUMP JUMPDEST PUSH1 0x0 PUSH1 0x20 DUP3 ADD SWAP1 POP DUP2 DUP2 SUB PUSH1 0x0 DUP4 ADD MSTORE PUSH2 0xD4E DUP2 PUSH2 0xCC1 JUMP JUMPDEST SWAP1 POP SWAP2 SWAP1 POP JUMP JUMPDEST PUSH1 0x0 PUSH1 0x20 DUP3 ADD SWAP1 POP PUSH2 0xD6A PUSH1 0x0 DUP4 ADD DUP5 PUSH2 0xCE4 JUMP JUMPDEST SWAP3 SWAP2 POP POP JUMP JUMPDEST PUSH1 0x0 DUP2 MLOAD SWAP1 POP SWAP2 SWAP1 POP JUMP JUMPDEST PUSH1 0x0 DUP3 DUP3 MSTORE PUSH1 0x20 DUP3 ADD SWAP1 POP SWAP3 SWAP2 POP POP JUMP JUMPDEST PUSH1 0x0 PUSH2 0xD97 DUP3 PUSH2 0xE48 JUMP JUMPDEST SWAP2 POP PUSH2 0xDA2 DUP4 PUSH2 0xE48 JUMP JUMPDEST SWAP3 POP DUP3 PUSH32 0xFFFFFFFFFFFFFFFFFFFFFFFFFFFFFFFFFFFFFFFFFFFFFFFFFFFFFFFFFFFFFFFF SUB DUP3 GT ISZERO PUSH2 0xDD7 JUMPI PUSH2 0xDD6 PUSH2 0xEB7 JUMP JUMPDEST JUMPDEST DUP3 DUP3 ADD SWAP1 POP SWAP3 SWAP2 POP POP JUMP JUMPDEST PUSH1 0x0 PUSH2 0xDED DUP3 PUSH2 0xE48 JUMP JUMPDEST SWAP2 POP PUSH2 0xDF8 DUP4 PUSH2 0xE48 JUMP JUMPDEST SWAP3 POP DUP3 DUP3 LT ISZERO PUSH2 0xE0B JUMPI PUSH2 0xE0A PUSH2 0xEB7 JUMP JUMPDEST JUMPDEST DUP3 DUP3 SUB SWAP1 POP SWAP3 SWAP2 POP POP JUMP JUMPDEST PUSH1 0x0 PUSH2 0xE21 DUP3 PUSH2 0xE28 JUMP JUMPDEST SWAP1 POP SWAP2 SWAP1 POP JUMP JUMPDEST PUSH1 0x0 PUSH20 0xFFFFFFFFFFFFFFFFFFFFFFFFFFFFFFFFFFFFFFFF DUP3 AND SWAP1 POP SWAP2 SWAP1 POP JUMP JUMPDEST PUSH1 0x0 DUP2 SWAP1 POP SWAP2 SWAP1 POP JUMP JUMPDEST PUSH1 0x0 JUMPDEST DUP4 DUP2 LT ISZERO PUSH2 0xE70 JUMPI DUP1 DUP3 ADD MLOAD DUP2 DUP5 ADD MSTORE PUSH1 0x20 DUP2 ADD SWAP1 POP PUSH2 0xE55 JUMP JUMPDEST DUP4 DUP2 GT ISZERO PUSH2 0xE7F JUMPI PUSH1 0x0 DUP5 DUP5 ADD MSTORE JUMPDEST POP POP POP POP JUMP JUMPDEST PUSH1 0x0 PUSH1 0x2 DUP3 DIV SWAP1 POP PUSH1 0x1 DUP3 AND DUP1 PUSH2 0xE9D JUMPI PUSH1 0x7F DUP3 AND SWAP2 POP JUMPDEST PUSH1 0x20 DUP3 LT DUP2 EQ ISZERO PUSH2 0xEB1 JUMPI PUSH2 0xEB0 PUSH2 0xEE6 JUMP JUMPDEST JUMPDEST POP SWAP2 SWAP1 POP JUMP JUMPDEST PUSH32 0x4E487B7100000000000000000000000000000000000000000000000000000000 PUSH1 0x0 MSTORE PUSH1 0x11 PUSH1 0x4 MSTORE PUSH1 0x24 PUSH1 0x0 REVERT JUMPDEST PUSH32 0x4E487B7100000000000000000000000000000000000000000000000000000000 PUSH1 0x0 MSTORE PUSH1 0x22 PUSH1 0x4 MSTORE PUSH1 0x24 PUSH1 0x0 REVERT JUMPDEST PUSH1 0x0 DUP1 REVERT JUMPDEST PUSH1 0x0 PUSH1 0x1F NOT PUSH1 0x1F DUP4 ADD AND SWAP1 POP SWAP2 SWAP1 POP JUMP JUMPDEST PUSH32 0x6E6F7420616E206F776E65722100000000000000000000000000000000000000 PUSH1 0x0 DUP3 ADD MSTORE POP JUMP JUMPDEST PUSH32 0x6E6F7420656E6F75676820746F6B656E73210000000000000000000000000000 PUSH1 0x0 DUP3 ADD MSTORE POP JUMP JUMPDEST PUSH2 0xF86 DUP2 PUSH2 0xE16 JUMP JUMPDEST DUP2 EQ PUSH2 0xF91 JUMPI PUSH1 0x0 DUP1 REVERT JUMPDEST POP JUMP JUMPDEST PUSH2 0xF9D DUP2 PUSH2 0xE48 JUMP JUMPDEST DUP2 EQ PUSH2 0xFA8 JUMPI PUSH1 0x0 DUP1 REVERT JUMPDEST POP JUMP INVALID LOG2 PUSH5 0x6970667358 0x22 SLT KECCAK256 PUSH1 0xA PUSH18 0x113167923DF713F4949A6362ED7C25E4E025 NOT 0x1F EQ SHR RETURNDATASIZE SWAP14 CALLDATALOAD PUSH28 0x2D3BAC64736F6C634300080700330000000000000000000000000000 "
				},
				"gasEstimates": {
					"creation": {
						"codeDepositCost": "813000",
						"executionCost": "infinite",
						"totalCost": "infinite"
					},
					"external": {
						"allowance(address,address)": "infinite",
						"approve(address,uint256)": "infinite",
						"balanceOf(address)": "2841",
						"burn(address,uint256)": "infinite",
						"decimals()": "426",
						"mint(uint256,address)": "infinite",
						"name()": "infinite",
						"symbol()": "infinite",
						"totalSupply()": "2482",
						"transfer(address,uint256)": "infinite",
						"transferFrom(address,address,uint256)": "infinite"
					},
					"internal": {
						"_beforeTokenTransfer(address,address,uint256)": "15"
					}
				},
				"methodIdentifiers": {
					"allowance(address,address)": "dd62ed3e",
					"approve(address,uint256)": "095ea7b3",
					"balanceOf(address)": "70a08231",
					"burn(address,uint256)": "9dc29fac",
					"decimals()": "313ce567",
					"mint(uint256,address)": "94bf804d",
					"name()": "06fdde03",
					"symbol()": "95d89b41",
					"totalSupply()": "18160ddd",
					"transfer(address,uint256)": "a9059cbb",
					"transferFrom(address,address,uint256)": "23b872dd"
				}
			},
			"storageLayout": {
				"storage": [
					{
						"astId": 6,
						"contract": "contracts/ERC20.sol:ERC20",
						"label": "totalTokens",
						"offset": 0,
						"slot": "0",
						"type": "t_uint256"
					},
					{
						"astId": 8,
						"contract": "contracts/ERC20.sol:ERC20",
						"label": "owner",
						"offset": 0,
						"slot": "1",
						"type": "t_address"
					},
					{
						"astId": 12,
						"contract": "contracts/ERC20.sol:ERC20",
						"label": "balances",
						"offset": 0,
						"slot": "2",
						"type": "t_mapping(t_address,t_uint256)"
					},
					{
						"astId": 18,
						"contract": "contracts/ERC20.sol:ERC20",
						"label": "allowances",
						"offset": 0,
						"slot": "3",
						"type": "t_mapping(t_address,t_mapping(t_address,t_uint256))"
					},
					{
						"astId": 20,
						"contract": "contracts/ERC20.sol:ERC20",
						"label": "_name",
						"offset": 0,
						"slot": "4",
						"type": "t_string_storage"
					},
					{
						"astId": 22,
						"contract": "contracts/ERC20.sol:ERC20",
						"label": "_symbol",
						"offset": 0,
						"slot": "5",
						"type": "t_string_storage"
					}
				],
				"types": {
					"t_address": {
						"encoding": "inplace",
						"label": "address",
						"numberOfBytes": "20"
					},
					"t_mapping(t_address,t_mapping(t_address,t_uint256))": {
						"encoding": "mapping",
						"key": "t_address",
						"label": "mapping(address => mapping(address => uint256))",
						"numberOfBytes": "32",
						"value": "t_mapping(t_address,t_uint256)"
					},
					"t_mapping(t_address,t_uint256)": {
						"encoding": "mapping",
						"key": "t_address",
						"label": "mapping(address => uint256)",
						"numberOfBytes": "32",
						"value": "t_uint256"
					},
					"t_string_storage": {
						"encoding": "bytes",
						"label": "string",
						"numberOfBytes": "32"
					},
					"t_uint256": {
						"encoding": "inplace",
						"label": "uint256",
						"numberOfBytes": "32"
					}
				}
			},
			"userdoc": {
				"kind": "user",
				"methods": {},
				"version": 1
			}
		}
	}
}